:020000040800F2
:10000000004001209D250008E5250008E5250008A1
:10001000E5250008E5250008E525000800000000AA
:10002000000000000000000000000000E5250008BE
:10003000E525000800000000E5250008E52500088A
:10004000E5250008E5250008E5250008E525000868
:10005000E5250008E5250008E5250008E525000858
:10006000E5250008E5250008E5250008E525000848
:10007000E5250008E5250008E5250008E525000838
:10008000E5250008E525000809070008E525000822
:10009000E5250008E5250008E5250008E525000818
:1000A000E5250008E5250008E5250008E525000808
:1000B000E5250008E5250008E5250008E5250008F8
:1000C000E5250008E5250008E5250008E5250008E8
:1000D000E5250008A1090008E5250008E525000838
:1000E000E5250008E5250008E5250008E5250008C8
:1000F000E525000800000000E5250008E5250008CA
:10010000E5250008E5250008E5250008E5250008A7
:10011000E5250008E5250008E5250008E525000897
:10012000E5250008000000000000000000000000BD
:0C01300000000000000000005FF808F173
:1001400010B5054C237833B9044B13B10448AFF311
:1001500000800123237010BD58040020000000001F
:100160005C290008084B10B51BB108480849AFF3DB
:1001700000800848036803B910BD074B002BFBD073
:10018000BDE81040184700BF000000005C290008CF
:100190005C0400205404002000000000154B002BDC
:1001A00008BF134B9D46A3F5803A00218B460F46AE
:1001B0001348144A121A02F04FFA0F4B002B00D0CA
:1001C00098470E4B002B00D09847002000210400D8
:1001D0000D000D48002802D00C4802F0FFFA02F092
:1001E00013FA2000290000F013F802F0FDF900BF17
:1001F00000000800000000000000000000000000F7
:1002000058040020800C0020DD270008E9270008A2
:1002100080B500AF00F0CAFB80BD00BF80B500AF65
:10022000144A144B1B6843F4807313601149114B3B
:100230009A68114B13408B600E4A0E4B1B6823F0DB
:10024000885323F0011313600A4A0A4B1B6823F4F6
:1002500080231360074A074B9B6823F47D03936058
:10026000044B0022DA6000F0B7F8044B4FF0006254
:100270009A6080BD003802400CC0FF8800ED00E0AD
:1002800080B487B000AF00237B6100233B61002373
:10029000FB600023BB6000237B60494B9B6803F03D
:1002A0000C037B617B690C2B64D801A252F823F00C
:1002B000E5020008750300087503000875030008CF
:1002C000050300087503000875030008750300089E
:1002D0000D03000875030008750300087503000886
:1002E00015030008364B5B6803F460435B0B7B60CF
:1002F0007B6801331A464FF4004393401A46314B52
:100300001A6047E02F4B304A1A6043E02D4B2F4ACA
:100310001A603FE02A4B9B6803F470133B61284B43
:100320009B6803F44003FB603B699B0C284AD35C49
:10033000DBB23B61FB689B0D0133FB60204B9B688C
:1003400003F48033BB60BB68002B09D13B691E4AB4
:1003500002FB03F2FB68B2FBF3F31A4A136019E0E5
:100360003B691A4A02FB03F2FB68B2FBF3F3154A3E
:1003700013600FE0124B5B6803F460435B0B7B6020
:100380007B6801331A464FF4004393401A460D4BE5
:100390001A6000BF0A4B9B6803F0F0031B090D4A6B
:1003A000D35CDBB27B61074B1A687B6922FA03F3EB
:1003B000044A13601C37BD465DF8047B704700BFDC
:1003C00000380240040000200024F40000127A00EB
:1003D000080000201400002080B483B000AF002388
:1003E0007B6000233B60404A3F4B1B6843F00103A6
:1003F00013603D4B1B6803F002033B603B68002B1E
:1004000003D17B68B3F5A04FF3D1374B1B6803F0E2
:100410000203002B02D001233B6001E000233B607C
:100420003B68012B5AD1314A304B1B6843F004031F
:1004300013602E4A2D4B1B6843F0020313602B4AB6
:100440002A4B1B6843F001031360274A264B5B6A63
:1004500043F080535362264B4FF400621A6000BF92
:10046000234B5B6803F01003002BF9D11E4A1E4B8F
:100470009B6893601C4A1C4B9B6893601A4A1A4BFA
:100480009B689360184A184B9B6823F47D03936024
:10049000154A154B9B6843F488039360124A124B2C
:1004A0001B6843F08073136000BF0F4B1B6803F0A1
:1004B0000073002BF9D00C4A0B4B9B6823F003030D
:1004C0009360094A084B9B6843F00303936000BFA5
:1004D000054B9B6803F00C030C2BF9D10C37BD4680
:1004E0005DF8047B704700BF00380240003C0240CA
:1004F00000700040B02C00080000002054040020D0
:1005000058040020800C002080B500AF234A234B04
:10051000DB6943F00103D361204A204B1B6A43F49B
:10052000007313621E4A1E4B1B6843F030031360B6
:100530001B4A1B4B9B6843F030039360194A194BCD
:100540001B6843F480231360164B164A92F812235B
:10055000D2B283F81223144A134B5B6843F402634C
:100560005360114A104B5B6943F4E07353610E4AC8
:100570000D4B1B6C43F0020313640B4A0A4B9B6840
:1005800043F4806343F00103936000BF402000F018
:1005900095F80346002BF9D080BD00BF003802401B
:1005A0000000024000E100E00024014080B584B07A
:1005B00000AF0346FB80B7F90630184601F024FF70
:1005C0000346184601F008FB02460B461046194642
:1005D0004FF000022C4B01F07DFC02460B4610460A
:1005E000194625A3D3E9002301F04AFB02460B4636
:1005F0001046194601F0FEFD0346FB60F8682349EA
:1006000001F0C2FF0346002B01D064232DE0F868FF
:1006100001F0E2FA02460B461046194618A3D3E948
:10062000002301F09FFD0346002B01D000231CE0B6
:10063000F86801F0D1FA02460B46104619464FF011
:100640000002134B01F046FC02460B4610461946C9
:100650004FF000020F4B01F013FB02460B46104611
:10066000194601F0A7FD0346DBB218461037BD4618
:1006700080BD00BFAFF300806666666666660A40AE
:100680009A999999999903400000B0400000404020
:10069000000008400000594080B500AF05E0064A60
:1006A000054B9B6843F080439360022000F006F8FE
:1006B0000346002BF3D080BD0024014080B483B0FA
:1006C00000AF0346FB80074B1A68FB881340002BE2
:1006D00001D1002300E0012318460C37BD465DF828
:1006E000047B70470024014080B483B000AF034610
:1006F000FB80044AFB88DB4313600C37BD465DF882
:10070000047B70470024014080B500AF074B9B6D10
:100710009BB21BB21846FFF749FF03461A46044B2B
:100720001A700220FFF7E0FF80BD00BF00240140E7
:10073000740C00200000000080B500AF4FF416508C
:1007400000F016F8074800F0D7F84FF4E13000F059
:100750000FF8054800F0D0F8044800F0CDF800F09C
:100760000FF980BD78290008842900089029000825
:1007700080B586B000AF78604FF000024FF0000304
:10078000C7E904230023FB600023FB724C4A4C4B57
:10079000DB6943F00103D361494A494B1B6A43F4C7
:1007A00080431362474A474B1B6843F4201313608E
:1007B000444A444B9B6843F420139360414A414BA5
:1007C000DB6843F4A013D3603E4A3E4B5B6A43F4BC
:1007D000EE6353623C4A3C4B5B6843F0200353603A
:1007E000394B394A92F82523D2B283F82523374969
:1007F000364B9B899AB2364B13439BB28B817B68F5
:10080000DB00184601F0C6F902460B462AA1D1E9E1
:10081000000101F05FFB02460B46C7E90423D7E95C
:10082000040101F0C7FC03469BB2184601F0C2F96F
:1008300002460B46D7E9040101F06EF802460B466A
:10084000104619464FF00002224B01F019FA0246F9
:100850000B461046194602F031F802460B46104688
:10086000194601F0A7FC0346FB72FB7ADB08DBB2FA
:10087000184601F09FF902460B4610461946D7E983
:10088000042301F04BF802460B461046194601F0CE
:1008900091FC0346FB600D49FB689BB21B019AB2B9
:1008A000FB7A9BB203F007039BB213439BB20B810D
:1008B0001837BD4680BD00BF0000000080847E4127
:1008C000003802400000024000E100E00038014032
:1008D0000CA0FFFF0000204080B483B000AF0346AF
:1008E000FB71044BFA7992B29A800C37BD465DF8E1
:1008F000047B70470038014080B582B000AF78605B
:100900000DE000BF802000F011F80346002BF9D065
:100910007B685A1C7A601B781846FFF7DDFF7B68FE
:100920001B78002BEDD10837BD4680BD80B483B065
:1009300000AF0346FB80084B1B889AB2FB8813402C
:100940009BB2002B01D1002300E0012318460C3795
:10095000BD465DF8047B70470038014080B483B029
:1009600000AF0346FB80054AFB88DB439BB2138044
:100970000C37BD465DF8047B704700BF003801406E
:1009800080B400AF054A054B9B899BB243F020031E
:100990009BB29381BD465DF8047B704700380140EF
:1009A00080B500AF2020FFF7D9FF80BD90B583B0A0
:1009B00000AF00F027F800F09DF800F017F91620BE
:1009C00000F0B8F900F09EFA00F05CFA00F01AFAB4
:1009D00017200B210F2200F0D5FA094C3B46184690
:1009E00000F08CF922463B4693E8030082E80300BE
:1009F000034B93E8030000F0A9F80C37BD4690BD07
:100A0000780C002080B400AF344A344BDB6943F0EB
:100A10000503D361314A314B5B6A43F002035362F1
:100A20002E4A2E4B1B6A43F4805313622C4A2C4BE4
:100A30001B6843F480731360294A294B9B6843F475
:100A400000739360274A274B1B6843F429431360C4
:100A5000244A244B9B6843F42A439360214A214B48
:100A60001B6A43F0A44343F4A00313621E4B80228D
:100A70001A851D4B40F61602DA621B4A1A4B9B8AF6
:100A80009BB243F001039BB29382174A164B1B8B18
:100A90009BB243F030039BB21383134A124B1B8C5F
:100AA0009BB243F001039BB213840F4B40F6160236
:100AB0005A630E490D4B1B889AB20D4B13439BB2E0
:100AC0000B800A4A094B1B889BB243F040039BB240
:100AD0001380BD465DF8047B704700BF00380240BC
:100AE00000080240000002400004004000300140C5
:100AF00024C3FFFF80B400AF094A094B9B8A9BB215
:100B000043F010039BB29382064A064B1B889BB2AC
:100B100043F001039BB21380BD465DF8047B704730
:100B2000000802400004004080B400AF054B4FF6BF
:100B3000EF729A82044B4FF6FE721A80BD465DF842
:100B4000047B7047000802400004004080B584B078
:100B500000AF3B4683E8030000F086F8802000F0F9
:100B60009FF80123FB812CE0FB89DBB2184600F0E3
:100B700055F80346184600F093F800237B7313E002
:100B80007B68B7F90E20013A398809B201FB02F1FE
:100B90007A7B0A4413441B78DB43DBB2184600F02F
:100BA0007FF87B7B01337B737A7B3B881BB29A4255
:100BB000E6DB002000F074F8FB899BB201339BB2A6
:100BC000FB817B88B7F90E201BB29A42CCDD002056
:100BD00000F066F800BF802000F078F80346002B94
:100BE000F9D100F051F81037BD4680BD80B500AF97
:100BF00000F03AF8202000F053F8002000F050F800
:100C0000002000F04DF800BF802000F05FF80346A0
:100C1000002BF9D100F038F880BD00BF80B483B05C
:100C200000AF0346FB71FA7913469B0213445B0045
:100C30000B4A1A40F9790B469B020B445B0119469B
:100C4000084B0B401A4313461B0213441B02134468
:100C50001B0CDBB218460C37BD465DF8047B7047B1
:100C6000102102004084080080B400AF054A054B03
:100C70009B8A9BB243F010039BB29382BD465DF802
:100C8000047B70470000024080B400AF034B4FF676
:100C9000EF729A82BD465DF8047B70470000024007
:100CA00080B582B000AF0346FB7100BF022000F0A8
:100CB0000DF80346002BF9D0034BFA7992B29A81D2
:100CC0000837BD4680BD00BF0030014080B483B00E
:100CD00000AF0346FB80084B1B899AB2FB88134088
:100CE0009BB2002B01D1002300E0012318460C37F2
:100CF000BD465DF8047B70470030014080B485B08C
:100D000000AF78600A4A07F1080392E8030083E81D
:100D100003007B681A4607F1080393E8030082E8A2
:100D2000030078681437BD465DF8047B704700BF48
:100D3000A429000880B58AB000AF0346FB736C237A
:100D4000BB830323FB83FB7B092B0BD83B46184655
:100D500000F0AEFB07F120033A4692E8030083E877
:100D6000030040E0FB7B092B0ED9FB7B192B0BD832
:100D70003B46184600F0B8FB07F120033A4692E8DC
:100D8000030083E803002EE0FB7B192B0ED9FB7BCD
:100D9000322B0BD83B46184600F0C2FB07F120036C
:100DA0003A4692E8030083E803001CE0FB7B322B09
:100DB0000ED9FB7B4B2B0BD83B46184600F0CCFBE7
:100DC00007F120033A4692E8030083E803000AE0B3
:100DD0003B46184600F0DCFB07F120033A4692E858
:100DE000030083E8030001233B7507F11C03BB618B
:100DF00007F1140393E8030000F080FA2837BD469A
:100E000080BD00BF80B588B000AF0423BB82032340
:100E1000FB823B46184600F0D7FB07F118033A4621
:100E200092E8030083E8030001233B7307F11403F6
:100E30003B6107F10C0393E8030000F05FFA2037F1
:100E4000BD4680BD80B588B000AF1823BB820323A8
:100E5000FB823B46184600F00BFC07F118033A46AC
:100E600092E8030083E8030001233B7307F11403B6
:100E70003B6107F10C0393E8030000F03FFA2037D1
:100E8000BD4680BD80B588B000AF1823BB82032368
:100E9000FB823B46184600F0B3FB07F118033A46C5
:100EA00092E8030083E8030001233B7307F1140376
:100EB0003B6107F10C0393E8030000F01FFA2037B1
:100EC000BD4680BD80B588B000AF1823BB82032328
:100ED000FB823B46184600F0CBFB07F118033A466D
:100EE00092E8030083E8030001233B7307F1140336
:100EF0003B6107F10C0393E8030000F0FFF9203792
:100F0000BD4680BD80B588B000AF2C23BB820323D3
:100F1000FB823B46184600F08FFB07F118033A4668
:100F200092E8030083E8030001233B7307F11403F5
:100F30003B6107F10C0393E8030000F0DFF9203771
:100F4000BD4680BD80B588B000AF2C23BB82032393
:100F5000FB823B46184600F08BFB07F118033A462C
:100F600092E8030083E8030001233B7307F11403B5
:100F70003B6107F10C0393E8030000F0BFF9203751
:100F8000BD4680BD90B5A1B000AF0346FB730B46D4
:100F9000BB7313467B73012387F87D30002387F8EA
:100FA0007F3095E197F87F2097F87D3099B213460E
:100FB0005B0013449B0007F180021344643B0A4624
:100FC0001A8097F87F2013465B0013449B0007F1BB
:100FD00080021344643B1E225A8097F87F30002B16
:100FE00003D097F87F30012B18D197F87F30002B72
:100FF00006D1FB7BC04AA2FB0323DB08DBB20AE07D
:10100000FA7BBD4BA3FB0213D9080B469B000B4494
:101010005B00D31ADBB287F87E3057E097F87F3059
:10102000032B03D097F87F30042B18D197F87F302B
:10103000032B06D1BB7BB04AA2FB0323DB08DBB248
:101040000AE0BA7BAC4BA3FB0213D9080B469B000A
:101050000B445B00D31ADBB287F87E3036E097F89A
:101060007F30062B03D097F87F30072B18D197F8E5
:101070007F30062B06D17B7B9F4AA2FB0323DB0834
:10108000DBB20AE07A7B9C4BA3FB0213D9080B4628
:101090009B000B445B00D31ADBB287F87E3015E06F
:1010A00097F87F2013465B0013449B0007F18002F2
:1010B0001344A3F164043B46184600F00DFC231DC5
:1010C0003A4692E8030083E80300F7E097F87E30A1
:1010D000092B00F2F38001A252F823F00511000859
:1010E000311100085D11000889110008B5110008D0
:1010F000E11100080D1200083912000865120008FD
:101100009112000897F87F2013465B0013449B0060
:1011100007F180021344A3F164043B46184600F033
:10112000C3FA231D3A4692E8030083E80300C5E0B2
:1011300097F87F2013465B0013449B0007F1800261
:101140001344A3F164043B46184600F0C9FA231D7A
:101150003A4692E8030083E80300AFE097F87F2067
:1011600013465B0013449B0007F180021344A3F174
:1011700064043B46184600F0CFFA231D3A4692E835
:10118000030083E8030099E097F87F2013465B0093
:1011900013449B0007F180021344A3F164043B460F
:1011A000184600F0D5FA231D3A4692E8030083E87A
:1011B000030083E097F87F2013465B0013449B00F5
:1011C00007F180021344A3F164043B46184600F083
:1011D000DBFA231D3A4692E8030083E803006DE042
:1011E00097F87F2013465B0013449B0007F18002B1
:1011F0001344A3F164043B46184600F0E1FA231DB2
:101200003A4692E8030083E8030057E097F87F200E
:1012100013465B0013449B0007F180021344A3F1C3
:1012200064043B46184600F0E7FA231D3A4692E86C
:10123000030083E8030041E097F87F2013465B003A
:1012400013449B0007F180021344A3F164043B465E
:10125000184600F0EDFA231D3A4692E8030083E8B1
:1012600003002BE097F87F2013465B0013449B009C
:1012700007F180021344A3F164043B46184600F0D2
:10128000F3FA231D3A4692E8030083E8030015E0D1
:1012900097F87F2013465B0013449B0007F1800200
:1012A0001344A3F164043B46184600F0F9FA231DE9
:1012B0003A4692E8030083E8030000BF97F87F30C6
:1012C000013387F87F3097F87D30103387F87D3011
:1012D00097F87F30072B7FF665AE08233B7507F143
:1012E0001C03BB6107F1140393E8030000F006F848
:1012F0008437BD4690BD00BFCDCCCCCCB0B58AB054
:1013000000AF3B4683E80300002387F8273086E0E0
:10131000796897F8272013465B0013449B00CA188E
:1013200007F1140307CA83E8070007F10C0307F16C
:10133000180292E8030083E80300FB8A3B84BB8A1F
:101340007B840023BB845BE0B7F92030DA01B7F976
:1013500022301344002B00DA0733DB101A46344BDB
:10136000D518B7F92220334B1340002B03DA013B89
:1013700063F0070301339BB2DBB2C3F10703DCB2B6
:101380003A69B7F92430002B00DA0733DB109BB23F
:101390001BB213441978B7F92420264B1340002BB5
:1013A00003DA013B63F0070301339BB2DBB2C3F105
:1013B0000703DBB20846194600F03EF8034628460C
:1013C00021461A4600F04EF8B7F92220BB8A19B21E
:1013D000BB891BB20B44013B9A4207D13B8C9BB2A9
:1013E00001339BB23B84BB8A7B8404E07B8C9BB241
:1013F00001339BB27B84BB8C9BB201339BB2BB8419
:10140000B7F92420BB891BB2F98909B201FB03F3A8
:101410009A4299DB97F82730013387F827303B78D9
:1014200097F827209A42FFF473AF2837BD46B0BD26
:10143000740400200700008080B483B000AF03462E
:101440000A46FB711346BB71FA79BB7942FA03F382
:10145000DBB203F00103DBB218460C37BD465DF882
:10146000047B704780B483B000AF78600B46FB709C
:101470001346BB707B681B78D9B2FB78012202FA55
:1014800003F3DBB2DB43DBB20A461340D9B2BA78CE
:10149000FB7802FA03F3DBB20A461343DBB2DAB29B
:1014A0007B681A700C37BD465DF8047B704700BF3F
:1014B00080B485B000AF78600A4A07F1080392E86B
:1014C000030083E803007B681A4607F1080393E8EA
:1014D000030082E8030078681437BD465DF8047B9A
:1014E000704700BFF42B000880B485B000AF78606F
:1014F0000A4A07F1080392E8030083E803007B68C7
:101500001A4607F1080393E8030082E803007868AD
:101510001437BD465DF8047B704700BFFC2B000804
:1015200080B485B000AF78600A4A07F1080392E8FA
:10153000030083E803007B681A4607F1080393E879
:10154000030082E8030078681437BD465DF8047B29
:10155000704700BF042C000880B485B000AF7860ED
:101560000A4A07F1080392E8030083E803007B6856
:101570001A4607F1080393E8030082E8030078683D
:101580001437BD465DF8047B704700BF0C2C000883
:1015900080B485B000AF78600A4A07F1080392E88A
:1015A000030083E803007B681A4607F1080393E809
:1015B000030082E8030078681437BD465DF8047BB9
:1015C000704700BF142C000880B485B000AF78606D
:1015D0000A4A07F1080392E8030083E803007B68E6
:1015E0001A4607F1080393E8030082E803007868CD
:1015F0001437BD465DF8047B704700BF1C2C000803
:1016000080B485B000AF78600A4A07F1080392E819
:10161000030083E803007B681A4607F1080393E898
:10162000030082E8030078681437BD465DF8047B48
:10163000704700BF242C000880B485B000AF7860EC
:101640000A4A07F1080392E8030083E803007B6875
:101650001A4607F1080393E8030082E8030078685C
:101660001437BD465DF8047B704700BF2C2C000882
:1016700080B485B000AF78600A4A07F1080392E8A9
:10168000030083E803007B681A4607F1080393E828
:10169000030082E8030078681437BD465DF8047BD8
:1016A000704700BF342C000880B485B000AF78606C
:1016B0000A4A07F1080392E8030083E803007B6805
:1016C0001A4607F1080393E8030082E803007868EC
:1016D0001437BD465DF8047B704700BF3C2C000802
:1016E00080B485B000AF78600A4A07F1080392E839
:1016F000030083E803007B681A4607F1080393E8B8
:10170000030082E8030078681437BD465DF8047B67
:10171000704700BF442C000880B485B000AF7860EB
:101720000A4A07F1080392E8030083E803007B6894
:101730001A4607F1080393E8030082E8030078687B
:101740001437BD465DF8047B704700BF4C2C000881
:1017500080B485B000AF78600A4A07F1080392E8C8
:10176000030083E803007B681A4607F1080393E847
:10177000030082E8030078681437BD465DF8047BF7
:10178000704700BF542C000880B485B000AF78606B
:101790000A4A07F1080392E8030083E803007B6824
:1017A0001A4607F1080393E8030082E8030078680B
:1017B0001437BD465DF8047B704700BF5C2C000801
:1017C00080B485B000AF78600A4A07F1080392E858
:1017D000030083E803007B681A4607F1080393E8D7
:1017E000030082E8030078681437BD465DF8047B87
:1017F000704700BF642C000880B485B000AF7860EB
:101800000A4A07F1080392E8030083E803007B68B3
:101810001A4607F1080393E8030082E8030078689A
:101820001437BD465DF8047B704700BF6C2C000880
:1018300080B485B000AF78600A4A07F1080392E8E7
:10184000030083E803007B681A4607F1080393E866
:10185000030082E8030078681437BD465DF8047B16
:10186000704700BF742C000880B485B000AF78606A
:101870000A4A07F1080392E8030083E803007B6843
:101880001A4607F1080393E8030082E8030078682A
:101890001437BD465DF8047B704700BF7C2C000800
:1018A00080B485B000AF78600A4A07F1080392E877
:1018B000030083E803007B681A4607F1080393E8F6
:1018C000030082E8030078681437BD465DF8047BA6
:1018D000704700BF842C000880B485B000AF7860EA
:1018E0000A4A07F1080392E8030083E803007B68D3
:1018F0001A4607F1080393E8030082E803007868BA
:101900001437BD465DF8047B704700BF8C2C00087F
:1019100081F0004102E000BF83F0004330B54FEAA0
:1019200041044FEA430594EA050F08BF90EA020F0D
:101930001FBF54EA000C55EA020C7FEA645C7FEAA0
:10194000655C00F0E2804FEA5454D4EB5555B8BFC3
:101950006D420CDD2C4480EA020281EA030382EA34
:10196000000083EA010180EA020281EA0303362DC6
:1019700088BF30BD11F0004F4FEA01314FF4801C99
:101980004CEA113102D0404261EB410113F0004FAB
:101990004FEA03334CEA133302D0524263EB430362
:1019A00094EA050F00F0A780A4F10104D5F1200E00
:1019B0000DDB02FA0EFC22FA05F2801841F100015B
:1019C00003FA0EF2801843FA05F359410EE0A5F12F
:1019D00020050EF1200E012A03FA0EFC28BF4CF060
:1019E000020C43FA05F3C01851EBE37101F0004516
:1019F00007D54FF0000EDCF1000C7EEB00006EEB23
:101A00000101B1F5801F1BD3B1F5001F0CD34908AC
:101A10005FEA30004FEA3C0C04F101044FEA445203
:101A200012F5800F80F09A80BCF1004F08BF5FEA8A
:101A3000500C50F1000041EB045141EA050130BD6A
:101A40005FEA4C0C404141EB010111F4801FA4F10D
:101A50000104E9D191F0000F04BF01460020B1FA62
:101A600081F308BF2033A3F10B03B3F120020CDA9A
:101A70000C3208DD02F1140CC2F10C0201FA0CF078
:101A800021FA02F10CE002F11402D8BFC2F1200CDD
:101A900001FA02F120FA0CFCDCBF41EA0C01904093
:101AA000E41AA2BF01EB0451294330BD6FEA0404DC
:101AB0001F3C1CDA0C340EDC04F11404C4F12002C7
:101AC00020FA04F001FA02F340EA030021FA04F3D9
:101AD00045EA030130BDC4F10C04C4F1200220FA30
:101AE00002F001FA04F340EA0300294630BD21FA6E
:101AF00004F0294630BD94F0000F83F4801306BF34
:101B000081F480110134013D4EE77FEA645C18BF27
:101B10007FEA655C29D094EA050F08BF90EA020FBE
:101B200005D054EA000C04BF1946104630BD91EAB6
:101B3000030F1EBF0021002030BD5FEA545C05D1B9
:101B40004000494128BF41F0004130BD14F58004F8
:101B50003CBF01F5801130BD01F0004545F0FE416C
:101B600041F470014FF0000030BD7FEA645C1ABFA1
:101B7000194610467FEA655C1CBF0B46024650EAD8
:101B8000013406BF52EA033591EA030F41F4002104
:101B900030BD00BF90F0000F04BF0021704730B58A
:101BA0004FF4806404F132044FF000054FF000015F
:101BB00050E700BF90F0000F04BF0021704730B520
:101BC0004FF4806404F1320410F0004548BF4042F5
:101BD0004FF000013EE700BF42004FEAE2014FEA4A
:101BE00031014FEA02701FBF12F07F4393F07F4F25
:101BF00081F06051704792F0000F14BF93F07F4F57
:101C0000704730B54FF4607401F0004521F0004199
:101C100020E700BF50EA010208BF704730B54FF01F
:101C200000050AE050EA010208BF704730B511F024
:101C3000004502D5404261EB41014FF4806404F15C
:101C400032045FEA915C3FF4DCAE4FF003025FEADE
:101C5000DC0C18BF03325FEADC0C18BF033202EB66
:101C6000DC02C2F1200300FA03FC20FA02F001FAC0
:101C700003FE40EA0E0021FA02F11444C1E600BF5F
:101C800070B54FF0FF0C4CF4E06C1CEA11541DBF12
:101C90001CEA135594EA0C0F95EA0C0F00F0DEF8DD
:101CA0002C4481EA030621EA4C5123EA4C5350EAC2
:101CB000013518BF52EA033541F4801143F4801313
:101CC00038D0A0FB02CE4FF00005E1FB02E506F0A4
:101CD0000042E0FB03E54FF00006E1FB03569CF0F9
:101CE000000F18BF4EF0010EA4F1FF04B6F5007FFF
:101CF00064F5407404D25FEA4E0E6D4146EB060671
:101D000042EAC62141EA55514FEAC52040EA5E50F9
:101D10004FEACE2EB4F1FD0C88BFBCF5E06F1ED8A3
:101D2000BEF1004F08BF5FEA500E50F1000041EBDA
:101D3000045170BD06F0004646EA010140EA020087
:101D400081EA0301B4EB5C04C2BFD4EB0C0541EAA9
:101D5000045170BD41F480114FF0000E013C00F3BE
:101D6000AB8014F1360FDEBF002001F0004170BDE2
:101D7000C4F10004203C35DA0C341BDC04F11404FB
:101D8000C4F1200500FA05F320FA04F001FA05F287
:101D900040EA020001F0004221F0004110EBD37054
:101DA00021FA04F642EB06015EEA430E08BF20EA80
:101DB000D37070BDC4F10C04C4F1200500FA04F323
:101DC00020FA05F001FA04F240EA020001F00041B5
:101DD00010EBD37041F100015EEA430E08BF20EA28
:101DE000D37070BDC4F1200500FA05F24EEA020E70
:101DF00020FA04F301FA05F243EA020321FA04F09F
:101E000001F0004121FA04F220EA020000EBD37055
:101E10005EEA430E08BF20EAD37070BD94F0000F55
:101E20000FD101F00046400041EB010111F4801F89
:101E300008BF013CF7D041EA060195F0000F18BF3A
:101E4000704703F00046520043EB030313F4801F76
:101E500008BF013DF7D043EA0603704794EA0C0F30
:101E60000CEA135518BF95EA0C0F0CD050EA410646
:101E700018BF52EA4306D1D181EA030101F00041C3
:101E80004FF0000070BD50EA410606BF10461946EB
:101E900052EA430619D094EA0C0F02D150EA0136F7
:101EA00013D195EA0C0F05D152EA03361CBF104638
:101EB00019460AD181EA030101F0004141F0FE41D7
:101EC00041F470014FF0000070BD41F0FE4141F45B
:101ED000780170BD70B54FF0FF0C4CF4E06C1CEA5B
:101EE00011541DBF1CEA135594EA0C0F95EA0C0F10
:101EF00000F0A7F8A4EB050481EA030E52EA0335CB
:101F00004FEA013100F088804FEA03334FF08055EB
:101F100045EA131343EA12634FEA022245EA111518
:101F200045EA10654FEA00260EF000419D4208BFC9
:101F3000964244F1FD0404F5407402D25B084FEA76
:101F40003202B61A65EB03055B084FEA32024FF422
:101F500080104FF4002CB6EB020E75EB030E22BF7F
:101F6000B61A754640EA0C005B084FEA3202B6EB3F
:101F7000020E75EB030E22BFB61A754640EA5C00EE
:101F80005B084FEA3202B6EB020E75EB030E22BF7E
:101F9000B61A754640EA9C005B084FEA3202B6EB7F
:101FA000020E75EB030E22BFB61A754640EADC003E
:101FB00055EA060E18D04FEA051545EA16754FEAA0
:101FC00006164FEAC30343EA52734FEAC2025FEABE
:101FD0001C1CC0D111F4801F0BD141EA00014FF04D
:101FE00000004FF0004CB6E711F4801F04BF01431E
:101FF0000020B4F1FD0C88BFBCF5E06F3FF6AFAE3A
:10200000B5EB030C04BFB6EB020C5FEA500C50F1C9
:10201000000041EB045170BD0EF0004E4EEA11314C
:1020200014EB5C04C2BFD4EB0C0541EA045170BD53
:1020300041F480114FF0000E013C90E645EA060E97
:102040008DE60CEA135594EA0C0F08BF95EA0C0FC5
:102050003FF43BAF94EA0C0F0AD150EA01347FF40D
:1020600034AF95EA0C0F7FF425AF104619462CE7E4
:1020700095EA0C0F06D152EA03353FF4FDAE104647
:10208000194622E750EA410618BF52EA43067FF498
:10209000C5AE50EA41047FF40DAF52EA43057FF428
:1020A000EBAE12E74FF0FF3C06E000BF4FF0010C33
:1020B00002E000BF4FF0010C4DF804CD4FEA410C97
:1020C0007FEA6C5C4FEA430C18BF7FEA6C5C1BD064
:1020D00001B050EA410C0CBF52EA430C91EA030FE5
:1020E00002BF90EA020F0020704710F1000F91EA42
:1020F000030F58BF994208BF90422CBFD8176FEA10
:10210000E37040F0010070474FEA410C7FEA6C5CDD
:1021100002D150EA013C07D14FEA430C7FEA6C5CE4
:10212000D6D152EA033CD3D05DF8040B704700BF10
:102130008446104662468C461946634600E000BF5E
:1021400001B5FFF7B7FF002848BF10F1000F01BD30
:102150004DF808EDFFF7F4FF0CBF012000205DF8FB
:1021600008FB00BF4DF808EDFFF7EAFF34BF012080
:1021700000205DF808FB00BF4DF808EDFFF7E0FF19
:1021800094BF012000205DF808FB00BF4DF808ED6A
:10219000FFF7CEFF94BF012000205DF808FB00BFD1
:1021A0004DF808EDFFF7C4FF34BF012000205DF8B3
:1021B00008FB00BF4A0011D212F5001211D20DD552
:1021C0006FF47873B3EB62520ED44FEAC12343F03D
:1021D000004343EA505323FA02F070474FF00000E7
:1021E000704750EA013002D14FF0FF3070474FF096
:1021F000000070474FEA4102B2F1E04324BFB3F55B
:10220000001CDCF1FE5C0DD901F0004C4FEAC0026D
:102210004CEA5070B2F1004F40EB830008BF20F051
:102220000100704711F0804F21D113F13872BCBF0B
:1022300001F00040704741F480114FEA5252C2F160
:102240001802C2F1200C10FA0CF320FA02F018BFA9
:1022500040F001004FEAC1234FEAD32303FA0CFCFC
:1022600040EA0C0023FA02F34FEA4303CCE77FEA8B
:10227000625307D150EA01331EBF4FF0FE4040F4D5
:102280004000704701F0004040F0FE4040F4000084
:10229000704700BF80F0004002E000BF81F00041C5
:1022A00042001FBF5FEA410392EA030F7FEA226CFC
:1022B0007FEA236C6AD04FEA1262D2EB1363C1BF8C
:1022C000D218414048404140B8BF5B42192B88BFFB
:1022D000704710F0004F40F4000020F07F4018BF1E
:1022E000404211F0004F41F4000121F07F4118BF3E
:1022F000494292EA030F3FD0A2F1010241FA03FCE6
:1023000010EB0C00C3F1200301FA03F100F00043CD
:1023100002D5494260EB4000B0F5000F13D3B0F195
:10232000807F06D340084FEA310102F10102FE2A04
:1023300051D2B1F1004F40EBC25008BF20F0010074
:1023400040EA03007047490040EB000010F4000F22
:10235000A2F10102EDD1B0FA80FCACF1080CB2EBB5
:102360000C0200FA0CF0AABF00EBC2505242184314
:10237000BCBFD0401843704792F0000F81F40001B9
:1023800006BF80F400000132013BB5E74FEA41038C
:102390007FEA226C18BF7FEA236C21D092EA030FF8
:1023A00004D092F0000F08BF0846704790EA010F72
:1023B0001CBF0020704712F07F4F04D1400028BF9F
:1023C00040F00040704712F100723CBF00F5000081
:1023D000704700F0004343F0FE4040F400007047B7
:1023E0007FEA226216BF08467FEA23630146420263
:1023F00006BF5FEA412390EA010F40F48000704776
:102400004FF0000304E000BF10F0004348BF40421B
:102410005FEA000C08BF704743F0964301464FF057
:1024200000001CE050EA010208BF70474FF00003B3
:102430000AE000BF50EA010208BF704711F00043F4
:1024400002D5404261EB41015FEA010C02BF8446C4
:102450000146002043F0B64308BFA3F18053A3F523
:102460000003BCFA8CF2083AA3EBC25310DB01FA6A
:1024700002FC634400FA02FCC2F12002BCF1004FEE
:1024800020FA02F243EB020008BF20F0010070477F
:1024900002F1200201FA02FCC2F1200250EA4C00D3
:1024A00021FA02F243EB020008BF20EADC70704719
:1024B0004FF0FF3C06E000BF4FF0010C02E000BF10
:1024C0004FF0010C4DF804CD4FEA40024FEA4103B2
:1024D0007FEA226C18BF7FEA236C11D001B052EA68
:1024E000530C18BF90EA010F58BFB2EB030088BF2E
:1024F000C81738BF6FEAE17018BF40F0010070479D
:102500007FEA226C02D15FEA402C05D17FEA236C7E
:10251000E4D15FEA412CE1D05DF8040B704700BFC5
:10252000844608466146FFE70FB5FFF7C9FF00285C
:1025300048BF10F1000F0FBD4DF808EDFFF7F4FF95
:102540000CBF012000205DF808FB00BF4DF808ED2E
:10255000FFF7EAFF34BF012000205DF808FB00BF51
:102560004DF808EDFFF7E0FF94BF012000205DF873
:1025700008FB00BF4DF808EDFFF7D2FF94BF012024
:1025800000205DF808FB00BF4DF808EDFFF7C8FF1D
:1025900034BF012000205DF808FB00BF002103E0EC
:1025A0000B4B5B58435004310A480B4B42189A427C
:1025B000F6D30A4A02E0002342F8043B084B9A4251
:1025C000F9D3FDF72BFE00F01FF8FDF721FE704751
:1025D000B02C000800000020540400205804002003
:1025E000800C0020FEE7000008B50021044600F042
:1025F0008BF8044B1868C36B03B19847204600F072
:102600005BF900BF982C000870B50F4E0F4D761B7C
:10261000B61018BF002405D0013455F8043B984784
:10262000A642F9D10A4E0B4D00F09AF9761BB6106E
:1026300018BF002406D0013455F8043B9847A64241
:10264000F9D170BD70BD00BFA42C0008A42C0008F7
:10265000AC2C0008A42C000870B4840746D0541E8B
:10266000002A41D0CDB2034602E0621EE4B3144614
:1026700003F8015B9A07F8D1032C2ED9CDB245EAB5
:1026800005250F2C45EA054519D9264603F1100208
:10269000103E0F2E42F8105C42F80C5C42F8085CC9
:1026A00042F8045C02F11002F2D8A4F1100222F008
:1026B0000F0204F00F041032032C13440DD91E46F0
:1026C0002246043A032A46F8045BFAD8221F22F075
:1026D00003020432134404F003042CB1C9B21C44B5
:1026E00003F8011BA342FBD170BC7047144603469C
:1026F000C2E700BF024B13B1024800F06FB8704749
:1027000000000000E92700082DE9F04F81460E4641
:10271000304B83B01B68009303F5A4730193009BB7
:10272000D3F8487127B3DDF804A07C68651E0ED489
:10273000013407EB84044FF00008E6B1D4F800310F
:10274000B34218D0013D6B1CA4F10404F5D1224B17
:1027500073B17B68002B36D13B68002B34D03846F0
:10276000CAF80030AFF30080DAF80070002FDCD137
:1027700003B0BDE8F08F7B682268013BAB420CBF21
:102780007D60C4F80080002ADCD0D7F888310121B0
:10279000A9401942D7F804B008D190477B685B453F
:1027A000BDD1DAF80030BB42CCD0B8E7D7F88C31D5
:1027B000194204D14846D4F880109047EEE7D4F887
:1027C00080009047EAE73B68BA461F46002FACD12D
:1027D000CEE700BF982C0008000000000146002052
:1027E0000246034600F016B838B5084B084DED1AFE
:1027F000AC1018BFED1805D0013C55F8043D9847C2
:10280000002CF9D1BDE8384000F0B0B8AC2C00087D
:10281000B02C00082DE9F047254C0646256888466F
:10282000D5F8484192469946C4B360681F2817DC22
:10283000411C76B104EB8003C3F888A0D4F888511A
:10284000012282401543022EC4F88851C3F8089132
:102850001ED0831C6160002044F82380BDE8F0870F
:10286000144B03B34FF4C870AFF300800446D0B1EB
:10287000D5F84831002784E888003846C5F8484133
:102880000121C4F88871C4F88C71002EE1D0D1E721
:10289000D4F88C311A43C4F88C21DAE705F5A67414
:1028A000C5F84841C1E74FF0FF30BDE8F08700BFF1
:1028B000982C000800000000FEE700BFF8B5C1F347
:1028C0000A56A6F2FF35132D0A460B4604468646E5
:1028D00011DC002D2DDB0F461F492941114224D068
:1028E0004FF400232B413B4423EA01030022194605
:1028F00014462046F8BD332D05DDB5F5806F1ED09A
:1029000011462046F8BDA6F213414FF0FF30C840F3
:102910002042F5D0C6F5866602360121B14009197C
:1029200028BF013321EA0002E1E70028D8D111468F
:10293000E7E7013501F0004307D00022D7E7024660
:102940000B46FEF7EBFF0446D3E743F07F5343F417
:1029500040130022CBE700BFFFFF0F000000000084
:10296000F8B500BFF8BC08BC9E467047F8B500BF7C
:08297000F8BC08BC9E4670474C
:1029780041542B42415544380000000041542B4D2E
:102988004F4445320000000041542B4E414D455301
:102998006D617274776174636800000010008000D4
:1029A800740400203FFF2001E001E001E001E001A4
:1029B80020013FFF3FFF200FE00FE00FE00FE00F87
:1029C800200F3FFF3FFF207FE07FE07FE07FE07F39
:1029D800207F3FFF3FFF23FFE3FFE3FFE3FFE3FF2A
:1029E80023FF3FFF3FFF3FFFFFFFFFFFFFFFFFFF0B
:1029F8003FFF3FFF3FFC400280018FF190099009A3
:102A08009009F00FFFFFC003B00D8C3183C1800126
:102A18008001FFFFFFFF80018C318A518991881165
:102A28008001FFFF0000000000000000000000001F
:102A3800000000001FF03FF8301830183018301828
:102A4800301830183018301830183018301830183E
:102A5800301830183FF81FF0000000003F003F001A
:102A68000300030003000300030003000300030046
:102A78000300030003000300030003003FF83FF8CE
:102A8800000000003FF03FF8001800180018001878
:102A9800001800181FF83FF03000300030003000F8
:102AA800300030003FF83FF8000000003FF03FF8EA
:102AB8000018001800180018001800180FF80FF870
:102AC8000018001800180018001800183FF83FF008
:102AD800000000003000300030603060306030604E
:102AE80030603060306030603FF03FF00060006080
:102AF8000060006000600060000000000FF80FF840
:102B08000C000C000C000C000C000C000FF00FF86F
:102B18000018001800180018001830183FF80FF0B7
:102B2800000000003FC03FC03000300030003000DF
:102B380030003000300030003FF83FF830183018CF
:102B4800301830183FF83FF8000000003FF83FF811
:102B580030180018001800180018007800F001E07C
:102B680003800300030003000300030003000300C5
:102B7800000000000FE00FE00C600C600C600C60BF
:102B88000C600C601FF03FF83018301830183018FF
:102B9800301830183FF81FF0000000003FF83FF8E9
:102BA80030183018301830183FF83FF8001800185F
:102BB800001800180018001800180018003800380D
:102BC80000000000000000000000000000000000FD
:102BD80000000000000000000000000000000000ED
:102BE8003E003E003E003E000000000010000800CD
:102BF800AC29000810000800BC29000810000800D3
:102C0800CC29000810000800DC2900081000080082
:102C1800EC29000810000800FC2900081000080032
:102C28000C2A0008100008001C2A000810000800E0
:102C38002C2A0008100012003C2A0008100012007C
:102C4800642A0008100012008C2A000810001200E4
:102C5800B42A000810001200DC2A00081000120034
:102C6800042B0008100012002C2B00081000120082
:102C7800542B0008100012007C2B000810001200D2
:102C8800A42B000810001200CC2B00084300000001
:042C980028000020F0
:082C9C0000D5FF7F01000000DC
:082CA400F52600086501000897
:042CAC0041010008DA
:102CB000000000000048E801030406080C1018207A
:102CC00030000000000000000000000001020304CA
:102CD000060708090000000000000000140300209F
:102CE0007C030020E403002000000000000000003E
:102CF00000000000000000000000000000000000D4
:102D0000000000000000000000000000942C0008FB
:102D100000000000000000000000000000000000B3
:102D200000000000000000000000000000000000A3
:102D30000000000000000000000000000000000093
:102D40000000000000000000000000000000000083
:102D50000000000000000000000000000000000073
:102D60000000000000000000000000000000000063
:102D70000000000000000000000000000000000053
:102D800001000000000000000E33CDAB34126DE6F0
:102D9000ECDE05000B000000000000000000000059
:102DA0000000000000000000000000000000000023
:102DB0000000000000000000000000000000000013
:102DC0000000000000000000000000000000000003
:102DD00000000000000000000000000000000000F3
:043100002800002083
:0431040000000000C7
:040000050800259D2D
:00000001FF
