:020000040800F2
:10000000004001204D800008150600082106000868
:10001000310600083906000841060008000000000B
:10002000000000000000000000000000C14E0008B9
:100030004906000800000000C94F00080D500008E4
:10004000958000089580000895800008958000083C
:10005000958000089580000895800008958000082C
:100060009580000889340008958000089580000874
:10007000958000089580000895800008958000080C
:1000800095800008958000087D080008958000088C
:1000900095800008958000089580000895800008EC
:1000A00095800008958000089580000895800008DC
:1000B000A934000895800008958000089580000804
:1000C00095800008958000089580000895800008BC
:1000D00095800008190D000895800008958000089B
:1000E00095800008ED320008958000089580000892
:1000F00095800008000000009580000895800008A9
:10010000958000089580000895800008958000087B
:10011000958000089580000895800008958000086B
:1001200095800008000000000000000000000000B2
:0C01300000000000000000005FF808F173
:1001400010B5054C237833B9044B13B10448AFF311
:1001500000800123237010BD7804002000000000FF
:10016000A08A0008084B10B51BB108480849AFF336
:1001700000800848036803B910BD074B002BFBD073
:10018000BDE81040184700BF00000000A08A00082A
:100190007C0400207404002000000000154B002B9C
:1001A00008BF134B9D46A3F5803A00218B460F46AE
:1001B0001348144A121A07F0A7FF0F4B002B00D068
:1001C00098470E4B002B00D09847002000210400D8
:1001D0000D000D48002802D00C4808F0BFFA07F0C7
:1001E0006BFF2000290000F013F807F055FF00BF57
:1001F00000000800000000000000000000000000F7
:1002000078040020D85D00205D8700086987000819
:1002100080B584B004AF354B354ADA600320022143
:10022000002203F093FA0246324B1A6003200121A8
:10023000002203F08BFA02462F4B1A6003200121A3
:10024000002203F083FA02462C4B1A60032001219E
:10025000002203F07BFA0246294B1A600320042196
:10026000002203F073FA0246264B1A600223009321
:100270000023019300230293002303932248234980
:100280004FF47A72002303F075FE022300930023DB
:10029000019300230293002303931D481D494FF44B
:1002A0007A72002303F066FE022300930023019379
:1002B0000023029300230393174818494FF47A72DE
:1002C000002303F057FE0123009300230193002332
:1002D000029300230393124812494FF47A720023C9
:1002E00003F048FE04F0B4F8FEE700BF00ED00E0C4
:1002F0000003FA05A05D00209C5D0020985D0020B1
:10030000A45D0020945D002061060008BC8A0008FE
:1003100019330008CC8A0008D12B0008D88A0008BD
:10032000390D0008E48A000880B500AF144A144B68
:100330001B6843F4807313601149114B9A68114B89
:1003400013408B600E4A0E4B1B6823F0885323F03A
:10035000011313600A4A0A4B1B6823F480231360BD
:10036000074A074B9B6823F47D039360044B0022EC
:10037000DA6000F0B7F8044B4FF000629A6080BD7D
:10038000003802400CC0FF8800ED00E080B487B068
:1003900000AF00237B6100233B610023FB6000234F
:1003A000BB6000237B60494B9B6803F00C037B61BF
:1003B0007B690C2B64D801A252F823F0F1030008EA
:1003C0008104000881040008810400081104000869
:1003D0008104000881040008810400081904000851
:1003E0008104000881040008810400082104000839
:1003F000364B5B6803F460435B0B7B607B680133C7
:100400001A464FF4004393401A46314B1A6047E0B6
:100410002F4B304A1A6043E02D4B2F4A1A603FE0C1
:100420002A4B9B6803F470133B61284B9B6803F4D1
:100430004003FB603B699B0C284AD35CDBB23B6109
:10044000FB689B0D0133FB60204B9B6803F48033FA
:10045000BB60BB68002B09D13B691E4A02FB03F25B
:10046000FB68B2FBF3F31A4A136019E03B691A4ABE
:1004700002FB03F2FB68B2FBF3F3154A13600FE0D3
:10048000124B5B6803F460435B0B7B607B6801335A
:100490001A464FF4004393401A460D4B1A6000BFB2
:1004A0000A4B9B6803F0F0031B090D4AD35CDBB2D7
:1004B0007B61074B1A687B6922FA03F3044A1360D5
:1004C0001C37BD465DF8047B704700BF0038024012
:1004D000040000200024F40000127A00080000202C
:1004E0001400002080B483B000AF00237B600023A1
:1004F0003B60404A3F4B1B6843F0010313603D4B98
:100500001B6803F002033B603B68002B03D17B6850
:10051000B3F5A04FF3D1374B1B6803F00203002B58
:1005200002D001233B6001E000233B603B68012BCC
:100530005AD1314A304B1B6843F0040313602E4AF2
:100540002D4B1B6843F0020313602B4A2A4B1B6898
:1005500043F001031360274A264B5B6A43F0805344
:100560005362264B4FF400621A6000BF234B5B6856
:1005700003F01003002BF9D11E4A1E4B9B689360B9
:100580001C4A1C4B9B6893601A4A1A4B9B689360E9
:10059000184A184B9B6823F47D039360154A154B4A
:1005A0009B6843F488039360124A124B1B6843F024
:1005B0008073136000BF0F4B1B6803F00073002BA8
:1005C000F9D00C4A0B4B9B6823F003039360094A54
:1005D000084B9B6843F00303936000BF054B9B6887
:1005E00003F00C030C2BF9D10C37BD465DF8047BEE
:1005F000704700BF00380240003C024000700040DD
:10060000809C000800000020740400207804002072
:10061000D85D002080B400AFBD465DF8047B704714
:1006200080B400AF014B01221A60FBE7AC5D0020F3
:1006300080B400AFFEE700BF80B400AFFEE700BFAC
:1006400080B400AFFEE700BF80B400AFBD465DF8E8
:10065000047B704780B400AFBD465DF8047B7047F3
:1006600080B584B000AF786000F02AF800F0F0F8B0
:10067000114B1A6807F10E03104619466422002335
:1006800003F0B6F90346002B11D0FB891BB21846C4
:1006900000F068F803469BB2FB81084B1A6807F12B
:1006A0000E03104619460022002303F08BF842F295
:1006B000107003F057FDD9E7A05D00209C5D00207D
:1006C00080B400AF234A234BDB6943F00103D361BD
:1006D000204A204B1B6A43F4007313621E4A1E4BD0
:1006E0001B6843F0300313601B4A1B4B9B6843F0AD
:1006F00030039360194A194B1B6843F4802313603D
:10070000164B502283F81223154A154B5B6843F4AD
:1007100002635360124A124B5B6943F4E073536106
:100720000F4A0F4B1B6C43F0020313640C4A0C4B33
:100730009B6843F4806343F00103936000BF084B60
:100740001B6803F04003002BF9D0BD465DF8047B25
:10075000704700BF003802400000024000E100E0A6
:100760000024014080B584B000AF0346FB80B7F998
:100770000630184607F02AFB0346184606F00EFF1F
:1007800002460B46104619464FF000022C4B07F06C
:1007900083F802460B461046194625A3D3E90023E9
:1007A00006F050FF02460B461046194607F004FAC1
:1007B0000346FB60F868234907F0C8FB0346002B9B
:1007C00001D064232DE0F86806F0E8FE02460B46EF
:1007D0001046194618A3D3E9002307F0A5F90346EC
:1007E000002B01D000231CE0F86806F0D7FE02467B
:1007F0000B46104619464FF00002134B07F04CF819
:1008000002460B46104619464FF000020F4B06F009
:1008100019FF02460B461046194607F0ADF903468C
:10082000DBB218461037BD4680BD00BFAFF3008075
:100830006666666666660A409A9999999999034030
:100840000000B04000004040000008400000594057
:1008500080B400AF00BF084B1B6803F00203002BFD
:10086000F9D1054A044B9B6843F080439360BD4631
:100870005DF8047B704700BF0024014080B500AFE5
:10088000074B1B68184607490022002303F02CF889
:10089000054A054B1B6823F00203136080BD00BFAF
:1008A000A05D002058240140002401400000000009
:1008B00080B588B000AF4FF4165000F085F84FF4C3
:1008C0007A7000F0ABF9384800F048F93B4618461A
:1008D0001E21642200F060F93B461846334907F0B8
:1008E000B9FD0346002B15D14FF4FA7000F096F9CC
:1008F0002F4800F033F93B4618461E21642200F0D1
:100900004BF93B4618462B4907F0A4FD0346002B44
:1009100000D1FEE74FF4FA7000F080F9264800F0AD
:100920001DF93B4618461E21642200F035F93B466E
:100930001846224907F08EFD0346002B15D14FF4CF
:10094000FA7000F06BF91E4800F008F93B461846B3
:100950001E21642200F020F93B461846154907F095
:1009600079FD0346002B00D1FEE74FF4FA7000F04A
:1009700055F9144800F0F2F83B4618461E2164224F
:1009800000F00AF93B4618460A4907F063FD0346A2
:10099000002B00D1FEE74FF4FA7000F03FF900F0B1
:1009A00055F92037BD4680BDF08A0008FC8A000852
:1009B000088B00081C8B0008208B00082C8B00087B
:1009C000348B0008448B000880B586B000AF786097
:1009D0004FF000024FF00003C7E904230023FB603F
:1009E0000023FB72564A564BDB6943F00103D36187
:1009F000534A534B1B6A43F480431362504A504B93
:100A00005B6A43F0040353624E4A4E4B1B6843F447
:100A1000201313604B4A4B4B9B6843F420139360A5
:100A2000484A484BDB6843F4A013D360454A454B22
:100A30005B6A43F4EE635362434A434B5B6843F0A3
:100A400020035360404A404B93F82533DBB243F018
:100A50002003DBB282F825333C493C4B9B899AB298
:100A60003B4B13439BB28B817B68DB00184606F03F
:100A700073FD02460B4630A1D1E9000106F00CFFE0
:100A800002460B46C7E90423D7E9040107F074F8CE
:100A900003469BB2184606F06FFD02460B46D7E9A7
:100AA000040106F01BFC02460B46104619464FF0A7
:100AB0000002284B06F0C6FD02460B4610461946BA
:100AC00007F09EFF02460B461046194607F054F801
:100AD0000346FB72FB7ADB08DBB2184606F04CFDDE
:100AE00002460B4610461946D7E9042306F0F8FBE8
:100AF00002460B461046194607F03EF80346FB60D7
:100B00001249FB689BB21B019AB2FB7A9BB203F0BD
:100B100007039BB213439BB20B810F4A0E4B1B88FA
:100B20009BB243F004039BB213800B4B4FF4FA4289
:100B30001A851837BD4680BD0000000080847E41C4
:100B4000003802400000024000E100E000380140AF
:100B50000CA0FFFF000020400008004080B582B0DC
:100B600000AF78600EE000BF0A4B1B889BB203F019
:100B70008003002BF8D07B685A1C7A601B781846DB
:100B800000F074F87B681B78002BECD10837BD4669
:100B900080BD00BF0038014090B585B000AF7860DF
:100BA0000B46FB7013463B800023FB733B881846C3
:100BB00000F07AF818E0174B1B889BB203F0200373
:100BC000002B11D0144A144B9B8A9BB243F00103B3
:100BD0009BB29382FB7B5A1CFA731A467B689C1863
:100BE00000F054F8034623700B4B1B8A9BB203F0B2
:100BF0000103002B04D1FA7BFB78013B9A42DADB3C
:100C0000FB7B7A68134400221A7000F075F81437E1
:100C1000BD4690BD003801400008004080B582B05C
:100C200000AF0346FB80FB88184600F03DF800BF8C
:100C3000054B1B8A9BB203F00103002BF8D000F098
:100C40005BF80837BD4680BD0008004080B400AFA7
:100C5000054A054B9B899BB243F020039BB29381CD
:100C6000BD465DF8047B70470038014080B483B016
:100C700000AF0346FB71044BFA7992B29A800C37AD
:100C8000BD465DF8047B70470038014080B400AF7A
:100C9000044B9B889BB2DBB21846BD465DF8047BD3
:100CA000704700BF0038014080B483B000AF0346F6
:100CB000FB80104AFB88D3620E4A0E4B9B8A9BB284
:100CC00043F001039BB293820A4A0A4B1B8A9BB2F0
:100CD00023F001039BB21382064A064B1B889BB28A
:100CE00043F001039BB213800C37BD465DF8047BD3
:100CF000704700BF0008004080B400AF054A054BB4
:100D00001B889BB223F001039BB21380BD465DF8A4
:100D1000047B70470008004080B400AF054A054BD3
:100D20001B889BB223F020039BB21380BD465DF865
:100D3000047B70470038014080B58AB000AF78600E
:100D400000F076F800F0E4F804F00EF900F082F913
:100D500004F01AF9334B1A6807F1270310461946B5
:100D60000022002302F044FE0346002B12D097F825
:100D70002730184600F026FA07F11C03184600F049
:100D8000EDF904F0F1F807F11C03184600F0ECF857
:100D900004F0FAF8244B1A6807F1260310461946A6
:100DA0000022002302F024FE0346002B13D000F0A3
:100DB0008FFA00F0CDFA00F00BFB07F11403184690
:100DC00000F0CCF904F0D0F807F11403184600F055
:100DD000CBF804F0D9F8154B1A6807F12403104634
:100DE00019460022002302F003FE0346002B17D011
:100DF00097F82530184600F00BFB97F8243018467A
:100E000000F07EFC07F10C03184600F0A7F904F08F
:100E1000ABF807F10C03184600F0A6F804F0B4F89C
:100E200098E700BF9C5D0020A45D0020945D002039
:100E300080B400AF304A304BDB6943F00503D36127
:100E40002D4A2D4B5B6A43F0020353622A4A2A4B18
:100E50001B6A43F480531362284A284B1B6843F4EF
:100E600080731360254A254B9B6843F4007393609D
:100E7000234A234B1B6843F429431360204A204B29
:100E80009B6843F42A4393601D4A1D4B1B6A43F041
:100E9000A44343F4A00313621A4B80221A85194B12
:100EA00040F61602DA62174A164B1B8B9BB243F0D0
:100EB00030039BB21383134A124B1B8C9BB243F03B
:100EC00001039BB213840F4B40F616025A630E497E
:100ED0000D4B1B889AB20D4B13439BB20B800A4AF1
:100EE000094B1B889BB243F040039BB21380BD4665
:100EF0005DF8047B704700BF0038024000080240E4
:100F000000000240000400400030014024C3FFFF05
:100F100080B400AF094A094B9B8A9BB243F010038F
:100F20009BB29382064A064B1B889BB243F0010397
:100F30009BB21380BD465DF8047B704700080240F9
:100F40000004004080B400AF054B4FF6EF729A8268
:100F5000044B4FF6FE721A80BD465DF8047B704765
:100F6000000802400004004080B584B000AF786003
:100F700000F0C8F8802000F0E1F80123FB8147E091
:100F800000BF334B1B899BB203F00203002BF8D048
:100F9000FB89DBB2184600F08FF80346184600F0D4
:100FA000CDF800237B731DE000BF294B1B899BB24A
:100FB00003F00203002BF8D07B685B68B7F90E20C2
:100FC000013A7968098809B201FB02F17A7B0A4487
:100FD00013441B78DB43DBB2184600F0AFF87B7B91
:100FE00001337B737A7B7B681B881BB29A42DBDB05
:100FF00000BF174B1B899BB203F00203002BF8D0F4
:10100000002000F09BF8FB899BB201339BB2FB816F
:101010007B685B88B7F90E201BB29A42B0DD00BF37
:101020000B4B1B899BB203F00203002BF8D000206E
:1010300000F084F800BF064B1B899BB203F08003CD
:10104000002BF8D100F06EF81037BD4680BD00BF10
:101050000030014080B500AF00F054F800BF154BE0
:101060001B899BB203F00203002BF8D0202000F074
:1010700065F800BF0F4B1B899BB203F00203002BE6
:10108000F8D0002000F05AF800BF0A4B1B899BB231
:1010900003F00203002BF8D0002000F04FF800BF4F
:1010A000044B1B899BB203F08003002BF8D100F0A6
:1010B00039F880BD0030014080B483B000AF0346F2
:1010C000FB71FA7913469B0213445B000B4A1A40EA
:1010D000F9790B469B020B445B011946084B0B4008
:1010E0001A4313461B0213441B0213441B0CDBB2AE
:1010F00018460C37BD465DF8047B7047102102008E
:101100004084080080B400AF054A054B9B8A9BB21F
:1011100043F010039BB29382BD465DF8047B704799
:101120000000024080B400AF034B4FF6EF729A828A
:10113000BD465DF8047B70470000024080B483B078
:1011400000AF0346FB71044BFA7992B29A810C37D7
:10115000BD465DF8047B70470030014080B483B029
:1011600000AF78607B6810221A807B6880225A80EA
:101170007B68034A5A600C37BD465DF8047B7047B4
:101180009404002080B588B000AF0023FB82FB8A66
:10119000BB823B46184601F04BF807F118033A466C
:1011A00092E8030083E8030001233B7307F1140373
:1011B0003B6107F10C03184600F06CFF2037BD4679
:1011C00080BD00BF80B58AB000AF0346FB736E23BD
:1011D000BB830323FB83FB7B092B0BD83B461846C1
:1011E00001F042F807F120033A4692E8030083E851
:1011F000030040E0FB7B092B0ED9FB7B192B0BD89E
:101200003B46184601F04CF807F120033A4692E8B5
:10121000030083E803002EE0FB7B192B0ED9FB7B38
:10122000322B0BD83B46184601F056F807F1200345
:101230003A4692E8030083E803001CE0FB7B322B74
:101240000ED9FB7B4B2B0BD83B46184601F060F8C0
:1012500007F120033A4692E8030083E803000AE01E
:101260003B46184601F070F807F120033A4692E831
:10127000030083E8030001233B7507F11C03BB61F6
:1012800007F11403184600F005FF2837BD4680BD5E
:1012900080B588B000AF0323BB820323FB823B46AB
:1012A000184601F06DF807F118033A4692E803007A
:1012B00083E8030001233B7307F114033B6107F14B
:1012C0000C03184600F0E6FE2037BD4680BD00BF87
:1012D00080B588B000AF0323BB820323FB823B466B
:1012E000184601F0A1F807F118033A4692E8030006
:1012F00083E8030001233B7307F114033B6107F10B
:101300000C03184600F0C6FE2037BD4680BD00BF66
:1013100080B588B000AF1623BB820323FB823B4617
:10132000184601F049F807F118033A4692E803001D
:1013300083E8030001233B7307F114033B6107F1CA
:101340000C03184600F0A6FE2037BD4680BD00BF46
:1013500080B588B000AF1623BB820323FB823B46D7
:10136000184601F061F807F118033A4692E80300C5
:1013700083E8030001233B7307F114033B6107F18A
:101380000C03184600F086FE2037BD4680BD00BF26
:1013900080B588B000AF2A23BB820323FB823B4683
:1013A000184601F025F807F118033A4692E80300C1
:1013B00083E8030001233B7307F114033B6107F14A
:1013C0000C03184600F066FE2037BD4680BD00BF06
:1013D00080B588B000AF2A23BB820323FB823B4643
:1013E000184601F021F807F118033A4692E8030085
:1013F00083E8030001233B7307F114033B6107F10A
:101400000C03184600F046FE2037BD4680BD00BFE5
:1014100090B591B000AF0346FB733D2387F83E3093
:10142000FB7B632B01D96323FB73002387F83F30D9
:1014300052E197F83F2097F83E3099B213465B008F
:1014400013449B0007F140021344283B0A461A80CC
:1014500097F83F2013465B0013449B0007F14002BE
:101460001344283B03225A8097F83F30002B03D0C7
:1014700097F83F30012B33D197F83F30002B06D13E
:10148000FB7B9E4AA2FB0323DB08DBB20AE0FA7B6C
:101490009A4BA3FB0213D9080B469B000B445B003D
:1014A000D31ADBB287F83D3097F83D30092B00F2B4
:1014B000098101A252F823F00D1500083915000822
:1014C0006515000891150008BD150008E91500080C
:1014D00015160008411600086D1600089916000838
:1014E00097F83F2013465B0013449B0007F140022E
:1014F0001344A3F128043B46184601F0E5F8231DE8
:101500003A4692E8030083E80300DBE097F83F20C7
:1015100013465B0013449B0007F140021344A3F100
:1015200028043B46184600F09BFF231D3A4692E8EC
:10153000030083E80300C5E097F83F2013465B00F3
:1015400013449B0007F140021344A3F128043B46D7
:10155000184600F0A1FF231D3A4692E8030083E8F5
:101560000300AFE097F83F2013465B0013449B0055
:1015700007F140021344A3F128043B46184600F04B
:10158000A7FF231D3A4692E8030083E8030099E091
:1015900097F83F2013465B0013449B0007F140027D
:1015A0001344A3F128043B46184600F0ADFF231D69
:1015B0003A4692E8030083E8030083E097F83F206F
:1015C00013465B0013449B0007F140021344A3F150
:1015D00028043B46184600F0B3FF231D3A4692E824
:1015E000030083E803006DE097F83F2013465B009B
:1015F00013449B0007F140021344A3F128043B4627
:10160000184600F0B9FF231D3A4692E8030083E82C
:10161000030057E097F83F2013465B0013449B00FC
:1016200007F140021344A3F128043B46184600F09A
:10163000BFFF231D3A4692E8030083E8030041E020
:1016400097F83F2013465B0013449B0007F14002CC
:101650001344A3F128043B46184600F0C5FF231DA0
:101660003A4692E8030083E803002BE097F83F2016
:1016700013465B0013449B0007F140021344A3F19F
:1016800028043B46184600F0CBFF231D3A4692E85B
:10169000030083E8030015E097F83F2013465B0042
:1016A00013449B0007F140021344A3F128043B4676
:1016B000184600F0D1FF231D3A4692E8030083E864
:1016C000030000BF97F83F30013387F83F3097F8A9
:1016D0003E30083387F83E3097F83F30022B7FF6D4
:1016E000A8AE03233B7407F118037B6107F11003D5
:1016F000184600F0CFFC4437BD4690BDCDCCCCCCD5
:1017000090B591B000AF0346FB73552387F83E3088
:10171000FB7B3C2B01D93C23FB73002387F83F3034
:1017200052E197F83F2097F83E3099B213465B009C
:1017300013449B0007F140021344283B0A461A80D9
:1017400097F83F2013465B0013449B0007F14002CB
:101750001344283B03225A8097F83F30002B03D0D4
:1017600097F83F30012B33D197F83F30002B06D14B
:10177000FB7B9E4AA2FB0323DB08DBB20AE0FA7B79
:101780009A4BA3FB0213D9080B469B000B445B004A
:10179000D31ADBB287F83D3097F83D30092B00F2C1
:1017A000098101A252F823F0FD170008291800084A
:1017B0005518000881180008AD180008D91800084D
:1017C00005190008311900085D1900088919000879
:1017D00097F83F2013465B0013449B0007F140023B
:1017E0001344A3F128043B46184600F0A5FF231D2F
:1017F0003A4692E8030083E80300DBE097F83F20D5
:1018000013465B0013449B0007F140021344A3F10D
:1018100028043B46184600F023FE231D3A4692E872
:10182000030083E80300C5E097F83F2013465B0000
:1018300013449B0007F140021344A3F128043B46E4
:10184000184600F029FE231D3A4692E8030083E87B
:101850000300AFE097F83F2013465B0013449B0062
:1018600007F140021344A3F128043B46184600F058
:101870002FFE231D3A4692E8030083E8030099E017
:1018800097F83F2013465B0013449B0007F140028A
:101890001344A3F128043B46184600F035FE231DEF
:1018A0003A4692E8030083E8030083E097F83F207C
:1018B00013465B0013449B0007F140021344A3F15D
:1018C00028043B46184600F03BFE231D3A4692E8AA
:1018D000030083E803006DE097F83F2013465B00A8
:1018E00013449B0007F140021344A3F128043B4634
:1018F000184600F041FE231D3A4692E8030083E8B3
:10190000030057E097F83F2013465B0013449B0009
:1019100007F140021344A3F128043B46184600F0A7
:1019200047FE231D3A4692E8030083E8030041E0A6
:1019300097F83F2013465B0013449B0007F14002D9
:101940001344A3F128043B46184600F04DFE231D26
:101950003A4692E8030083E803002BE097F83F2023
:1019600013465B0013449B0007F140021344A3F1AC
:1019700028043B46184600F053FE231D3A4692E8E1
:10198000030083E8030015E097F83F2013465B004F
:1019900013449B0007F140021344A3F128043B4683
:1019A000184600F059FE231D3A4692E8030083E8EA
:1019B000030000BF97F83F30013387F83F3097F8B6
:1019C0003E30083387F83E3097F83F30022B7FF6E1
:1019D000A8AE03233B7407F118037B6107F11003E2
:1019E000184600F057FB4437BD4690BDCDCCCCCC5B
:1019F00090B5A1B000AF0346FB730B46BB73134613
:101A00007B73012387F87D30002387F87F3095E1D1
:101A100097F87F2097F87D3099B213465B00134406
:101A20009B0007F180021344643B0A461A8097F832
:101A30007F2013465B0013449B0007F18002134490
:101A4000643B1E225A8097F87F30002B03D097F812
:101A50007F30012B18D197F87F30002B06D1FB7B0C
:101A6000BF4AA2FB0323DB08DBB20AE0FA7BBC4BD4
:101A7000A3FB0213D9080B469B000B445B00D31A4F
:101A8000DBB287F87E3057E097F87F30032B03D026
:101A900097F87F30042B18D197F87F30032B06D1AD
:101AA000BB7BAF4AA2FB0323DB08DBB20AE0BA7BB5
:101AB000AB4BA3FB0213D9080B469B000B445B0006
:101AC000D31ADBB287F87E3036E097F87F30062BEA
:101AD00003D097F87F30072B18D197F87F30062B6B
:101AE00006D17B7B9E4AA2FB0323DB08DBB20AE024
:101AF0007A7B9B4BA3FB0213D9080B469B000B443C
:101B00005B00D31ADBB287F87E3015E097F87F20B0
:101B100013465B0013449B0007F180021344A3F1BA
:101B200064043B46184600F003FF231D3A4692E842
:101B3000030083E80300F7E097F87E30092B00F2FA
:101B4000F38001A252F823F0711B00089D1B0008CE
:101B5000C91B0008F51B0008211C00084D1C0008CB
:101B6000791C0008A51C0008D11C0008FD1C0008F9
:101B700097F87F2013465B0013449B0007F1800217
:101B80001344A3F164043B46184600F081FD231D75
:101B90003A4692E8030083E80300C5E097F87F2007
:101BA00013465B0013449B0007F180021344A3F12A
:101BB00064043B46184600F0A3FD231D3A4692E814
:101BC000030083E80300AFE097F87F2013465B0033
:101BD00013449B0007F180021344A3F164043B46C5
:101BE000184600F0C5FD231D3A4692E8030083E83D
:101BF000030099E097F87F2013465B0013449B0095
:101C000007F180021344A3F164043B46184600F038
:101C1000CBFD231D3A4692E8030083E8030083E0EE
:101C200097F87F2013465B0013449B0007F1800266
:101C30001344A3F164043B46184600F0D1FD231D74
:101C40003A4692E8030083E803006DE097F87F20AE
:101C500013465B0013449B0007F180021344A3F179
:101C600064043B46184600F0D7FD231D3A4692E82F
:101C7000030083E8030057E097F87F2013465B00DA
:101C800013449B0007F180021344A3F164043B4614
:101C9000184600F0DDFD231D3A4692E8030083E874
:101CA000030041E097F87F2013465B0013449B003C
:101CB00007F180021344A3F164043B46184600F088
:101CC000E3FD231D3A4692E8030083E803002BE07E
:101CD00097F87F2013465B0013449B0007F18002B6
:101CE0001344A3F164043B46184600F0E9FD231DAC
:101CF0003A4692E8030083E8030015E097F87F2056
:101D000013465B0013449B0007F180021344A3F1C8
:101D100064043B46184600F0EFFD231D3A4692E866
:101D2000030083E8030000BF97F87F30013387F892
:101D30007F3097F87D30103387F87D3097F87F300B
:101D4000072B7FF665AE08233B7507F11C03BB61CB
:101D500007F11403184600F09DF98437BD4690BD85
:101D6000CDCCCCCC90B597B000AF03460A46FB7300
:101D70001346BB73022387F85530002387F857308A
:101D800074E197F8572097F8553099B213465B00E5
:101D900013449B0007F158021344403B0A461A8043
:101DA00097F8572013465B0013449B0007F1580235
:101DB0001344403B50225A8097F85730002B03D0F1
:101DC00097F85730012B18D197F85730002B06D1D0
:101DD000FB7BAF4AA2FB0323DB08DBB20AE0FA7B02
:101DE000AB4BA3FB0213D9080B469B000B445B00D3
:101DF000D31ADBB287F8563036E097F85730032B0A
:101E000003D097F85730042B18D197F85730032B8D
:101E100006D1BB7B9E4AA2FB0323DB08DBB20AE0B0
:101E2000BA7B9B4BA3FB0213D9080B469B000B44C8
:101E30005B00D31ADBB287F8563015E097F85720CD
:101E400013465B0013449B0007F158021344A3F1AF
:101E500040043B46184600F09FFE231D3A4692E898
:101E6000030083E80300F7E097F85630092B00F2EF
:101E7000F38001A252F823F0A11E0008CD1E000835
:101E8000F91E0008251F0008511F00087D1F0008CB
:101E9000A91F0008D51F0008012000082D200008F8
:101EA00097F8572013465B0013449B0007F1580234
:101EB0001344A3F140043B46184600F055FD231D92
:101EC0003A4692E8030083E80300C5E097F85720FC
:101ED00013465B0013449B0007F158021344A3F11F
:101EE00040043B46184600F05BFD231D3A4692E84D
:101EF000030083E80300AFE097F8572013465B0028
:101F000013449B0007F158021344A3F140043B46DD
:101F1000184600F061FD231D3A4692E8030083E86D
:101F2000030099E097F8572013465B0013449B0089
:101F300007F158021344A3F140043B46184600F051
:101F400067FD231D3A4692E8030083E8030083E01F
:101F500097F8572013465B0013449B0007F1580283
:101F60001344A3F140043B46184600F06DFD231DC9
:101F70003A4692E8030083E803006DE097F85720A3
:101F800013465B0013449B0007F158021344A3F16E
:101F900040043B46184600F073FD231D3A4692E884
:101FA000030083E8030057E097F8572013465B00CF
:101FB00013449B0007F158021344A3F140043B462D
:101FC000184600F079FD231D3A4692E8030083E8A5
:101FD000030041E097F8572013465B0013449B0031
:101FE00007F158021344A3F140043B46184600F0A1
:101FF0007FFD231D3A4692E8030083E803002BE0AF
:1020000097F8572013465B0013449B0007F15802D2
:102010001344A3F140043B46184600F085FD231D00
:102020003A4692E8030083E8030015E097F857204A
:1020300013465B0013449B0007F158021344A3F1BD
:1020400040043B46184600F08BFD231D3A4692E8BB
:10205000030083E8030000BF97F85730013387F887
:10206000573097F85530193387F8553097F857306F
:10207000042B7FF686AE05233B7407F118037B61C2
:1020800007F11003184600F005F85C37BD4690BD17
:10209000CDCCCCCCB0B588B000AF78600023FB7756
:1020A0007CE07B685968FA7F13465B0013449B0011
:1020B000CA1807F10C0307CA83E80700FB893B83B2
:1020C000BB897B830023BB835BE0B7F91830DA015F
:1020D000B7F91A301344002B00DA0733DB101A4625
:1020E000334BD518B7F91A20324B1340002B03DAC3
:1020F000013B63F0070301339BB2DBB2C3F107037B
:10210000DCB27A69B7F91C30002B00DA0733DB1038
:102110009BB21BB213441978B7F91C20254B13400E
:10212000002B03DA013B63F0070301339BB2DBB200
:10213000C3F10703DBB20846194600F03DF8034639
:10214000284621461A4600F04DF8B7F91A20BB89F7
:1021500019B23B8A1BB20B44013B9A4207D13B8B1D
:102160009BB201339BB23B83BB897B8304E07B8BB7
:102170009BB201339BB27B83BB8B9BB201339BB27F
:10218000BB83B7F91C203B8A1BB2798A09B201FBD9
:1021900003F39A4299DBFB7F0133FB777B681B7863
:1021A000FA7F9A42FFF47DAF2037BD46B0BD00BF35
:1021B000940400200700008080B483B000AF034681
:1021C0000A46FB711346BB71FA79BB7942FA03F3F5
:1021D000DBB203F00103DBB218460C37BD465DF8F5
:1021E000047B704780B483B000AF78600B46FB700F
:1021F0001346BB707B681B78D9B2FB78012202FAC8
:1022000003F3DBB2DB43DBB20A461340D9B2BA7840
:10221000FB7802FA03F3DBB20A461343DBB2DAB20D
:102220007B681A700C37BD465DF8047B704700BFB1
:1022300080B485B000AF78600A4A07F1080392E8DD
:10224000030083E803007B681A4607F1080393E85C
:10225000030082E8030078681437BD465DF8047B0C
:10226000704700BFFC9A000880B485B000AF78606A
:102270000A4A07F1080392E8030083E803007B6839
:102280001A4607F1080393E8030082E80300786820
:102290001437BD465DF8047B704700BF049B0008FF
:1022A00080B485B000AF78600A4A07F1080392E86D
:1022B000030083E803007B681A4607F1080393E8EC
:1022C000030082E8030078681437BD465DF8047B9C
:1022D000704700BF0C9B000880B485B000AF7860E9
:1022E0000A4A07F1080392E8030083E803007B68C9
:1022F0001A4607F1080393E8030082E803007868B0
:102300001437BD465DF8047B704700BF149B00087E
:1023100080B485B000AF78600A4A07F1080392E8FC
:10232000030083E803007B681A4607F1080393E87B
:10233000030082E8030078681437BD465DF8047B2B
:10234000704700BF1C9B000880B485B000AF786068
:102350000A4A07F1080392E8030083E803007B6858
:102360001A4607F1080393E8030082E8030078683F
:102370001437BD465DF8047B704700BF249B0008FE
:1023800080B485B000AF78600A4A07F1080392E88C
:10239000030083E803007B681A4607F1080393E80B
:1023A000030082E8030078681437BD465DF8047BBB
:1023B000704700BF2C9B000880B485B000AF7860E8
:1023C0000A4A07F1080392E8030083E803007B68E8
:1023D0001A4607F1080393E8030082E803007868CF
:1023E0001437BD465DF8047B704700BF349B00087E
:1023F00080B485B000AF78600A4A07F1080392E81C
:10240000030083E803007B681A4607F1080393E89A
:10241000030082E8030078681437BD465DF8047B4A
:10242000704700BF3C9B000880B485B000AF786067
:102430000A4A07F1080392E8030083E803007B6877
:102440001A4607F1080393E8030082E8030078685E
:102450001437BD465DF8047B704700BF449B0008FD
:1024600080B485B000AF78600A4A07F1080392E8AB
:10247000030083E803007B681A4607F1080393E82A
:10248000030082E8030078681437BD465DF8047BDA
:10249000704700BF4C9B000880B485B000AF7860E7
:1024A0000A4A07F1080392E8030083E803007B6807
:1024B0001A4607F1080393E8030082E803007868EE
:1024C0001437BD465DF8047B704700BF549B00087D
:1024D00080B485B000AF78600A4A07F1080392E83B
:1024E000030083E803007B681A4607F1080393E8BA
:1024F000030082E8030078681437BD465DF8047B6A
:10250000704700BF5C9B000880B485B000AF786066
:102510000A4A07F1080392E8030083E803007B6896
:102520001A4607F1080393E8030082E8030078687D
:102530001437BD465DF8047B704700BF649B0008FC
:1025400080B485B000AF78600A4A07F1080392E8CA
:10255000030083E803007B681A4607F1080393E849
:10256000030082E8030078681437BD465DF8047BF9
:10257000704700BF6C9B000880B485B000AF7860E6
:102580000A4A07F1080392E8030083E803007B6826
:102590001A4607F1080393E8030082E8030078680D
:1025A0001437BD465DF8047B704700BF749B00087C
:1025B00080B485B000AF78600A4A07F1080392E85A
:1025C000030083E803007B681A4607F1080393E8D9
:1025D000030082E8030078681437BD465DF8047B89
:1025E000704700BF7C9B000880B485B000AF786066
:1025F0000A4A07F1080392E8030083E803007B68B6
:102600001A4607F1080393E8030082E8030078689C
:102610001437BD465DF8047B704700BF849B0008FB
:1026200080B485B000AF78600A4A07F1080392E8E9
:10263000030083E803007B681A4607F1080393E868
:10264000030082E8030078681437BD465DF8047B18
:10265000704700BF8C9B000880B485B000AF7860E5
:102660000A4A07F1080392E8030083E803007B6845
:102670001A4607F1080393E8030082E8030078682C
:102680001437BD465DF8047B704700BF949B00087B
:1026900080B485B000AF78600A4A07F1080392E879
:1026A000030083E803007B681A4607F1080393E8F8
:1026B000030082E8030078681437BD465DF8047BA8
:1026C000704700BF9C9B000880B485B000AF786065
:1026D0000A4A07F1080392E8030083E803007B68D5
:1026E0001A4607F1080393E8030082E803007868BC
:1026F0001437BD465DF8047B704700BFA49B0008FB
:1027000080B485B000AF78600A4A07F1080392E808
:10271000030083E803007B681A4607F1080393E887
:10272000030082E8030078681437BD465DF8047B37
:10273000704700BFAC9B000880B485B000AF7860E4
:102740000A4A07F1080392E8030083E803007B6864
:102750001A4607F1080393E8030082E8030078684B
:102760001437BD465DF8047B704700BFB49B00087A
:1027700080B485B000AF78600A4A07F1080392E898
:10278000030083E803007B681A4607F1080393E817
:10279000030082E8030078681437BD465DF8047BC7
:1027A000704700BFBC9B000880B485B000AF786064
:1027B0000A4A07F1080392E8030083E803007B68F4
:1027C0001A4607F1080393E8030082E803007868DB
:1027D0001437BD465DF8047B704700BFC49B0008FA
:1027E00080B485B000AF78600A4A07F1080392E828
:1027F000030083E803007B681A4607F1080393E8A7
:10280000030082E8030078681437BD465DF8047B56
:10281000704700BFCC9B000880B485B000AF7860E3
:102820000A4A07F1080392E8030083E803007B6883
:102830001A4607F1080393E8030082E8030078686A
:102840001437BD465DF8047B704700BFD49B000879
:1028500080B485B000AF78600A4A07F1080392E8B7
:10286000030083E803007B681A4607F1080393E836
:10287000030082E8030078681437BD465DF8047BE6
:10288000704700BFDC9B000880B485B000AF786063
:102890000A4A07F1080392E8030083E803007B6813
:1028A0001A4607F1080393E8030082E803007868FA
:1028B0001437BD465DF8047B704700BFE49B0008F9
:1028C00080B485B000AF78600A4A07F1080392E847
:1028D000030083E803007B681A4607F1080393E8C6
:1028E000030082E8030078681437BD465DF8047B76
:1028F000704700BFEC9B000880B485B000AF7860E3
:102900000A4A07F1080392E8030083E803007B68A2
:102910001A4607F1080393E8030082E80300786889
:102920001437BD465DF8047B704700BFF49B000878
:1029300080B485B000AF78600A4A07F1080392E8D6
:10294000030083E803007B681A4607F1080393E855
:10295000030082E8030078681437BD465DF8047B05
:10296000704700BFFC9B000880B485B000AF786062
:102970000A4A07F1080392E8030083E803007B6832
:102980001A4607F1080393E8030082E80300786819
:102990001437BD465DF8047B704700BF049C0008F7
:1029A00080B485B000AF78600A4A07F1080392E866
:1029B000030083E803007B681A4607F1080393E8E5
:1029C000030082E8030078681437BD465DF8047B95
:1029D000704700BF0C9C000880B485B000AF7860E1
:1029E0000A4A07F1080392E8030083E803007B68C2
:1029F0001A4607F1080393E8030082E803007868A9
:102A00001437BD465DF8047B704700BF149C000876
:102A100080B485B000AF78600A4A07F1080392E8F5
:102A2000030083E803007B681A4607F1080393E874
:102A3000030082E8030078681437BD465DF8047B24
:102A4000704700BF1C9C000880B485B000AF786060
:102A50000A4A07F1080392E8030083E803007B6851
:102A60001A4607F1080393E8030082E80300786838
:102A70001437BD465DF8047B704700BF249C0008F6
:102A800080B485B000AF78600A4A07F1080392E885
:102A9000030083E803007B681A4607F1080393E804
:102AA000030082E8030078681437BD465DF8047BB4
:102AB000704700BF2C9C000880B485B000AF7860E0
:102AC0000A4A07F1080392E8030083E803007B68E1
:102AD0001A4607F1080393E8030082E803007868C8
:102AE0001437BD465DF8047B704700BF349C000876
:102AF00080B485B000AF78600A4A07F1080392E815
:102B0000030083E803007B681A4607F1080393E893
:102B1000030082E8030078681437BD465DF8047B43
:102B2000704700BF3C9C000880B485B000AF78605F
:102B30000A4A07F1080392E8030083E803007B6870
:102B40001A4607F1080393E8030082E80300786857
:102B50001437BD465DF8047B704700BF449C0008F5
:102B600080B485B000AF78600A4A07F1080392E8A4
:102B7000030083E803007B681A4607F1080393E823
:102B8000030082E8030078681437BD465DF8047BD3
:102B9000704700BF4C9C000880B485B000AF7860DF
:102BA0000A4A07F1080392E8030083E803007B6800
:102BB0001A4607F1080393E8030082E803007868E7
:102BC0001437BD465DF8047B704700BF549C000875
:102BD00080B582B000AF00F045F802F0C5F9F320EF
:102BE00000F098F802F0D0F9642001F0BBFA02F08E
:102BF000BBF900F0DDF803461A46184BA3FB02238D
:102C00009B099BB2DBB23B7102F0BEF902F0ACF95A
:102C1000F52000F07FF802F0B7F9642001F0A2FA85
:102C200002F0A2F900F0C4F803461A460B4BA3FBCE
:102C300002239B099BB2DBB27B7102F0A5F9084B22
:102C40001A683B1D104619460022002300F0BAFD09
:102C500042F2107001F086FABFE700BFD34D621058
:102C6000945D002080B400AF274A274BDB6943F016
:102C70000203D361244A244B5B6A43F4001353627A
:102C8000224A224B1B6843F4204313601F4A1F4B08
:102C90009B889BB243F0C0039BB293801B4A1B4BA3
:102CA0009B6843F420439360184A184BDB6843F455
:102CB0008053D360154A154B1B6A43F08843136257
:102CC000134A134B9B8B9BB243F0A0039BB293839D
:102CD0000F4A0F4B1B8C9BB243F021039BB2138412
:102CE0000B4A0B4B9B889BB243F020039BB2938013
:102CF000074A074B1B889BB243F001039BB213802A
:102D0000BD465DF8047B7047003802400004024075
:102D10000054004080B582B000AF0346FB7100BF95
:102D2000224B1B8B9BB203F00203002BF8D100F067
:102D3000ABF800BF1D4B9B8A9BB203F00103002B35
:102D4000F8D04020002100F0BFF800BF174B9B8A4D
:102D50009BB203F00203002BF8D000BF134B1B8B78
:102D60009BB203F00403002BF8D000BF0F4B9B8AEB
:102D70009BB203F08003002BF8D0FB79184600F0DB
:102D8000C1F800BF094B9B8A9BB203F00403002BE0
:102D9000F8D000F089F800BF044B9B8A9BB203F087
:102DA0001003002BF8D10837BD4680BD0054004009
:102DB00080B582B000AF334A324B1B889BB243F4DC
:102DC00080639BB2138000BF2E4B1B8B9BB203F022
:102DD0000203002BF8D100F057F800BF294B9B8A63
:102DE0009BB203F00103002BF8D04020012100F03A
:102DF0006BF800BF234B9B8A9BB203F00203002BAE
:102E0000F8D000BF1F4B1B8B9BB203F00403002BB9
:102E1000F8D100BF1B4B9B8A9BB203F04003002BF1
:102E2000F8D0184B1B8A9BB2FB7100BF154B9B8AD5
:102E30009BB203F04003002BF8D0124B1B8A9BB2CD
:102E4000BB71104A0F4B1B889BB223F480639BB26B
:102E5000138000F029F800BF0A4B9B8A9BB203F055
:102E60001003002BF8D1FB791B029AB2BB799BB2FD
:102E700013439BB29BB223F003039BB2184608375F
:102E8000BD4680BD0054004080B400AF054A054BEC
:102E90001B889BB243F480739BB21380BD465DF8E0
:102EA000047B70470054004080B400AF054A054BD6
:102EB0001B889BB243F400739BB21380BD465DF840
:102EC000047B70470054004080B483B000AF0346D9
:102ED0000A46FB711346BB71FB795B00FB71BB7942
:102EE000012B03D1FB7943F00103FB71044BFA7909
:102EF00092B21A820C37BD465DF8047B704700BF62
:102F00000054004080B483B000AF0346FB71044B13
:102F1000FA7992B21A820C37BD465DF8047B70478D
:102F20000054004080B500AF00F002F880BD00BF43
:102F300080B400AF434A434B5B6A43F08053536213
:102F4000414A414B1B6843F4807313603D4A3D4B3B
:102F50005B6B43F4000353633A4A3A4B5B6B23F4D5
:102F600000035363374A374B5B6B43F480735363FF
:102F700000BF344B5B6B03F40073002BF9D0314A74
:102F8000304B5B6B43F482035363304A2F4B5B6AD5
:102F900043F0CA0353622D4A2C4B5B6A43F0530340
:102FA00053622A4A294BDB6843F08003D36000BF99
:102FB000264BDB6803F04003002BF9D0234A234B58
:102FC0001B6943F0FA031361204A204B1B6943F449
:102FD0000003136100BF1D4BDB6803F00103002BEE
:102FE000F9D01A4A194BDB6943F0802343F40003FC
:102FF000D361164A154B9B6843F488539360134A78
:10300000124BDB6823F08003D360104BFF225A621F
:103010000F4A0F4B1B6843F4003313600C4A0C4BF0
:103020009B6843F4003393600A4A0A4B5B6843F49D
:1030300000735360074B302283F82923BD465DF8A7
:10304000047B7047003802400070004000280040B8
:103050000004014000E100E090B482B000AF3B46C4
:1030600083E80300554A554B5B6A43F0CA03536239
:10307000524A524B5B6A43F0530353624F4A4F4BE1
:10308000DB6843F08003D36000BF4C4BDB6803F088
:103090004003002BF9D0494CFB78494AA2FB03239B
:1030A000DB08DBB21805FA78454BA3FB0213D908FD
:1030B0000B469B000B445B00D31ADBB21B0440EAB7
:1030C00003023B793E49A1FB0313DB08DBB21B0380
:1030D00042EA03003A793A4BA3FB0213D9080B46A4
:1030E0009B000B445B00D31ADBB21B0240EA0302D5
:1030F0007B793349A1FB0313DB08DBB21B0142EAF6
:1031000003007A792E4BA3FB0213D9080B469B00D0
:103110000B445B00D31ADBB203432360274CBB781C
:10312000274AA2FB0323DB08DBB21805BA78244B3D
:10313000A3FB0213D9080B469B000B445B00D31A78
:10314000DBB21B0440EA03027B781D49A1FB031399
:10315000DB08DBB21B0342EA03007A78184BA3FBBF
:103160000213D9080B469B000B445B00D31ADBB259
:103170001B0240EA03023B781149A1FB0313DB0861
:10318000DBB21B0142EA03003A780D4BA3FB0213AA
:10319000D9080B469B000B445B00D31ADBB20343F8
:1031A0006360064A054BDB6823F08003D360034B62
:1031B000FF225A620837BD4690BC70470028004085
:1031C000CDCCCCCC80B487B000AF7860464A464BBB
:1031D000DB6823F02003D36000BF434BDB6803F0C0
:1031E0002003002BF9D0404B1B687B617B6903F403
:1031F00040131B0DDBB21A46920013445B00DAB297
:103200007B6903F470231B0CDBB21344DBB2FB734A
:103210007B6903F4E0431B0BDBB21A4692001344B4
:103220005B00DAB27B6903F470631B0ADBB2134400
:10323000DBB23B747B6903F070031B09DBB21A46F7
:10324000920013445B00DAB27B69DBB203F00F0338
:10325000DBB21344DBB27B74234B5B687B617B691D
:1032600003F470031B0DDBB21A46920013445B009B
:10327000DAB27B6903F470231B0CDBB21344DBB2BC
:10328000BB737B6903F480531B0BDBB21A469200BD
:1032900013445B00DAB27B6903F470631B0ADBB290
:1032A0001344DBB27B737B6903F030031B09DBB291
:1032B0001A46920013445B00DAB27B69DBB203F07A
:1032C0000F03DBB21344DBB23B737B681A4607F192
:1032D0000C03186810609B88938078681C37BD4683
:1032E0005DF8047B704700BF0028004080B400AF49
:1032F000074A074BDB6823F48073D360054A054B0C
:103300005B6943F400335361BD465DF8047B70474D
:10331000002800400004014080B584B000AF786010
:1033200000F022F800F074F80D4B1A6807F10F0353
:10333000104619460022002300F05AFB0346002BDA
:1033400009D0084B1A6807F10F03104619460022EE
:10335000002300F037FA4FF47A7000F003FFE3E740
:10336000985D0020A45D002080B400AF244A244B67
:103370001B6A43F001031362214A214BDB6943F0CE
:103380000103D3611E4A1E4B5B6A43F00103536283
:103390001C4A1C4BDB6843F04003D3601A4A1A4BAB
:1033A0001B6843F008031360174A174BDB6843F0B0
:1033B0000803D360154A154B1B6843F0805343F450
:1033C00000731360114B302283F809230F4B402206
:1033D00083F81C234FF0804380221A854FF08043EE
:1033E000FA22DA624FF080424FF080439B899BB211
:1033F00043F001039BB29381BD465DF8047B7047A7
:1034000000380240000002400004014000E100E0FA
:1034100080B400AF044A044B1B6843F008031360F8
:10342000BD465DF8047B70470004014080B400AFE6
:10343000044A044B1B6823F008031360BD465DF883
:10344000047B70470004014080B400AF4FF080421D
:103450004FF080431B889BB243F001039BB2138063
:10346000BD465DF8047B704780B400AF4FF08042EA
:103470004FF080431B889BB223F001039BB2138063
:10348000BD465DF8047B704780B500AFFFF7CEFF07
:10349000FFF7DAFF034A034B5B6943F0080353610C
:1034A00080BD00BF0004014080B582B000AF0023A2
:1034B000FB711F4B1B8A9BB203F00803DB10DAB2CF
:1034C0001C4B1A701B4B1A781B4B1B789A4206D167
:1034D0001A4B1B8801339AB2184B1A8002E0174B23
:1034E00000221A80154B1B88642B0FD1134B00222E
:1034F0001A80FFF7B9FF124B1A68FB1D10461946D8
:103500000022002300F0F0F9FFF782FF094B1A7840
:10351000094B1A704FF080424FF080431B8A9BB2D8
:1035200023F001039BB213820837BD4680BD00BF64
:1035300000000240940C0020950C0020960C002006
:10354000985D002080B483B000AF78607B6803F1A1
:1035500008027B685A607B684FF0FF329A607B6894
:1035600003F108027B68DA607B6803F108027B687C
:103570001A617B6800221A600C37BD465DF8047B37
:10358000704700BF80B483B000AF78607B680022D2
:103590001A610C37BD465DF8047B704780B485B076
:1035A00000AF786039607B685B68FB603B68FA68F5
:1035B0005A60FB689A683B689A60FB689B683A6847
:1035C0005A60FB683A689A603B687A681A617B685F
:1035D0001B685A1C7B681A601437BD465DF8047B73
:1035E000704700BF80B485B000AF786039603B6839
:1035F0001B68BB60BB68B3F1FF3F03D17B681B69ED
:10360000FB600CE07B680833FB6002E0FB685B68F2
:10361000FB60FB685B681A68BB689A42F6D9FB6876
:103620005A683B685A603B685B683A689A603B68D6
:10363000FA689A60FB683A685A603B687A681A616F
:103640007B681B685A1C7B681A601437BD465DF89E
:10365000047B704780B485B000AF78607B681B69DD
:10366000FB607B685B687A6892689A607B689B689D
:103670007A6852685A60FB685A687B689A4203D13C
:103680007B689A68FB685A607B6800221A61FB6855
:103690001B685A1EFB681A60FB681B6818461437C3
:1036A000BD465DF8047B704780B584B000AF78609C
:1036B00039607B68FB6001F057FCFB681A68FB68A7
:1036C000DB6BF968096C01FB03F31A44FB685A6071
:1036D000FB6800229A63FB681A68FB689A60FB68C3
:1036E0001A68FB68DB6B013BF968096C01FB03F3AB
:1036F0001A44FB68DA60FB684FF0FF325A64FB68DB
:103700004FF0FF329A643B68002B0ED1FB681B69B7
:10371000002B14D0FB681033184601F00FF9034654
:10372000012B0CD101F010FC09E0FB6810331846A6
:10373000FFF708FFFB6824331846FFF703FF01F08B
:1037400023FC012318461037BD4680BD80B588B0E4
:1037500000AFF860B9601346FB710023BB61BB6822
:10376000002B02D10023FB6105E0FB68BA6802FB75
:1037700003F30133FB61FB694C33184601F06EFC27
:1037800078617B69002B17D0BB68002B03D17B6964
:103790007A691A6004E07B6903F14C027B691A6064
:1037A0007B69FA68DA637B69BA681A64786901210F
:1037B000FFF77AFF7B69BB61BB6918462037BD46BE
:1037C00080BD00BF80B58AB000AFF860B9607A6094
:1037D0003B6000237B62FB683B6201F0C5FB3B6AF8
:1037E0009A6B3B6ADB6B9A4202D33B68022B1DD17A
:1037F000386AB9683A6800F049FAF8613B6A5B6A6E
:10380000002B0AD03B6A2433184601F097F8034690
:10381000012B07D101F098FB04E0FB69002B01D0DC
:1038200001F092FB01F0B0FB012359E07B68002B13
:1038300003D101F0A9FB002352E07B6A002B06D1E3
:1038400007F11403184601F019F901237B6201F016
:103850009BFB00F039FE01F087FB3B6A5B6CB3F128
:10386000FF3F02D13B6A00225A643B6A9B6CB3F172
:10387000FF3F02D13B6A00229A6401F085FB07F109
:1038800014023B1D1046194601F00EF90346002BA9
:103890001ED1386A00F0F6FA0346002B12D03B6ABC
:1038A00003F110027B681046194600F0BFFF386A2A
:1038B00000F072FA00F016FE0346002B0FD101F063
:1038C00043FB0CE0386A00F067FA00F00BFE84E777
:1038D000386A00F061FA00F005FE002300E07CE7A2
:1038E00018462837BD4680BD80B588B000AFF86067
:1038F000B9607A603B60FB68BB6101F057FB78619F
:10390000BB699A6BBB69DB6B9A4202D33B68022BA3
:1039100024D1B869B9683A6800F0B8F9BB699B6C02
:10392000B3F1FF3F12D1BB695B6A002B13D0BB69B7
:103930002433184601F002F80346002B0BD07B68B5
:10394000002B08D07B6801221A6004E0BB699B6CE5
:103950005A1CBB699A640123FB6101E00023FB61EF
:10396000786901F02DFBFB6918462037BD4680BD04
:1039700080B586B000AF786039607B683B6101F04C
:1039800015FBF8603B699A6B3B69DB6B9A4224D26A
:103990003B699B6B5A1C3B699A633B699B6CB3F117
:1039A000FF3F12D13B695B6A002B13D03B69243384
:1039B000184600F0C3FF0346002B0BD03B68002BDA
:1039C00008D03B6801221A6004E03B699B6C5A1CDA
:1039D0003B699A6401237B6101E000237B61F86805
:1039E00001F0EEFA7B6918461837BD4680BD00BF6E
:1039F00080B58AB000AFF860B9607A603B600023A0
:103A00007B62FB683B6201F0AFFA3B6A9B6B002B69
:103A100032D03B6ADB68FB61386AB96800F096F91E
:103A20003B68002B13D13B6A9B6B5A1E3B6A9A631F
:103A30003B6A1B69002B1BD03B6A1033184600F011
:103A40007DFF0346012B13D101F07EFA10E03B6AA3
:103A5000FA69DA603B6A5B6A002B09D03B6A24335F
:103A6000184600F06BFF0346002B01D001F06CFA02
:103A700001F08AFA012359E07B68002B03D101F0A1
:103A800083FA002352E07B6A002B06D107F114036E
:103A9000184600F0F3FF01237B6201F075FA00F095
:103AA00013FD01F061FA3B6A5B6CB3F1FF3F02D199
:103AB0003B6A00225A643B6A9B6CB3F1FF3F02D120
:103AC0003B6A00229A6401F05FFA07F114023B1D81
:103AD0001046194600F0E8FF0346002B1ED1386A55
:103AE00000F0A6F90346002B12D03B6A03F1240232
:103AF0007B681046194600F099FE386A00F04CF9D0
:103B000000F0F0FC0346002B0FD101F01DFA0CE091
:103B1000386A00F041F900F0E5FC74E7386A00F01B
:103B20003BF900F0DFFC002300E06CE71846283783
:103B3000BD4680BD80B588B000AFF860B9607A60DE
:103B4000FB68BB6101F032FA7861BB699B6B002BAB
:103B500028D0B869B96800F0F9F8BB699B6B5A1EA8
:103B6000BB699A63BB695B6CB3F1FF3F12D1BB6960
:103B70001B69002B13D0BB691033184600F0DEFE22
:103B80000346002B0BD07B68002B08D07B680122FA
:103B90001A6004E0BB695B6C5A1CBB695A64012360
:103BA000FB6101E00023FB61786901F009FAFB6920
:103BB00018462037BD4680BD80B586B000AF78601E
:103BC00039607B683B6101F0F1F9F8603B699B6B00
:103BD000002B0CD03B69DB68BB603869396800F0AA
:103BE000B5F83B69BA68DA6001237B6101E0002324
:103BF0007B61F86801F0E4F97B6918461837BD4627
:103C000080BD00BF80B584B000AF786001F0ACF932
:103C10007B689B6BFB6001F0B7F9FB6818461037B7
:103C2000BD4680BD80B584B000AF78607B68FB6026
:103C300001F09AF9FB68DA6BFB689B6BD31ABB60E7
:103C400001F0A2F9BB6818461037BD4680BD00BF21
:103C500080B485B000AF78607B689B6BFB60FB68CD
:103C600018461437BD465DF8047B704780B584B0B4
:103C700000AF78607B68FB60F86800F059F9F8687D
:103C800001F07AFA1037BD4680BD00BF80B586B01E
:103C900000AFF860B9607A6000237B61FB681B6C41
:103CA000002B48D07B68002B1AD1FB689A68FB6810
:103CB0001B6C1046B9681A4604F052F9FB689A6802
:103CC000FB681B6C1A44FB689A60FB689A68FB6887
:103CD0005B689A422FD3FB681A68FB689A602AE0F7
:103CE000FB68DA68FB681B6C1046B9681A4604F07A
:103CF00037F9FB68DA68FB681B6C5B421A44FB68A7
:103D0000DA60FB68DA68FB681B689A4207D2FB68D6
:103D10005A68FB681B6C5B421A44FB68DA607B687C
:103D2000022B08D1FB689B6B002B04D0FB689B6BBC
:103D30005A1EFB689A63FB689B6B5A1CFB689A636C
:103D40007B6918461837BD4680BD00BF80B582B07C
:103D500000AF786039607B681B6C002B19D07B68E2
:103D6000DA687B681B6C1A447B68DA607B68DA6807
:103D70007B685B689A4203D37B681A687B68DA6069
:103D80007B68DA687B681B6C386811461A4604F059
:103D9000E7F80837BD4680BD80B582B000AF7860D7
:103DA00001F0E2F814E07B685B6A002B0AD07B68C4
:103DB0002433184600F0C2FD0346002B03D000F068
:103DC000B7FE00E008E07B689B6C5A1E7B689A6433
:103DD0007B689B6C002BE6DC7B684FF0FF329A64BB
:103DE00001F0D2F801F0C0F814E07B681B69002BE9
:103DF0000FD07B681033184600F0A0FD0346002B5F
:103E000001D000F095FE7B685B6C5A1E7B685A649B
:103E100000E003E07B685B6C002BE6DC7B684FF026
:103E2000FF325A6401F0B0F80837BD4680BD00BFCC
:103E300080B584B000AF786001F096F87B689B6B2A
:103E4000002B02D10123FB6001E00023FB6001F0A5
:103E50009BF8FB6818461037BD4680BD80B485B01E
:103E600000AF78607B689B6B002B02D10123FB6065
:103E700001E00023FB60FB6818461437BD465DF87F
:103E8000047B704780B584B000AF786001F06CF8B7
:103E90007B689A6B7B68DB6B9A4202D10123FB60E3
:103EA00001E00023FB6001F06FF8FB681846103753
:103EB000BD4680BD80B485B000AF78607B689A6BEA
:103EC0007B68DB6B9A4202D10123FB6001E0002397
:103ED000FB60FB6818461437BD465DF8047B7047ED
:103EE00080B485B000AF786039600023FB6014E0D7
:103EF0000E4AFB6852F83330002B0BD10B49FB689C
:103F00003A6841F83320094AFB68DB0013447A68B9
:103F10005A6005E0FB680133FB60FB68042BE7D9BE
:103F20001437BD465DF8047B704700BFB05D0020CC
:103F300080B485B000AF78600023FB6010E00C4ACD
:103F4000FB68DB0013445A687B689A4205D1084A33
:103F5000FB68002142F8331005E0FB680133FB6089
:103F6000FB68042BEBD91437BD465DF8047B704722
:103F7000B05D002080B58AB002AFF860B9603B60E8
:103F80001346FB80FB881846396B00F0FFFEB861D2
:103F9000BB69002B67D0BB691A6BFB8803F18043B8
:103FA000013B9B0013447B617B6923F007037B612A
:103FB000FB880093B869B968BA6A7B6B00F0D4FDDE
:103FC0007869F9683A6800F049FF0246BB691A60EF
:103FD000FB6A002B02D0FB6ABA691A6000F0C4FFCA
:103FE0002C4B1B6801332B4A13602B4B1B68002B97
:103FF00009D1294ABB691360264B1B68012B0FD1DD
:1040000000F04EFE0CE0254B1B68002B08D1224B24
:104010001B68DA6ABB6A9A4202D81F4ABB691360FE
:104020001F4B1B6801331E4A1360BB69DB6A1A46CB
:10403000012303FA02F21B4B1B681343194A136056
:10404000BB69DA6A13469B0013449B00164A1A4464
:10405000BB69043310461946FFF7A0FA0123FB6140
:1040600000F092FF02E04FF0FF33FB61FB69012B90
:104070000BD10A4B1B68002B07D0074B1B68DA6A71
:10408000BB6A9A4201D200F05FFFFB6918462037F5
:10409000BD4680BD580D0020980C0020640D002006
:1040A000740D0020600D00209C0C002080B586B0AF
:1040B00000AF7860396000237B6100F005FA264B81
:1040C0001B683B617B681A683B681344FB607B6834
:1040D0001A683B699A420BD97B681A68FB689A4256
:1040E00011D9FA683B699A420DD901237B610AE034
:1040F0007B681A68FB689A4203D8FA683B699A425F
:1041000001D901237B617B68FA681A607B69002B07
:1041100017D0124B1B6804331846FFF79BFA03466F
:10412000002B0BD10D4B1B68DB6A1A460123934011
:10413000DA430B4B1B681340094A1360F86800F020
:10414000EFFD00F0CFF9B860BB68002B01D100F0A3
:10415000FBFE1837BD4680BD5C0D0020980C00208A
:10416000600D002080B584B000AF78600023FB6054
:104170007B68002B21D000F0A7F9144B1A687B68EC
:104180001344BB60124B1B6804331846FFF762FAF6
:104190000346002B0BD10E4B1B68DB6A1A4601232A
:1041A0009340DA430B4B1B6813400A4A1360B8680C
:1041B00000F0B6FD00F096F9F860FB68002B01D125
:1041C00000F0C2FE1037BD4680BD00BF5C0D002070
:1041D000980C0020600D002080B584B000AF78609E
:1041E00000F0C2FE7B68002B02D12D4B1B6800E063
:1041F0007B68FB60FB6804331846FFF72BFA034625
:10420000002B15D1FB68DA6A264913469B0013443C
:104210009B000B441B68002B0AD1FB68DB6A1A4623
:1042200001239340DA43204B1B6813401E4A13605E
:10423000FB689B6A002B04D0FB6818331846FFF715
:1042400009FAFB68043319481946FFF7A7F900F08B
:104250009BFE134B1B68FA689A4213D1144B1B68E0
:10426000002B02D000F070FE16E0104B1A68114BC4
:104270001B689A4203D10A4B00221A600CE000F03E
:104280008FFA09E00A4B1B68002B05D000F06CFE8A
:1042900000F0A8FD00F078FE1037BD4680BD00BFDD
:1042A000980C00209C0C0020600D0020440D002084
:1042B000640D0020580D002080B485B000AF7860F8
:1042C0000023FB607B68BB60BB685B690F4A93425D
:1042D00001D1012300E00023002B0FD0BB689B6AB3
:1042E0000B4A93420AD0BB689B6A002B01D1012381
:1042F00000E00023002B01D00123FB60FB6818467F
:104300001437BD465DF8047B704700BF440D0020A4
:10431000300D002080B584B000AF78607B68FB6012
:10432000FB68002B35D01C4B1B68FA689A4230D0D2
:1043300000F01AFEF868FFF7BFFF0346012B26D1F5
:10434000FB6804331846FFF785F9FB68DB6A1A46F9
:10435000012303FA02F2114B1B6813430F4A136047
:10436000FB68DA6A13469B0013449B000C4A1A440C
:10437000FB68043310461946FFF710F9FB68DA6A48
:10438000054B1B68DB6A9A4201D300F0DDFD00F0AB
:10439000FBFD1037BD4680BD980C0020600D00204D
:1043A0009C0C002080B586B000AF786000237B6154
:1043B0007B683B6100F0FAFDF8603869FFF77CFF2D
:1043C0000346012B31D11D4B1B68002B27D13B69C4
:1043D000DA6A1B4B1B68DB6A9A4201D301237B61BB
:1043E0003B6904331846FFF735F93B69DB6A1A4627
:1043F000012303FA02F2134B1B681343114A1360A3
:104400003B69DA6A13469B0013449B000E4A1A4428
:104410003B69043310461946FFF7C0F805E03B69D5
:1044200018330A481946FFF7B9F8F86800F0C8FDD4
:104430007B6918461837BD4680BD00BF7C0D002043
:10444000980C0020600D00209C0C0020300D0020F6
:1044500080B586B004AF00230093002301930023AE
:104460000293002303930D480D4964220023FFF7B4
:1044700081FD78607B68012B0DD100F097FD094B21
:104480004FF0FF321A60084B01221A60074B0022DE
:104490001A6000F035FD0837BD4680BD494B000865
:1044A0005C9C0008780D0020640D00205C0D00204D
:1044B00080B500AF00F07AFD024B00221A6000F0D8
:1044C0003DFD80BD640D002080B400AF044B1B682F
:1044D0000133034A1360BD465DF8047B704700BF9B
:1044E0007C0D002080B582B000AF00237B6000F01F
:1044F0003BFD344B1B68013B324A1360314B1B6858
:10450000002B57D1304B1B68002B53D030E02F4B82
:10451000DB68DB683B603B6818331846FFF79AF8A6
:104520003B6804331846FFF795F83B68DB6A1A4688
:10453000012303FA02F2264B1B681343244A13603B
:104540003B68DA6A13469B0013449B00214A1A44D5
:104550003B68043310461946FFF720F83B68DA6AD7
:104560001D4B1B68DB6A9A4202D31C4B01221A6066
:10457000164B1B68002BCAD1194B1B68002B11D09E
:104580000CE000F05DF80346002B02D0134B012233
:104590001A60134B1B68013B114A1360104B1B68D8
:1045A000002BEED10D4B1B68012B03D101237B6047
:1045B00000F0CAFC00F0E8FC7B6818460837BD46EE
:1045C00080BD00BF7C0D0020580D0020300D002064
:1045D000600D00209C0C0020980C00206C0D002029
:1045E000680D002080B483B000AF054B1B687B6072
:1045F0007B6818460C37BD465DF8047B704700BFEA
:104600005C0D002080B483B000AF00237B60054BBD
:104610001B683B603B6818460C37BD465DF8047B61
:10462000704700BF5C0D002080B400AF034B1B68D7
:104630001846BD465DF8047B704700BF580D00204A
:1046400080B586B000AF00237B614A4B1B68002B0E
:104650007FD1494B1B680133474A1360464B1B68A7
:104660003B613B69002B10D1444B1B68FB60444B02
:104670001B68424A1360424AFB681360414B1B6847
:104680000133404A136000F0ADFB3F4B1B683A69B1
:104690009A424FD3394B1B681B68002B01D1012371
:1046A00000E00023002B04D0374B4FF0FF321A609C
:1046B00040E0324B1B68DB68DB68BB60BB685B6853
:1046C0007B603A697B689A4203D22F4A7B68136009
:1046D00030E0BB6804331846FEF7BCFFBB689B6A3A
:1046E000002B04D0BB6818331846FEF7B3FFBB6835
:1046F000DB6A1A46012303FA02F2244B1B681343B8
:10470000224A1360BB68DA6A13469B0013449B007D
:104710001F4A1A44BB68043310461946FEF73EFF91
:10472000BB68DA6A1B4B1B68DB6A9A4201D3012320
:104730007B61AFE7174B1B68DA6A154913469B008C
:1047400013449B000B441B68012B07D901237B6199
:1047500004E0114B1B6801330F4A13600F4B1B68B9
:10476000002B01D001237B617B6918461837BD46B9
:1047700080BD00BF7C0D00205C0D0020280D0020B6
:104780002C0D0020700D0020780D0020600D002001
:104790009C0C0020980C0020680D00206C0D00205F
:1047A00080B485B000AF1C4B1B68002B03D01B4BA3
:1047B00001221A602AE0194B00221A60184B1B686C
:1047C0007B607B68B3FA83F3FB70FB78C3F11F0354
:1047D000FB60FA6813469B0013449B00114A134484
:1047E000BB60BB685B685A68BB685A60BB685A6844
:1047F000BB6808339A4204D1BB685B685A68BB68DF
:104800005A60BB685B68DB68074A13601437BD46B3
:104810005DF8047B704700BF7C0D00206C0D00200C
:10482000600D00209C0C0020980C002080B584B006
:1048300000AF78603960194B1B68183378681946E7
:10484000FEF7D0FE154B1B6804331846FEF702FF37
:104850000346002B0BD1114B1B68DB6A1A46012360
:104860009340DA430E4B1B6813400D4A13603B68BC
:10487000B3F1FF3F07D1094B1B68043309481946C0
:10488000FEF78CFE07E0084B1A683B681344FB6098
:10489000F86800F045FA1037BD4680BD980C00203E
:1048A000600D0020440D00205C0D002080B586B016
:1048B00000AFF860B9607A601C4B1B68BA6842F0C0
:1048C00000429A61194B1B681833F8681946FEF7C5
:1048D00065FE164B1B6804331846FEF7BBFE034605
:1048E000002B0BD1114B1B68DB6A1A460123934046
:1048F000DA430F4B1B6813400D4A13607B68B3F11A
:10490000FF3F07D1094B1B6804330A481946FEF7DD
:1049100045FE07E0084B1A687B6813447B617869A1
:1049200000F0FEF91837BD4680BD00BF980C00208E
:10493000600D0020440D00205C0D002080B584B087
:1049400000AF78607B68DB68DB68BB60BB681833EE
:104950001846FEF77FFE1E4B1B68002B1ED1BB685E
:1049600004331846FEF776FEBB68DB6A1A4601235D
:1049700003FA02F2174B1B681343164A1360BB6815
:10498000DA6A13469B0013449B00134A1A44BB681F
:10499000043310461946FEF701FE05E0BB681833E4
:1049A0000E481946FEF7FAFDBB68DA6A0C4B1B6825
:1049B000DB6A9A4205D90123FB600A4B01221A6087
:1049C00001E00023FB60FB6818461037BD4680BD40
:1049D0007C0D0020600D00209C0C0020300D00207C
:1049E000980C00206C0D002080B584B000AF78607A
:1049F00039603B6843F000427B681A607B68DB6883
:104A0000BB607868FEF726FEBB6804331846FEF7E5
:104A100021FEBB68DB6A1A46012303FA02F2134B3C
:104A20001B681343114A1360BB68DA6A13469B0084
:104A300013449B000E4A1A44BB68043310461946BF
:104A4000FEF7ACFDBB68DA6A0A4B1B68DB6A9A4268
:104A500005D90123FB60084B01221A6001E0002305
:104A6000FB60FB6818461037BD4680BD600D002016
:104A70009C0C0020980C00206C0D002080B483B0AA
:104A800000AF7860064B1A687B681A60054B1A689D
:104A90007B685A600C37BD465DF8047B704700BFE9
:104AA000700D00205C0D002080B584B000AF7860F0
:104AB000396000F059FA1C4B1B68BB603B681B68EF
:104AC000B3F1FF3F02D10023FB6026E07B681A6848
:104AD000164B1B689A4207D07B685A68BB689A429B
:104AE00002D80123FB6018E07B685B68BA68D21AC1
:104AF0003B681B689A420ED23B681A687B6859680B
:104B0000BB68CB1A1A443B681A607868FFF7B6FF97
:104B10000023FB6001E00123FB6000F035FAFB6835
:104B200018461037BD4680BD5C0D0020700D00207A
:104B300080B400AF034B01221A60BD465DF8047BD0
:104B4000704700BF6C0D002080B582B000AF786068
:104B500000F0E0F8034B1B68012B01D900F0F4F9D9
:104B6000F6E700BF9C0C002080B586B000AFF8606F
:104B7000B9607A603B6000237B6113E0BA687B69AF
:104B800013441978FA687B69134430330A461A7162
:104B9000BA687B6913441B78002B00D105E07B6960
:104BA00001337B617B690F2BE8D9FB68002283F816
:104BB00043207B68042B01D904237B60FB687A685F
:104BC000DA62FB6804331846FEF7DCFCFB68183336
:104BD0001846FEF7D7FCFB68FA681A617B68C3F1D8
:104BE0000502FB689A61FB68FA685A6200237B61E0
:104BF00009E0FA687B6910339B00134400225A6075
:104C00007B6901337B617B69042BF2D91837BD4680
:104C100080BD00BF80B487B000AFF860B9607A6033
:104C2000BB68042B0EDCFB68002B02D1084B1B6811
:104C300000E0FB687B617A69BB6810339B0013441A
:104C40007A685A601C37BD465DF8047B704700BF28
:104C5000980C002080B485B000AF786039600023E4
:104C6000FB603B68042B0FDC7B68002B02D10B4BF5
:104C70001B6800E07B68BB60BA683B6810339B0030
:104C800013445B68FB6001E00023FB60FB6818468F
:104C90001437BD465DF8047B704700BF980C0020B8
:104CA00080B582B000AF00237B600CE07A681346C9
:104CB0009B0013449B00104A13441846FEF742FC25
:104CC0007B6801337B607B68042BEFD90B48FEF7D0
:104CD00039FC0B48FEF736FC0A48FEF733FC0A485D
:104CE000FEF730FC094B054A1A60094B044A1A606A
:104CF0000837BD4680BD00BF9C0C0020000D002081
:104D0000140D0020300D0020440D0020280D00203F
:104D10002C0D002080B400AFBD465DF8047B7047C9
:104D200080B582B000AF7860134B1B687A685A6018
:104D3000124B1B687A689A4209D2114B1A680E4BC3
:104D40001B68043310461946FEF74CFC10E00D4B6F
:104D50001A68094B1B68043310461946FEF742FCDB
:104D6000094B1B687A689A4202D2074A7B68136033
:104D70000837BD4680BD00BF980C00205C0D0020A8
:104D80002C0D0020280D0020780D002080B584B067
:104D900000AF03463960FB803B68002B06D1FB88DF
:104DA0009B00184600F05AF9034600E03B68BB60E0
:104DB000BB68002B0ED0582000F050F9F860FB685B
:104DC000002B03D0FB68BA681A6305E0B86800F0EE
:104DD000D3F901E00023FB60FB6818461037BD469D
:104DE00080BD00BF80B483B000AF0E4B1B681B6852
:104DF000002B01D1012300E00023002B04D00A4B3B
:104E00004FF0FF321A6008E0064B1B68DB68DB6876
:104E10007B607B685B68044A13600C37BD465DF8B5
:104E2000047B7047280D0020780D002080B483B0EB
:104E300000AF094B1B689B697B60074B1B68064AE8
:104E40001268D26AC2F105029A617B6818460C3773
:104E5000BD465DF8047B7047980C002080B485B097
:104E600000AFF860B9607A60FB68043BFB60FB68E8
:104E70004FF080721A60FB68043BFB60BA68FB6805
:104E80001A60FB68043BFB60094AFB681A60FB6818
:104E9000143BFB607A68FB681A60FB68203BFB6090
:104EA000FB6818461437BD465DF8047B704700BFA9
:104EB000B54E000880B500AF00F078F8FEE700BFFF
:104EC000074B19680868B0E8F00F80F30988BFF352
:104ED0006F8F4FF0000080F311884EF00D0E704779
:104EE000980C00205C480068006880F3088862B66F
:104EF00061B6BFF34F8FBFF36F8F00DF00BF00BFFE
:104F000080B500AF0B4A0B4B1B6843F47003136072
:104F1000084A084B1B6843F07043136000F08AF89E
:104F2000054B00221A60FFF7DDFFFFF7C3FF0023E8
:104F3000184680BD20ED00E02400002080B400AFC2
:104F4000BD465DF8047B704780B400AF054B4FF061
:104F500080521A60BFF34F8FBFF36F8FBD465DF86D
:104F6000047B704704ED00E080B500AF00F01EF850
:104F7000044B1B680133034A1360BFF34F8FBFF329
:104F80006F8F80BD2400002080B500AF064B1B68EA
:104F9000013B054A1360044B1B68002B02D1002023
:104FA00000F00EF880BD00BF24000020EFF3118058
:104FB0004FF0100181F3118870470023184600BF9D
:104FC00080F31188704700BFEFF30980BFF36F8F44
:104FD0000D4B1A6820E9F00F10602DE908404FF0E2
:104FE000100080F31188FFF7DBFB4FF0000080F327
:104FF0001188BDE8084019680868B0E8F00F80F330
:105000000988BFF36F8F7047980C002080B500AF00
:10501000FFF7CCFFFFF714FB0346002B03D0044B34
:105020004FF080521A600020FFF7CAFF80BD00BF1A
:1050300004ED00E080B400AF054B47F6FF421A6074
:10504000044B07221A60BD465DF8047B704700BF21
:1050500014E000E010E000E008ED00E080B588B06A
:1050600000AF786000237B61FFF72EFA3E4B1B6890
:10507000002B04D100F0CAF83B4B01221A607B6878
:10508000002B0ED008231A467B6813447B607B6894
:1050900003F00703002B04D07B6823F007030833D9
:1050A0007B607B68002B57D07B6844F6F772934295
:1050B00052D82E4BBB612D4B1B68FB6104E0FB6992
:1050C000BB61FB691B68FB61FB695A687B689A429C
:1050D00003D2FB691B68002BF1D1FB69244A934280
:1050E0003AD0BB691B68082213447B61FB691A68CC
:1050F000BB691A60FB695A687B68D31A08225200A0
:10510000934222D9FA697B681344FB60FB695A68B1
:105110007B68D21AFB685A60FB697A685A60FB6840
:105120005B68BB60114B3B6102E03B691B683B6104
:105130003B691B685A68BB689A42F6D33B691A6898
:10514000FB681A603B69FA681A600A4B1A68FB69C7
:105150005B68D31A074A1360FFF7C4F97B691846E6
:105160002037BD4680BD00BF905D0020805D0020DF
:10517000885D00202800002080B586B000AF7860F0
:105180007B683B617B68002B27D008235B423A6930
:1051900013443B613B69FB60FFF796F9FB685B6872
:1051A000BB600F4B7B6102E07B691B687B617B69A5
:1051B0001B685A68BB689A42F6D37B691A68FB6819
:1051C0001A607B69FA681A60FB685A68054B1B68AD
:1051D0001344044A1360FFF785F91837BD4680BDB4
:1051E000805D00202800002080B400AF034B1B68C6
:1051F0001846BD465DF8047B704700BF28000020BC
:1052000080B400AFBD465DF8047B704780B483B0C6
:1052100000AF0F4B23F007037B600E4A7B681360DF
:105220000C4B00225A600C4B44F6F8725A600A4B41
:1052300000221A607B683B603B6844F6F8725A6053
:105240003B68054A1A600C37BD465DF8047B704721
:10525000880D0020805D0020885D002080B582B030
:1052600000AF78607B68B3F1804F08D10120012145
:1052700001F024FF0120002101F020FF66E07B689F
:10528000344A934208D10220012101F017FF022085
:10529000002101F013FF59E07B682F4A934208D1A7
:1052A0000420012101F00AFF0420002101F006FF83
:1052B0004CE07B68294A934208D10820012101F083
:1052C000FDFE0820002101F0F9FE3FE07B68244A42
:1052D000934208D11020012101F0F0FE102000219E
:1052E00001F0ECFE32E07B681E4A934208D1202098
:1052F000012101F0E3FE2020002101F0DFFE25E086
:105300007B68194A934208D10420012101F0B8FEBC
:105310000420002101F0B4FE18E07B68134A934298
:1053200008D10820012101F0ABFE0820002101F086
:10533000A7FE0BE07B680E4A934207D110200121A3
:1053400001F09EFE1020002101F09AFE0837BD46B4
:1053500080BD00BF0004004000080040000C004079
:10536000001000400014004000080140000C014003
:105370000010014080B485B000AF78603960002330
:10538000FB817B681B88FB817B68B3F1804F0BD06E
:105390007B681C4A934207D07B681B4A934203D028
:1053A0007B681A4A934208D1FB8923F07003FB8182
:1053B0003B685A88FB891343FB817B68144A9342FC
:1053C0000CD07B68134A934208D0FB8923F44073C6
:1053D000FB813B681A89FB891343FB817B68FA894F
:1053E0001A803B685A687B68DA623B681A887B6877
:1053F0001A857B6801229A821437BD465DF8047BCA
:10540000704700BF0004004000080040000C00404E
:10541000001000400014004080B483B000AF7860FA
:105420007B684FF0FF325A607B6800221A807B68ED
:1054300000221A817B6800225A800C37BD465DF835
:10544000047B704780B483B000AF78600B467B80EC
:1054500013463B807B687A881A857B683A889A82F3
:105460000C37BD465DF8047B704700BF80B485B043
:1054700000AF78600B467B800023FB817B681B8834
:10548000FB81FB8923F07003FB81FA897B8813433E
:10549000FB817B68FA891A801437BD465DF8047B6E
:1054A000704700BF80B483B000AF786039607B681C
:1054B0003A685A620C37BD465DF8047B704700BFFE
:1054C00080B483B000AF786039607B683A68DA6294
:1054D0000C37BD465DF8047B704700BF80B483B0D5
:1054E00000AF78607B685B6A18460C37BD465DF894
:1054F000047B704780B483B000AF78607B681B8DFD
:105500009BB218460C37BD465DF8047B704700BF60
:1055100080B483B000AF78600B46FB70FB78002B43
:1055200008D07B681B889BB243F002039AB27B6869
:105530001A8007E07B681B889BB223F002039AB2B3
:105540007B681A800C37BD465DF8047B704700BF4E
:1055500080B483B000AF78600B467B807B88002BE3
:1055600008D07B681B889BB243F004039AB27B6827
:105570001A8007E07B681B889BB223F004039AB271
:105580007B681A800C37BD465DF8047B704700BF0E
:1055900080B483B000AF78600B46FB70FB78002BC3
:1055A00008D07B681B889BB243F080039AB27B686B
:1055B0001A8007E07B681B889BB223F080039AB2B5
:1055C0007B681A800C37BD465DF8047B704700BFCE
:1055D00080B483B000AF78600B467B807B681B880B
:1055E0009BB223F008039AB27B681A807B681B8801
:1055F0009AB27B8813439AB27B681A800C37BD46F7
:105600005DF8047B704700BF80B483B000AF786062
:105610000B467B807B681B889BB223F440739AB255
:105620007B681A807B681B889AB27B8813439AB286
:105630007B681A800C37BD465DF8047B704700BF5D
:1056400080B483B000AF78600B46FB70FB78002B12
:1056500008D07B681B889BB243F001039AB27B6839
:105660001A8007E07B681B889BB223F001039AB283
:105670007B681A800C37BD465DF8047B704700BF1D
:1056800080B485B000AF786039600023FB810023CF
:10569000BB817B681B8C9BB223F001039AB27B68B1
:1056A0001A847B681B8CBB817B681B8BFB81FB890D
:1056B00023F07003FB81FB8923F00303FB813B682C
:1056C0001A88FB891343FB81BB8923F00203BB814A
:1056D0003B681A89BB891343BB813B685A88BB89E5
:1056E0001343BB813B685A687B685A637B68FA89BD
:1056F0001A837B68BA891A841437BD465DF8047B27
:10570000704700BF80B485B000AF78603960002377
:10571000FB810023BB817B681B8C9BB223F01003B1
:105720009AB27B681A847B681B8CBB817B681B8B5D
:10573000FB81FB8923F4E043FB813B681B881B0250
:105740009AB2FB891343FB81BB8923F02003BB8101
:105750003B681B891B019AB2BB891343BB813B6821
:105760005B881B019AB2BB891343BB813B685A68B3
:105770007B689A637B68FA891A837B68BA891A8482
:105780001437BD465DF8047B704700BF80B485B018
:1057900000AF786039600023FB810023BB817B6808
:1057A0001B8C9BB223F480739AB27B681A847B684B
:1057B0001B8CBB817B689B8BFB81FB8923F0700377
:1057C000FB813B681A88FB891343FB81BB8923F467
:1057D0000073BB813B681B891B029AB2BB891343D0
:1057E000BB813B685B881B029AB2BB891343BB81B8
:1057F0003B685A687B68DA637B68FA899A837B68BE
:10580000BA891A841437BD465DF8047B704700BF1F
:1058100080B485B000AF786039600023FB8100233D
:10582000BB817B681B8C9BB223F480539AB27B684C
:105830001A847B681B8CBB817B689B8BFB81FB89FB
:1058400023F4E043FB813B681B881B029AB2FB896F
:105850001343FB81BB8923F40053BB813B681B8945
:105860001B039AB2BB891343BB813B685B881B0354
:105870009AB2BB891343BB813B685A687B681A6440
:105880007B68FA899A837B68BA891A841437BD4683
:105890005DF8047B704700BF80B483B000AF7860D0
:1058A0007B6800221A807B6800225A807B68002275
:1058B0005A607B6800221A810C37BD465DF8047B74
:1058C000704700BF80B485B000AF78600B467B8026
:1058D00013463B800023FB6000237B817B68FB60D9
:1058E000FB681833FB607B88012202FA03F37B819B
:1058F0007B681B8C9AB27B89DB439BB213409AB2C4
:105900007B681A847B88002B02D07B88082B13D1FC
:105910007B885B089BB21A46FB681344FB60FB68FC
:10592000FA68126822F070021A60FB68FA6811685F
:105930003A880A431A6016E07B88043B9BB25B08F6
:105940009BB21A46FB681344FB60FB68FA68126856
:1059500022F4E0421A60FB68FA681268398809028A
:1059600089B20A431A601437BD465DF8047B70475C
:1059700080B483B000AF786039607B683A685A635E
:105980000C37BD465DF8047B704700BF80B483B020
:1059900000AF786039607B683A689A630C37BD461F
:1059A0005DF8047B704700BF80B483B000AF7860BF
:1059B00039607B683A68DA630C37BD465DF8047B72
:1059C000704700BF80B483B000AF786039607B68F7
:1059D0003A681A640C37BD465DF8047B704700BF17
:1059E00080B485B000AF78600B467B800023FB81DC
:1059F0007B681B8BFB81FB8923F07003FB81FA8999
:105A00007B881343FB817B68FA891A831437BD4670
:105A10005DF8047B704700BF80B485B000AF78604C
:105A20000B467B800023FB817B681B8BFB81FB8902
:105A300023F4E043FB817B881B029AB2FB8913436A
:105A4000FB817B68FA891A831437BD465DF8047BB5
:105A5000704700BF80B485B000AF78600B467B8094
:105A60000023FB817B689B8BFB81FB8923F0700308
:105A7000FB81FA897B881343FB817B68FA899A83CF
:105A80001437BD465DF8047B704700BF80B485B015
:105A900000AF78600B467B800023FB817B689B8B8B
:105AA000FB81FB8923F4E043FB817B881B029AB2D4
:105AB000FB891343FB817B68FA899A831437BD46BF
:105AC0005DF8047B704700BF80B485B000AF78609C
:105AD0000B467B800023FB817B681B8BFB81FB8952
