:020000040800F2
:1000000000400120E51000082D1100082D11000806
:100010002D1100082D1100082D110008000000000E
:100020000000000000000000000000002D1100088A
:100030002D110008000000002D1100082D110008EE
:100040002D1100082D1100082D1100082D11000898
:100050002D1100082D1100082D1100082D11000888
:100060002D1100082D1100082D1100082D11000878
:100070002D1100082D1100082D1100082D11000868
:100080002D1100082D1100082D1100082D11000858
:100090002D1100082D1100082D1100082D11000848
:1000A0002D1100082D1100082D1100082D11000838
:1000B0002D1100082D1100082D1100082D11000828
:1000C0002D1100082D1100082D1100082D11000818
:1000D0002D1100082D1100082D1100082D11000808
:1000E0002D1100082D1100082D1100082D110008F8
:1000F0002D110008000000002D1100082D1100082E
:100100002D1100082D1100082D1100082D110008D7
:100110002D1100082D1100082D1100082D110008C7
:100120002D11000800000000000000000000000089
:0C01300000000000000000005FF808F173
:1001400010B5054C237833B9044B13B10448AFF311
:1001500000800123237010BD58040020000000001F
:10016000A4140008084B10B51BB108480849AFF3A8
:1001700000800848036803B910BD074B002BFBD073
:10018000BDE81040184700BF00000000A41400089C
:100190005C0400205404002000000000154B002BDC
:1001A00008BF134B9D46A3F5803A00218B460F46AE
:1001B0001348144A121A00F0F3FF0F4B002B00D023
:1001C00098470E4B002B00D09847002000210400D8
:1001D0000D000D48002802D00C4801F0A3F800F0F3
:1001E000B7FF2000290000F013F800F0A1FF00BFC6
:1001F00000000800000000000000000000000000F7
:10020000580400207404002025130008311300084E
:1002100080B582B002AF4FF41653009309480A49E3
:100220000A220B2300F08CF900BF0748802100F060
:1002300057FB0346012BF8D10348412100F032FB64
:10024000F2E700BF000002400038014080B500AF77
:10025000144A144B1B6843F4807313601149114B0B
:100260009A68114B13408B600E4A0E4B1B6823F0AB
:10027000885323F0011313600A4A0A4B1B6823F4C6
:1002800080231360074A074B9B6823F47D03936028
:10029000044B0022DA6000F0B7F8044B4FF0006224
:1002A0009A6080BD003802400CC0FF8800ED00E07D
:1002B00080B487B000AF00237B6100233B61002343
:1002C000FB600023BB6000237B60494B9B6803F00D
:1002D0000C037B617B690C2B64D801A252F823F0DC
:1002E00015030008A5030008A5030008A5030008DE
:1002F00035030008A5030008A5030008A5030008AE
:100300003D030008A5030008A5030008A503000895
:1003100045030008364B5B6803F460435B0B7B606E
:100320007B6801331A464FF4004393401A46314B21
:100330001A6047E02F4B304A1A6043E02D4B2F4A9A
:100340001A603FE02A4B9B6803F470133B61284B13
:100350009B6803F44003FB603B699B0C284AD35C19
:10036000DBB23B61FB689B0D0133FB60204B9B685C
:1003700003F48033BB60BB68002B09D13B691E4A84
:1003800002FB03F2FB68B2FBF3F31A4A136019E0B5
:100390003B691A4A02FB03F2FB68B2FBF3F3154A0E
:1003A00013600FE0124B5B6803F460435B0B7B60F0
:1003B0007B6801331A464FF4004393401A460D4BB5
:1003C0001A6000BF0A4B9B6803F0F0031B090D4A3B
:1003D000D35CDBB27B61074B1A687B6922FA03F3BB
:1003E000044A13601C37BD465DF8047B704700BFAC
:1003F00000380240040000200024F40000127A00BB
:10040000080000201400002080B483B000AF002357
:100410007B6000233B60414A404B1B6843F48033C0
:1004200013603E4B1B6803F400333B607B68013371
:100430007B603B68002B03D17B68B3F5A04FF0D104
:10044000364B1B6803F40033002B02D001233B60C2
:1004500001E000233B603B68012B5AD1304A304B0E
:100460001B6843F0040313602D4A2D4B1B6843F0B7
:10047000020313602A4A2A4B1B6843F001031360EE
:10048000264A264B5B6A43F080535362254B4FF458
:1004900000621A6000BF234B5B6803F01003002B5F
:1004A000F9D11E4A1D4B9B6893601C4A1B4B9B68ED
:1004B00093601A4A194B9B689360184A174B9B68C4
:1004C00023F47D039360154A144B9B6843F4110396
:1004D0009360124A114B1B6843F08073136000BF96
:1004E0000E4B1B6803F00073002BF9D00B4A0B4B2B
:1004F0009B6823F003039360084A084B9B6843F012
:100500000303936000BF054B9B6803F00C030C2BA7
:10051000F9D10C37BD465DF8047B704700380240C6
:10052000003C024000700040DC1400080000002085
:10053000540400205804002074040020000000002F
:1005400080B588B000AFF860B96011461A460B4616
:10055000FB711346BB71FB68954A934206D1954ADD
:10056000944BDB6943F00103D3612AE0FB68924AB4
:10057000934206D18F4A8F4BDB6943F00203D3616C
:100580001FE0FB688D4A934206D18A4A894BDB699A
:1005900043F00403D36114E0FB68894A934206D117
:1005A000844A844BDB6943F00803D36109E0FB68AC
:1005B000844A934205D17F4A7E4BDB6943F01003A6
:1005C000D361FB681B68FA79520002219140BA7925
:1005D0005200022000FA02F20A431A43FB681A6032
:1005E000FB689A68FB689A60FB68DB68FA795200DE
:1005F00001219140BA795200012000FA02F20A4327
:100600001A43FB68DA60BB686F4A934207D0BB6845
:100610006E4A934203D0BB686D4A934234D1FB7952
:10062000DB08DBB21846FB79DB08DBB21A46FB6855
:10063000083253F82230FA7902F0070292000721BB
:1006400001FA02F243EA0201FB6800F1080243F8F2
:100650002210BB79DB08DBB21846BB79DB08DBB2C2
:100660001A46FB68083253F82230BA7902F00702C2
:100670009200072101FA02F243EA0201FB6800F14D
:10068000080243F822103BE0BB68524A934203D071
:10069000BB68514A934233D1FB79DB08DBB2184681
:1006A000FB79DB08DBB21A46FB68083253F82230CC
:1006B000FA7902F007029200082101FA02F243EAF5
:1006C0000201FB6800F1080243F82210BB79DB0845
:1006D000DBB21846BB79DB08DBB21A46FB6808328E
:1006E00053F82230BA7902F007029200082101FA89
:1006F00002F243EA0201FB6800F1080243F822100B
:10070000BB68314A934206D12A4A2A4B1B6A43F4FA
:10071000804313622AE0BB682C4A934206D1254AE3
:10072000244B5B6A43F4003353621FE0BB68284AE2
:10073000934206D11F4A1F4B5B6A43F480235362E6
:1007400014E0BB68234A934206D11A4A194B5B6AEC
:1007500043F40023536209E0BB681F4A934205D16A
:10076000144A144B5B6A43F480135362BB689B8941
:100770009AB21A4B13439AB2BB689A81BB68124A69
:1007800093422DD1BB6ADB00184600F003FA024603
:100790000B4605A1D1E9000100F09CFB02460B4687
:1007A000C7E906232CE000BF0000000080847E41E2
:1007B00000000240003802400004024000080240ED
:1007C000000C02400010024000380140004400408C
:1007D00000480040004C0040005000400CA0FFFFCB
:1007E000BB6ADB00184600F0D5F902460B462AA189
:1007F000D1E9000100F06EFB02460B46C7E9062373
:10080000D7E9060100F04EFC03469BB2184600F003
:10081000D1F902460B46D7E9060100F07DF8024601
:100820000B46104619464FF000021D4B00F028FA07
:1008300002460B461046194600F0E4FD02460B4600
:100840001046194600F02EFC0346FB75FB7DDB08C5
:10085000DBB2184600F0AEF902460B4610461946C8
:10086000D7E9062300F05AF802460B46104619460F
:1008700000F018FC03463B613B699BB21B019AB236
:10088000FB7D9BB203F007039BB213439AB2BB6894
:100890001A812037BD4680BD0000000080847E4163
:1008A0000000204080B483B000AF78600B46FB703E
:1008B000FB789AB27B689A800C37BD465DF8047B62
:1008C000704700BF80B483B000AF78607B689B88BE
:1008D0009BB2DBB218460C37BD465DF8047B70470F
:1008E00080B483B000AF78600B467B807B681B8848
:1008F0009AB27B8813409BB2002B01D1002300E009
:10090000012318460C37BD465DF8047B704700BFD5
:1009100081F0004102E000BF83F0004330B54FEAB0
:1009200041044FEA430594EA050F08BF90EA020F1D
:100930001FBF54EA000C55EA020C7FEA645C7FEAB0
:10094000655C00F0E2804FEA5454D4EB5555B8BFD3
:100950006D420CDD2C4480EA020281EA030382EA44
:10096000000083EA010180EA020281EA0303362DD6
:1009700088BF30BD11F0004F4FEA01314FF4801CA9
:100980004CEA113102D0404261EB410113F0004FBB
:100990004FEA03334CEA133302D0524263EB430372
:1009A00094EA050F00F0A780A4F10104D5F1200E10
:1009B0000DDB02FA0EFC22FA05F2801841F100016B
:1009C00003FA0EF2801843FA05F359410EE0A5F13F
:1009D00020050EF1200E012A03FA0EFC28BF4CF070
:1009E000020C43FA05F3C01851EBE37101F0004526
:1009F00007D54FF0000EDCF1000C7EEB00006EEB33
:100A00000101B1F5801F1BD3B1F5001F0CD34908BC
:100A10005FEA30004FEA3C0C04F101044FEA445213
:100A200012F5800F80F09A80BCF1004F08BF5FEA9A
:100A3000500C50F1000041EB045141EA050130BD7A
:100A40005FEA4C0C404141EB010111F4801FA4F11D
:100A50000104E9D191F0000F04BF01460020B1FA72
:100A600081F308BF2033A3F10B03B3F120020CDAAA
:100A70000C3208DD02F1140CC2F10C0201FA0CF088
:100A800021FA02F10CE002F11402D8BFC2F1200CED
:100A900001FA02F120FA0CFCDCBF41EA0C019040A3
:100AA000E41AA2BF01EB0451294330BD6FEA0404EC
:100AB0001F3C1CDA0C340EDC04F11404C4F12002D7
:100AC00020FA04F001FA02F340EA030021FA04F3E9
:100AD00045EA030130BDC4F10C04C4F1200220FA40
:100AE00002F001FA04F340EA0300294630BD21FA7E
:100AF00004F0294630BD94F0000F83F4801306BF44
:100B000081F480110134013D4EE77FEA645C18BF37
:100B10007FEA655C29D094EA050F08BF90EA020FCE
:100B200005D054EA000C04BF1946104630BD91EAC6
:100B3000030F1EBF0021002030BD5FEA545C05D1C9
:100B40004000494128BF41F0004130BD14F5800408
:100B50003CBF01F5801130BD01F0004545F0FE417C
:100B600041F470014FF0000030BD7FEA645C1ABFB1
:100B7000194610467FEA655C1CBF0B46024650EAE8
:100B8000013406BF52EA033591EA030F41F4002114
:100B900030BD00BF90F0000F04BF0021704730B59A
:100BA0004FF4806404F132044FF000054FF000016F
:100BB00050E700BF90F0000F04BF0021704730B530
:100BC0004FF4806404F1320410F0004548BF404205
:100BD0004FF000013EE700BF42004FEAE2014FEA5A
:100BE00031014FEA02701FBF12F07F4393F07F4F35
:100BF00081F06051704792F0000F14BF93F07F4F67
:100C0000704730B54FF4607401F0004521F00041A9
:100C100020E700BF50EA010208BF704730B54FF02F
:100C200000050AE050EA010208BF704730B511F034
:100C3000004502D5404261EB41014FF4806404F16C
:100C400032045FEA915C3FF4DCAE4FF003025FEAEE
:100C5000DC0C18BF03325FEADC0C18BF033202EB76
:100C6000DC02C2F1200300FA03FC20FA02F001FAD0
:100C700003FE40EA0E0021FA02F11444C1E600BF6F
:100C800070B54FF0FF0C4CF4E06C1CEA11541DBF22
:100C90001CEA135594EA0C0F95EA0C0F00F0DEF8ED
:100CA0002C4481EA030621EA4C5123EA4C5350EAD2
:100CB000013518BF52EA033541F4801143F4801323
:100CC00038D0A0FB02CE4FF00005E1FB02E506F0B4
:100CD0000042E0FB03E54FF00006E1FB03569CF009
:100CE000000F18BF4EF0010EA4F1FF04B6F5007F0F
:100CF00064F5407404D25FEA4E0E6D4146EB060681
:100D000042EAC62141EA55514FEAC52040EA5E5009
:100D10004FEACE2EB4F1FD0C88BFBCF5E06F1ED8B3
:100D2000BEF1004F08BF5FEA500E50F1000041EBEA
:100D3000045170BD06F0004646EA010140EA020097
:100D400081EA0301B4EB5C04C2BFD4EB0C0541EAB9
:100D5000045170BD41F480114FF0000E013C00F3CE
:100D6000AB8014F1360FDEBF002001F0004170BDF2
:100D7000C4F10004203C35DA0C341BDC04F114040B
:100D8000C4F1200500FA05F320FA04F001FA05F297
:100D900040EA020001F0004221F0004110EBD37064
:100DA00021FA04F642EB06015EEA430E08BF20EA90
:100DB000D37070BDC4F10C04C4F1200500FA04F333
:100DC00020FA05F001FA04F240EA020001F00041C5
:100DD00010EBD37041F100015EEA430E08BF20EA38
:100DE000D37070BDC4F1200500FA05F24EEA020E80
:100DF00020FA04F301FA05F243EA020321FA04F0AF
:100E000001F0004121FA04F220EA020000EBD37065
:100E10005EEA430E08BF20EAD37070BD94F0000F65
:100E20000FD101F00046400041EB010111F4801F99
:100E300008BF013CF7D041EA060195F0000F18BF4A
:100E4000704703F00046520043EB030313F4801F86
:100E500008BF013DF7D043EA0603704794EA0C0F40
:100E60000CEA135518BF95EA0C0F0CD050EA410656
:100E700018BF52EA4306D1D181EA030101F00041D3
:100E80004FF0000070BD50EA410606BF10461946FB
:100E900052EA430619D094EA0C0F02D150EA013607
:100EA00013D195EA0C0F05D152EA03361CBF104648
:100EB00019460AD181EA030101F0004141F0FE41E7
:100EC00041F470014FF0000070BD41F0FE4141F46B
:100ED000780170BD70B54FF0FF0C4CF4E06C1CEA6B
:100EE00011541DBF1CEA135594EA0C0F95EA0C0F20
:100EF00000F0A7F8A4EB050481EA030E52EA0335DB
:100F00004FEA013100F088804FEA03334FF08055FB
:100F100045EA131343EA12634FEA022245EA111528
:100F200045EA10654FEA00260EF000419D4208BFD9
:100F3000964244F1FD0404F5407402D25B084FEA86
:100F40003202B61A65EB03055B084FEA32024FF432
:100F500080104FF4002CB6EB020E75EB030E22BF8F
:100F6000B61A754640EA0C005B084FEA3202B6EB4F
:100F7000020E75EB030E22BFB61A754640EA5C00FE
:100F80005B084FEA3202B6EB020E75EB030E22BF8E
:100F9000B61A754640EA9C005B084FEA3202B6EB8F
:100FA000020E75EB030E22BFB61A754640EADC004E
:100FB00055EA060E18D04FEA051545EA16754FEAB0
:100FC00006164FEAC30343EA52734FEAC2025FEACE
:100FD0001C1CC0D111F4801F0BD141EA00014FF05D
:100FE00000004FF0004CB6E711F4801F04BF01432E
:100FF0000020B4F1FD0C88BFBCF5E06F3FF6AFAE4A
:10100000B5EB030C04BFB6EB020C5FEA500C50F1D9
:10101000000041EB045170BD0EF0004E4EEA11315C
:1010200014EB5C04C2BFD4EB0C0541EA045170BD63
:1010300041F480114FF0000E013C90E645EA060EA7
:101040008DE60CEA135594EA0C0F08BF95EA0C0FD5
:101050003FF43BAF94EA0C0F0AD150EA01347FF41D
:1010600034AF95EA0C0F7FF425AF104619462CE7F4
:1010700095EA0C0F06D152EA03353FF4FDAE104657
:10108000194622E750EA410618BF52EA43067FF4A8
:10109000C5AE50EA41047FF40DAF52EA43057FF438
:1010A000EBAE12E74A0011D212F5001211D20DD5A3
:1010B0006FF47873B3EB62520ED44FEAC12343F05E
:1010C000004343EA505323FA02F070474FF0000008
:1010D000704750EA013002D14FF0FF3070474FF0B7
:1010E00000007047002103E00B4B5B584350043174
:1010F0000A480B4B42189A42F6D30A4A02E00023F0
:1011000042F8043B084B9A42F9D3FFF79FF800F0EE
:101110001FF8FFF77DF87047DC140008000000207E
:10112000540400205804002074040020FEE700004E
:1011300008B50021044600F08BF8044B1868C36B17
:1011400003B19847204600F05BF900BFC4140008C3
:1011500070B50F4E0F4D761BB61018BF002405D08A
:10116000013455F8043B9847A642F9D10A4E0B4D7D
:1011700000F09AF9761BB61018BF002406D001348F
:1011800055F8043B9847A642F9D170BD70BD00BF29
:10119000D0140008D0140008D8140008D014000897
:1011A00070B4840746D0541E002A41D0CDB2034605
:1011B00002E0621EE4B3144603F8015B9A07F8D11B
:1011C000032C2ED9CDB245EA05250F2C45EA05455D
:1011D00019D9264603F11002103E0F2E42F8105C7A
:1011E00042F80C5C42F8085C42F8045C02F1100220
:1011F000F2D8A4F1100222F00F0204F00F04103212
:10120000032C13440DD91E462246043A032A46F8FD
:10121000045BFAD8221F22F003020432134404F0C4
:1012200003042CB1C9B21C4403F8011BA342FBD137
:1012300070BC704714460346C2E700BF024B13B1AF
:10124000024800F06FB8704700000000311300083A
:101250002DE9F04F81460E46304B83B01B6800935A
:1012600003F5A4730193009BD3F8487127B3DDF80D
:1012700004A07C68651E0ED4013407EB84044FF093
:101280000008E6B1D4F80031B34218D0013D6B1C20
:10129000A4F10404F5D1224B73B17B68002B36D145
:1012A0003B68002B34D03846CAF80030AFF30080DA
:1012B000DAF80070002FDCD103B0BDE8F08F7B6856
:1012C0002268013BAB420CBF7D60C4F80080002A5D
:1012D000DCD0D7F888310121A9401942D7F804B0F1
:1012E00008D190477B685B45BDD1DAF80030BB423E
:1012F000CCD0B8E7D7F88C31194204D14846D4F89D
:1013000080109047EEE7D4F880009047EAE73B680A
:10131000BA461F46002FACD1CEE700BFC414000868
:1013200000000000014600200246034600F016B807
:1013300038B5084B084DED1AAC1018BFED1805D0A4
:10134000013C55F8043D9847002CF9D1BDE83840E0
:1013500000F0B0B8D8140008DC1400082DE9F047FC
:10136000254C064625688846D5F848419246994658
:10137000C4B360681F2817DC411C76B104EB8003FE
:10138000C3F888A0D4F88851012282401543022E68
:10139000C4F88851C3F808911ED0831C61600020F6
:1013A00044F82380BDE8F087144B03B34FF4C870B2
:1013B000AFF300800446D0B1D5F84831002784E867
:1013C00088003846C5F848410121C4F88871C4F83E
:1013D0008C71002EE1D0D1E7D4F88C311A43C4F8D7
:1013E0008C21DAE705F5A674C5F84841C1E74FF04E
:1013F000FF30BDE8F08700BFC41400080000000003
:10140000FEE700BFF8B5C1F30A56A6F2FF35132D6B
:101410000A460B460446864611DC002D2DDB0F469E
:101420001F492941114224D04FF400232B413B4452
:1014300023EA01030022194614462046F8BD332D45
:1014400005DDB5F5806F1ED011462046F8BDA6F229
:1014500013414FF0FF30C8402042F5D0C6F58666F4
:1014600002360121B140091928BF013321EA0002E7
:10147000E1E70028D8D11146E7E7013501F0004344
:1014800007D00022D7E702460B46FFF747FA04468B
:10149000D3E743F07F5343F440130022CBE700BF70
:1014A000FFFF0F0000000000F8B500BFF8BC08BC4B
:1014B0009E467047F8B500BFF8BC08BC9E46704712
:0814C000430000002800002099
:0814C800D4ECFF7F01000000DD
:0814D0003D120008650100084F
:0414D80041010008C6
:1014DC00000000000048E801030406080C10182066
:1014EC0030000000000000000000000001020304B6
:1014FC00060708090000000000000000140300208B
:10150C007C030020E4030020000000000000000029
:10151C0000000000000000000000000000000000BF
:10152C00000000000000000000000000C0140008D3
:10153C00000000000000000000000000000000009F
:10154C00000000000000000000000000000000008F
:10155C00000000000000000000000000000000007F
:10156C00000000000000000000000000000000006F
:10157C00000000000000000000000000000000005F
:10158C00000000000000000000000000000000004F
:10159C00000000000000000000000000000000003F
:1015AC0001000000000000000E33CDAB34126DE6DC
:1015BC00ECDE05000B000000000000000000000045
:1015CC00000000000000000000000000000000000F
:1015DC0000000000000000000000000000000000FF
:1015EC0000000000000000000000000000000000EF
:1015FC0000000000000000000000000000000000DF
:04192C00280000206F
:0419300000000000B3
:04000005080010E5FA
:00000001FF
