:020000040800F2
:1000000000400120AD840008F5840008F584000854
:10001000F5840008F5840008F5840008000000005D
:10002000000000000000000000000000F58400084F
:10003000F584000800000000F5840008F58400083D
:10004000F5840008F5840008F5840008F5840008AC
:10005000F5840008F5840008F5840008F58400089C
:10006000F5840008D9310008F5840008F5840008FB
:10007000F5840008F5840008F5840008F58400087C
:10008000F5840008F5840008FD060008F5840008E2
:10009000F5840008F5840008F5840008F58400085C
:1000A000F5840008F5840008F5840008F58400084C
:1000B000F9310008F5840008F5840008F58400088B
:1000C000F5840008F5840008F5840008F58400082C
:1000D000F5840008A50B0008F5840008F5840008E5
:1000E000F584000849300008F5840008F58400080C
:1000F000F584000800000000F5840008F58400087D
:10010000F5840008F5840008F5840008F5840008EB
:10011000F5840008F5840008F5840008F5840008DB
:10012000F58400080000000000000000000000004E
:0C01300000000000000000005FF808F173
:1001400010B5054C237833B9044B13B10448AFF311
:1001500000800123237010BD7804002000000000FF
:10016000008F0008084B10B51BB108480849AFF3D1
:1001700000800848036803B910BD074B002BFBD073
:10018000BDE81040184700BF00000000008F0008C5
:100190007C0400207404002000000000154B002B9C
:1001A00008BF134B9D46A3F5803A00218B460F46AE
:1001B0001348144A121A08F0D7F90F4B002B00D03D
:1001C00098470E4B002B00D09847002000210400D8
:1001D0000D000D48002802D00C4808F0EFFC08F094
:1001E0009BF92000290000F013F808F085F900BF02
:1001F00000000800000000000000000000000000F7
:1002000078040020F0350020BD8B0008C98B000861
:1002100080B500AF00F08CFAFEE700BF80B500AFFC
:10022000144A144B1B6843F4807313601149114B3B
:100230009A68114B13408B600E4A0E4B1B6823F0DB
:10024000885323F0011313600A4A0A4B1B6823F4F6
:1002500080231360074A074B9B6823F47D03936058
:10026000044B0022DA6000F0B7F8044B4FF0006254
:100270009A6080BD003802400CC0FF8800ED00E0AD
:1002800080B487B000AF00237B6100233B61002373
:10029000FB600023BB6000237B60494B9B6803F03D
:1002A0000C037B617B690C2B64D801A252F823F00C
:1002B000E5020008750300087503000875030008CF
:1002C000050300087503000875030008750300089E
:1002D0000D03000875030008750300087503000886
:1002E00015030008364B5B6803F460435B0B7B60CF
:1002F0007B6801331A464FF4004393401A46314B52
:100300001A6047E02F4B304A1A6043E02D4B2F4ACA
:100310001A603FE02A4B9B6803F470133B61284B43
:100320009B6803F44003FB603B699B0C284AD35C49
:10033000DBB23B61FB689B0D0133FB60204B9B688C
:1003400003F48033BB60BB68002B09D13B691E4AB4
:1003500002FB03F2FB68B2FBF3F31A4A136019E0E5
:100360003B691A4A02FB03F2FB68B2FBF3F3154A3E
:1003700013600FE0124B5B6803F460435B0B7B6020
:100380007B6801331A464FF4004393401A460D4BE5
:100390001A6000BF0A4B9B6803F0F0031B090D4A6B
:1003A000D35CDBB27B61074B1A687B6922FA03F3EB
:1003B000044A13601C37BD465DF8047B704700BFDC
:1003C00000380240040000200024F40000127A00EB
:1003D000080000201400002080B483B000AF002388
:1003E0007B6000233B60404A3F4B1B6843F00103A6
:1003F00013603D4B1B6803F002033B603B68002B1E
:1004000003D17B68B3F5A04FF3D1374B1B6803F0E2
:100410000203002B02D001233B6001E000233B607C
:100420003B68012B5AD1314A304B1B6843F004031F
:1004300013602E4A2D4B1B6843F0020313602B4AB6
:100440002A4B1B6843F001031360274A264B5B6A63
:1004500043F080535362264B4FF400621A6000BF92
:10046000234B5B6803F01003002BF9D11E4A1E4B8F
:100470009B6893601C4A1C4B9B6893601A4A1A4BFA
:100480009B689360184A184B9B6823F47D03936024
:10049000154A154B9B6843F488039360124A124B2C
:1004A0001B6843F08073136000BF0F4B1B6803F0A1
:1004B0000073002BF9D00C4A0B4B9B6823F003030D
:1004C0009360094A084B9B6843F00303936000BFA5
:1004D000054B9B6803F00C030C2BF9D10C37BD4680
:1004E0005DF8047B704700BF00380240003C0240CA
:1004F00000700040ACA00008000000207404002040
:1005000078040020F035002080B500AF00F002F83C
:1005100080BD00BF80B400AF2D4A2D4BDB6943F096
:100520000103D3612A4A2A4B1B6A43F40073136206
:10053000284A284B1B6843F030031360254A254B9B
:100540009B6843F030039360234A234BDB6843F0FE
:10055000BF6343F40033D3601F4A1F4BDB6843F48F
:100560004073D3601D4A1D4B1B6843F48023136006
:100570001A4A1A4B93F81233DBB243F04003DBB252
:1005800082F81233164A164B5B6843F402635360D9
:10059000134A134B5B6943F4E0735361104A104BE9
:1005A0001B6C43F0020313640D4A0D4B9B6843F42C
:1005B000806343F00103936000BF094B1B6803F0A5
:1005C0004003002BF9D0BD465DF8047B704700BFA7
:1005D000003802400000024000ED00E000E100E0D1
:1005E0000024014080B584B000AF0346FB80B7F91A
:1005F0000630184607F01AFE0346184607F0FEF9C3
:1006000002460B46104619464FF000022C4B07F0ED
:1006100073FB02460B461046194625A3D3E9002377
:1006200007F040FA02460B461046194607F0F4FC64
:100630000346FB60F868234907F0B8FE0346002B29
:1006400001D064232DE0F86807F0D8F902460B4684
:100650001046194618A3D3E9002307F095FC03467A
:10066000002B01D000231CE0F86807F0C7F9024610
:100670000B46104619464FF00002134B07F03CFBA7
:1006800002460B46104619464FF000020F4B07F08A
:1006900009FA02460B461046194607F09DFC034630
:1006A000DBB218461037BD4680BD00BFAFF30080F7
:1006B0006666666666660A409A99999999990340B2
:1006C0000000B040000040400000084000005940D9
:1006D00080B400AF00BF084B1B6803F00203002B7F
:1006E000F9D1054A044B9B6843F080439360BD46B3
:1006F0005DF8047B704700BF0024014080B500AF67
:10070000084B9B6D9BB21BB21846FFF76BFF03466D
:100710001A46054B1A70034A024B1B6823F002036A
:10072000136080BD00240140A035002000000000BF
:1007300080B500AF4FF4165000F07CF84FF47A709B
:1007400000F0B2F9324800F04FF932481E2164221D
:1007500000F068F92F48304908F0ACF80346002B48
:1007600013D14FF4FA7000F09FF92C4800F03CF9D7
:1007700028481E21642200F055F92648284908F02F
:1007800099F80346002B00D1FEE74FF4FA7000F011
:100790008BF9244800F028F91E481E21642200F03D
:1007A00041F91C48204908F085F80346002B13D175
:1007B0004FF4FA7000F078F91C4800F015F915486C
:1007C0001E21642200F02EF91248154908F072F833
:1007D0000346002B00D1FEE74FF4FA7000F064F9F5
:1007E000134800F001F90B481E21642200F01AF9A9
:1007F00008480B4908F05EF80346002B00D1FEE7DD
:100800004FF4FA7000F050F900F066F980BD00BFB7
:100810001C8F0008A8350020288F0008348F00089E
:10082000488F00084C8F0008588F0008608F000820
:10083000708F000880B586B000AF78604FF000027E
:100840004FF00003C7E904230023FB600023FB7281
:100850005D4A5D4BDB6943F00103D3615A4A5A4B51
:100860001B6A43F480431362574A574B5B6A43F059
:1008700004035362554A554B1B6843F4201313601D
:10088000524A524B9B6843F4201393604F4A4F4B9C
:10089000DB6843F4A013D3604C4A4C4B5B6A43F4CF
:1008A000EE6353624A4A4A4BDB6843F0BF6343F44A
:1008B0000033D360464A464BDB6843F44073D36051
:1008C000444A444B5B6843F020035360414A414B28
:1008D00093F82533DBB243F01003DBB282F8253303
:1008E0003D493D4B9B899AB23C4B13439BB28B8154
:1008F0007B68DB00184607F05FF802460B4630A124
:10090000D1E9000107F0F8F902460B46C7E90423D4
:10091000D7E9040107F060FB03469BB2184607F0D5
:100920005BF802460B46D7E9040106F007FF0246D2
:100930000B46104619464FF00002294B07F0B2F85B
:1009400002460B461046194608F08AFA02460B4644
:100950001046194607F040FB0346FB72FB7ADB08A2
:10096000DBB2184607F038F802460B461046194627
:10097000D7E9042306F0E4FE02460B46104619466A
:1009800007F02AFB0346FB601349FB689BB21B017F
:100990009AB2FB7A9BB203F007039BB213439BB25C
:1009A0000B81104A0F4B1B889BB243F004039BB290
:1009B00013800C4B4FF4FA421A851837BD4680BDA0
:1009C0000000000080847E410038024000000240A8
:1009D00000ED00E000E100E0003801400CA0FFFF66
:1009E000000020400008004080B582B000AF786071
:1009F0000EE000BF0A4B1B889BB203F08003002B64
:100A0000F8D07B685A1C7A601B78184600F074F89E
:100A10007B681B78002BECD10837BD4680BD00BF3A
:100A20000038014090B585B000AF78600B46FB7090
:100A300013463B800023FB733B88184600F07AF88E
:100A400018E0174B1B889BB203F02003002B11D03A
:100A5000144A144B9B8A9BB243F001039BB29382CE
:100A6000FB7B5A1CFA731A467B689C1800F054F8FA
:100A7000034623700B4B1B8A9BB203F00103002B30
:100A800004D1FA7BFB78013B9A42DADBFB7B7A6884
:100A9000134400221A7000F075F81437BD4690BD5B
:100AA000003801400008004080B582B000AF034626
:100AB000FB80FB88184600F03DF800BF054B1B8A01
:100AC0009BB203F00103002BF8D000F05BF808376D
:100AD000BD4680BD0008004080B400AF054A054B0C
:100AE0009B899BB243F020039BB29381BD465DF886
:100AF000047B70470038014080B483B000AF0346E8
:100B0000FB71044BFA7992B29A800C37BD465DF8BE
:100B1000047B70470038014080B400AF044B9B88D1
:100B20009BB2DBB21846BD465DF8047B704700BF40
:100B30000038014080B483B000AF0346FB80104A08
:100B4000FB88D3620E4A0E4B9B8A9BB243F0010393
:100B50009BB293820A4A0A4B1B8A9BB223F0010381
:100B60009BB21382064A064B1B889BB243F00103DB
:100B70009BB213800C37BD465DF8047B704700BF05
:100B80000008004080B400AF054A054B1B889BB2AB
:100B900023F001039BB21380BD465DF8047B7047D0
:100BA0000008004080B400AF084A084B1B889BB285
:100BB00023F020039BB21380054B1B680133044ACA
:100BC0001360BD465DF8047B704700BF00380140EC
:100BD000A435002080B500AF00F006F800F074F8EE
:100BE00000F014F980BD00BF80B400AF304A304B34
:100BF000DB6943F00503D3612D4A2D4B5B6A43F05B
:100C0000020353622A4A2A4B1B6A43F4805313623D
:100C1000284A284B1B6843F480731360254A254BF0
:100C20009B6843F400739360234A234B1B6843F48F
:100C300029431360204A204B9B6843F42A43936066
:100C40001D4A1D4B1B6A43F0A44343F4A0031362E7
:100C50001A4B80221A85194B40F61602DA62174A9F
:100C6000164B1B8B9BB243F030039BB21383134A8A
:100C7000124B1B8C9BB243F001039BB213840F4BAE
:100C800040F616025A630E490D4B1B889AB20D4B63
:100C900013439BB20B800A4A094B1B889BB243F05B
:100CA00040039BB21380BD465DF8047B704700BFD4
:100CB00000380240000802400000024000040040EA
:100CC0000030014024C3FFFF80B400AF094A094B44
:100CD0009B8A9BB243F010039BB29382064A064B59
:100CE0001B889BB243F001039BB21380BD465DF8A5
:100CF000047B7047000802400004004080B400AF4D
:100D0000054B4FF6EF729A82044B4FF6FE721A8033
:100D1000BD465DF8047B70470008024000040040B7
:100D200080B584B000AF786000F0C8F8802000F093
:100D3000E1F80123FB8147E000BF334B1B899BB2E5
:100D400003F00203002BF8D0FB89DBB2184600F059
:100D50008FF80346184600F0CDF800237B731DE0A2
:100D600000BF294B1B899BB203F00203002BF8D074
:100D70007B685B68B7F90E20013A7968098809B287
:100D800001FB02F17A7B0A4413441B78DB43DBB29C
:100D9000184600F0AFF87B7B01337B737A7B7B686E
:100DA0001B881BB29A42DBDB00BF174B1B899BB22F
:100DB00003F00203002BF8D0002000F09BF8FB8921
:100DC0009BB201339BB2FB817B685B88B7F90E2035
:100DD0001BB29A42B0DD00BF0B4B1B899BB203F0E4
:100DE0000203002BF8D0002000F084F800BF064B6F
:100DF0001B899BB203F08003002BF8D100F06EF842
:100E00001037BD4680BD00BF0030014080B500AF47
:100E100000F054F800BF154B1B899BB203F002038E
:100E2000002BF8D0202000F065F800BF0F4B1B8985
:100E30009BB203F00203002BF8D0002000F05AF818
:100E400000BF0A4B1B899BB203F00203002BF8D0B2
:100E5000002000F04FF800BF044B1B899BB203F049
:100E60008003002BF8D100F039F880BD003001403C
:100E700080B483B000AF0346FB71FA7913469B023E
:100E800013445B000B4A1A40F9790B469B020B4452
:100E90005B011946084B0B401A4313461B021344CF
:100EA0001B0213441B0CDBB218460C37BD465DF821
:100EB000047B7047102102004084080080B400AF1A
:100EC000054A054B9B8A9BB243F010039BB2938269
:100ED000BD465DF8047B70470000024080B400AF5F
:100EE000034B4FF6EF729A82BD465DF8047B704764
:100EF0000000024080B483B000AF0346FB71044B96
:100F0000FA7992B29A810C37BD465DF8047B70473E
:100F10000030014080B483B000AF78607B6810225D
:100F20001A807B6880225A807B68034A5A600C379B
:100F3000BD465DF8047B70479404002080B588B0FE
:100F400000AF0023FB82FB8ABB823B46184601F0C0
:100F50004BF807F118033A4692E8030083E80300D0
:100F600001233B7307F114033B6107F10C0318469F
:100F700000F06CFF2037BD4680BD00BF80B58AB051
:100F800000AF0346FB736E23BB830323FB83FB7B12
:100F9000092B0BD83B46184601F042F807F1200315
:100FA0003A4692E8030083E8030040E0FB7B092B0C
:100FB0000ED9FB7B192B0BD83B46184601F04CF899
:100FC00007F120033A4692E8030083E803002EE08D
:100FD000FB7B192B0ED9FB7B322B0BD83B461846DB
:100FE00001F056F807F120033A4692E8030083E83F
:100FF00003001CE0FB7B322B0ED9FB7B4B2B0BD869
:101000003B46184601F060F807F120033A4692E8A3
:10101000030083E803000AE03B46184601F070F83D
:1010200007F120033A4692E8030083E80300012316
:101030003B7507F11C03BB6107F11403184600F070
:1010400005FF2837BD4680BD80B588B000AF0323BB
:10105000BB820323FB823B46184601F06DF807F183
:1010600018033A4692E8030083E8030001233B7328
:1010700007F114033B6107F10C03184600F0E6FE8C
:101080002037BD4680BD00BF80B588B000AF0323C8
:10109000BB820323FB823B46184601F0A1F807F10F
:1010A00018033A4692E8030083E8030001233B73E8
:1010B00007F114033B6107F10C03184600F0C6FE6C
:1010C0002037BD4680BD00BF80B588B000AF162375
:1010D000BB820323FB823B46184601F049F807F127
:1010E00018033A4692E8030083E8030001233B73A8
:1010F00007F114033B6107F10C03184600F0A6FE4C
:101100002037BD4680BD00BF80B588B000AF162334
:10111000BB820323FB823B46184601F061F807F1CE
:1011200018033A4692E8030083E8030001233B7367
:1011300007F114033B6107F10C03184600F086FE2B
:101140002037BD4680BD00BF80B588B000AF2A23E0
:10115000BB820323FB823B46184601F025F807F1CA
:1011600018033A4692E8030083E8030001233B7327
:1011700007F114033B6107F10C03184600F066FE0B
:101180002037BD4680BD00BF80B588B000AF2A23A0
:10119000BB820323FB823B46184601F021F807F18E
:1011A00018033A4692E8030083E8030001233B73E7
:1011B00007F114033B6107F10C03184600F046FEEB
:1011C0002037BD4680BD00BF90B591B000AF03464B
:1011D000FB733D2387F83E30FB7B632B01D96323F0
:1011E000FB73002387F83F3052E197F83F2097F8D0
:1011F0003E3099B213465B0013449B0007F1400256
:101200001344283B0A461A8097F83F2013465B0098
:1012100013449B0007F140021344283B03225A80E9
:1012200097F83F30002B03D097F83F30012B33D194
:1012300097F83F30002B06D1FB7B9E4AA2FB03238D
:10124000DB08DBB20AE0FA7B9A4BA3FB0213D90856
:101250000B469B000B445B00D31ADBB287F83D3092
:1012600097F83D30092B00F2098101A252F823F0D2
:10127000C5120008F11200081D13000849130008E8
:1012800075130008A1130008CD130008F913000816
:10129000251400085114000897F83F2013465B00FE
:1012A00013449B0007F140021344A3F128043B467A
:1012B000184601F0E5F8231D3A4692E8030083E85A
:1012C0000300DBE097F83F2013465B0013449B00CC
:1012D00007F140021344A3F128043B46184600F0EE
:1012E0009BFF231D3A4692E8030083E80300C5E014
:1012F00097F83F2013465B0013449B0007F1400220
:101300001344A3F128043B46184600F0A1FF231D17
:101310003A4692E8030083E80300AFE097F83F20E5
:1013200013465B0013449B0007F140021344A3F1F2
:1013300028043B46184600F0A7FF231D3A4692E8D2
:10134000030083E8030099E097F83F2013465B0011
:1013500013449B0007F140021344A3F128043B46C9
:10136000184600F0ADFF231D3A4692E8030083E8DB
:10137000030083E097F83F2013465B0013449B0073
:1013800007F140021344A3F128043B46184600F03D
:10139000B3FF231D3A4692E8030083E803006DE0A3
:1013A00097F83F2013465B0013449B0007F140026F
:1013B0001344A3F128043B46184600F0B9FF231D4F
:1013C0003A4692E8030083E8030057E097F83F208D
:1013D00013465B0013449B0007F140021344A3F142
:1013E00028043B46184600F0BFFF231D3A4692E80A
:1013F000030083E8030041E097F83F2013465B00B9
:1014000013449B0007F140021344A3F128043B4618
:10141000184600F0C5FF231D3A4692E8030083E812
:1014200003002BE097F83F2013465B0013449B001A
:1014300007F140021344A3F128043B46184600F08C
:10144000CBFF231D3A4692E8030083E8030015E032
:1014500097F83F2013465B0013449B0007F14002BE
:101460001344A3F128043B46184600F0D1FF231D86
:101470003A4692E8030083E8030000BF97F83F3044
:10148000013387F83F3097F83E30083387F83E3015
:1014900097F83F30022B7FF6A8AE03233B7407F189
:1014A00018037B6107F11003184600F0CFFC4437A6
:1014B000BD4690BDCDCCCCCC90B591B000AF03462D
:1014C000FB73552387F83E30FB7B3C2B01D93C2333
:1014D000FB73002387F83F3052E197F83F2097F8DD
:1014E0003E3099B213465B0013449B0007F1400263
:1014F0001344283B0A461A8097F83F2013465B00A6
:1015000013449B0007F140021344283B03225A80F6
:1015100097F83F30002B03D097F83F30012B33D1A1
:1015200097F83F30002B06D1FB7B9E4AA2FB03239A
:10153000DB08DBB20AE0FA7B9A4BA3FB0213D90863
:101540000B469B000B445B00D31ADBB287F83D309F
:1015500097F83D30092B00F2098101A252F823F0DF
:10156000B5150008E11500080D1600083916000829
:101570006516000891160008BD160008E916000857
:10158000151700084117000897F83F2013465B0025
:1015900013449B0007F140021344A3F128043B4687
:1015A000184600F0A5FF231D3A4692E8030083E8A1
:1015B0000300DBE097F83F2013465B0013449B00D9
:1015C00007F140021344A3F128043B46184600F0FB
:1015D00023FE231D3A4692E8030083E80300C5E09A
:1015E00097F83F2013465B0013449B0007F140022D
:1015F0001344A3F128043B46184600F029FE231D9E
:101600003A4692E8030083E80300AFE097F83F20F2
:1016100013465B0013449B0007F140021344A3F1FF
:1016200028043B46184600F02FFE231D3A4692E858
:10163000030083E8030099E097F83F2013465B001E
:1016400013449B0007F140021344A3F128043B46D6
:10165000184600F035FE231D3A4692E8030083E861
:10166000030083E097F83F2013465B0013449B0080
:1016700007F140021344A3F128043B46184600F04A
:101680003BFE231D3A4692E8030083E803006DE029
:1016900097F83F2013465B0013449B0007F140027C
:1016A0001344A3F128043B46184600F041FE231DD5
:1016B0003A4692E8030083E8030057E097F83F209A
:1016C00013465B0013449B0007F140021344A3F14F
:1016D00028043B46184600F047FE231D3A4692E890
:1016E000030083E8030041E097F83F2013465B00C6
:1016F00013449B0007F140021344A3F128043B4626
:10170000184600F04DFE231D3A4692E8030083E898
:1017100003002BE097F83F2013465B0013449B0027
:1017200007F140021344A3F128043B46184600F099
:1017300053FE231D3A4692E8030083E8030015E0B8
:1017400097F83F2013465B0013449B0007F14002CB
:101750001344A3F128043B46184600F059FE231D0C
:101760003A4692E8030083E8030000BF97F83F3051
:10177000013387F83F3097F83E30083387F83E3022
:1017800097F83F30022B7FF6A8AE03233B7407F196
:1017900018037B6107F11003184600F057FB44372C
:1017A000BD4690BDCDCCCCCC90B5A1B000AF03462A
:1017B000FB730B46BB7313467B73012387F87D30A5
:1017C000002387F87F3095E197F87F2097F87D30E8
:1017D00099B213465B0013449B0007F18002134447
:1017E000643B0A461A8097F87F2013465B00134437
:1017F0009B0007F180021344643B1E225A8097F835
:101800007F30002B03D097F87F30012B18D197F849
:101810007F30002B06D1FB7BBF4AA2FB0323DB08F2
:10182000DBB20AE0FA7BBC4BA3FB0213D9080B46E0
:101830009B000B445B00D31ADBB287F87E3057E085
:1018400097F87F30032B03D097F87F30042B18D103
:1018500097F87F30032B06D1BB7BAF4AA2FB032353
:10186000DB08DBB20AE0BA7BAB4BA3FB0213D9085F
:101870000B469B000B445B00D31ADBB287F87E302B
:1018800036E097F87F30062B03D097F87F30072B90
:1018900018D197F87F30062B06D17B7B9E4AA2FB9E
:1018A0000323DB08DBB20AE07A7B9B4BA3FB02132A
:1018B000D9080B469B000B445B00D31ADBB287F8B8
:1018C0007E3015E097F87F2013465B0013449B00A1
:1018D00007F180021344A3F164043B46184600F06C
:1018E00003FF231D3A4692E8030083E80300F7E074
:1018F00097F87E30092B00F2F38001A252F823F012
:10190000291900085519000881190008AD190008A7
:10191000D9190008051A0008311A00085D1A0008D4
:10192000891A0008B51A000897F87F2013465B0053
:1019300013449B0007F180021344A3F164043B4667
:10194000184600F081FD231D3A4692E8030083E823
:101950000300C5E097F87F2013465B0013449B000B
:1019600007F180021344A3F164043B46184600F0DB
:10197000A3FD231D3A4692E8030083E80300AFE08D
:1019800097F87F2013465B0013449B0007F1800209
:101990001344A3F164043B46184600F0C5FD231D23
:1019A0003A4692E8030083E8030099E097F87F2025
:1019B00013465B0013449B0007F180021344A3F11C
:1019C00064043B46184600F0CBFD231D3A4692E8DE
:1019D000030083E8030083E097F87F2013465B0051
:1019E00013449B0007F180021344A3F164043B46B7
:1019F000184600F0D1FD231D3A4692E8030083E823
:101A000003006DE097F87F2013465B0013449B00B2
:101A100007F180021344A3F164043B46184600F02A
:101A2000D7FD231D3A4692E8030083E8030057E000
:101A300097F87F2013465B0013449B0007F1800258
:101A40001344A3F164043B46184600F0DDFD231D5A
:101A50003A4692E8030083E8030041E097F87F20CC
:101A600013465B0013449B0007F180021344A3F16B
:101A700064043B46184600F0E3FD231D3A4692E815
:101A8000030083E803002BE097F87F2013465B00F8
:101A900013449B0007F180021344A3F164043B4606
:101AA000184600F0E9FD231D3A4692E8030083E85A
:101AB000030015E097F87F2013465B0013449B005A
:101AC00007F180021344A3F164043B46184600F07A
:101AD000EFFD231D3A4692E8030083E8030000BFB0
:101AE00097F87F30013387F87F3097F87D301033D7
:101AF00087F87D3097F87F30072B7FF665AE082397
:101B00003B7507F11C03BB6107F11403184600F095
:101B10009DF98437BD4690BDCDCCCCCC90B597B067
:101B200000AF03460A46FB731346BB73022387F8D4
:101B30005530002387F8573074E197F8572097F80D
:101B4000553099B213465B0013449B0007F15802CD
:101B50001344403B0A461A8097F8572013465B000F
:101B600013449B0007F158021344403B50225A8013
:101B700097F85730002B03D097F85730012B18D126
:101B800097F85730002B06D1FB7BAF4AA2FB03230B
:101B9000DB08DBB20AE0FA7BAB4BA3FB0213D908EC
:101BA0000B469B000B445B00D31ADBB287F8563020
:101BB00036E097F85730032B03D097F85730042BB3
:101BC00018D197F85730032B06D1BB7B9E4AA2FB56
:101BD0000323DB08DBB20AE0BA7B9B4BA3FB0213B7
:101BE000D9080B469B000B445B00D31ADBB287F885
:101BF000563015E097F8572013465B0013449B00BE
:101C000007F158021344A3F140043B46184600F084
:101C10009FFE231D3A4692E8030083E80300F7E0A5
:101C200097F85630092B00F2F38001A252F823F006
:101C3000591C0008851C0008B11C0008DD1C0008A8
:101C4000091D0008351D0008611D00088D1D0008D4
:101C5000B91D0008E51D000897F8572013465B00E2
:101C600013449B0007F158021344A3F140043B4680
:101C7000184600F055FD231D3A4692E8030083E81C
:101C80000300C5E097F8572013465B0013449B0000
:101C900007F158021344A3F140043B46184600F0F4
:101CA0005BFD231D3A4692E8030083E80300AFE0A2
:101CB00097F8572013465B0013449B0007F1580226
:101CC0001344A3F140043B46184600F061FD231D78
:101CD0003A4692E8030083E8030099E097F857201A
:101CE00013465B0013449B0007F158021344A3F111
:101CF00040043B46184600F067FD231D3A4692E833
:101D0000030083E8030083E097F8572013465B0045
:101D100013449B0007F158021344A3F140043B46CF
:101D2000184600F06DFD231D3A4692E8030083E853
:101D300003006DE097F8572013465B0013449B00A7
:101D400007F158021344A3F140043B46184600F043
:101D500073FD231D3A4692E8030083E8030057E031
:101D600097F8572013465B0013449B0007F1580275
:101D70001344A3F140043B46184600F079FD231DAF
:101D80003A4692E8030083E8030041E097F85720C1
:101D900013465B0013449B0007F158021344A3F160
:101DA00040043B46184600F07FFD231D3A4692E86A
:101DB000030083E803002BE097F8572013465B00ED
:101DC00013449B0007F158021344A3F140043B461F
:101DD000184600F085FD231D3A4692E8030083E88B
:101DE000030015E097F8572013465B0013449B004F
:101DF00007F158021344A3F140043B46184600F093
:101E00008BFD231D3A4692E8030083E8030000BFE0
:101E100097F85730013387F8573097F85530193312
:101E200087F8553097F85730042B7FF686AE052398
:101E30003B7407F118037B6107F11003184600F0AB
:101E400005F85C37BD4690BDCDCCCCCCB0B588B0E4
:101E500000AF78600023FB777CE07B685968FA7FED
:101E600013465B0013449B00CA1807F10C0307CA12
:101E700083E80700FB893B83BB897B830023BB830B
:101E80005BE0B7F91830DA01B7F91A301344002BC8
:101E900000DA0733DB101A46334BD518B7F91A208E
:101EA000324B1340002B03DA013B63F0070301338D
:101EB0009BB2DBB2C3F10703DCB27A69B7F91C301D
:101EC000002B00DA0733DB109BB21BB213441978E6
:101ED000B7F91C20254B1340002B03DA013B63F0BC
:101EE000070301339BB2DBB2C3F10703DBB2084641
:101EF000194600F03DF80346284621461A4600F0F0
:101F00004DF8B7F91A20BB8919B23B8A1BB20B44B2
:101F1000013B9A4207D13B8B9BB201339BB23B837F
:101F2000BB897B8304E07B8B9BB201339BB27B83B9
:101F3000BB8B9BB201339BB2BB83B7F91C203B8A9E
:101F40001BB2798A09B201FB03F39A4299DBFB7F4A
:101F50000133FB777B681B78FA7F9A42FFF47DAFF1
:101F60002037BD46B0BD00BF9404002007000080AC
:101F700080B483B000AF03460A46FB711346BB71C1
:101F8000FA79BB7942FA03F3DBB203F00103DBB267
:101F900018460C37BD465DF8047B704780B483B0AB
:101FA00000AF78600B46FB701346BB707B681B78F4
:101FB000D9B2FB78012202FA03F3DBB2DB43DBB2D6
:101FC0000A461340D9B2BA78FB7802FA03F3DBB2BF
:101FD0000A461343DBB2DAB27B681A700C37BD468F
:101FE0005DF8047B704700BF80B485B000AF7860B7
:101FF0000A4A07F1080392E8030083E803007B68BC
:102000001A4607F1080393E8030082E803007868A2
:102010001437BD465DF8047B704700BF289F000859
:1020200080B485B000AF78600A4A07F1080392E8EF
:10203000030083E803007B681A4607F1080393E86E
:10204000030082E8030078681437BD465DF8047B1E
:10205000704700BF309F000880B485B000AF786043
:102060000A4A07F1080392E8030083E803007B684B
:102070001A4607F1080393E8030082E80300786832
:102080001437BD465DF8047B704700BF389F0008D9
:1020900080B485B000AF78600A4A07F1080392E87F
:1020A000030083E803007B681A4607F1080393E8FE
:1020B000030082E8030078681437BD465DF8047BAE
:1020C000704700BF409F000880B485B000AF7860C3
:1020D0000A4A07F1080392E8030083E803007B68DB
:1020E0001A4607F1080393E8030082E803007868C2
:1020F0001437BD465DF8047B704700BF489F000859
:1021000080B485B000AF78600A4A07F1080392E80E
:10211000030083E803007B681A4607F1080393E88D
:10212000030082E8030078681437BD465DF8047B3D
:10213000704700BF509F000880B485B000AF786042
:102140000A4A07F1080392E8030083E803007B686A
:102150001A4607F1080393E8030082E80300786851
:102160001437BD465DF8047B704700BF589F0008D8
:1021700080B485B000AF78600A4A07F1080392E89E
:10218000030083E803007B681A4607F1080393E81D
:10219000030082E8030078681437BD465DF8047BCD
:1021A000704700BF609F000880B485B000AF7860C2
:1021B0000A4A07F1080392E8030083E803007B68FA
:1021C0001A4607F1080393E8030082E803007868E1
:1021D0001437BD465DF8047B704700BF689F000858
:1021E00080B485B000AF78600A4A07F1080392E82E
:1021F000030083E803007B681A4607F1080393E8AD
:10220000030082E8030078681437BD465DF8047B5C
:10221000704700BF709F000880B485B000AF786041
:102220000A4A07F1080392E8030083E803007B6889
:102230001A4607F1080393E8030082E80300786870
:102240001437BD465DF8047B704700BF789F0008D7
:1022500080B485B000AF78600A4A07F1080392E8BD
:10226000030083E803007B681A4607F1080393E83C
:10227000030082E8030078681437BD465DF8047BEC
:10228000704700BF809F000880B485B000AF7860C1
:102290000A4A07F1080392E8030083E803007B6819
:1022A0001A4607F1080393E8030082E80300786800
:1022B0001437BD465DF8047B704700BF889F000857
:1022C00080B485B000AF78600A4A07F1080392E84D
:1022D000030083E803007B681A4607F1080393E8CC
:1022E000030082E8030078681437BD465DF8047B7C
:1022F000704700BF909F000880B485B000AF786041
:102300000A4A07F1080392E8030083E803007B68A8
:102310001A4607F1080393E8030082E8030078688F
:102320001437BD465DF8047B704700BF989F0008D6
:1023300080B485B000AF78600A4A07F1080392E8DC
:10234000030083E803007B681A4607F1080393E85B
:10235000030082E8030078681437BD465DF8047B0B
:10236000704700BFA09F000880B485B000AF7860C0
:102370000A4A07F1080392E8030083E803007B6838
:102380001A4607F1080393E8030082E8030078681F
:102390001437BD465DF8047B704700BFA89F000856
:1023A00080B485B000AF78600A4A07F1080392E86C
:1023B000030083E803007B681A4607F1080393E8EB
:1023C000030082E8030078681437BD465DF8047B9B
:1023D000704700BFB09F000880B485B000AF786040
:1023E0000A4A07F1080392E8030083E803007B68C8
:1023F0001A4607F1080393E8030082E803007868AF
:102400001437BD465DF8047B704700BFB89F0008D5
:1024100080B485B000AF78600A4A07F1080392E8FB
:10242000030083E803007B681A4607F1080393E87A
:10243000030082E8030078681437BD465DF8047B2A
:10244000704700BFC09F000880B485B000AF7860BF
:102450000A4A07F1080392E8030083E803007B6857
:102460001A4607F1080393E8030082E8030078683E
:102470001437BD465DF8047B704700BFC89F000855
:1024800080B485B000AF78600A4A07F1080392E88B
:10249000030083E803007B681A4607F1080393E80A
:1024A000030082E8030078681437BD465DF8047BBA
:1024B000704700BFD09F000880B485B000AF78603F
:1024C0000A4A07F1080392E8030083E803007B68E7
:1024D0001A4607F1080393E8030082E803007868CE
:1024E0001437BD465DF8047B704700BFD89F0008D5
:1024F00080B485B000AF78600A4A07F1080392E81B
:10250000030083E803007B681A4607F1080393E899
:10251000030082E8030078681437BD465DF8047B49
:10252000704700BFE09F000880B485B000AF7860BE
:102530000A4A07F1080392E8030083E803007B6876
:102540001A4607F1080393E8030082E8030078685D
:102550001437BD465DF8047B704700BFE89F000854
:1025600080B485B000AF78600A4A07F1080392E8AA
:10257000030083E803007B681A4607F1080393E829
:10258000030082E8030078681437BD465DF8047BD9
:10259000704700BFF09F000880B485B000AF78603E
:1025A0000A4A07F1080392E8030083E803007B6806
:1025B0001A4607F1080393E8030082E803007868ED
:1025C0001437BD465DF8047B704700BFF89F0008D4
:1025D00080B485B000AF78600A4A07F1080392E83A
:1025E000030083E803007B681A4607F1080393E8B9
:1025F000030082E8030078681437BD465DF8047B69
:10260000704700BF00A0000880B485B000AF7860BC
:102610000A4A07F1080392E8030083E803007B6895
:102620001A4607F1080393E8030082E8030078687C
:102630001437BD465DF8047B704700BF08A0000852
:1026400080B485B000AF78600A4A07F1080392E8C9
:10265000030083E803007B681A4607F1080393E848
:10266000030082E8030078681437BD465DF8047BF8
:10267000704700BF10A0000880B485B000AF78603C
:102680000A4A07F1080392E8030083E803007B6825
:102690001A4607F1080393E8030082E8030078680C
:1026A0001437BD465DF8047B704700BF18A00008D2
:1026B00080B485B000AF78600A4A07F1080392E859
:1026C000030083E803007B681A4607F1080393E8D8
:1026D000030082E8030078681437BD465DF8047B88
:1026E000704700BF20A0000880B485B000AF7860BC
:1026F0000A4A07F1080392E8030083E803007B68B5
:102700001A4607F1080393E8030082E8030078689B
:102710001437BD465DF8047B704700BF28A0000851
:1027200080B485B000AF78600A4A07F1080392E8E8
:10273000030083E803007B681A4607F1080393E867
:10274000030082E8030078681437BD465DF8047B17
:10275000704700BF30A0000880B485B000AF78603B
:102760000A4A07F1080392E8030083E803007B6844
:102770001A4607F1080393E8030082E8030078682B
:102780001437BD465DF8047B704700BF38A00008D1
:1027900080B485B000AF78600A4A07F1080392E878
:1027A000030083E803007B681A4607F1080393E8F7
:1027B000030082E8030078681437BD465DF8047BA7
:1027C000704700BF40A0000880B485B000AF7860BB
:1027D0000A4A07F1080392E8030083E803007B68D4
:1027E0001A4607F1080393E8030082E803007868BB
:1027F0001437BD465DF8047B704700BF48A0000851
:1028000080B485B000AF78600A4A07F1080392E807
:10281000030083E803007B681A4607F1080393E886
:10282000030082E8030078681437BD465DF8047B36
:10283000704700BF50A0000880B485B000AF78603A
:102840000A4A07F1080392E8030083E803007B6863
:102850001A4607F1080393E8030082E8030078684A
:102860001437BD465DF8047B704700BF58A00008D0
:1028700080B485B000AF78600A4A07F1080392E897
:10288000030083E803007B681A4607F1080393E816
:10289000030082E8030078681437BD465DF8047BC6
:1028A000704700BF60A0000880B485B000AF7860BA
:1028B0000A4A07F1080392E8030083E803007B68F3
:1028C0001A4607F1080393E8030082E803007868DA
:1028D0001437BD465DF8047B704700BF68A0000850
:1028E00080B485B000AF78600A4A07F1080392E827
:1028F000030083E803007B681A4607F1080393E8A6
:10290000030082E8030078681437BD465DF8047B55
:10291000704700BF70A0000880B485B000AF786039
:102920000A4A07F1080392E8030083E803007B6882
:102930001A4607F1080393E8030082E80300786869
:102940001437BD465DF8047B704700BF78A00008CF
:1029500080B485B000AF78600A4A07F1080392E8B6
:10296000030083E803007B681A4607F1080393E835
:10297000030082E8030078681437BD465DF8047BE5
:10298000704700BF80A0000880B500AF00F002F8DB
:1029900080BD00BF80B400AF274A274BDB6943F0FE
:1029A0000203D361244A244B5B6A43F4001353624D
:1029B000224A224B1B6843F4204313601F4A1F4BDB
:1029C0009B889BB243F0C0039BB293801B4A1B4B76
:1029D0009B6843F420439360184A184BDB6843F428
:1029E0008053D360154A154B1B6A43F0884313622A
:1029F000134A134B9B8B9BB243F0A0039BB2938370
:102A00000F4A0F4B1B8C9BB243F021039BB21384E4
:102A10000B4A0B4B9B889BB243F020039BB29380E5
:102A2000074A074B1B889BB243F001039BB21380FC
:102A3000BD465DF8047B7047003802400004024048
:102A40000054004080B582B000AF0346FB7100BF68
:102A5000224B1B8B9BB203F00203002BF8D100F03A
:102A6000ABF800BF1D4B9B8A9BB203F00103002B08
:102A7000F8D04020002100F0BFF800BF174B9B8A20
:102A80009BB203F00203002BF8D000BF134B1B8B4B
:102A90009BB203F00403002BF8D000BF0F4B9B8ABE
:102AA0009BB203F08003002BF8D0FB79184600F0AE
:102AB000C1F800BF094B9B8A9BB203F00403002BB3
:102AC000F8D000F089F800BF044B9B8A9BB203F05A
:102AD0001003002BF8D10837BD4680BD00540040DC
:102AE00080B582B000AF334A324B1B889BB243F4AF
:102AF00080639BB2138000BF2E4B1B8B9BB203F0F5
:102B00000203002BF8D100F057F800BF294B9B8A35
:102B10009BB203F00103002BF8D04020012100F00C
:102B20006BF800BF234B9B8A9BB203F00203002B80
:102B3000F8D000BF1F4B1B8B9BB203F00403002B8C
:102B4000F8D100BF1B4B9B8A9BB203F04003002BC4
:102B5000F8D0184B1B8A9BB2FB7100BF154B9B8AA8
:102B60009BB203F04003002BF8D0124B1B8A9BB2A0
:102B7000BB71104A0F4B1B889BB223F480639BB23E
:102B8000138000F029F800BF0A4B9B8A9BB203F028
:102B90001003002BF8D1FB791B029AB2BB799BB2D0
:102BA00013439BB29BB223F003039BB21846083732
:102BB000BD4680BD0054004080B400AF054A054BBF
:102BC0001B889BB243F480739BB21380BD465DF8B3
:102BD000047B70470054004080B400AF054A054BA9
:102BE0001B889BB243F400739BB21380BD465DF813
:102BF000047B70470054004080B483B000AF0346AC
:102C00000A46FB711346BB71FB795B00FB71BB7914
:102C1000012B03D1FB7943F00103FB71044BFA79DB
:102C200092B21A820C37BD465DF8047B704700BF34
:102C30000054004080B483B000AF0346FB71044BE6
:102C4000FA7992B21A820C37BD465DF8047B704760
:102C50000054004080B500AF00F002F880BD00BF16
:102C600080B400AF4D4A4D4B5B6A43F080535362D2
:102C70004B4A4B4B1B6843F480731360474A474BE6
:102C80005B6B43F400035363444A444B5B6B23F494
:102C900000035363414A414B5B6B43F480735363BE
:102CA00000BF3E4B5B6B03F40073002BF9D03B4A33
:102CB0003A4B5B6B43F4820353633A4A394B5B6A8A
:102CC00043F0CA035362374A364B5B6A43F05303FF
:102CD0005362344A334BDB6843F08003D36000BF58
:102CE000304BDB6803F04003002BF9D02D4A2D4B0D
:102CF0001B6943F0FA0313612A4A2A4B1B6943F408
:102D00000003136100BF274BDB6803F00103002BB6
:102D1000F9D0244A234BDB6943F0802343F40003BA
:102D2000D361204A1F4B9B6843F4885393601D4A2C
:102D30001C4BDB6823F08003D3601A4BFF225A62DE
:102D4000194A194B1B6843F400331360164A164B9B
:102D50009B6843F400339360144A144BDB6843F0E0
:102D6000BF6343F40033D360104A104BDB6843F475
:102D70004073D3600E4A0E4B5B6843F4007353609C
:102D80000B4A0B4B93F82933DBB243F02003DBB241
:102D900082F82933BD465DF8047B70470038024055
:102DA00000700040002800400004014000ED00E0F9
:102DB00000E100E090B482B000AF3B4683E803003E
:102DC000554A554B5B6A43F0CA035362524A524B11
:102DD0005B6A43F0530353624F4A4F4BDB6843F047
:102DE0008003D36000BF4C4BDB6803F04003002B33
:102DF000F9D0494CFB78494AA2FB0323DB08DBB23C
:102E00001805FA78454BA3FB0213D9080B469B0023
:102E10000B445B00D31ADBB21B0440EA03023B798C
:102E20003E49A1FB0313DB08DBB21B0342EA0300AC
:102E30003A793A4BA3FB0213D9080B469B000B448B
:102E40005B00D31ADBB21B0240EA03027B793349F1
:102E5000A1FB0313DB08DBB21B0142EA03007A7912
:102E60002E4BA3FB0213D9080B469B000B445B00BF
:102E7000D31ADBB203432360274CBB78274AA2FB5B
:102E80000323DB08DBB21805BA78244BA3FB02133B
:102E9000D9080B469B000B445B00D31ADBB21B0422
:102EA00040EA03027B781D49A1FB0313DB08DBB278
:102EB0001B0342EA03007A78184BA3FB0213D908DC
:102EC0000B469B000B445B00D31ADBB21B0240EAAB
:102ED00003023B781149A1FB0313DB08DBB21B01A2
:102EE00042EA03003A780D4BA3FB0213D9080B46C4
:102EF0009B000B445B00D31ADBB203436360064ABA
:102F0000054BDB6823F08003D360034BFF225A623A
:102F10000837BD4690BC704700280040CDCCCCCCD3
:102F200080B487B000AF7860464A464BDB6823F038
:102F30002003D36000BF434BDB6803F02003002B6A
:102F4000F9D0404B1B687B617B6903F440131B0D78
:102F5000DBB21A46920013445B00DAB27B6903F4D9
:102F600070231B0CDBB21344DBB2FB737B6903F4ED
:102F7000E0431B0BDBB21A46920013445B00DAB24B
:102F80007B6903F470631B0ADBB21344DBB23B744E
:102F90007B6903F070031B09DBB21A4692001344ED
:102FA0005B00DAB27B69DBB203F00F03DBB21344E0
:102FB000DBB27B74234B5B687B617B6903F470033A
:102FC0001B0DDBB21A46920013445B00DAB27B6938
:102FD00003F470231B0CDBB21344DBB2BB737B69BD
:102FE00003F480531B0BDBB21A46920013445B00C0
:102FF000DAB27B6903F470631B0ADBB21344DBB201
:103000007B737B6903F030031B09DBB21A46920025
:1030100013445B00DAB27B69DBB203F00F03DBB26F
:103020001344DBB23B737B681A4607F10C03186844
:1030300010609B88938078681C37BD465DF8047BE0
:10304000704700BF0028004080B400AF074A074B1C
:10305000DB6823F48073D360054A054B5B6943F456
:1030600000335361BD465DF8047B70470028004083
:103070000004014080B500AF00F002F880BD00BF41
:1030800080B400AF314A314B1B6A43F00103136235
:103090002E4A2E4BDB6943F00103D3612B4A2B4BA5
:1030A0005B6A43F001035362294A294BDB6843F012
:1030B0004003D360274A274B1B6843F00803136083
:1030C000244A244BDB6843F00803D360224A224B96
:1030D000DB6843F0BF6343F40033D3601E4A1E4BEA
:1030E000DB6843F44073D3601C4A1C4B1B6843F0FD
:1030F000805343F400731360184A184B93F8093354
:10310000DBB243F03003DBB282F80933134A134BCE
:1031100093F81C33DBB243F03003DBB282F81C338C
:103120004FF0804380221A854FF08043FA22DA6202
:103130004FF080424FF080439B899BB243F00103E4
:103140009BB29381BD465DF8047B70470038024016
:10315000000002400004014000ED00E000E100E05A
:1031600080B400AF044A044B1B6843F008031360AB
:10317000BD465DF8047B70470004014080B400AF99
:10318000044A044B1B6823F008031360BD465DF836
:10319000047B70470004014080B400AF4FF08042D0
:1031A0004FF080431B889BB243F001039BB2138016
:1031B000BD465DF8047B704780B400AF4FF080429D
:1031C0004FF080431B889BB223F001039BB2138016
:1031D000BD465DF8047B704780B500AFFFF7CEFFBA
:1031E000FFF7DAFF034A034B5B6943F008035361BF
:1031F00080BD00BF0004014080B500AF194B1B8AA1
:103200009BB203F00803DB10DAB2174B1A70164BAF
:103210001A78164B1B789A4206D1154B1B8801333E
:103220009AB2134B1A8002E0114B00221A80104B05
:103230001B88642B06D10E4B00221A80FFF7BCFFBF
:10324000FFF78EFF084B1A78084B1A704FF0804238
:103250004FF080431B8A9BB223F001039BB2138281
:1032600080BD00BF00000240940C0020950C00209F
:10327000960C002080B483B000AF78607B6803F1C7
:1032800008027B685A607B684FF0FF329A607B6867
:1032900003F108027B68DA607B6803F108027B684F
:1032A0001A617B6800221A600C37BD465DF8047B0A
:1032B000704700BF80B483B000AF78607B680022A5
:1032C0001A610C37BD465DF8047B704780B485B049
:1032D00000AF786039607B685B68FB603B68FA68C8
:1032E0005A60FB689A683B689A60FB689B683A681A
:1032F0005A60FB683A689A603B687A681A617B6832
:103300001B685A1C7B681A601437BD465DF8047B45
:10331000704700BF80B485B000AF786039603B680B
:103320001B68BB60BB68B3F1FF3F03D17B681B69BF
:10333000FB600CE07B680833FB6002E0FB685B68C5
:10334000FB60FB685B681A68BB689A42F6D9FB6849
:103350005A683B685A603B685B683A689A603B68A9
:10336000FA689A60FB683A685A603B687A681A6142
:103370007B681B685A1C7B681A601437BD465DF871
:10338000047B704780B485B000AF78607B681B69B0
:10339000FB607B685B687A6892689A607B689B6870
:1033A0007A6852685A60FB685A687B689A4203D10F
:1033B0007B689A68FB685A607B6800221A61FB6828
:1033C0001B685A1EFB681A60FB681B681846143796
:1033D000BD465DF8047B704780B584B000AF78606F
:1033E00039607B68FB6002F085F8FB681A68FB684F
:1033F000DB6BF968096C01FB03F31A44FB685A6044
:10340000FB6800229A63FB681A68FB689A60FB6895
:103410001A68FB68DB6B013BF968096C01FB03F37D
:103420001A44FB68DA60FB684FF0FF325A64FB68AD
:103430004FF0FF329A643B68002B0ED1FB681B698A
:10344000002B14D0FB681033184601F03FFA0346F6
:10345000012B0CD102F03EF809E0FB68103318464E
:10346000FFF708FFFB6824331846FFF703FF02F05D
:1034700051F8012318461037BD4680BD80B588B08D
:1034800000AFF860B9601346FB710023BB61BB68F5
:10349000002B02D10023FB6105E0FB68BA6802FB48
:1034A00003F30133FB61FB694C33184602F09CF8CF
:1034B00078617B69002B17D0BB68002B03D17B6937
:1034C0007A691A6004E07B6903F14C027B691A6037
:1034D0007B69FA68DA637B69BA681A6478690121E2
:1034E000FFF77AFF7B69BB61BB6918462037BD4691
:1034F00080BD00BF80B58AB000AFF860B9607A6067
:103500003B6000237B62FB683B6201F0F3FF3B6A98
:103510009A6B3B6ADB6B9A4202D33B68022B1DD14C
:10352000386AB9683A6800F049FAF8613B6A5B6A40
:10353000002B0AD03B6A2433184601F0C7F9034632
:10354000012B07D101F0C6FF04E0FB69002B01D07D
:1035500001F0C0FF01F0DEFF012359E07B68002B82
:1035600003D101F0D7FF002352E07B6A002B06D184
:1035700007F11403184601F049FA01237B6201F0B8
:10358000C9FF00F069FF01F0B5FF3B6A5B6CB3F166
:10359000FF3F02D13B6A00225A643B6A9B6CB3F145
:1035A000FF3F02D13B6A00229A6401F0B3FF07F1AA
:1035B00014023B1D1046194601F03EFA0346002B4B
:1035C0001ED1386A00F0F6FA0346002B12D03B6A8F
:1035D00003F110027B681046194601F0EFF8386AD3
:1035E00000F072FA00F046FF0346002B0FD101F005
:1035F00071FF0CE0386A00F067FA00F03BFF84E7E7
:10360000386A00F061FA00F035FF002300E07CE743
:1036100018462837BD4680BD80B588B000AFF86039
:10362000B9607A603B60FB68BB6101F085FF78613F
:10363000BB699A6BBB69DB6B9A4202D33B68022B76
:1036400024D1B869B9683A6800F0B8F9BB699B6CD5
:10365000B3F1FF3F12D1BB695B6A002B13D0BB698A
:103660002433184601F032F90346002B0BD07B6857
:10367000002B08D07B6801221A6004E0BB699B6CB8
:103680005A1CBB699A640123FB6101E00023FB61C2
:10369000786901F05BFFFB6918462037BD4680BDA5
:1036A00080B586B000AF786039607B683B6101F01F
:1036B00043FFF8603B699A6B3B69DB6B9A4224D20B
:1036C0003B699B6B5A1C3B699A633B699B6CB3F1EA
:1036D000FF3F12D13B695B6A002B13D03B69243357
:1036E000184601F0F3F80346002B0BD03B68002B83
:1036F00008D03B6801221A6004E03B699B6C5A1CAD
:103700003B699A6401237B6101E000237B61F868D7
:1037100001F01CFF7B6918461837BD4680BD00BF0D
:1037200080B58AB000AFF860B9607A603B60002372
:103730007B62FB683B6201F0DDFE3B6A9B6B002B0A
:1037400032D03B6ADB68FB61386AB96800F096F9F1
:103750003B68002B13D13B6A9B6B5A1E3B6A9A63F2
:103760003B6A1B69002B1BD03B6A1033184601F0E3
:10377000ADF80346012B13D101F0ACFE10E03B6A1B
:10378000FA69DA603B6A5B6A002B09D03B6A243332
:10379000184601F09BF80346002B01D001F09AFE79
:1037A00001F0B8FE012359E07B68002B03D101F042
:1037B000B1FE002352E07B6A002B06D107F114030F
:1037C000184601F023F901237B6201F0A3FE00F00B
:1037D00043FE01F08FFE3B6A5B6CB3F1FF3F02D109
:1037E0003B6A00225A643B6A9B6CB3F1FF3F02D1F3
:1037F0003B6A00229A6401F08DFE07F114023B1D22
:103800001046194601F018F90346002B1ED1386AFC
:1038100000F0A6F90346002B12D03B6A03F1240204
:103820007B681046194600F0C9FF386A00F04CF971
:1038300000F020FE0346002B0FD101F04BFE0CE000
:10384000386A00F041F900F015FE74E7386A00F0BC
:103850003BF900F00FFE002300E06CE71846283724
:10386000BD4680BD80B588B000AFF860B9607A60B1
:10387000FB68BB6101F060FE7861BB699B6B002B4C
:1038800028D0B869B96800F0F9F8BB699B6B5A1E7B
:10389000BB699A63BB695B6CB3F1FF3F12D1BB6933
:1038A0001B69002B13D0BB691033184601F00EF8CA
:1038B0000346002B0BD07B68002B08D07B680122CD
:1038C0001A6004E0BB695B6C5A1CBB695A64012333
:1038D000FB6101E00023FB61786901F037FEFB69C1
:1038E00018462037BD4680BD80B586B000AF7860F1
:1038F00039607B683B6101F01FFEF8603B699B6BA0
:10390000002B0CD03B69DB68BB603869396800F07C
:10391000B5F83B69BA68DA6001237B6101E00023F6
:103920007B61F86801F012FE7B6918461837BD46C6
:1039300080BD00BF80B584B000AF786001F0DAFDD3
:103940007B689B6BFB6001F0E5FDFB681846103758
:10395000BD4680BD80B584B000AF78607B68FB60F9
:1039600001F0C8FDFB68DA6BFB689B6BD31ABB6088
:1039700001F0D0FDBB6818461037BD4680BD00BFC2
:1039800080B485B000AF78607B689B6BFB60FB68A0
:1039900018461437BD465DF8047B704780B584B087
:1039A00000AF78607B68FB60F86800F059F9F86850
:1039B00001F060FE1037BD4680BD00BF80B586B007
:1039C00000AFF860B9607A6000237B61FB681B6C14
:1039D000002B48D07B68002B1AD1FB689A68FB68E3
:1039E0001B6C1046B9681A4604F0EAFCFB689A683A
:1039F000FB681B6C1A44FB689A60FB689A68FB685A
:103A00005B689A422FD3FB681A68FB689A602AE0C9
:103A1000FB68DA68FB681B6C1046B9681A4604F04C
:103A2000CFFCFB68DA68FB681B6C5B421A44FB68DE
:103A3000DA60FB68DA68FB681B689A4207D2FB68A9
:103A40005A68FB681B6C5B421A44FB68DA607B684F
:103A5000022B08D1FB689B6B002B04D0FB689B6B8F
:103A60005A1EFB689A63FB689B6B5A1CFB689A633F
:103A70007B6918461837BD4680BD00BF80B582B04F
:103A800000AF786039607B681B6C002B19D07B68B5
:103A9000DA687B681B6C1A447B68DA607B68DA68DA
:103AA0007B685B689A4203D37B681A687B68DA603C
:103AB0007B68DA687B681B6C386811461A4604F02C
:103AC0007FFC0837BD4680BD80B582B000AF78600E
:103AD00001F010FD14E07B685B6A002B0AD07B6864
:103AE0002433184600F0F2FE0346002B03D000F00A
:103AF000E7FF00E008E07B689B6C5A1E7B689A64D5
:103B00007B689B6C002BE6DC7B684FF0FF329A648D
:103B100001F000FD01F0EEFC14E07B681B69002B56
:103B20000FD07B681033184600F0D0FE0346002B00
:103B300001D000F0C5FF7B685B6C5A1E7B685A643D
:103B400000E003E07B685B6C002BE6DC7B684FF0F9
:103B5000FF325A6401F0DEFC0837BD4680BD00BF6D
:103B600080B584B000AF786001F0C4FC7B689B6BCB
:103B7000002B02D10123FB6001E00023FB6001F078
:103B8000C9FCFB6818461037BD4680BD80B485B0BF
:103B900000AF78607B689B6B002B02D10123FB6038
:103BA00001E00023FB60FB6818461437BD465DF852
:103BB000047B704780B584B000AF786001F09AFC58
:103BC0007B689A6B7B68DB6B9A4202D10123FB60B6
:103BD00001E00023FB6001F09DFCFB6818461037F4
:103BE000BD4680BD80B485B000AF78607B689A6BBD
:103BF0007B68DB6B9A4202D10123FB6001E000236A
:103C0000FB60FB6818461437BD465DF8047B7047BF
:103C100080B485B000AF786039600023FB6014E0A9
:103C20000E4AFB6852F83330002B0BD10B49FB686E
:103C30003A6841F83320094AFB68DB0013447A688C
:103C40005A6005E0FB680133FB60FB68042BE7D991
:103C50001437BD465DF8047B704700BFC8350020AF
:103C600080B485B000AF78600023FB6010E00C4AA0
:103C7000FB68DB0013445A687B689A4205D1084A06
:103C8000FB68002142F8331005E0FB680133FB605C
:103C9000FB68042BEBD91437BD465DF8047B7047F5
:103CA000C835002080B58AB002AFF860B9603B60CB
:103CB0001346FB80FB881846396B01F06DF8B8613C
:103CC000BB69002B67D0BB691A6BFB8803F180438B
:103CD000013B9B0013447B617B6923F007037B61FD
:103CE000FB880093B869B968BA6A7B6B00F004FF7F
:103CF0007869F9683A6801F07BFB0246BB691A6093
:103D0000FB6A002B02D0FB6ABA691A6001F0F2FB71
:103D10002C4B1B6801332B4A13602B4B1B68002B69
:103D200009D1294ABB691360264B1B68012B0FD1AF
:103D300000F084FF0CE0254B1B68002B08D1224BC0
:103D40001B68DA6ABB6A9A4202D81F4ABB691360D1
:103D50001F4B1B6801331E4A1360BB69DB6A1A469E
:103D6000012303FA02F21B4B1B681343194A136029
:103D7000BB69DA6A13469B0013449B00164A1A4437
:103D8000BB69043310461946FFF7A0FA0123FB6113
:103D900001F0C0FB02E04FF0FF33FB61FB69012B38
:103DA0000BD10A4B1B68002B07D0074B1B68DA6A44
:103DB000BB6A9A4201D201F08DFBFB69184620379D
:103DC000BD4680BD700D0020980C00207C0D0020A9
:103DD0008C0D0020780D00209C0C002080B584B054
:103DE00000AF786001F086FB7B68002B02D1294B85
:103DF0001B6800E07B68FB60FB6804331846FFF734
:103E0000C1FA0346002B15D1FB68DA6A2249134632
:103E10009B0013449B000B441B68002B0AD1FB68DA
:103E2000DB6A1A4601239340DA431C4B1B6813409C
:103E30001A4A1360FB689B6A002B04D0FB68183396
:103E40001846FFF79FFAFB68043315481946FFF739
:103E50003DFA144B1B680133124A1360124B1B6866
:103E60000133114A136001F055FB104B1B68002B06
:103E70000DD0084B1B68FA689A4202D101F02AFB68
:103E800005E001F037FB00F0C3FF01F043FB103702
:103E9000BD4680BD980C00209C0C0020780D0020B1
:103EA000440D0020580D00208C0D00207C0D0020BA
:103EB00080B586B000AF7860396000237B6100F088
:103EC000CBFA264B1B683B617B681A683B6813443E
:103ED000FB607B681A683B699A420BD97B681A6859
:103EE000FB689A4211D9FA683B699A420DD90123BD
:103EF0007B610AE07B681A68FB689A4203D8FA681B
:103F00003B699A4201D901237B617B68FA681A6098
:103F10007B69002B17D0124B1B6804331846FFF740
:103F200031FA0346002B0BD10D4B1B68DB6A1A4696
:103F300001239340DA430B4B1B681340094A13607B
:103F4000F86800F0F3FE00F095FAB860BB68002B4B
:103F500001D101F0BFFA1837BD4680BD740D0020B5
:103F6000980C0020780D002080B584B000AF7860F8
:103F70000023FB607B68002B21D000F06DFA144B0E
:103F80001A687B681344BB60124B1B6804331846E5
:103F9000FFF7F8F90346002B0BD10E4B1B68DB6AC9
:103FA0001A4601239340DA430B4B1B6813400A4A1D
:103FB0001360B86800F0BAFE00F05CFAF860FB68C5
:103FC000002B01D101F086FA1037BD4680BD00BF3D
:103FD000740D0020980C0020780D002080B584B06E
:103FE00000AF786001F086FA7B68002B02D1074BA6
:103FF0001B6800E07B68FB60FB68DB6ABB6001F06C
:1040000089FABB6818461037BD4680BD980C002061
:1040100080B586B000AF786001F08EFA78617B6879
:10402000002B02D1074B1B6800E07B683B613B69BA
:10403000DB6AFB60786901F089FAFB68184618377B
:10404000BD4680BD980C002080B586B000AF78607A
:10405000396000237B613B68042B01D904233B605A
:1040600001F048FA7B68002B02D13C4B1B6800E052
:104070007B683B613B69DB6AFB60FA683B689A429C
:1040800067D03A68FB689A420DD9344B1B683A698D
:104090009A420FD0314B1B68DA6A3B689A4209D8C2
:1040A00001237B6106E02D4B1B683A699A4201D1DE
:1040B00001237B613B69DB6ABB603B693A68DA627A
:1040C0003B699B69002B04DB3B68C3F105023B693C
:1040D0009A613B695969BA6813469B0013449B0077
:1040E0001F4A1344994201D1012300E00023002B11
:1040F0002AD03B6904331846FFF744F90346002BE6
:1041000009D1BB68012202FA03F3DA43154B1B689D
:104110001340144A13603B69DB6A1A46012303FA11
:1041200002F2104B1B6813430E4A13603B69DA6AB4
:1041300013469B0013449B00094A1A443B6904330D
:1041400010461946FFF7C2F87B69012B01D101F037
:10415000C1F901F0DFF91837BD4680BD980C002089
:104160009C0C0020780D002080B584B000AF7860F2
:1041700001F0C0F97B68002B02D12D4B1B6800E0D9
:104180007B68FB60FB6804331846FFF7FBF80346C7
:10419000002B15D1FB68DA6A264913469B001344AD
:1041A0009B000B441B68002B0AD1FB68DB6A1A4694
:1041B00001239340DA43204B1B6813401E4A1360CF
:1041C000FB689B6A002B04D0FB6818331846FFF786
:1041D000D9F8FB68043319481946FFF777F801F05E
:1041E00099F9134B1B68FA689A4213D1144B1B6858
:1041F000002B02D001F06EF916E0104B1A68114B3B
:104200001B689A4203D10A4B00221A600CE000F0AE
:104210008FFA09E00A4B1B68002B05D001F06AF900
:1042200000F0F6FD01F076F91037BD4680BD00BF05
:10423000980C00209C0C0020780D00205C0D0020C4
:104240007C0D0020700D002080B485B000AF786038
:104250000023FB607B68BB60BB685B690F4A9342CD
:1042600001D1012300E00023002B0FD0BB689B6A23
:104270000B4A93420AD0BB689B6A002B01D10123F1
:1042800000E00023002B01D00123FB60FB681846EF
:104290001437BD465DF8047B704700BF5C0D0020FD
:1042A000300D002080B584B000AF78607B68FB6083
:1042B000FB68002B35D01C4B1B68FA689A4230D043
:1042C00001F018F9F868FFF7BFFF0346012B26D16C
:1042D000FB6804331846FFF755F8FB68DB6A1A469B
:1042E000012303FA02F2114B1B6813430F4A1360B8
:1042F000FB68DA6A13469B0013449B000C4A1A447D
:10430000FB68043310461946FEF7E0FFFB68DA6AE3
:10431000054B1B68DB6A9A4201D301F0DBF801F020
:10432000F9F81037BD4680BD980C0020780D0020AC
:104330009C0C002080B586B000AF786000237B61C4
:104340007B683B6101F0F8F8F8603869FFF77CFFA3
:104350000346012B31D11D4B1B68002B27D13B6934
:10436000DA6A1B4B1B68DB6A9A4201D301237B612B
:104370003B6904331846FFF705F83B69DB6A1A46C8
:10438000012303FA02F2134B1B681343114A136013
:104390003B69DA6A13469B0013449B000E4A1A4499
:1043A0003B69043310461946FEF790FF05E03B6970
:1043B00018330A481946FEF789FFF86801F0C6F875
:1043C0007B6918461837BD4680BD00BF940D00209C
:1043D000980C0020780D00209C0C0020300D00204F
:1043E00080B586B004AF002300930023019300231F
:1043F0000293002303930D480D4964220023FFF725
:1044000051FC78607B68012B0DD101F095F8094BC8
:104410004FF0FF321A60084B01221A60074B00224E
:104420001A6001F037F80837BD4680BDD94A000848
:1044300088A00008900D00207C0D0020740D002045
:1044400080B500AF01F078F8024B00221A6001F04D
:104450003BF880BD7C0D002080B400AF044B1B688E
:104460000133034A1360BD465DF8047B704700BF0B
:10447000940D002080B582B000AF00237B6001F076
:1044800039F8344B1B68013B324A1360314B1B68CF
:10449000002B57D1304B1B68002B53D030E02F4BF3
:1044A000DB68DB683B603B6818331846FEF76AFF41
:1044B0003B6804331846FEF765FF3B68DB6A1A4623
:1044C000012303FA02F2264B1B681343244A1360AC
:1044D0003B68DA6A13469B0013449B00214A1A4446
:1044E0003B68043310461946FEF7F0FE3B68DA6A73
:1044F0001D4B1B68DB6A9A4202D31C4B01221A60D7
:10450000164B1B68002BCAD1194B1B68002B11D00E
:104510000CE000F05DF80346002B02D0134B0122A3
:104520001A60134B1B68013B114A1360104B1B6848
:10453000002BEED10D4B1B68012B03D101237B60B7
:1045400000F0C8FF00F0E6FF7B6818460837BD465C
:1045500080BD00BF940D0020700D0020300D0020A4
:10456000780D00209C0C0020980C0020840D002069
:10457000800D002080B483B000AF054B1B687B60CA
:104580007B6818460C37BD465DF8047B704700BF5A
:10459000740D002080B483B000AF00237B60054B16
:1045A0001B683B603B6818460C37BD465DF8047BD2
:1045B000704700BF740D002080B400AF034B1B6830
:1045C0001846BD465DF8047B704700BF700D0020A3
:1045D00080B586B000AF00237B614A4B1B68002B7F
:1045E0007FD1494B1B680133474A1360464B1B6818
:1045F0003B613B69002B10D1444B1B68FB60444B73
:104600001B68424A1360424AFB681360414B1B68B7
:104610000133404A136000F0FBFB3F4B1B683A69D3
:104620009A424FD3394B1B681B68002B01D10123E1
:1046300000E00023002B04D0374B4FF0FF321A600C
:1046400040E0324B1B68DB68DB68BB60BB685B68C3
:104650007B603A697B689A4203D22F4A7B68136079
:1046600030E0BB6804331846FEF78CFEBB689B6ADB
:10467000002B04D0BB6818331846FEF783FEBB68D6
:10468000DB6A1A46012303FA02F2244B1B68134328
:10469000224A1360BB68DA6A13469B0013449B00EE
:1046A0001F4A1A44BB68043310461946FEF70EFE33
:1046B000BB68DA6A1B4B1B68DB6A9A4201D3012391
:1046C0007B61AFE7174B1B68DA6A154913469B00FD
:1046D00013449B000B441B68012B07D901237B610A
:1046E00004E0114B1B6801330F4A13600F4B1B682A
:1046F000002B01D001237B617B6918461837BD462A
:1047000080BD00BF940D0020740D0020280D0020F6
:104710002C0D0020880D0020900D0020780D002029
:104720009C0C0020980C0020800D0020840D00209F
:1047300080B485B000AF1C4B1B68002B03D01B4B13
:1047400001221A602AE0194B00221A60184B1B68DC
:104750007B607B68B3FA83F3FB70FB78C3F11F03C4
:10476000FB60FA6813469B0013449B00114A1344F4
:10477000BB60BB685B685A68BB685A60BB685A68B4
:10478000BB6808339A4204D1BB685B685A68BB684F
:104790005A60BB685B68DB68074A13601437BD4624
:1047A0005DF8047B704700BF940D0020840D00204D
:1047B000780D00209C0C0020980C002080B584B05F
:1047C00000AF78603960194B1B6818337868194658
:1047D000FEF7A0FD154B1B6804331846FEF7D2FD0B
:1047E0000346002B0BD1114B1B68DB6A1A460123D1
:1047F0009340DA430E4B1B6813400D4A13603B682D
:10480000B3F1FF3F07D1094B1B6804330948194630
:10481000FEF75CFD07E0084B1A683B681344FB6039
:10482000F86800F083FA1037BD4680BD980C002070
:10483000780D00205C0D0020740D002080B586B03E
:1048400000AFF860B9607A601C4B1B68BA6842F030
:1048500000429A61194B1B681833F8681946FEF735
:1048600035FD164B1B6804331846FEF78BFD0346D7
:10487000002B0BD1114B1B68DB6A1A4601239340B6
:10488000DA430F4B1B6813400D4A13607B68B3F18A
:10489000FF3F07D1094B1B6804330A481946FEF74E
:1048A00015FD07E0084B1A687B6813447B61786943
:1048B00000F03CFA1837BD4680BD00BF980C0020C0
:1048C000780D00205C0D0020740D002080B584B0B0
:1048D00000AF78607B68DB68DB68BB60BB6818335F
:1048E0001846FEF74FFD1E4B1B68002B1ED1BB6800
:1048F00004331846FEF746FDBB68DB6A1A460123FF
:1049000003FA02F2174B1B681343164A1360BB6885
:10491000DA6A13469B0013449B00134A1A44BB688F
:10492000043310461946FEF7D1FC05E0BB68183386
:104930000E481946FEF7CAFCBB68DA6A0C4B1B68C6
:10494000DB6A9A4205D90123FB600A4B01221A60F7
:1049500001E00023FB60FB6818461037BD4680BDB0
:10496000940D0020780D00209C0C0020300D0020BC
:10497000980C0020840D002080B584B000AF7860D2
:1049800039603B6843F000427B681A607B68DB68F3
:10499000BB607868FEF7F6FCBB6804331846FEF788
:1049A000F1FCBB68DB6A1A46012303FA02F2134BDF
:1049B0001B681343114A1360BB68DA6A13469B00F5
:1049C00013449B000E4A1A44BB6804331046194630
:1049D000FEF77CFCBB68DA6A0A4B1B68DB6A9A420A
:1049E00005D90123FB60084B01221A6001E0002376
:1049F000FB60FB6818461037BD4680BD780D00206F
:104A00009C0C0020980C0020840D002080B483B002
:104A100000AF7860064B1A687B681A60054B1A680D
:104A20007B685A600C37BD465DF8047B704700BF59
:104A3000880D0020740D002080B584B000AF786030
:104A4000396000F057FD1C4B1B68BB603B681B685E
:104A5000B3F1FF3F02D10023FB6026E07B681A68B8
:104A6000164B1B689A4207D07B685A68BB689A420B
:104A700002D80123FB6018E07B685B68BA68D21A31
:104A80003B681B689A420ED23B681A687B6859687B
:104A9000BB68CB1A1A443B681A607868FFF7B6FF08
:104AA0000023FB6001E00123FB6000F033FDFB68A5
:104AB00018461037BD4680BD740D0020880D0020BB
:104AC00080B400AF034B01221A60BD465DF8047B41
:104AD000704700BF840D002080B582B000AF7860C1
:104AE00000F0EAF8034B1B68012B01D900F0F2FC3F
:104AF000F6E700BF9C0C002080B586B000AFF860E0
:104B0000B9607A603B6000237B6113E0BA687B691F
:104B100013441978FA687B69134430330A461A71D2
:104B2000BA687B6913441B78002B00D105E07B69D0
:104B300001337B617B690F2BE8D9FB68002283F886
:104B400043207B68042B01D904237B60FB687A68CF
:104B5000DA62FB6804331846FEF7ACFBFB681833D7
:104B60001846FEF7A7FBFB68FA681A617B68C3F179
:104B70000502FB689A61FB68FA685A6200237B6150
:104B800009E0FA687B6910339B00134400225A60E5
:104B90007B6901337B617B69042BF2D9FB680022BE
:104BA0009A65FB68002283F85C201837BD4680BDFB
:104BB00080B487B000AFF860B9607A60BB68042B3E
:104BC0000EDCFB68002B02D1084B1B6800E0FB6881
:104BD0007B617A69BB6810339B0013447A685A6022
:104BE0001C37BD465DF8047B704700BF980C002061
:104BF00080B485B000AF786039600023FB603B680B
:104C0000042B0FDC7B68002B02D10B4B1B6800E0F0
:104C10007B68BB60BA683B6810339B0013445B68D9
:104C2000FB6001E00023FB60FB6818461437BD46BB
:104C30005DF8047B704700BF980C002080B582B0FF
:104C400000AF00237B600CE07A6813469B0013449E
:104C50009B00114A13441846FEF70CFB7B68013396
:104C60007B607B68042BEFD90C48FEF703FB0C48F4
:104C7000FEF700FB0B48FEF7FDFA0B48FEF7FAFAC9
:104C80000A48FEF7F7FA0A4B044A1A60094B044A2D
:104C90001A600837BD4680BD9C0C0020000D002026
:104CA000140D0020300D0020440D00205C0D00206C
:104CB000280D00202C0D002080B582B000AF28E028
:104CC000FFF7CAFB164B1B68002B0CBF0123002308
:104CD000DBB27B60FFF7CEFB7B68002B19D100F0C5
:104CE00009FC0F4BDB68DB683B603B68043318460C
:104CF000FEF748FB0B4B1B68013B0A4A13600A4B4B
:104D00001B68013B084A136000F004FC386800F09F
:104D10006FF8054B1B68002BD2D10837BD4680BD0C
:104D2000440D0020700D0020580D002080B582B089
:104D300000AF7860134B1B687A685A60124B1B688F
:104D40007A689A4209D2114B1A680E4B1B680433D9
:104D500010461946FEF7DEFA10E00D4B1A68094BB3
:104D60001B68043310461946FEF7D4FA094B1B683A
:104D70007A689A4202D2074A7B6813600837BD46B8
:104D800080BD00BF980C0020740D00202C0D002069
:104D9000280D0020900D002080B584B000AF0346A0
:104DA0003960FB803B68002B06D1FB889B001846CE
:104DB00000F01AFC034600E03B68BB60BB68002BB8
:104DC0000ED0602000F010FCF860FB68002B03D0D0
:104DD000FB68BA681A6305E0B86800F04BFC01E0B4
:104DE0000023FB60FB6818461037BD4680BD00BF3E
:104DF00080B582B000AF78607B681B6B184600F00E
:104E000039FC786800F036FC0837BD4680BD00BF2D
:104E100080B483B000AF0E4B1B681B68002B01D120
:104E2000012300E00023002B04D00A4B4FF0FF3297
:104E30001A6008E0064B1B68DB68DB687B607B68F8
:104E40005B68044A13600C37BD465DF8047B70470D
:104E5000280D0020900D002080B483B000AF054BDA
:104E60001B687B607B6818460C37BD465DF8047B89
:104E7000704700BF980C002080B483B000AF0B4B8C
:104E80001B68002B02D101237B6008E0084B1B68E4
:104E9000002B02D102237B6001E000237B607B6852
:104EA00018460C37BD465DF8047B70477C0D00202A
:104EB000940D002080B483B000AF094B1B689B6940
:104EC0007B60074B1B68064A1268D26AC2F1050272
:104ED0009A617B6818460C37BD465DF8047B7047C5
:104EE000980C002080B584B000AF7860396000F085
:104EF00001FB2E4B1B689B6D002B32D12B4B1B688B
:104F0000012283F85C203B68002B2AD0274B1B68CA
:104F100004331846FEF736FA0346002B0BD1234B19
:104F20001B68DB6A1A4601239340DA43204B1B6857
:104F300013401F4A13603B68B3F1FF3F07D11B4B7F
:104F40001B6804331B481946FEF7C0F907E01A4BEB
:104F50001A683B681344FB60F868FFF7E7FE00F04F
:104F6000B9FA00F0D7FA00F0C5FA104B1B689B6D38
:104F7000BB60BB68002B0CD07B68002B04D00B4BB4
:104F80001B6800229A6504E0084B1B689A6D013A81
:104F90009A65064B1B68002283F85C2000F0BAFA81
:104FA000BB6818461037BD4680BD00BF980C002076
:104FB000780D00205C0D0020740D002080B586B0B7
:104FC00000AFF860B9607A603B6000F093FA364B4E
:104FD0001B6893F85C30DBB2022B39D0324B1B6874
:104FE000996DFA68D2430A409A652F4B1B680122DB
:104FF00083F85C203B68002B2AD02B4B1B680433C2
:105000001846FEF7BFF90346002B0BD1264B1B6851
:10501000DB6A1A4601239340DA43244B1B68134092
:10502000224A13603B68B3F1FF3F07D11E4B1B6858
:1050300004331F481946FEF749F907E01D4B1A686B
:105040003B6813443B613869FFF770FE00F042FA99
:1050500000F060FA00F04EFA7B68002B04D0124B8F
:105060001B689A6D7B681A600F4B1B6893F85C3065
:10507000DBB2012B02D100237B6108E00A4B1B68E5
:10508000996DBA68D2430A409A6501237B61064B49
:105090001B68002283F85C2000F03CFA7B6918460C
:1050A0001837BD4680BD00BF980C0020780D002049
:1050B0005C0D0020740D002080B588B000AFF86052
:1050C000B9603B601346FB710123FB61FB68BB6168
:1050D00000F010FA3B68002B03D0BB699A6D3B6867
:1050E0001A60BB6993F85C30FB75BB69022283F8D8
:1050F0005C20FB79042B28D801A252F823F000BFD2
:105100004B51000815510008235100082F51000889
:1051100037510008BB699A6DBB681A43BB699A6531
:1051200013E0BB699B6D5A1CBB699A650DE0BB69B6
:10513000BA689A6509E0FB7D022B03D0BB69BA68A7
:105140009A6501E00023FB6100BFFB7D012B26D1A6
:10515000BB6904331846FEF715F9BB69DB6A1A46CA
:10516000012303FA02F2114B1B6813430F4A136029
:10517000BB69DA6A13469B0013449B000C4A1A442D
:10518000BB69043310461946FEF7A0F8BB69DA6A1A
:10519000084B1B68DB6A9A4201D900F09BF900F0CA
:1051A000B9F9FB6918462037BD4680BD780D00204F
:1051B0009C0C0020980C002080B588B000AFF860EF
:1051C000B9603B601346FB710123FB61FB68BB6167
:1051D00000F0B2F978613B68002B03D0BB699A6D8F
:1051E0003B681A60BB6993F85C30FB74BB690222B0
:1051F00083F85C20FB79042B27D801A252F823F016
:105200004B52000815520008235200082F52000884
:1052100037520008BB699A6DBB681A43BB699A652F
:1052200013E0BB699B6D5A1CBB699A650DE0BB69B5
:10523000BA689A6509E0FB7C022B03D0BB69BA68A7
:105240009A6501E00023FB6100BFFB7C012B35D197
:105250001E4B1B68002B1ED1BB6904331846FEF79A
:1052600091F8BB69DB6A1A46012303FA02F2184B74
:105270001B681343164A1360BB69DA6A13469B0026
:1052800013449B00134A1A44BB6904331046194661
:10529000FEF71CF805E0BB6918330F481946FEF706
:1052A00015F8BB69DA6A0D4B1B68DB6A9A4205D9AF
:1052B000BB6A002B02D0BB6A01221A60786900F039
:1052C00045F9FB6918462037BD4680BD940D002086
:1052D000780D00209C0C0020300D0020980C002040
:1052E00080B586B000AF786039607B687B6100F084
:1052F00023F938617B6993F85C30FB737B69022288
:1053000083F85C207B699B6D5A1C7B699A65FB7BEB
:10531000012B35D11D4B1B68002B1ED17B6904333B
:105320001846FEF72FF87B69DB6A1A46012303FA59
:1053300002F2174B1B681343154A13607B69DA6A44
:1053400013469B0013449B00124A1A447B690433A2
:1053500010461946FDF7BAFF05E07B6918330E4881
:105360001946FDF7B3FF7B69DA6A0C4B1B68DB6AF1
:105370009A4205D93B68002B02D03B6801221A6093
:10538000386900F0E3F81837BD4680BD940D002061
:10539000780D00209C0C0020300D0020980C00207F
:1053A00080B584B000AF78607B68BB60BB68002BC1
:1053B00002D10E4B1B6800E0BB68BB6000F09AF89E
:1053C000BB6893F85C30DBB2022B06D1BB680022CD
:1053D00083F85C200123FB6001E00023FB6000F008
:1053E00099F8FB6818461037BD4680BD980C002020
:1053F00080B485B000AFF860B9607A60FB68043BA8
:10540000FB60FB684FF080721A60FB68043BFB6036
:10541000BA68FB681A60FB68043BFB60094AFB68DA
:105420001A60FB68143BFB607A68FB681A60FB68D3
:10543000203BFB60FB6818461437BD465DF8047BD3
:10544000704700BF4954000880B500AF00F074F801
:10545000FEE700BF074B19680868B0E8F00F80F35B
:105460000988BFF36F8F4FF0000080F311884EF072
:105470000D0E7047980C00205A480068006880F3B1
:10548000088862B661B6BFF34F8FBFF36F8F00DF3E
:1054900000BF00BF80B500AF094A094B1B6813600D
:1054A000074A074B1B68136000F08AF8054B00227F
:1054B0001A60FFF7E1FFFFF7C7FF0023184680BD22
:1054C00020ED00E02400002080B400AFBD465DF870
:1054D000047B704780B400AF054B4FF080521A60D8
:1054E000BFF34F8FBFF36F8FBD465DF8047B7047EE
:1054F00004ED00E080B500AF00F01EF8044B1B681F
:105500000133034A1360BFF34F8FBFF36F8F80BD2A
:105510002400002080B500AF064B1B68013B054A04
:105520001360044B1B68002B02D1002000F00EF822
:1055300080BD00BF24000020EFF311804FF0040174
:1055400081F3118870470023184600BF80F311884B
:10555000704700BFEFF30980BFF36F8F0D4B1A68E0
:1055600020E9F00F10602DE908404FF0040080F3AF
:105570001188FFF7DDF84FF0000080F31188BDE8D7
:10558000084019680868B0E8F00F80F30988BFF395
:105590006F8F7047980C002080B500AFFFF7CCFFED
:1055A000FFF716F80346002B03D0044B4FF0805250
:1055B0001A600020FFF7CAFF80BD00BF04ED00E0C5
:1055C00080B400AF054B4FF6FF121A60044B072260
:1055D0001A60BD465DF8047B704700BF14E000E030
:1055E00010E000E008ED00E080B584B000AF786026
:1055F0000023FB607B6803F00703002B04D07B686B
:1056000023F0070308337B60FEF726FF164B1B6869
:10561000002B05D1154B23F007031A46124B1A60D5
:10562000134B1A687B68134442F2F772934213D803
:105630000F4B1A687B681A440D4B1B689A420BD9B2
:10564000094B1A680A4B1B681344FB60084B1A6825
:105650007B681344064A1360FEF70CFFFB6818468C
:105660001037BD4680BD00BF9C350020A00D002036
:105670009835002080B483B000AF78600C37BD4609
:105680005DF8047B704700BF80B400AF034B00227D
:105690001A60BD465DF8047B704700BF9835002056
:1056A00080B400AF044B1B68C3F51F533833184652
:1056B000BD465DF8047B70479835002080B582B008
:1056C00000AF78607B68B3F1804F08D101200121E1
:1056D00001F024FF0120002101F020FF66E07B683B
:1056E000344A934208D10220012101F017FF022021
:1056F000002101F013FF59E07B682F4A934208D143
:105700000420012101F00AFF0420002101F006FF1E
:105710004CE07B68294A934208D10820012101F01E
:10572000FDFE0820002101F0F9FE3FE07B68244ADD
:10573000934208D11020012101F0F0FE1020002139
:1057400001F0ECFE32E07B681E4A934208D1202033
:10575000012101F0E3FE2020002101F0DFFE25E021
:105760007B68194A934208D10420012101F0B8FE58
:105770000420002101F0B4FE18E07B68134A934234
:1057800008D10820012101F0ABFE0820002101F022
:10579000A7FE0BE07B680E4A934207D1102001213F
:1057A00001F09EFE1020002101F09AFE0837BD4650
:1057B00080BD00BF0004004000080040000C004015
:1057C000001000400014004000080140000C01409F
:1057D0000010014080B485B000AF786039600023CC
:1057E000FB817B681B88FB817B68B3F1804F0BD00A
:1057F0007B681C4A934207D07B681B4A934203D0C4
:105800007B681A4A934208D1FB8923F07003FB811D
:105810003B685A88FB891343FB817B68144A934297
:105820000CD07B68134A934208D0FB8923F4407361
:10583000FB813B681A89FB891343FB817B68FA89EA
:105840001A803B685A687B68DA623B681A887B6812
:105850001A857B6801229A821437BD465DF8047B65
:10586000704700BF0004004000080040000C0040EA
:10587000001000400014004080B483B000AF786096
:105880007B684FF0FF325A607B6800221A807B6889
:1058900000221A817B6800225A800C37BD465DF8D1
:1058A000047B704780B483B000AF78600B467B8088
:1058B00013463B807B687A881A857B683A889A828F
:1058C0000C37BD465DF8047B704700BF80B485B0DF
:1058D00000AF78600B467B800023FB817B681B88D0
:1058E000FB81FB8923F07003FB81FA897B881343DA
:1058F000FB817B68FA891A801437BD465DF8047B0A
:10590000704700BF80B483B000AF786039607B68B7
:105910003A685A620C37BD465DF8047B704700BF99
:1059200080B483B000AF786039607B683A68DA622F
:105930000C37BD465DF8047B704700BF80B483B070
:1059400000AF78607B685B6A18460C37BD465DF82F
:10595000047B704780B483B000AF78607B681B8D98
:105960009BB218460C37BD465DF8047B704700BFFC
:1059700080B483B000AF78600B46FB70FB78002BDF
:1059800008D07B681B889BB243F002039AB27B6805
:105990001A8007E07B681B889BB223F002039AB24F
:1059A0007B681A800C37BD465DF8047B704700BFEA
:1059B00080B483B000AF78600B467B807B88002B7F
:1059C00008D07B681B889BB243F004039AB27B68C3
:1059D0001A8007E07B681B889BB223F004039AB20D
:1059E0007B681A800C37BD465DF8047B704700BFAA
:1059F00080B483B000AF78600B46FB70FB78002B5F
:105A000008D07B681B889BB243F080039AB27B6806
:105A10001A8007E07B681B889BB223F080039AB250
:105A20007B681A800C37BD465DF8047B704700BF69
:105A300080B483B000AF78600B467B807B681B88A6
:105A40009BB223F008039AB27B681A807B681B889C
:105A50009AB27B8813439AB27B681A800C37BD4692
:105A60005DF8047B704700BF80B483B000AF7860FE
:105A70000B467B807B681B889BB223F440739AB2F1
:105A80007B681A807B681B889AB27B8813439AB222
:105A90007B681A800C37BD465DF8047B704700BFF9
:105AA00080B483B000AF78600B46FB70FB78002BAE
:105AB00008D07B681B889BB243F001039AB27B68D5
:105AC0001A8007E07B681B889BB223F001039AB21F
:105AD0007B681A800C37BD465DF8047B704700BFB9
