:020000040800F2
:100000000040012099170008E1170008E1170008D7
:10001000E1170008E1170008E117000800000000E0
:10002000000000000000000000000000E1170008D0
:10003000E117000800000000E1170008E1170008C0
:10004000E1170008E1170008E1170008E1170008B0
:10005000E1170008E1170008E1170008E1170008A0
:10006000E1170008E1170008E1170008E117000890
:10007000E1170008E1170008E1170008E117000880
:10008000E1170008E117000805070008E11700085C
:10009000E1170008E1170008E1170008E117000860
:1000A000E1170008E1170008E1170008E117000850
:1000B000E1170008E1170008E1170008E117000840
:1000C000E1170008E1170008E1170008E117000830
:1000D000E117000899090008E1170008E117000876
:1000E000E1170008E1170008E1170008E117000810
:1000F000E117000800000000E1170008E117000800
:10010000E1170008E1170008E1170008E1170008EF
:10011000E1170008E1170008E1170008E1170008DF
:10012000E1170008000000000000000000000000CF
:0C01300000000000000000005FF808F173
:1001400010B5054C237833B9044B13B10448AFF311
:1001500000800123237010BD58040020000000001F
:10016000581B0008084B10B51BB108480849AFF3ED
:1001700000800848036803B910BD074B002BFBD073
:10018000BDE81040184700BF00000000581B0008E1
:100190005C0400205404002000000000154B002BDC
:1001A00008BF134B9D46A3F5803A00218B460F46AE
:1001B0001348144A121A01F04DFB0F4B002B00D0CC
:1001C00098470E4B002B00D09847002000210400D8
:1001D0000D000D48002802D00C4801F0FDFB01F095
:1001E00011FB2000290000F013F801F0FBFA00BF1A
:1001F00000000800000000000000000000000000F7
:100200005804002078040020D9190008E5190008D6
:1002100080B500AF00F0C6FBFEE700BF80B500AFC1
:10022000144A144B1B6843F4807313601149114B3B
:100230009A68114B13408B600E4A0E4B1B6823F0DB
:10024000885323F0011313600A4A0A4B1B6823F4F6
:1002500080231360074A074B9B6823F47D03936058
:10026000044B0022DA6000F0B7F8044B4FF0006254
:100270009A6080BD003802400CC0FF8800ED00E0AD
:1002800080B487B000AF00237B6100233B61002373
:10029000FB600023BB6000237B60494B9B6803F03D
:1002A0000C037B617B690C2B64D801A252F823F00C
:1002B000E5020008750300087503000875030008CF
:1002C000050300087503000875030008750300089E
:1002D0000D03000875030008750300087503000886
:1002E00015030008364B5B6803F460435B0B7B60CF
:1002F0007B6801331A464FF4004393401A46314B52
:100300001A6047E02F4B304A1A6043E02D4B2F4ACA
:100310001A603FE02A4B9B6803F470133B61284B43
:100320009B6803F44003FB603B699B0C284AD35C49
:10033000DBB23B61FB689B0D0133FB60204B9B688C
:1003400003F48033BB60BB68002B09D13B691E4AB4
:1003500002FB03F2FB68B2FBF3F31A4A136019E0E5
:100360003B691A4A02FB03F2FB68B2FBF3F3154A3E
:1003700013600FE0124B5B6803F460435B0B7B6020
:100380007B6801331A464FF4004393401A460D4BE5
:100390001A6000BF0A4B9B6803F0F0031B090D4A6B
:1003A000D35CDBB27B61074B1A687B6922FA03F3EB
:1003B000044A13601C37BD465DF8047B704700BFDC
:1003C00000380240040000200024F40000127A00EB
:1003D000080000201400002080B483B000AF002388
:1003E0007B6000233B60404A3F4B1B6843F00103A6
:1003F00013603D4B1B6803F002033B603B68002B1E
:1004000003D17B68B3F5A04FF3D1374B1B6803F0E2
:100410000203002B02D001233B6001E000233B607C
:100420003B68012B5AD1314A304B1B6843F004031F
:1004300013602E4A2D4B1B6843F0020313602B4AB6
:100440002A4B1B6843F001031360274A264B5B6A63
:1004500043F080535362264B4FF400621A6000BF92
:10046000234B5B6803F01003002BF9D11E4A1E4B8F
:100470009B6893601C4A1C4B9B6893601A4A1A4BFA
:100480009B689360184A184B9B6823F47D03936024
:10049000154A154B9B6843F488039360124A124B2C
:1004A0001B6843F08073136000BF0F4B1B6803F0A1
:1004B0000073002BF9D00C4A0B4B9B6823F003030D
:1004C0009360094A084B9B6843F00303936000BFA5
:1004D000054B9B6803F00C030C2BF9D10C37BD4680
:1004E0005DF8047B704700BF00380240003C0240CA
:1004F00000700040BC1B00080000002054040020D5
:10050000580400207804002080B500AF234A234B14
:10051000DB6943F00103D361204A204B1B6A43F49B
:10052000007313621E4A1E4B1B6843F030031360B6
:100530001B4A1B4B9B6843F030039360194A194BCD
:100540001B6843F480231360164B164A92F812235B
:10055000D2B283F81223144A134B5B6843F402634C
:100560005360114A104B5B6943F4E07353610E4AC8
:100570000D4B1B6C43F0020313640B4A0A4B9B6840
:1005800043F4806343F00103936000BF402000F018
:100590000DF80346002BF9D080BD00BF00380240A3
:1005A0000000024000E100E00024014080B483B07C
:1005B00000AF0346FB80074B1A68FB881340002BF3
:1005C00001D1002300E0012318460C37BD465DF839
:1005D000047B70470024014080B483B000AF034621
:1005E000FB80044AFB88DB4313600C37BD465DF893
:1005F000047B70470024014080B584B000AF0346FF
:10060000FB80B7F90630184600F0FCFF0346184699
:1006100000F0E0FB02460B46104619464FF0000280
:100620002B4B00F055FD02460B461046194624A3FD
:10063000D3E9002300F022FC02460B46104619467F
:1006400000F0D6FE0346FB60F868224901F09AF8F4
:100650000346002B01D064232DE0F86800F0BAFBBC
:1006600002460B461046194617A3D3E9002300F0B3
:1006700077FE0346002B01D000231CE0F86800F051
:10068000A9FB02460B46104619464FF00002124BDA
:1006900000F01EFD02460B46104619464FF00002C0
:1006A0000E4B00F0EBFB02460B461046194600F0DD
:1006B0007FFE0346DBB218461037BD4680BD00BF43
:1006C0006666666666660A409A99999999990340A2
:1006D0000000B040000040400000084000005940C9
:1006E00080B500AF05E0064A054B9B6843F08043A8
:1006F00093600220FFF75AFF0346002BF3D080BD22
:100700000024014080B500AF074B9B6D9BB21BB22C
:100710001846FFF771FF03461A46044B1A70022071
:10072000FFF75AFF80BD00BF002401407404002081
:1007300080B500AF4FF4165000F016F8074800F0EF
:10074000D7F84FF4E13000F00FF8054800F0D0F88A
:10075000044800F0CDF800F00FF980BD741B0008CC
:10076000801B00088C1B000880B586B000AF786045
:100770004FF000024FF00003C7E904230023FB60A1
:100780000023FB724C4A4C4BDB6943F00103D361FD
:10079000494A494B1B6A43F480431362474A474B1B
:1007A0001B6843F420131360444A444B9B6843F492
:1007B00020139360414A414BDB6843F4A013D3609C
:1007C0003E4A3E4B5B6A43F4EE6353623C4A3C4B09
:1007D0005B6843F020035360394B394A92F8252374
:1007E000D2B283F825233749364B9B899AB2364BD0
:1007F00013439BB28B817B68DB00184600F0C8FA7C
:1008000002460B462AA1D1E9000100F061FC024634
:100810000B46C7E90423D7E9040100F0C9FD0346EC
:100820009BB2184600F0C4FA02460B46D7E9040111
:1008300000F070F902460B46104619464FF00002D0
:10084000224B00F01BFB02460B461046194601F0F6
:1008500033F902460B461046194600F0A9FD03463F
:10086000FB72FB7ADB08DBB2184600F0A1FA024605
:100870000B4610461946D7E9042300F04DF902460D
:100880000B461046194600F093FD0346FB600D49E8
:10089000FB689BB21B019AB2FB7A9BB203F0070381
:1008A0009BB213439BB20B811837BD4680BD00BF7E
:1008B0000000000080847E410038024000000240B9
:1008C00000E100E0003801400CA0FFFF00002040E4
:1008D00080B483B000AF0346FB71044BFA7992B247
:1008E0009A800C37BD465DF8047B704700380140A4
:1008F00080B582B000AF78600DE000BF802000F0CE
:1009000011F80346002BF9D07B685A1C7A601B78DB
:100910001846FFF7DDFF7B681B78002BEDD1083709
:10092000BD4680BD80B483B000AF0346FB80084B5A
:100930001B889AB2FB8813409BB2002B01D1002385
:1009400000E0012318460C37BD465DF8047B704774
:100950000038014080B483B000AF0346FB80054AF5
:10096000FB88DB439BB213800C37BD465DF8047BEC
:10097000704700BF0038014080B400AF054A054B06
:100980009B899BB243F020039BB29381BD465DF8E7
:10099000047B70470038014080B500AF2020FFF78E
:1009A000D9FF80BD80B500AF00F004F800F066F814
:1009B00080BD00BF80B400AF2C4A2C4BDB6943F0F4
:1009C0000503D361294A294B5B6A43F00203536252
:1009D000264A264B1B6A43F480531362244A244B55
:1009E0001B6843F480731360214A214B9B6843F4D6
:1009F000007393601F4A1F4B1B6843F42A43136024
:100A00001C4A1C4B9B6843F42A439360194A194BB8
:100A10001B6A43F0A44343F4AA031362164B8022DB
:100A20001A85154B40F6C312DA62134A124B9B8AA1
:100A30009BB243F001039BB293820F4A0E4B1B8B78
:100A40009BB243F030039BB213830B4A0A4B1B8CBF
:100A50009BB243F001039BB21384074B40F6C312D1
:100A60005A63BD465DF8047B704700BF0038024002
:100A700000080240000002400004004080B400AFC3
:100A8000094A094B9B8A9BB243F010039BB29382A5
:100A9000064A064B1B889BB243F001039BB21380AE
:100AA000BD465DF8047B704700080240000400402A
:100AB00080B400AF054B4FF6EF729A82044B4FF6AD
:100AC000FE721A80BD465DF8047B70470008024044
:100AD0000004004080B400AF054A054B9B8A9BB2DE
:100AE00043F010039BB29382BD465DF8047B7047D0
:100AF0000000024080B400AF034B4FF6EF729A82C1
:100B0000BD465DF8047B70470000024081F0004163
:100B100002E000BF83F0004330B54FEA41044FEAE2
:100B2000430594EA050F08BF90EA020F1FBF54EA7D
:100B3000000C55EA020C7FEA645C7FEA655C00F019
:100B4000E2804FEA5454D4EB5555B8BF6D420CDDEA
:100B50002C4480EA020281EA030382EA000083EA6D
:100B6000010180EA020281EA0303362D88BF30BD0D
:100B700011F0004F4FEA01314FF4801C4CEA113163
:100B800002D0404261EB410113F0004F4FEA0333C2
:100B90004CEA133302D0524263EB430394EA050F4D
:100BA00000F0A780A4F10104D5F1200E0DDB02FABC
:100BB0000EFC22FA05F2801841F1000103FA0EF250
:100BC000801843FA05F359410EE0A5F120050EF116
:100BD000200E012A03FA0EFC28BF4CF0020C43FA47
:100BE00005F3C01851EBE37101F0004507D54FF054
:100BF000000EDCF1000C7EEB00006EEB0101B1F5A4
:100C0000801F1BD3B1F5001F0CD349085FEA3000E9
:100C10004FEA3C0C04F101044FEA445212F5800FF4
:100C200080F09A80BCF1004F08BF5FEA500C50F191
:100C3000000041EB045141EA050130BD5FEA4C0C74
:100C4000404141EB010111F4801FA4F10104E9D1FD
:100C500091F0000F04BF01460020B1FA81F308BFF4
:100C60002033A3F10B03B3F120020CDA0C3208DDC0
:100C700002F1140CC2F10C0201FA0CF021FA02F19B
:100C80000CE002F11402D8BFC2F1200C01FA02F10B
:100C900020FA0CFCDCBF41EA0C019040E41AA2BF30
:100CA00001EB0451294330BD6FEA04041F3C1CDAF8
:100CB0000C340EDC04F11404C4F1200220FA04F018
:100CC00001FA02F340EA030021FA04F345EA0301C2
:100CD00030BDC4F10C04C4F1200220FA02F001FA84
:100CE00004F340EA0300294630BD21FA04F0294606
:100CF00030BD94F0000F83F4801306BF81F480119F
:100D00000134013D4EE77FEA645C18BF7FEA655C11
:100D100029D094EA050F08BF90EA020F05D054EAE3
:100D2000000C04BF1946104630BD91EA030F1EBFE8
:100D30000021002030BD5FEA545C05D140004941EC
:100D400028BF41F0004130BD14F580043CBF01F5DF
:100D5000801130BD01F0004545F0FE4141F47001C5
:100D60004FF0000030BD7FEA645C1ABF19461046A0
:100D70007FEA655C1CBF0B46024650EA013406BFA1
:100D800052EA033591EA030F41F4002130BD00BF60
:100D900090F0000F04BF0021704730B54FF480641D
:100DA00004F132044FF000054FF0000150E700BF9E
:100DB00090F0000F04BF0021704730B54FF48064FD
:100DC00004F1320410F0004548BF40424FF00001EA
:100DD0003EE700BF42004FEAE2014FEA31014FEA2D
:100DE00002701FBF12F07F4393F07F4F81F060517C
:100DF000704792F0000F14BF93F07F4F704730B5EB
:100E00004FF4607401F0004521F0004120E700BF7D
:100E100050EA010208BF704730B54FF000050AE004
:100E200050EA010208BF704730B511F0004502D505
:100E3000404261EB41014FF4806404F132045FEA07
:100E4000915C3FF4DCAE4FF003025FEADC0C18BFAC
:100E500003325FEADC0C18BF033202EBDC02C2F1A2
:100E6000200300FA03FC20FA02F001FA03FE40EA34
:100E70000E0021FA02F11444C1E600BF70B54FF034
:100E8000FF0C4CF4E06C1CEA11541DBF1CEA135516
:100E900094EA0C0F95EA0C0F00F0DEF82C4481EA7E
:100EA000030621EA4C5123EA4C5350EA013518BF9E
:100EB00052EA033541F4801143F4801338D0A0FB8B
:100EC00002CE4FF00005E1FB02E506F00042E0FB38
:100ED00003E54FF00006E1FB03569CF0000F18BF3E
:100EE0004EF0010EA4F1FF04B6F5007F64F54074E6
:100EF00004D25FEA4E0E6D4146EB060642EAC62179
:100F000041EA55514FEAC52040EA5E504FEACE2EE5
:100F1000B4F1FD0C88BFBCF5E06F1ED8BEF1004FE8
:100F200008BF5FEA500E50F1000041EB045170BD64
:100F300006F0004646EA010140EA020081EA0301A8
:100F4000B4EB5C04C2BFD4EB0C0541EA045170BDA4
:100F500041F480114FF0000E013C00F3AB8014F11E
:100F6000360FDEBF002001F0004170BDC4F1000467
:100F7000203C35DA0C341BDC04F11404C4F12005E8
:100F800000FA05F320FA04F001FA05F240EA020043
:100F900001F0004221F0004110EBD37021FA04F679
:100FA00042EB06015EEA430E08BF20EAD37070BD33
:100FB000C4F10C04C4F1200500FA04F320FA05F092
:100FC00001FA04F240EA020001F0004110EBD37094
:100FD00041F100015EEA430E08BF20EAD37070BD04
:100FE000C4F1200500FA05F24EEA020E20FA04F3DD
:100FF00001FA05F243EA020321FA04F001F000418C
:1010000021FA04F220EA020000EBD3705EEA430EFC
:1010100008BF20EAD37070BD94F0000F0FD101F02B
:101020000046400041EB010111F4801F08BF013C64
:10103000F7D041EA060195F0000F18BF704703F0A2
:101040000046520043EB030313F4801F08BF013D29
:10105000F7D043EA0603704794EA0C0F0CEA1355E5
:1010600018BF95EA0C0F0CD050EA410618BF52EA9F
:101070004306D1D181EA030101F000414FF00000A5
:1010800070BD50EA410606BF1046194652EA4306B3
:1010900019D094EA0C0F02D150EA013613D195EA27
:1010A0000C0F05D152EA03361CBF104619460AD16F
:1010B00081EA030101F0004141F0FE4141F4700179
:1010C0004FF0000070BD41F0FE4141F4780170BD69
:1010D00070B54FF0FF0C4CF4E06C1CEA11541DBFCE
:1010E0001CEA135594EA0C0F95EA0C0F00F0A7F8D0
:1010F000A4EB050481EA030E52EA03354FEA0131FD
:1011000000F088804FEA03334FF0805545EA13130F
:1011100043EA12634FEA022245EA111545EA1065D7
:101120004FEA00260EF000419D4208BF964244F16E
:10113000FD0404F5407402D25B084FEA3202B61A8D
:1011400065EB03055B084FEA32024FF480104FF461
:10115000002CB6EB020E75EB030E22BFB61A7546D5
:1011600040EA0C005B084FEA3202B6EB020E75EB68
:10117000030E22BFB61A754640EA5C005B084FEAD0
:101180003202B6EB020E75EB030E22BFB61A75469D
:1011900040EA9C005B084FEA3202B6EB020E75EBA8
:1011A000030E22BFB61A754640EADC0055EA060E69
:1011B00018D04FEA051545EA16754FEA06164FEAAC
:1011C000C30343EA52734FEAC2025FEA1C1CC0D158
:1011D00011F4801F0BD141EA00014FF000004FF0E5
:1011E000004CB6E711F4801F04BF01430020B4F1A6
:1011F000FD0C88BFBCF5E06F3FF6AFAEB5EB030C5E
:1012000004BFB6EB020C5FEA500C50F1000041EB5A
:10121000045170BD0EF0004E4EEA113114EB5C0427
:10122000C2BFD4EB0C0541EA045170BD41F48011FA
:101230004FF0000E013C90E645EA060E8DE60CEA02
:10124000135594EA0C0F08BF95EA0C0F3FF43BAF1F
:1012500094EA0C0F0AD150EA01347FF434AF95EAD6
:101260000C0F7FF425AF104619462CE795EA0C0FBA
:1012700006D152EA03353FF4FDAE1046194622E787
:1012800050EA410618BF52EA43067FF4C5AE50EA61
:1012900041047FF40DAF52EA43057FF4EBAE12E751
:1012A0004FF0FF3C06E000BF4FF0010C02E000BF32
:1012B0004FF0010C4DF804CD4FEA410C7FEA6C5C15
:1012C0004FEA430C18BF7FEA6C5C1BD001B050EAB8
:1012D000410C0CBF52EA430C91EA030F02BF90EAA3
:1012E000020F0020704710F1000F91EA030F58BF62
:1012F000994208BF90422CBFD8176FEAE37040F0C4
:10130000010070474FEA410C7FEA6C5C02D150EA61
:10131000013C07D14FEA430C7FEA6C5CD6D152EA1C
:10132000033CD3D05DF8040B704700BF84461046E1
:1013300062468C461946634600E000BF01B5FFF7E0
:10134000B7FF002848BF10F1000F01BD4DF808EDB0
:10135000FFF7F4FF0CBF012000205DF808FB00BF81
:101360004DF808EDFFF7EAFF34BF012000205DF8DB
:1013700008FB00BF4DF808EDFFF7E0FF94BF012028
:1013800000205DF808FB00BF4DF808EDFFF7CEFF29
:1013900094BF012000205DF808FB00BF4DF808ED68
:1013A000FFF7C4FF34BF012000205DF808FB00BF39
:1013B0004A0011D212F5001211D20DD56FF47873D4
:1013C000B3EB62520ED44FEAC12343F0004343EA29
:1013D000505323FA02F070474FF00000704750EA74
:1013E000013002D14FF0FF3070474FF000007047DE
:1013F0004FEA4102B2F1E04324BFB3F5001CDCF137
:10140000FE5C0DD901F0004C4FEAC0024CEA50706E
:10141000B2F1004F40EB830008BF20F0010070479D
:1014200011F0804F21D113F13872BCBF01F00040A0
:10143000704741F480114FEA5252C2F11802C2F1D2
:10144000200C10FA0CF320FA02F018BF40F0010053
:101450004FEAC1234FEAD32303FA0CFC40EA0C0005
:1014600023FA02F34FEA4303CCE77FEA625307D142
:1014700050EA01331EBF4FF0FE4040F44000704779
:1014800001F0004040F0FE4040F40000704700BF13
:1014900080F0004002E000BF81F0004142001FBF29
:1014A0005FEA410392EA030F7FEA226C7FEA236C32
:1014B0006AD04FEA1262D2EB1363C1BFD218414027
:1014C00048404140B8BF5B42192B88BF704710F0BD
:1014D000004F40F4000020F07F4018BF404211F060
:1014E000004F41F4000121F07F4118BF494292EAC8
:1014F000030F3FD0A2F1010241FA03FC10EB0C00F4
:10150000C3F1200301FA03F100F0004302D5494280
:1015100060EB4000B0F5000F13D3B0F1807F06D32D
:1015200040084FEA310102F10102FE2A51D2B1F125
:10153000004F40EBC25008BF20F0010040EA03001A
:101540007047490040EB000010F4000FA2F10102C7
:10155000EDD1B0FA80FCACF1080CB2EB0C0200FA51
:101560000CF0AABF00EBC25052421843BCBFD0409F
:101570001843704792F0000F81F4000106BF80F419
:1015800000000132013BB5E74FEA41037FEA226CDC
:1015900018BF7FEA236C21D092EA030F04D092F0A7
:1015A000000F08BF0846704790EA010F1CBF0020DB
:1015B000704712F07F4F04D1400028BF40F0004038
:1015C000704712F100723CBF00F50000704700F058
:1015D000004343F0FE4040F4000070477FEA22627F
:1015E00016BF08467FEA23630146420206BF5FEA50
:1015F000412390EA010F40F4800070474FF0000350
:1016000004E000BF10F0004348BF40425FEA000C16
:1016100008BF704743F0964301464FF000001CE0BE
:1016200050EA010208BF70474FF000030AE000BF14
:1016300050EA010208BF704711F0004302D5404252
:1016400061EB41015FEA010C02BF844601460020C4
:1016500043F0B64308BFA3F18053A3F50003BCFADF
:101660008CF2083AA3EBC25310DB01FA02FC63448C
:1016700000FA02FCC2F12002BCF1004F20FA02F293
:1016800043EB020008BF20F00100704702F1200286
:1016900001FA02FCC2F1200250EA4C0021FA02F2E7
:1016A00043EB020008BF20EADC7070474FF0FF3CBC
:1016B00006E000BF4FF0010C02E000BF4FF0010C4C
:1016C0004DF804CD4FEA40024FEA41037FEA226C15
:1016D00018BF7FEA236C11D001B052EA530C18BF37
:1016E00090EA010F58BFB2EB030088BFC81738BF9C
:1016F0006FEAE17018BF40F0010070477FEA226C8A
:1017000002D15FEA402C05D17FEA236CE4D15FEA85
:10171000412CE1D05DF8040B704700BF84460846B9
:101720006146FFE70FB5FFF7C9FF002848BF10F17A
:10173000000F0FBD4DF808EDFFF7F4FF0CBF0120BF
:1017400000205DF808FB00BF4DF808EDFFF7EAFF49
:1017500034BF012000205DF808FB00BF4DF808ED04
:10176000FFF7E0FF94BF012000205DF808FB00BFF9
:101770004DF808EDFFF7D2FF94BF012000205DF87F
:1017800008FB00BF4DF808EDFFF7C8FF34BF01208C
:1017900000205DF808FB00BF002103E00B4B5B5805
:1017A000435004310A480B4B42189A42F6D30A4A76
:1017B00002E0002342F8043B084B9A42F9D3FEF7BB
:1017C0002DFD00F01FF8FEF723FD7047BC1B00083D
:1017D0000000002054040020580400207804002059
:1017E000FEE7000008B50021044600F08BF8044B2A
:1017F0001868C36B03B19847204600F05BF900BF3F
:10180000A41B000870B50F4E0F4D761BB61018BF05
:10181000002405D0013455F8043B9847A642F9D17D
:101820000A4E0B4D00F09AF9761BB61018BF002433
:1018300006D0013455F8043B9847A642F9D170BD53
:1018400070BD00BFB01B0008B01B0008B81B00082B
:10185000B01B000870B4840746D0541E002A41D043
:10186000CDB2034602E0621EE4B3144603F8015B06
:101870009A07F8D1032C2ED9CDB245EA05250F2CB5
:1018800045EA054519D9264603F11002103E0F2EF0
:1018900042F8105C42F80C5C42F8085C42F8045CC8
:1018A00002F11002F2D8A4F1100222F00F0204F0AB
:1018B0000F041032032C13440DD91E462246043A5D
:1018C000032A46F8045BFAD8221F22F003020432EE
:1018D000134404F003042CB1C9B21C4403F8011BE7
:1018E000A342FBD170BC704714460346C2E700BF59
:1018F000024B13B1024800F06FB8704700000000BF
:10190000E51900082DE9F04F81460E46304B83B0B3
:101910001B68009303F5A4730193009BD3F84871EF
:1019200027B3DDF804A07C68651E0ED4013407EBF4
:1019300084044FF00008E6B1D4F80031B34218D067
:10194000013D6B1CA4F10404F5D1224B73B17B68FB
:10195000002B36D13B68002B34D03846CAF8003013
:10196000AFF30080DAF80070002FDCD103B0BDE8DF
:10197000F08F7B682268013BAB420CBF7D60C4F8EE
:101980000080002ADCD0D7F888310121A940194213
:10199000D7F804B008D190477B685B45BDD1DAF831
:1019A0000030BB42CCD0B8E7D7F88C31194204D113
:1019B0004846D4F880109047EEE7D4F8800090476E
:1019C000EAE73B68BA461F46002FACD1CEE700BF1E
:1019D000A41B000800000000014600200246034648
:1019E00000F016B838B5084B084DED1AAC1018BF0A
:1019F000ED1805D0013C55F8043D9847002CF9D16D
:101A0000BDE8384000F0B0B8B81B0008BC1B0008A7
:101A10002DE9F047254C064625688846D5F848410B
:101A200092469946C4B360681F2817DC411C76B102
:101A300004EB8003C3F888A0D4F8885101228240C7
:101A40001543022EC4F88851C3F808911ED0831C98
:101A50006160002044F82380BDE8F087144B03B395
:101A60004FF4C870AFF300800446D0B1D5F84831C8
:101A7000002784E888003846C5F848410121C4F8A9
:101A80008871C4F88C71002EE1D0D1E7D4F88C3184
:101A90001A43C4F88C21DAE705F5A674C5F8484165
:101AA000C1E74FF0FF30BDE8F08700BFA41B00087E
:101AB00000000000FEE700BFF8B5C1F30A56A6F229
:101AC000FF35132D0A460B460446864611DC002DD1
:101AD0002DDB0F461F492941114224D04FF400232A
:101AE0002B413B4423EA01030022194614462046B9
:101AF000F8BD332D05DDB5F5806F1ED011462046AB
:101B0000F8BDA6F213414FF0FF30C8402042F5D097
:101B1000C6F5866602360121B140091928BF013396
:101B200021EA0002E1E70028D8D11146E7E70135B4
:101B300001F0004307D00022D7E702460B46FEF72C
:101B4000EBFF0446D3E743F07F5343F440130022F6
:101B5000CBE700BFFFFF0F0000000000F8B500BF9B
:101B6000F8BC08BC9E467047F8B500BFF8BC08BC7E
:041B70009E467047D6
:101B740041542B42415544380000000041542B4D40
:101B84004F4445320000000041542B4E414D455313
:101B94006D61727477617463680000004300000033
:041BA40028000020F5
:081BA800F4E5FF7F01000000DD
:081BB000F118000865010008AE
:041BB80041010008DF
:101BBC00000000000048E801030406080C1018207F
:101BCC0030000000000000000000000001020304CF
:101BDC0006070809000000000000000014030020A4
:101BEC007C030020E4030020000000000000000043
:101BFC0000000000000000000000000000000000D9
:101C0C00000000000000000000000000A01B000805
:101C1C0000000000000000000000000000000000B8
:101C2C0000000000000000000000000000000000A8
:101C3C000000000000000000000000000000000098
:101C4C000000000000000000000000000000000088
:101C5C000000000000000000000000000000000078
:101C6C000000000000000000000000000000000068
:101C7C000000000000000000000000000000000058
:101C8C0001000000000000000E33CDAB34126DE6F5
:101C9C00ECDE05000B00000000000000000000005E
:101CAC000000000000000000000000000000000028
:101CBC000000000000000000000000000000000018
:101CCC000000000000000000000000000000000008
:101CDC0000000000000000000000000000000000F8
:04200C002800002088
:0420100000000000CC
:04000005080017993F
:00000001FF
