:020000040800F2
:1000000000400120753A0008BD3A0008BD3A0008DA
:10001000BD3A0008BD3A0008BD3A000800000000E3
:10002000000000000000000000000000BD3A0008D1
:10003000BD3A000800000000BD3A0008BD3A0008C3
:10004000BD3A0008BD3A0008BD3A0008BD3A0008B4
:10005000BD3A0008BD3A0008BD3A0008BD3A0008A4
:10006000BD3A0008BD3A0008BD3A0008BD3A000894
:10007000BD3A0008BD3A0008BD3A0008BD3A000884
:10008000BD3A0008BD3A000809070008BD3A00085B
:10009000BD3A0008BD3A0008BD3A0008BD3A000864
:1000A000BD3A0008BD3A0008BD3A0008BD3A000854
:1000B000BD3A0008BD3A0008BD3A0008BD3A000844
:1000C000BD3A0008BD3A0008BD3A0008BD3A000834
:1000D000BD3A0008A1090008BD3A0008BD3A000871
:1000E000BD3A0008BD3A0008BD3A0008BD3A000814
:1000F000BD3A000800000000BD3A0008BD3A000803
:10010000BD3A0008BD3A0008BD3A0008BD3A0008F3
:10011000BD3A0008BD3A0008BD3A0008BD3A0008E3
:10012000BD3A0008000000000000000000000000D0
:0C01300000000000000000005FF808F173
:1001400010B5054C237833B9044B13B10448AFF311
:1001500000800123237010BD58040020000000001F
:10016000343E0008084B10B51BB108480849AFF3EE
:1001700000800848036803B910BD074B002BFBD073
:10018000BDE81040184700BF00000000343E0008E2
:100190005C0400205404002000000000154B002BDC
:1001A00008BF134B9D46A3F5803A00218B460F46AE
:1001B0001348144A121A03F0BBFC0F4B002B00D05B
:1001C00098470E4B002B00D09847002000210400D8
:1001D0000D000D48002802D00C4803F06BFD03F021
:1001E0007FFC2000290000F013F803F069FC00BF39
:1001F00000000800000000000000000000000000F7
:1002000058040020840C0020B53C0008C13C0008C4
:1002100080B500AF02F05AFCFEE700BF80B500AF2A
:10022000144A144B1B6843F4807313601149114B3B
:100230009A68114B13408B600E4A0E4B1B6823F0DB
:10024000885323F0011313600A4A0A4B1B6823F4F6
:1002500080231360074A074B9B6823F47D03936058
:10026000044B0022DA6000F0B7F8044B4FF0006254
:100270009A6080BD003802400CC0FF8800ED00E0AD
:1002800080B487B000AF00237B6100233B61002373
:10029000FB600023BB6000237B60494B9B6803F03D
:1002A0000C037B617B690C2B64D801A252F823F00C
:1002B000E5020008750300087503000875030008CF
:1002C000050300087503000875030008750300089E
:1002D0000D03000875030008750300087503000886
:1002E00015030008364B5B6803F460435B0B7B60CF
:1002F0007B6801331A464FF4004393401A46314B52
:100300001A6047E02F4B304A1A6043E02D4B2F4ACA
:100310001A603FE02A4B9B6803F470133B61284B43
:100320009B6803F44003FB603B699B0C284AD35C49
:10033000DBB23B61FB689B0D0133FB60204B9B688C
:1003400003F48033BB60BB68002B09D13B691E4AB4
:1003500002FB03F2FB68B2FBF3F31A4A136019E0E5
:100360003B691A4A02FB03F2FB68B2FBF3F3154A3E
:1003700013600FE0124B5B6803F460435B0B7B6020
:100380007B6801331A464FF4004393401A460D4BE5
:100390001A6000BF0A4B9B6803F0F0031B090D4A6B
:1003A000D35CDBB27B61074B1A687B6922FA03F3EB
:1003B000044A13601C37BD465DF8047B704700BFDC
:1003C00000380240040000200024F40000127A00EB
:1003D000080000201400002080B483B000AF002388
:1003E0007B6000233B60404A3F4B1B6843F00103A6
:1003F00013603D4B1B6803F002033B603B68002B1E
:1004000003D17B68B3F5A04FF3D1374B1B6803F0E2
:100410000203002B02D001233B6001E000233B607C
:100420003B68012B5AD1314A304B1B6843F004031F
:1004300013602E4A2D4B1B6843F0020313602B4AB6
:100440002A4B1B6843F001031360274A264B5B6A63
:1004500043F080535362264B4FF400621A6000BF92
:10046000234B5B6803F01003002BF9D11E4A1E4B8F
:100470009B6893601C4A1C4B9B6893601A4A1A4BFA
:100480009B689360184A184B9B6823F47D03936024
:10049000154A154B9B6843F488039360124A124B2C
:1004A0001B6843F08073136000BF0F4B1B6803F0A1
:1004B0000073002BF9D00C4A0B4B9B6823F003030D
:1004C0009360094A084B9B6843F00303936000BFA5
:1004D000054B9B6803F00C030C2BF9D10C37BD4680
:1004E0005DF8047B704700BF00380240003C0240CA
:1004F00000700040AC4F00080000002054040020B1
:1005000058040020840C002080B500AF234A234B00
:10051000DB6943F00103D361204A204B1B6A43F49B
:10052000007313621E4A1E4B1B6843F030031360B6
:100530001B4A1B4B9B6843F030039360194A194BCD
:100540001B6843F480231360164B164A92F812235B
:10055000D2B283F81223144A134B5B6843F402634C
:100560005360114A104B5B6943F4E07353610E4AC8
:100570000D4B1B6C43F0020313640B4A0A4B9B6840
:1005800043F4806343F00103936000BF402000F018
:1005900095F80346002BF9D080BD00BF003802401B
:1005A0000000024000E100E00024014080B584B07A
:1005B00000AF0346FB80B7F90630184603F090F908
:1005C0000346184602F074FD02460B4610461946D3
:1005D0004FF000022C4B02F0E9FE02460B4610469B
:1005E000194625A3D3E9002302F0B6FD02460B46C7
:1005F0001046194603F06AF80346FB60F868234981
:1006000003F02EFA0346002B01D064232DE0F86896
:1006100002F04EFD02460B461046194618A3D3E9D8
:10062000002303F00BF80346002B01D000231CE04D
:10063000F86802F03DFD02460B46104619464FF0A1
:100640000002134B02F0B2FE02460B46104619465A
:100650004FF000020F4B02F07FFD02460B461046A2
:10066000194603F013F80346DBB218461037BD46AF
:1006700080BD00BFAFF300806666666666660A40AE
:100680009A999999999903400000B0400000404020
:10069000000008400000594080B500AF05E0064A60
:1006A000054B9B6843F080439360022000F006F8FE
:1006B0000346002BF3D080BD0024014080B483B0FA
:1006C00000AF0346FB80074B1A68FB881340002BE2
:1006D00001D1002300E0012318460C37BD465DF828
:1006E000047B70470024014080B483B000AF034610
:1006F000FB80044AFB88DB4313600C37BD465DF882
:10070000047B70470024014080B500AF074B9B6D10
:100710009BB21BB21846FFF749FF03461A46044B2B
:100720001A700220FFF7E0FF80BD00BF00240140E7
:10073000740C00200000000080B500AF4FF416508C
:1007400000F016F8074800F0E7F84FF4E13000F049
:100750000FF8054800F0E0F8044800F0DDF800F07C
:10076000BBF880BD503E00085C3E0008683E0008B3
:1007700080B586B000AF78604FF000024FF0000304
:10078000C7E904230023FB600023FB724C4A4C4B57
:10079000DB6943F00103D361494A494B1B6A43F4C7
:1007A00080431362474A474B1B6843F4201313608E
:1007B000444A444B9B6843F420139360414A414BA5
:1007C000DB6843F4A013D3603E4A3E4B5B6A43F4BC
:1007D000EE6353623C4A3C4B5B6843F0200353603A
:1007E000394B394A92F82523D2B283F82523374969
:1007F000364B9B899AB2364B13439BB28B817B68F5
:10080000DB00184602F032FC02460B462AA1D1E971
:10081000000102F0CBFD02460B46C7E90423D7E9ED
:10082000040102F033FF03469BB2184602F02EFC8F
:1008300002460B46D7E9040102F0DAFA02460B46FB
:10084000104619464FF00002224B02F085FC02468A
:100850000B461046194603F09DFA02460B46104619
:10086000194602F013FF0346FB72FB7ADB08DBB28A
:10087000184602F00BFC02460B4610461946D7E913
:10088000042302F0B7FA02460B461046194602F05E
:10089000FDFE0346FB600D49FB689BB21B019AB24B
:1008A000FB7A9BB203F007039BB213439BB20B810D
:1008B0001837BD4680BD00BF0000000080847E4127
:1008C000003802400000024000E100E00038014032
:1008D0000CA0FFFF0000204080B400AF054A054B8C
:1008E0009B899BB243F020039BB29381BD465DF888
:1008F000047B70470038014080B483B000AF0346EA
:10090000FB71044BFA7992B29A800C37BD465DF8C0
:10091000047B70470038014080B582B000AF78603A
:100920000DE000BF802000F011F80346002BF9D045
:100930007B685A1C7A601B781846FFF7DDFF7B68DE
:100940001B78002BEDD10837BD4680BD80B483B045
:1009500000AF0346FB80084B1B889AB2FB8813400C
:100960009BB2002B01D1002300E0012318460C3775
:10097000BD465DF8047B70470038014080B483B009
:1009800000AF0346FB80054AFB88DB439BB2138024
:100990000C37BD465DF8047B704700BF003801404E
:1009A00080B500AF2020FFF7E9FF80BD80B500AF24
:1009B00000F006F800F07CF800F012F980BD00BFEE
:1009C00080B400AF344A344BDB6943F00503D36194
:1009D000314A314B5B6A43F0020353622E4A2E4B7D
:1009E0001B6A43F4805313622C4A2C4B1B6843F45C
:1009F00080731360294A294B9B6843F4007393600A
:100A0000274A274B1B6843F429431360244A244B8D
:100A10009B6843F42A439360214A214B1B6A43F0AD
:100A2000A44343F4A00313621E4B80221A851D4B7E
:100A300040F61602DA621B4A1A4B9B8A9BB243F0BD
:100A400001039BB29382174A164B1B8B9BB243F058
:100A500030039BB21383134A124B1B8C9BB243F09F
:100A600001039BB213840F4B40F616025A630E49E2
:100A70000D4B1B889AB20D4B13439BB20B800A4A55
:100A8000094B1B889BB243F040039BB21380BD46C9
:100A90005DF8047B704700BF003802400008024048
:100AA00000000240000400400030014024C3FFFF6A
:100AB00080B400AF094A094B9B8A9BB243F01003F4
:100AC0009BB29382064A064B1B889BB243F00103FC
:100AD0009BB21380BD465DF8047B7047000802405E
:100AE0000004004080B400AF054B4FF6EF729A82CD
:100AF000044B4FF6FE721A80BD465DF8047B7047CA
:100B0000000802400004004080B584B000AF3B46BE
:100B100083E8030000F0B6F8802000F0CFF801234E
:100B2000FB8141E000BF022000F0D8F80346002B13
:100B3000F9D0FB89DBB2184600F07EF80346184670
:100B400000F0BCF800237B731AE000BF022000F025
:100B5000C5F80346002BF9D07B68B7F90E20013A9F
:100B6000398809B201FB02F17A7B0A4413441B78ED
:100B7000DB43DBB2184600F0A1F87B7B01337B73CB
:100B80007A7B3B881BB29A42DFDB00BF022000F079
:100B9000A5F80346002BF9D0002000F08FF8FB8960
:100BA0009BB201339BB2FB817B88B7F90E201BB24D
:100BB0009A42B7DD00BF022000F090F80346002BF8
:100BC000F9D0002000F07AF800BF802000F086F80D
:100BD0000346002BF9D100F065F81037BD4680BD03
:100BE00080B500AF00F04EF800BF022000F076F8AC
:100BF0000346002BF9D0202000F060F800BF02204F
:100C000000F06CF80346002BF9D0002000F056F8F5
:100C100000BF022000F062F80346002BF9D000204C
:100C200000F04CF800BF802000F058F80346002B7D
:100C3000F9D100F037F880BD80B483B000AF03462F
:100C4000FB71FA7913469B0213445B000B4A1A406E
:100C5000F9790B469B020B445B011946084B0B408C
:100C60001A4313461B0213441B0213441B0CDBB232
:100C700018460C37BD465DF8047B70471021020012
:100C80004084080080B400AF054A054B9B8A9BB2A4
:100C900043F010039BB29382BD465DF8047B70471E
:100CA0000000024080B400AF034B4FF6EF729A820F
:100CB000BD465DF8047B70470000024080B483B0FD
:100CC00000AF0346FB71044BFA7992B29A810C375C
:100CD000BD465DF8047B70470030014080B483B0AE
:100CE00000AF0346FB80084B1B899AB2FB88134078
:100CF0009BB2002B01D1002300E0012318460C37E2
:100D0000BD465DF8047B70470030014080B485B07B
:100D100000AF78600A4A07F1080392E8030083E80D
:100D200003007B681A4607F1080393E8030082E892
:100D3000030078681437BD465DF8047B704700BF38
:100D40007C3E000880B588B000AF0023FB82FB8AA0
:100D5000BB823B46184601F061F807F118033A469A
:100D600092E8030083E8030001233B7307F11403B7
:100D70003B6107F10C0393E8030000F075FF203797
:100D8000BD4680BD80B58AB000AF0346FB736E23BD
:100D9000BB830323FB83FB7B092B0BD83B46184605
:100DA00001F058F807F120033A4692E8030083E87F
:100DB000030040E0FB7B092B0ED9FB7B192B0BD8E2
:100DC0003B46184601F062F807F120033A4692E8E4
:100DD000030083E803002EE0FB7B192B0ED9FB7B7D
:100DE000322B0BD83B46184601F06CF807F1200374
:100DF0003A4692E8030083E803001CE0FB7B322BB9
:100E00000ED9FB7B4B2B0BD83B46184601F076F8EE
:100E100007F120033A4692E8030083E803000AE062
:100E20003B46184601F086F807F120033A4692E85F
:100E3000030083E8030001233B7507F11C03BB613A
:100E400007F1140393E8030000F00EFF2837BD46B6
:100E500080BD00BF80B588B000AF0323BB820323F1
:100E6000FB823B46184601F081F807F118033A4629
:100E700092E8030083E8030001233B7307F11403A6
:100E80003B6107F10C0393E8030000F0EDFE20370F
:100E9000BD4680BD80B588B000AF0323BB8203236D
:100EA000FB823B46184601F0B5F807F118033A46B5
:100EB00092E8030083E8030001233B7307F1140366
:100EC0003B6107F10C0393E8030000F0CDFE2037EF
:100ED000BD4680BD80B588B000AF1623BB8203231A
:100EE000FB823B46184601F05DF807F118033A46CD
:100EF00092E8030083E8030001233B7307F1140326
:100F00003B6107F10C0393E8030000F0ADFE2037CE
:100F1000BD4680BD80B588B000AF1623BB820323D9
:100F2000FB823B46184601F075F807F118033A4674
:100F300092E8030083E8030001233B7307F11403E5
:100F40003B6107F10C0393E8030000F08DFE2037AE
:100F5000BD4680BD80B588B000AF2A23BB82032385
:100F6000FB823B46184601F039F807F118033A4670
:100F700092E8030083E8030001233B7307F11403A5
:100F80003B6107F10C0393E8030000F06DFE20378E
:100F9000BD4680BD80B588B000AF2A23BB82032345
:100FA000FB823B46184601F035F807F118033A4634
:100FB00092E8030083E8030001233B7307F1140365
:100FC0003B6107F10C0393E8030000F04DFE20376E
:100FD000BD4680BD90B591B000AF0346FB733D2385
:100FE00087F83E30FB7B632B01D96323FB7300231F
:100FF00087F83F3052E197F83F2097F83E3099B29A
:1010000013465B0013449B0007F140021344283B46
:101010000A461A8097F83F2013465B0013449B0052
:1010200007F140021344283B03225A8097F83F30CF
:10103000002B03D097F83F30012B33D197F83F3086
:10104000002B06D1FB7B9F4AA2FB0323DB08DBB20C
:101050000AE0FA7B9B4BA3FB0213D9080B469B00CB
:101060000B445B00D31ADBB287F83D3097F83D3074
:10107000092B00F2098101A252F823F0D1100008D7
:10108000FD10000829110008551100088111000801
:10109000AD110008D911000805120008311200082E
:1010A0005D12000897F83F2013465B0013449B0035
:1010B00007F140021344A3F128043B46184601F00F
:1010C000F9F8231D3A4692E8030083E80300DBE0C9
:1010D00097F83F2013465B0013449B0007F1400242
:1010E0001344A3F128043B46184600F0AFFF231D2C
:1010F0003A4692E8030083E80300C5E097F83F20F2
:1011000013465B0013449B0007F140021344A3F114
:1011100028043B46184600F0B5FF231D3A4692E8E6
:10112000030083E80300AFE097F83F2013465B001D
:1011300013449B0007F140021344A3F128043B46EB
:10114000184600F0BBFF231D3A4692E8030083E8EF
:10115000030099E097F83F2013465B0013449B007F
:1011600007F140021344A3F128043B46184600F05F
:10117000C1FF231D3A4692E8030083E8030083E0A1
:1011800097F83F2013465B0013449B0007F1400291
:101190001344A3F128043B46184600F0C7FF231D63
:1011A0003A4692E8030083E803006DE097F83F2099
:1011B00013465B0013449B0007F140021344A3F164
:1011C00028043B46184600F0CDFF231D3A4692E81E
:1011D000030083E8030057E097F83F2013465B00C5
:1011E00013449B0007F140021344A3F128043B463B
:1011F000184600F0D3FF231D3A4692E8030083E827
:10120000030041E097F83F2013465B0013449B0026
:1012100007F140021344A3F128043B46184600F0AE
:10122000D9FF231D3A4692E8030083E803002BE030
:1012300097F83F2013465B0013449B0007F14002E0
:101240001344A3F128043B46184600F0DFFF231D9A
:101250003A4692E8030083E8030015E097F83F2040
:1012600013465B0013449B0007F140021344A3F1B3
:1012700028043B46184600F0E5FF231D3A4692E855
:10128000030083E8030000BF97F83F30013387F87D
:101290003F3097F83E30083387F83E3097F83F30BC
:1012A000022B7FF6A8AE03233B7407F118037B6182
:1012B00007F1100393E8030000F0D6FC4437BD4665
:1012C00090BD00BFCDCCCCCC90B591B000AF034663
:1012D000FB73552387F83E30FB7B3C2B01D93C2325
:1012E000FB73002387F83F3052E197F83F2097F8CF
:1012F0003E3099B213465B0013449B0007F1400255
:101300001344283B0A461A8097F83F2013465B0097
:1013100013449B0007F140021344283B03225A80E8
:1013200097F83F30002B03D097F83F30012B33D193
:1013300097F83F30002B06D1FB7B9F4AA2FB03238B
:10134000DB08DBB20AE0FA7B9B4BA3FB0213D90854
:101350000B469B000B445B00D31ADBB287F83D3091
:1013600097F83D30092B00F2098101A252F823F0D1
:10137000C5130008F11300081D14000849140008E3
:1013800075140008A1140008CD140008F914000811
:10139000251500085115000897F83F2013465B00FB
:1013A00013449B0007F140021344A3F128043B4679
:1013B000184600F0B7FF231D3A4692E8030083E881
:1013C0000300DBE097F83F2013465B0013449B00CB
:1013D00007F140021344A3F128043B46184600F0ED
:1013E00035FE231D3A4692E8030083E80300C5E07A
:1013F00097F83F2013465B0013449B0007F140021F
:101400001344A3F128043B46184600F03BFE231D7D
:101410003A4692E8030083E80300AFE097F83F20E4
:1014200013465B0013449B0007F140021344A3F1F1
:1014300028043B46184600F041FE231D3A4692E838
:10144000030083E8030099E097F83F2013465B0010
:1014500013449B0007F140021344A3F128043B46C8
:10146000184600F047FE231D3A4692E8030083E841
:10147000030083E097F83F2013465B0013449B0072
:1014800007F140021344A3F128043B46184600F03C
:101490004DFE231D3A4692E8030083E803006DE009
:1014A00097F83F2013465B0013449B0007F140026E
:1014B0001344A3F128043B46184600F053FE231DB5
:1014C0003A4692E8030083E8030057E097F83F208C
:1014D00013465B0013449B0007F140021344A3F141
:1014E00028043B46184600F059FE231D3A4692E870
:1014F000030083E8030041E097F83F2013465B00B8
:1015000013449B0007F140021344A3F128043B4617
:10151000184600F05FFE231D3A4692E8030083E878
:1015200003002BE097F83F2013465B0013449B0019
:1015300007F140021344A3F128043B46184600F08B
:1015400065FE231D3A4692E8030083E8030015E098
:1015500097F83F2013465B0013449B0007F14002BD
:101560001344A3F128043B46184600F06BFE231DEC
:101570003A4692E8030083E8030000BF97F83F3043
:10158000013387F83F3097F83E30083387F83E3014
:1015900097F83F30022B7FF6A8AE03233B7407F188
:1015A00018037B6107F1100393E8030000F05CFB74
:1015B0004437BD4690BD00BFCDCCCCCC90B5A1B0DA
:1015C00000AF0346FB730B46BB7313467B730123CB
:1015D00087F87D30002387F87F3095E197F87F20EA
:1015E00097F87D3099B213465B0013449B0007F1D6
:1015F00080021344643B0A461A8097F87F20134602
:101600005B0013449B0007F180021344643B1E22DD
:101610005A8097F87F30002B03D097F87F30012B4A
:1016200018D197F87F30002B06D1FB7BC04AA2FB74
:101630000323DB08DBB20AE0FA7BBD4BA3FB0213FA
:10164000D9080B469B000B445B00D31ADBB287F82A
:101650007E3057E097F87F30032B03D097F87F3028
:10166000042B18D197F87F30032B06D1BB7BB04AEF
:10167000A2FB0323DB08DBB20AE0BA7BAC4BA3FB83
:101680000213D9080B469B000B445B00D31ADBB254
:1016900087F87E3036E097F87F30062B03D097F836
:1016A0007F30072B18D197F87F30062B06D17B7B34
:1016B0009F4AA2FB0323DB08DBB20AE07A7B9C4B48
:1016C000A3FB0213D9080B469B000B445B00D31A03
:1016D000DBB287F87E3015E097F87F2013465B0079
:1016E00013449B0007F180021344A3F164043B46BA
:1016F000184600F013FF231D3A4692E8030083E8E2
:101700000300F7E097F87E30092B00F2F38001A286
:1017100052F823F03D1700086917000895170008D4
:10172000C1170008ED17000819180008451800082F
:10173000711800089D180008C918000897F87F2044
:1017400013465B0013449B0007F180021344A3F18E
:1017500064043B46184600F091FD231D3A4692E88A
:10176000030083E80300C5E097F87F2013465B0081
:1017700013449B0007F180021344A3F164043B4629
:10178000184600F0B3FD231D3A4692E8030083E8B3
:101790000300AFE097F87F2013465B0013449B00E3
:1017A00007F180021344A3F164043B46184600F09D
:1017B000D5FD231D3A4692E8030083E8030099E033
:1017C00097F87F2013465B0013449B0007F18002CB
:1017D0001344A3F164043B46184600F0DBFD231DCF
:1017E0003A4692E8030083E8030083E097F87F20FD
:1017F00013465B0013449B0007F180021344A3F1DE
:1018000064043B46184600F0E1FD231D3A4692E889
:10181000030083E803006DE097F87F2013465B0028
:1018200013449B0007F180021344A3F164043B4678
:10183000184600F0E7FD231D3A4692E8030083E8CE
:10184000030057E097F87F2013465B0013449B008A
:1018500007F180021344A3F164043B46184600F0EC
:10186000EDFD231D3A4692E8030083E8030041E0C2
:1018700097F87F2013465B0013449B0007F180021A
:101880001344A3F164043B46184600F0F3FD231D06
:101890003A4692E8030083E803002BE097F87F20A4
:1018A00013465B0013449B0007F180021344A3F12D
:1018B00064043B46184600F0F9FD231D3A4692E8C1
:1018C000030083E8030015E097F87F2013465B00D0
:1018D00013449B0007F180021344A3F164043B46C8
:1018E000184600F0FFFD231D3A4692E8030083E806
:1018F000030000BF97F87F30013387F87F3097F8F7
:101900007D30103387F87D3097F87F30072B7FF6D6
:1019100065AE08233B7507F11C03BB6107F1140397
:1019200093E8030000F0A0F98437BD4690BD00BFE6
:10193000CDCCCCCC90B597B000AF03460A46FB7334
:101940001346BB73022387F85530002387F85730BE
:1019500074E197F8572097F8553099B213465B0019
:1019600013449B0007F158021344403B0A461A8077
:1019700097F8572013465B0013449B0007F1580269
:101980001344403B50225A8097F85730002B03D025
:1019900097F85730012B18D197F85730002B06D104
:1019A000FB7BB04AA2FB0323DB08DBB20AE0FA7B35
:1019B000AC4BA3FB0213D9080B469B000B445B0006
:1019C000D31ADBB287F8563036E097F85730032B3E
:1019D00003D097F85730042B18D197F85730032BC2
:1019E00006D1BB7B9F4AA2FB0323DB08DBB20AE0E4
:1019F000BA7B9C4BA3FB0213D9080B469B000B44FC
:101A00005B00D31ADBB287F8563015E097F8572001
:101A100013465B0013449B0007F158021344A3F1E3
:101A200040043B46184600F0ADFE231D3A4692E8BE
:101A3000030083E80300F7E097F85630092B00F223
:101A4000F38001A252F823F0711A00089D1A0008D1
:101A5000C91A0008F51A0008211B00084D1B0008D0
:101A6000791B0008A51B0008D11B0008FD1B0008FE
:101A700097F8572013465B0013449B0007F1580268
:101A80001344A3F140043B46184600F063FD231DB8
:101A90003A4692E8030083E80300C5E097F8572030
:101AA00013465B0013449B0007F158021344A3F153
:101AB00040043B46184600F069FD231D3A4692E873
:101AC000030083E80300AFE097F8572013465B005C
:101AD00013449B0007F158021344A3F140043B4612
:101AE000184600F06FFD231D3A4692E8030083E894
:101AF000030099E097F8572013465B0013449B00BE
:101B000007F158021344A3F140043B46184600F085
:101B100075FD231D3A4692E8030083E8030083E045
:101B200097F8572013465B0013449B0007F15802B7
:101B30001344A3F140043B46184600F07BFD231DEF
:101B40003A4692E8030083E803006DE097F85720D7
:101B500013465B0013449B0007F158021344A3F1A2
:101B600040043B46184600F081FD231D3A4692E8AA
:101B7000030083E8030057E097F8572013465B0003
:101B800013449B0007F158021344A3F140043B4661
:101B9000184600F087FD231D3A4692E8030083E8CB
:101BA000030041E097F8572013465B0013449B0065
:101BB00007F158021344A3F140043B46184600F0D5
:101BC0008DFD231D3A4692E8030083E803002BE0D5
:101BD00097F8572013465B0013449B0007F1580207
:101BE0001344A3F140043B46184600F093FD231D27
:101BF0003A4692E8030083E8030015E097F857207F
:101C000013465B0013449B0007F158021344A3F1F1
:101C100040043B46184600F099FD231D3A4692E8E1
:101C2000030083E8030000BF97F85730013387F8BB
:101C3000573097F85530193387F8553097F85730A3
:101C4000042B7FF686AE05233B7407F118037B61F6
:101C500007F1100393E8030000F006F85C37BD4677
:101C600090BD00BFCDCCCCCCB0B58AB000AF3B4668
:101C700083E80300002387F8273086E0796897F827
:101C8000272013465B0013449B00CA1807F1140376
:101C900007CA83E8070007F10C0307F1180292E86E
:101CA000030083E80300FB8A3B84BB8A7B84002318
:101CB000BB845BE0B7F92030DA01B7F92230134476
:101CC000002B00DA0733DB101A46344BD518B7F96E
:101CD0002220334B1340002B03DA013B63F0070350
:101CE00001339BB2DBB2C3F10703DCB23A69B7F947
:101CF0002430002B00DA0733DB109BB21BB21344F5
:101D00001978B7F92420264B1340002B03DA013B46
:101D100063F0070301339BB2DBB2C3F10703DBB20D
:101D20000846194600F03EF80346284621461A4662
:101D300000F04EF8B7F92220BB8A19B2BB891BB25A
:101D40000B44013B9A4207D13B8C9BB201339BB2BF
:101D50003B84BB8A7B8404E07B8C9BB201339BB2C7
:101D60007B84BB8C9BB201339BB2BB84B7F924202C
:101D7000BB891BB2F98909B201FB03F39A4299DBD3
:101D800097F82730013387F827303B7897F82720DA
:101D90009A42FFF473AF2837BD46B0BD74040020EB
:101DA0000700008080B483B000AF03460A46FB7191
:101DB0001346BB71FA79BB7942FA03F3DBB203F045
:101DC0000103DBB218460C37BD465DF8047B704753
:101DD00080B483B000AF78600B46FB701346BB70D5
:101DE0007B681B78D9B2FB78012202FA03F3DBB2DD
:101DF000DB43DBB20A461340D9B2BA78FB7802FA69
:101E000003F3DBB20A461343DBB2DAB27B681A7023
:101E10000C37BD465DF8047B704700BF80B485B0C9
:101E200000AF78600A4A07F1080392E8030083E8EC
:101E300003007B681A4607F1080393E8030082E871
:101E4000030078681437BD465DF8047B704700BF17
:101E5000304E000880B485B000AF78600A4A07F1C0
:101E6000080392E8030083E803007B681A4607F141
:101E7000080393E8030082E8030078681437BD463E
:101E80005DF8047B704700BF384E000880B485B011
:101E900000AF78600A4A07F1080392E8030083E87C
:101EA00003007B681A4607F1080393E8030082E801
:101EB000030078681437BD465DF8047B704700BFA7
:101EC000404E000880B485B000AF78600A4A07F140
:101ED000080392E8030083E803007B681A4607F1D1
:101EE000080393E8030082E8030078681437BD46CE
:101EF0005DF8047B704700BF484E000880B485B091
:101F000000AF78600A4A07F1080392E8030083E80B
:101F100003007B681A4607F1080393E8030082E890
:101F2000030078681437BD465DF8047B704700BF36
:101F3000504E000880B485B000AF78600A4A07F1BF
:101F4000080392E8030083E803007B681A4607F160
:101F5000080393E8030082E8030078681437BD465D
:101F60005DF8047B704700BF584E000880B485B010
:101F700000AF78600A4A07F1080392E8030083E89B
:101F800003007B681A4607F1080393E8030082E820
:101F9000030078681437BD465DF8047B704700BFC6
:101FA000604E000880B485B000AF78600A4A07F13F
:101FB000080392E8030083E803007B681A4607F1F0
:101FC000080393E8030082E8030078681437BD46ED
:101FD0005DF8047B704700BF684E000880B485B090
:101FE00000AF78600A4A07F1080392E8030083E82B
:101FF00003007B681A4607F1080393E8030082E8B0
:10200000030078681437BD465DF8047B704700BF55
:10201000704E000880B485B000AF78600A4A07F1BE
:10202000080392E8030083E803007B681A4607F17F
:10203000080393E8030082E8030078681437BD467C
:102040005DF8047B704700BF784E000880B485B00F
:1020500000AF78600A4A07F1080392E8030083E8BA
:1020600003007B681A4607F1080393E8030082E83F
:10207000030078681437BD465DF8047B704700BFE5
:10208000804E000880B485B000AF78600A4A07F13E
:10209000080392E8030083E803007B681A4607F10F
:1020A000080393E8030082E8030078681437BD460C
:1020B0005DF8047B704700BF884E000880B485B08F
:1020C00000AF78600A4A07F1080392E8030083E84A
:1020D00003007B681A4607F1080393E8030082E8CF
:1020E000030078681437BD465DF8047B704700BF75
:1020F000904E000880B485B000AF78600A4A07F1BE
:10210000080392E8030083E803007B681A4607F19E
:10211000080393E8030082E8030078681437BD469B
:102120005DF8047B704700BF984E000880B485B00E
:1021300000AF78600A4A07F1080392E8030083E8D9
:1021400003007B681A4607F1080393E8030082E85E
:10215000030078681437BD465DF8047B704700BF04
:10216000A04E000880B485B000AF78600A4A07F13D
:10217000080392E8030083E803007B681A4607F12E
:10218000080393E8030082E8030078681437BD462B
:102190005DF8047B704700BFA84E000880B485B08E
:1021A00000AF78600A4A07F1080392E8030083E869
:1021B00003007B681A4607F1080393E8030082E8EE
:1021C000030078681437BD465DF8047B704700BF94
:1021D000B04E000880B485B000AF78600A4A07F1BD
:1021E000080392E8030083E803007B681A4607F1BE
:1021F000080393E8030082E8030078681437BD46BB
:102200005DF8047B704700BFB84E000880B485B00D
:1022100000AF78600A4A07F1080392E8030083E8F8
:1022200003007B681A4607F1080393E8030082E87D
:10223000030078681437BD465DF8047B704700BF23
:10224000C04E000880B485B000AF78600A4A07F13C
:10225000080392E8030083E803007B681A4607F14D
:10226000080393E8030082E8030078681437BD464A
:102270005DF8047B704700BFC84E000880B485B08D
:1022800000AF78600A4A07F1080392E8030083E888
:1022900003007B681A4607F1080393E8030082E80D
:1022A000030078681437BD465DF8047B704700BFB3
:1022B000D04E000880B485B000AF78600A4A07F1BC
:1022C000080392E8030083E803007B681A4607F1DD
:1022D000080393E8030082E8030078681437BD46DA
:1022E0005DF8047B704700BFD84E000880B485B00D
:1022F00000AF78600A4A07F1080392E8030083E818
:1023000003007B681A4607F1080393E8030082E89C
:10231000030078681437BD465DF8047B704700BF42
:10232000E04E000880B485B000AF78600A4A07F13B
:10233000080392E8030083E803007B681A4607F16C
:10234000080393E8030082E8030078681437BD4669
:102350005DF8047B704700BFE84E000880B485B08C
:1023600000AF78600A4A07F1080392E8030083E8A7
:1023700003007B681A4607F1080393E8030082E82C
:10238000030078681437BD465DF8047B704700BFD2
:10239000F04E000880B485B000AF78600A4A07F1BB
:1023A000080392E8030083E803007B681A4607F1FC
:1023B000080393E8030082E8030078681437BD46F9
:1023C0005DF8047B704700BFF84E000880B485B00C
:1023D00000AF78600A4A07F1080392E8030083E837
:1023E00003007B681A4607F1080393E8030082E8BC
:1023F000030078681437BD465DF8047B704700BF62
:10240000004F000880B485B000AF78600A4A07F139
:10241000080392E8030083E803007B681A4607F18B
:10242000080393E8030082E8030078681437BD4688
:102430005DF8047B704700BF084F000880B485B08A
:1024400000AF78600A4A07F1080392E8030083E8C6
:1024500003007B681A4607F1080393E8030082E84B
:10246000030078681437BD465DF8047B704700BFF1
:10247000104F000880B485B000AF78600A4A07F1B9
:10248000080392E8030083E803007B681A4607F11B
:10249000080393E8030082E8030078681437BD4618
:1024A0005DF8047B704700BF184F000880B485B00A
:1024B00000AF78600A4A07F1080392E8030083E856
:1024C00003007B681A4607F1080393E8030082E8DB
:1024D000030078681437BD465DF8047B704700BF81
:1024E000204F000880B485B000AF78600A4A07F139
:1024F000080392E8030083E803007B681A4607F1AB
:10250000080393E8030082E8030078681437BD46A7
:102510005DF8047B704700BF284F000880B485B089
:1025200000AF78600A4A07F1080392E8030083E8E5
:1025300003007B681A4607F1080393E8030082E86A
:10254000030078681437BD465DF8047B704700BF10
:10255000304F000880B485B000AF78600A4A07F1B8
:10256000080392E8030083E803007B681A4607F13A
:10257000080393E8030082E8030078681437BD4637
:102580005DF8047B704700BF384F000880B485B009
:1025900000AF78600A4A07F1080392E8030083E875
:1025A00003007B681A4607F1080393E8030082E8FA
:1025B000030078681437BD465DF8047B704700BFA0
:1025C000404F000880B485B000AF78600A4A07F138
:1025D000080392E8030083E803007B681A4607F1CA
:1025E000080393E8030082E8030078681437BD46C7
:1025F0005DF8047B704700BF484F000880B485B089
:1026000000AF78600A4A07F1080392E8030083E804
:1026100003007B681A4607F1080393E8030082E889
:10262000030078681437BD465DF8047B704700BF2F
:10263000504F000880B485B000AF78600A4A07F1B7
:10264000080392E8030083E803007B681A4607F159
:10265000080393E8030082E8030078681437BD4656
:102660005DF8047B704700BF584F000880B485B008
:1026700000AF78600A4A07F1080392E8030083E894
:1026800003007B681A4607F1080393E8030082E819
:10269000030078681437BD465DF8047B704700BFBF
:1026A000604F000880B485B000AF78600A4A07F137
:1026B000080392E8030083E803007B681A4607F1E9
:1026C000080393E8030082E8030078681437BD46E6
:1026D0005DF8047B704700BF684F000880B485B088
:1026E00000AF78600A4A07F1080392E8030083E824
:1026F00003007B681A4607F1080393E8030082E8A9
:10270000030078681437BD465DF8047B704700BF4E
:10271000704F000880B485B000AF78600A4A07F1B6
:10272000080392E8030083E803007B681A4607F178
:10273000080393E8030082E8030078681437BD4675
:102740005DF8047B704700BF784F000880B485B007
:1027500000AF78600A4A07F1080392E8030083E8B3
:1027600003007B681A4607F1080393E8030082E838
:10277000030078681437BD465DF8047B704700BFDE
:10278000804F000880B485B000AF78600A4A07F136
:10279000080392E8030083E803007B681A4607F108
:1027A000080393E8030082E8030078681437BD4605
:1027B0005DF8047B704700BF884F000880B500AF0C
:1027C00000F002F880BD00BF80B400AF274A274B5D
:1027D000DB6943F00203D361244A244B5B6A43F470
:1027E00000135362224A224B1B6843F420431360B8
:1027F0001F4A1F4B9B889BB243F0C0039BB2938040
:102800001B4A1B4B9B6843F420439360184A184BA8
:10281000DB6843F48053D360154A154B1B6A43F0C1
:1028200088431362134A134B9B8B9BB243F0A00364
:102830009BB293830F4A0F4B1B8C9BB243F0210337
:102840009BB213840B4A0B4B9B889BB243F0200333
:102850009BB29380074A074B1B889BB243F001034E
:102860009BB21380BD465DF8047B70470038024080
:10287000000402400054004080B582B000AF03461F
:10288000FB7100BF022000F009F90346002BF9D1CB
:1028900000F09EF800BF012000F0E8F80346002B8E
:1028A000F9D04020002100F0B3F800BF022000F072
:1028B000DDF80346002BF9D000BF042000F0EEF84D
:1028C0000346002BF9D000BF802000F0CFF803466C
:1028D000002BF9D0FB79184600F0B8F800BF0420AF
:1028E00000F0C4F80346002BF9D000F081F800BFD7
:1028F000102000F0BBF80346002BF9D10837BD4685
:1029000080BD00BF80B582B000AF304A2F4B1B881E
:102910009BB243F480639BB2138000BF022000F09F
:10292000BDF80346002BF9D100F052F800BF01209A
:1029300000F09CF80346002BF9D04020012100F064
:1029400067F800BF022000F091F80346002BF9D091
:1029500000BF042000F0A2F80346002BF9D100BF0D
:10296000402000F083F80346002BF9D0174B1B8A58
:102970009BB2FB7100BF402000F078F80346002BAB
:10298000F9D0124B1B8A9BB2BB71104A0F4B1B88AC
:102990009BB223F480639BB2138000F029F800BF40
:1029A000102000F063F80346002BF9D1FB791B02DD
:1029B0009AB2BB799BB213439BB29BB223F0030341
:1029C0009BB218460837BD4680BD00BF005400408A
:1029D00080B400AF054A054B1B889BB243F480735B
:1029E0009BB21380BD465DF8047B704700540040E5
:1029F00080B400AF054A054B1B889BB243F40073BB
:102A00009BB21380BD465DF8047B704700540040C4
:102A100080B483B000AF03460A46FB711346BB7116
:102A2000FB795B00FB71BB79012B03D1FB7943F090
:102A30000103FB71044BFA7992B21A820C37BD463E
:102A40005DF8047B704700BF0054004080B483B041
:102A500000AF0346FB71044BFA7992B21A820C372D
:102A6000BD465DF8047B70470054004080B483B0DD
:102A700000AF0346FB80084B9B8A9AB2FB88134049
:102A80009BB2002B01D1002300E0012318460C3734
:102A9000BD465DF8047B70470054004080B483B0AD
:102AA00000AF0346FB80084B1B8B9AB2FB88134098
:102AB0009BB2002B01D1002300E0012318460C3704
:102AC000BD465DF8047B70470054004090B585B06A
:102AD00000AF0F23BB720B237B720C233B721623B8
:102AE000FB7221233B732C237B7300F021F80E4BE8
:102AF0000C221A6007F1080393E8030000F05CF869
:102B0000094B0D221A60094C3B46184600F010F99B
:102B100022463B46196811609B889380024B0E2227
:102B20001A601437BD4690BD800C0020780C002040
:102B300080B500AF1D4A1D4B5B6B43F482035363AA
:102B40001B4A1B4B1B6843F480731360194A194BD3
:102B50005B6A43F0CA035362164A164B5B6A43F042
:102B600053035362134A134BDB6843F08003D36073
:102B700000BF402000F022F90346002BF9D00D4A97
:102B80000C4B1B6943F4807313610A4A094B1B69A0
:102B900043F400031361074A064BDB6823F080030C
:102BA000D360044BFF225A6280BD00BF0038024050
:102BB0000070004000280040B0B582B000AF3B4636
:102BC00083E80300584A584B5B6A43F0CA035362D8
:102BD000554A554B5B6A43F053035362524A524B7A
:102BE000DB6843F08003D36000BF402000F0E6F8CC
:102BF0000346002BF9D04C4D4B4B5868BB784B4AE1
:102C0000A2FB0323DB08DBB21C05BA78474BA3FB0E
:102C10000213D9080B469B000B445B00D31ADBB2AE
:102C20001B0444EA03027B784049A1FB0313DB0841
:102C3000DBB21B0342EA03047A783C4BA3FB02138A
:102C4000D9080B469B000B445B00D31ADBB21B0276
:102C500044EA03023B783549A1FB0313DB08DBB2EE
:102C60001B0142EA03043A78304BA3FB0213D90854
:102C70000B469B000B445B00D31ADBB22343034398
:102C80006B60294D284B1868FB78284AA2FB032368
:102C9000DB08DBB21C05FA78244BA3FB0213D9082E
:102CA0000B469B000B445B00D31ADBB21B0444EAC7
:102CB00003023B791D49A1FB0313DB08DBB21B03B5
:102CC00042EA03043A79194BA3FB0213D9080B46D5
:102CD0009B000B445B00D31ADBB21B0244EA0302E5
:102CE0007B791249A1FB0313DB08DBB21B0142EA2B
:102CF00003047A790D4BA3FB0213D9080B469B0002
:102D00000B445B00D31ADBB2234303432B60064A18
:102D1000054BDB6823F08003D360034BFF225A622C
:102D20000837BD46B0BD00BF00280040CDCCCCCC9C
:102D300080B487B000AF78601F4B5B687B61002375
:102D4000BB7300237B737B69DBB203F03003DBB220
:102D50001A46920013445B00DAB27B69DBB203F0DF
:102D60000F03DBB21343DBB23B73134B1B687B6176
:102D70000023FB7300233B747B69DBB203F0700319
:102D8000DBB21A46920013445B00DAB27B69DBB215
:102D900003F00F03DBB21343DBB27B747B681A468C
:102DA00007F10C03186810609B88938078681C37C3
:102DB000BD465DF8047B70470028004080B483B0B6
:102DC00000AF0346FB80074BDA68FB881340002BFB
:102DD00001D1002300E0012318460C37BD465DF801
:102DE000047B70470028004081F0004102E000BFF2
:102DF00083F0004330B54FEA41044FEA430594EABB
:102E0000050F08BF90EA020F1FBF54EA000C55EAF5
:102E1000020C7FEA645C7FEA655C00F0E2804FEAC6
:102E20005454D4EB5555B8BF6D420CDD2C4480EAA8
:102E3000020281EA030382EA000083EA010180EAD8
:102E4000020281EA0303362D88BF30BD11F0004F26
:102E50004FEA01314FF4801C4CEA113102D040425C
:102E600061EB410113F0004F4FEA03334CEA133397
:102E700002D0524263EB430394EA050F00F0A780AF
:102E8000A4F10104D5F1200E0DDB02FA0EFC22FAAA
:102E900005F2801841F1000103FA0EF2801843FA9E
:102EA00005F359410EE0A5F120050EF1200E012A8F
:102EB00003FA0EFC28BF4CF0020C43FA05F3C018CD
:102EC00051EBE37101F0004507D54FF0000EDCF146
:102ED000000C7EEB00006EEB0101B1F5801F1BD3EF
:102EE000B1F5001F0CD349085FEA30004FEA3C0CF3
:102EF00004F101044FEA445212F5800F80F09A80E9
:102F0000BCF1004F08BF5FEA500C50F1000041EBEC
:102F1000045141EA050130BD5FEA4C0C404141EBF0
:102F2000010111F4801FA4F10104E9D191F0000F17
:102F300004BF01460020B1FA81F308BF2033A3F19A
:102F40000B03B3F120020CDA0C3208DD02F1140C91
:102F5000C2F10C0201FA0CF021FA02F10CE002F1CC
:102F60001402D8BFC2F1200C01FA02F120FA0CFCC5
:102F7000DCBF41EA0C019040E41AA2BF01EB04510E
:102F8000294330BD6FEA04041F3C1CDA0C340EDC0C
:102F900004F11404C4F1200220FA04F001FA02F34F
:102FA00040EA030021FA04F345EA030130BDC4F10D
:102FB0000C04C4F1200220FA02F001FA04F340EA02
:102FC0000300294630BD21FA04F0294630BD94F0B3
:102FD000000F83F4801306BF81F480110134013D9A
:102FE0004EE77FEA645C18BF7FEA655C29D094EA0B
:102FF000050F08BF90EA020F05D054EA000C04BF89
:103000001946104630BD91EA030F1EBF0021002073
:1030100030BD5FEA545C05D14000494128BF41F012
:10302000004130BD14F580043CBF01F5801130BD76
:1030300001F0004545F0FE4141F470014FF0000001
:1030400030BD7FEA645C1ABF194610467FEA655CB2
:103050001CBF0B46024650EA013406BF52EA033554
:1030600091EA030F41F4002130BD00BF90F0000F42
:1030700004BF0021704730B54FF4806404F132047E
:103080004FF000054FF0000150E700BF90F0000F37
:1030900004BF0021704730B54FF4806404F132045E
:1030A00010F0004548BF40424FF000013EE700BF2E
:1030B00042004FEAE2014FEA31014FEA02701FBFBE
:1030C00012F07F4393F07F4F81F06051704792F090
:1030D000000F14BF93F07F4F704730B54FF460740A
:1030E00001F0004521F0004120E700BF50EA010255
:1030F00008BF704730B54FF000050AE050EA010202
:1031000008BF704730B511F0004502D5404261EB71
:1031100041014FF4806404F132045FEA915C3FF4B2
:10312000DCAE4FF003025FEADC0C18BF03325FEA4B
:10313000DC0C18BF033202EBDC02C2F1200300FA00
:1031400003FC20FA02F001FA03FE40EA0E0021FA25
:1031500002F11444C1E600BF70B54FF0FF0C4CF40F
:10316000E06C1CEA11541DBF1CEA135594EA0C0FC5
:1031700095EA0C0F00F0DEF82C4481EA030621EA00
:103180004C5123EA4C5350EA013518BF52EA03353B
:1031900041F4801143F4801338D0A0FB02CE4FF0ED
:1031A0000005E1FB02E506F00042E0FB03E54FF01D
:1031B0000006E1FB03569CF0000F18BF4EF0010E15
:1031C000A4F1FF04B6F5007F64F5407404D25FEA11
:1031D0004E0E6D4146EB060642EAC62141EA5551C4
:1031E0004FEAC52040EA5E504FEACE2EB4F1FD0C06
:1031F00088BFBCF5E06F1ED8BEF1004F08BF5FEA84
:10320000500E50F1000041EB045170BD06F0004635
:1032100046EA010140EA020081EA0301B4EB5C04E2
:10322000C2BFD4EB0C0541EA045170BD41F48011DA
:103230004FF0000E013C00F3AB8014F1360FDEBFFF
:10324000002001F0004170BDC4F10004203C35DADB
:103250000C341BDC04F11404C4F1200500FA05F35E
:1032600020FA04F001FA05F240EA020001F00042FF
:1032700021F0004110EBD37021FA04F642EB060175
:103280005EEA430E08BF20EAD37070BDC4F10C049F
:10329000C4F1200500FA04F320FA05F001FA04F263
:1032A00040EA020001F0004110EBD37041F100014F
:1032B0005EEA430E08BF20EAD37070BDC4F120055A
:1032C00000FA05F24EEA020E20FA04F301FA05F2C2
:1032D00043EA020321FA04F001F0004121FA04F26A
:1032E00020EA020000EBD3705EEA430E08BF20EA3A
:1032F000D37070BD94F0000F0FD101F00046400074
:1033000041EB010111F4801F08BF013CF7D041EAF5
:10331000060195F0000F18BF704703F000465200F9
:1033200043EB030313F4801F08BF013DF7D043EACA
:103330000603704794EA0C0F0CEA135518BF95EA80
:103340000C0F0CD050EA410618BF52EA4306D1D107
:1033500081EA030101F000414FF0000070BD50EA26
:10336000410606BF1046194652EA430619D094EAB0
:103370000C0F02D150EA013613D195EA0C0F05D19A
:1033800052EA03361CBF104619460AD181EA0301EE
:1033900001F0004141F0FE4141F470014FF00000A6
:1033A00070BD41F0FE4141F4780170BD70B54FF041
:1033B000FF0C4CF4E06C1CEA11541DBF1CEA1355C1
:1033C00094EA0C0F95EA0C0F00F0A7F8A4EB0504A3
:1033D00081EA030E52EA03354FEA013100F088809A
:1033E0004FEA03334FF0805545EA131343EA126363
:1033F0004FEA022245EA111545EA10654FEA002618
:103400000EF000419D4208BF964244F1FD0404F5D0
:10341000407402D25B084FEA3202B61A65EB03052C
:103420005B084FEA32024FF480104FF4002CB6EBE9
:10343000020E75EB030E22BFB61A754640EA0C0069
:103440005B084FEA3202B6EB020E75EB030E22BFA9
:10345000B61A754640EA5C005B084FEA3202B6EBEA
:10346000020E75EB030E22BFB61A754640EA9C00A9
:103470005B084FEA3202B6EB020E75EB030E22BF79
:10348000B61A754640EADC0055EA060E18D04FEA37
:10349000051545EA16754FEA06164FEAC30343EAD7
:1034A00052734FEAC2025FEA1C1CC0D111F4801FA4
:1034B0000BD141EA00014FF000004FF0004CB6E79D
:1034C00011F4801F04BF01430020B4F1FD0C88BF3C
:1034D000BCF5E06F3FF6AFAEB5EB030C04BFB6EB47
:1034E000020C5FEA500C50F1000041EB045170BD3A
:1034F0000EF0004E4EEA113114EB5C04C2BFD4EB67
:103500000C0541EA045170BD41F480114FF0000EEA
:10351000013C90E645EA060E8DE60CEA135594EA66
:103520000C0F08BF95EA0C0F3FF43BAF94EA0C0F69
:103530000AD150EA01347FF434AF95EA0C0F7FF4DE
:1035400025AF104619462CE795EA0C0F06D152EA32
:1035500003353FF4FDAE1046194622E750EA410616
:1035600018BF52EA43067FF4C5AE50EA41047FF427
:103570000DAF52EA43057FF4EBAE12E74FF0FF3C8C
:1035800006E000BF4FF0010C02E000BF4FF0010C5D
:103590004DF804CD4FEA410C7FEA6C5C4FEA430CD6
:1035A00018BF7FEA6C5C1BD001B050EA410C0CBF25
:1035B00052EA430C91EA030F02BF90EA020F002087
:1035C000704710F1000F91EA030F58BF994208BFEE
:1035D00090422CBFD8176FEAE37040F001007047AB
:1035E0004FEA410C7FEA6C5C02D150EA013C07D102
:1035F0004FEA430C7FEA6C5CD6D152EA033CD3D04D
:103600005DF8040B704700BF8446104662468C4646
:103610001946634600E000BF01B5FFF7B7FF002879
:1036200048BF10F1000F01BD4DF808EDFFF7F4FFA2
:103630000CBF012000205DF808FB00BF4DF808ED2D
:10364000FFF7EAFF34BF012000205DF808FB00BF50
:103650004DF808EDFFF7E0FF94BF012000205DF872
:1036600008FB00BF4DF808EDFFF7CEFF94BF012027
:1036700000205DF808FB00BF4DF808EDFFF7C4FF20
:1036800034BF012000205DF808FB00BF4A0011D2C2
:1036900012F5001211D20DD56FF47873B3EB6252AC
:1036A0000ED44FEAC12343F0004343EA505323FAB8
:1036B00002F070474FF00000704750EA013002D12D
:1036C0004FF0FF3070474FF0000070474FEA410263
:1036D000B2F1E04324BFB3F5001CDCF1FE5C0DD970
:1036E00001F0004C4FEAC0024CEA5070B2F1004FBA
:1036F00040EB830008BF20F00100704711F0804FBD
:1037000021D113F13872BCBF01F00040704741F481
:1037100080114FEA5252C2F11802C2F1200C10FA85
:103720000CF320FA02F018BF40F001004FEAC12369
:103730004FEAD32303FA0CFC40EA0C0023FA02F30D
:103740004FEA4303CCE77FEA625307D150EA0133E3
:103750001EBF4FF0FE4040F44000704701F00040B3
:1037600040F0FE4040F40000704700BF80F0004091
:1037700002E000BF81F0004142001FBF5FEA410349
:1037800092EA030F7FEA226C7FEA236C6AD04FEA49
:103790001262D2EB1363C1BFD2184140484041408E
:1037A000B8BF5B42192B88BF704710F0004F40F440
:1037B000000020F07F4018BF404211F0004F41F45C
:1037C000000121F07F4118BF494292EA030F3FD028
:1037D000A2F1010241FA03FC10EB0C00C3F120033B
:1037E00001FA03F100F0004302D5494260EB4000CA
:1037F000B0F5000F13D3B0F1807F06D340084FEA35
:10380000310102F10102FE2A51D2B1F1004F40EB29
:10381000C25008BF20F0010040EA03007047490091
:1038200040EB000010F4000FA2F10102EDD1B0FA5C
:1038300080FCACF1080CB2EB0C0200FA0CF0AABF51
:1038400000EBC25052421843BCBFD04018437047EF
:1038500092F0000F81F4000106BF80F400000132F5
:10386000013BB5E74FEA41037FEA226C18BF7FEACC
:10387000236C21D092EA030F04D092F0000F08BF0E
:103880000846704790EA010F1CBF0020704712F0F5
:103890007F4F04D1400028BF40F00040704712F134
:1038A00000723CBF00F50000704700F0004343F099
:1038B000FE4040F4000070477FEA226216BF0846CF
:1038C0007FEA23630146420206BF5FEA412390EA92
:1038D000010F40F4800070474FF0000304E000BF88
:1038E00010F0004348BF40425FEA000C08BF704739
:1038F00043F0964301464FF000001CE050EA0102FD
:1039000008BF70474FF000030AE000BF50EA010211
:1039100008BF704711F0004302D5404261EB4101FE
:103920005FEA010C02BF84460146002043F0B64323
:1039300008BFA3F18053A3F50003BCFA8CF2083A48
:10394000A3EBC25310DB01FA02FC634400FA02FC51
:10395000C2F12002BCF1004F20FA02F243EB020058
:1039600008BF20F00100704702F1200201FA02FCBA
:10397000C2F1200250EA4C0021FA02F243EB0200AD
:1039800008BF20EADC7070474FF0FF3C06E000BF44
:103990004FF0010C02E000BF4FF0010C4DF804CDD8
:1039A0004FEA40024FEA41037FEA226C18BF7FEAE8
:1039B000236C11D001B052EA530C18BF90EA010FEA
:1039C00058BFB2EB030088BFC81738BF6FEAE17079
:1039D00018BF40F0010070477FEA226C02D15FEA15
:1039E000402C05D17FEA236CE4D15FEA412CE1D081
:1039F0005DF8040B704700BF844608466146FFE748
:103A00000FB5FFF7C9FF002848BF10F1000F0FBD29
:103A10004DF808EDFFF7F4FF0CBF012000205DF822
:103A200008FB00BF4DF808EDFFF7EAFF34BF0120A7
:103A300000205DF808FB00BF4DF808EDFFF7E0FF40
:103A400094BF012000205DF808FB00BF4DF808ED91
:103A5000FFF7D2FF94BF012000205DF808FB00BFF4
:103A60004DF808EDFFF7C8FF34BF012000205DF8D6
:103A700008FB00BF002103E00B4B5B5843500431AF
:103A80000A480B4B42189A42F6D30A4A02E0002336
:103A900042F8043B084B9A42F9D3FCF7BFFB00F015
:103AA0001FF8FCF7B5FB7047AC4F00080000002082
:103AB0005404002058040020840C0020FEE700007D
:103AC00008B50021044600F08BF8044B1868C36B5E
:103AD00003B19847204600F05BF900BF944F0008FF
:103AE00070B50F4E0F4D761BB61018BF002405D0D1
:103AF000013455F8043B9847A642F9D10A4E0B4DC4
:103B000000F09AF9761BB61018BF002406D00134D5
:103B100055F8043B9847A642F9D170BD70BD00BF6F
:103B2000A04F0008A04F0008A84F0008A04F0008B1
:103B300070B4840746D0541E002A41D0CDB203464B
:103B400002E0621EE4B3144603F8015B9A07F8D161
:103B5000032C2ED9CDB245EA05250F2C45EA0545A3
:103B600019D9264603F11002103E0F2E42F8105CC0
:103B700042F80C5C42F8085C42F8045C02F1100266
:103B8000F2D8A4F1100222F00F0204F00F04103258
:103B9000032C13440DD91E462246043A032A46F844
:103BA000045BFAD8221F22F003020432134404F00B
:103BB00003042CB1C9B21C4403F8011BA342FBD17E
:103BC00070BC704714460346C2E700BF024B13B1F6
:103BD000024800F06FB8704700000000C13C0008C8
:103BE0002DE9F04F81460E46304B83B01B680093A1
:103BF00003F5A4730193009BD3F8487127B3DDF854
:103C000004A07C68651E0ED4013407EB84044FF0D9
:103C10000008E6B1D4F80031B34218D0013D6B1C66
:103C2000A4F10404F5D1224B73B17B68002B36D18B
:103C30003B68002B34D03846CAF80030AFF3008020
:103C4000DAF80070002FDCD103B0BDE8F08F7B689C
:103C50002268013BAB420CBF7D60C4F80080002AA3
:103C6000DCD0D7F888310121A9401942D7F804B037
:103C700008D190477B685B45BDD1DAF80030BB4284
:103C8000CCD0B8E7D7F88C31194204D14846D4F8E3
:103C900080109047EEE7D4F880009047EAE73B6851
:103CA000BA461F46002FACD1CEE700BF944F0008A4
:103CB00000000000014600200246034600F016B84E
:103CC00038B5084B084DED1AAC1018BFED1805D0EB
:103CD000013C55F8043D9847002CF9D1BDE8384027
:103CE00000F0B0B8A84F0008AC4F00082DE9F0472D
:103CF000254C064625688846D5F84841924699469F
:103D0000C4B360681F2817DC411C76B104EB800344
:103D1000C3F888A0D4F88851012282401543022EAE
:103D2000C4F88851C3F808911ED0831C616000203C
:103D300044F82380BDE8F087144B03B34FF4C870F8
:103D4000AFF300800446D0B1D5F84831002784E8AD
:103D500088003846C5F848410121C4F88871C4F884
:103D60008C71002EE1D0D1E7D4F88C311A43C4F81D
:103D70008C21DAE705F5A674C5F84841C1E74FF094
:103D8000FF30BDE8F08700BF944F0008000000003E
:103D9000FEE700BFF8B5C1F30A56A6F2FF35132DB2
:103DA0000A460B460446864611DC002D2DDB0F46E5
:103DB0001F492941114224D04FF400232B413B4499
:103DC00023EA01030022194614462046F8BD332D8C
:103DD00005DDB5F5806F1ED011462046F8BDA6F270
:103DE00013414FF0FF30C8402042F5D0C6F586663B
:103DF00002360121B140091928BF013321EA00022E
:103E0000E1E70028D8D11146E7E7013501F000438A
:103E100007D00022D7E702460B46FEF7EBFF044629
:103E2000D3E743F07F5343F440130022CBE700BFB6
:103E3000FFFF0F0000000000F8B500BFF8BC08BC91
:103E40009E467047F8B500BFF8BC08BC9E46704758
:103E500041542B42415544380000000041542B4D41
:103E60004F4445320000000041542B4E414D455314
:103E70006D617274776174636800000010008000E7
:103E8000740400200000000000000000000000009A
:103E90000000000000000000000000000000000022
:103EA0000000000000000000000000000000000012
:103EB0000000000000000000000000000000000002
:103EC00000000000000000000000000000000006EC
:103ED0000000000000000000000000000000000FD3
:103EE00000000000000000000000017FF400000E50
:103EF000000000000000000000003FFFFFD0001E97
:103F000000000000000000000003FFFFFFFE003E75
:103F10000000000000000000001FFFFFFFFFC07C4A
:103F2000000000000000000000FFFF4017FFF8FC49
:103F3000000000000000000001FFE000003FFEFC68
:103F400000000000000000000FFE00020105FFF865
:103F500000000000000000003FF0002044017FF856
:103F60000000000000000000FFC0000901200FF861
:103F70000000000000000001FE000200202887FC75
:103F80000000000000000003FC00010511045FFFB9
:103F9000000000000000000FF000281004109FFF38
:103FA000800000000000001FC00101E1E0423DFF71
:103FB000C00000000000007F000083F7F0003FCF4A
:103FC000F0000000000000FE001043F3E4507BC34B
:103FD000F8000000000001FC004003B77204FF81FC
:103FE000FC000000000003F0000209F3E121EB886F
:103FF000FF000000000003F0002003B37091FFA851
:104000003F00000000000FC0080243F3E003FF027E
:104010001F80000000001F8002110BF7A427F60884
:104020009FE0000000001F0000000152F08FDF52EF
:1040300087E8000000007E00410043F7E40FFE0027
:1040400013E8000000007E00009011E3611EFCA553
:1040500045F800000000F80020040400043FBC0004
:1040600011FE00000001F80008008000013AF9127A
:1040700084FD00000001F00004200012A07FF84839
:10408000207E80000003E0080108848010FEF10417
:10409000943EA0000003C0010000101000FB72203D
:1040A000413F00000007C0000021010AA5EFE08B9E
:1040B000049FD000000F80000810408001F7F40139
:1040C000200FA000000F80114200200023FBC148F8
:1040D000954FD800001F0040000904490FDFC08041
:1040E0000807C400001E00000000020047FF8C25E6
:1040F0002113E000003E0008888840440EF781103C
:104100008443FA00003E0000044200205F5F100874
:104110005223E100007C0000000022021FFF44A5A2
:104120000111FC0000780042200008213DEE110042
:104130005425F30000780020040902107EFE00A43C
:104140000290F88000F8040100808008FFFCA812AB
:104150005004FA8000F8000402020920F6BC0101B4
:1041600005427C4001F0000010102001FFF894246B
:1041700050287D8001F0000000000009DBF80112EA
:1041800005057CA001E0010205081443ED749100CF
:10419000A0A13E8001E0100040204107FFE204445E
:1041A00014147C5003E00010000100477FE051121E
:1041B00041403F2003E000802408080FDBE10108B4
:1041C00048153EA003E000120201408EEDD020848D
:1041D00004841EA003C010000040041FFFC49022EE
:1041E00077293F3003C000000012001FDF80049BCE
:1041F000FF809F0803C004008000853DEF120BFF85
:10420000FE549FA807C000401200407F7F02FFFFBE
:10421000F0024E8407C000044024007DEE3FFFDF23
:10422000D5101F700B80A420000022777FFFFD7F38
:1042300000EE9F0807C7FE00090210FFFFFFAFF85E
:1042400027FF8FA40F8FFE02404001EFFFAEFFD289
:1042500093FF2F3007877E08000111FFFFFBFE80D0
:10426000076B9F8807CDD620022405FFFD7FF4252C
:1042700023BF4F240787FE0000001FFFFFAFA200EF
:1042800093FF1FB40FC154004000BFFBF7FE8154E1
:1042900008014F14078000120153FFFFEFF00801DF
:1042A00041481F9007C3FE000803EFFFFF80204432
:1042B00023FF4FAA07CEFE00800FFFFFF40A8520E0
:1042C00013FF9F4803875E00003EBF7FE040202A27
:1042D0008BFF8F2807C7F704227BEFFE0100150034
:1042E00047773F4403C7FE10087FFFFF0455409205
:1042F00013FF9F5403C5BE000017FFBC200020120F
:1043000040941F5403E0000404000FF88422148139
:1043100028423E1003C0000110001DF01108811456
:1043200002151EC803E0011001000FE200220881FF
:104330005540BF2403E0000000A01FC08900A0205A
:1043400000103EB001E0000080121F0040221494D3
:1043500095493C1801E0008800009E150890400235
:1043600000247FA001F0000012001800220909506B
:1043700025013C4800F02002004458901080040AB7
:104380009094FD2000F0008000200004081282407C
:104390004440795000F80811140122010140290518
:1043A0001114FCA000780000000800904404805024
:1043B0008242FA90007C00008100084421222410EF
:1043C000A811F040007C0400000920100090821029
:1043D0000549FE40003C0010244004411002110A2F
:1043E0005003F120003E0004000801044A00404050
:1043F0000933E2C0001F04800104800000921515FB
:104400004913F400001F000220000844224100402C
:10441000040FD280000F8000004041108808511422
:1044200090A7CA80000F80208405200000820482AB
:10443000420F89000007C00002000812842140409A
:10444000295FAA000007C008400005004210282A82
:10445000043F0A000003E020009100482080820110
:10446000203EA0000001F0000004280112121150AB
:104470008AFEAC000001F80244000400008808082D
:10448000407C14000000FC1021000292242282884B
:1044900049FB480000007C0000050000008010255A
:1044A00003F8A00000007E0000A0081108054500E8
:1044B000ABF5100000003F0020014088C4102050E0
:1044C00007E2C00000001F8A082008F8F2800A09ED
:1044D0002FD9400000000FE0000021FDF82A4044E1
:1044E0009F840000000007E0410200B9F901291093
:1044F0007F330000000003F0211090D9B8880088B5
:104500007E8A0000000001FC004009F9F801282122
:10451000FCA40000000000FE100420FDF8A80287A3
:10452000FA9000000000007F000000F8D801280F7A
:10453000F26800000000001FC42208BDFC10052F17
:10454000E90000000000000FF10104E9D509107F27
:104550008AC0000000000007F80021F8F80481FF7D
:104560006400000000000001FF08002A20A047FEB0
:1045700013000000000000007FC12001042417F890
:10458000C8000000000000003FF400000010FFE63B
:1045900060000000000000000FFC04915205FF9134
:1045A000000000000000000003FFF000015FFF4A70
:1045B000800000000000000000FFFF4A1BFFF834ED
:1045C0000000000000000000001FFFFFFFFFC5907B
:1045D00000000000000000000007FFFFFFFF324066
:1045E000000000000000000000003FFFFFF84C004A
:1045F0000000000000000000000002FFFE8B200011
:104600000000000000000000000000000248000060
:10461000000000000000000000000000000000009A
:10462000000000000000000000000000000000008A
:10463000000000000000000000000000000000007A
:10464000000000000000000000000000000000006A
:10465000000000000000000000000000000000005A
:10466000000000000000000000000000000000004A
:10467000000000000000000000000000000000003A
:10468000000000003FFF2001E001E001E001E00147
:1046900020013FFF3FFF200FE00FE00FE00FE00F92
:1046A000200F3FFF3FFF207FE07FE07FE07FE07F44
:1046B000207F3FFF3FFF23FFE3FFE3FFE3FFE3FF35
:1046C00023FF3FFF3FFF3FFFFFFFFFFFFFFFFFFF16
:1046D0003FFF3FFF3FFC400280018FF190099009AE
:1046E0009009F00FFFFFC003B00D8C3183C1800132
:1046F0008001FFFFFFFF80018C318A518991881171
:104700008001FFFF0000000000000000000000002A
:104710000000000038444444444444380000000091
:1047200000000000701010101010107C000000003D
:1047300000000000780404043840407C00000000C1
:10474000000000007804040438040478000000002D
:1047500000000000404848487808080800000000B1
:10476000000000003C2020203804047800000000F5
:1047700000000000784040407C44447C0000000081
:10478000000000007C04040810101010000000005D
:104790000000000038282828384444380000000071
:1047A000000000007C44447C040404040000000079
:1047B000000000006064081010204C0C0000000095
:1047C00000000000705070000000000000000000B9
:1047D000000000001FF03FF8301830183018301873
:1047E0003018301830183018301830183018301889
:1047F000301830183FF81FF0000000003F003F0065
:104800000300030003000300030003000300030090
:104810000300030003000300030003003FF83FF818
:10482000000000003FF03FF80018001800180018C2
:10483000001800181FF83FF0300030003000300042
:10484000300030003FF83FF8000000003FF03FF834
:104850000018001800180018001800180FF80FF8BA
:104860000018001800180018001800183FF83FF052
:104870000000000030003000306030603060306098
:1048800030603060306030603FF03FF000600060CA
:104890000060006000600060000000000FF80FF88A
:1048A0000C000C000C000C000C000C000FF00FF8BA
:1048B0000018001800180018001830183FF80FF002
:1048C000000000003FC03FC030003000300030002A
:1048D00030003000300030003FF83FF8301830181A
:1048E000301830183FF83FF8000000003FF83FF85C
:1048F00030180018001800180018007800F001E0C7
:10490000038003000300030003000300030003000F
:10491000000000000FE00FE00C600C600C600C6009
:104920000C600C601FF03FF8301830183018301849
:10493000301830183FF81FF0000000003FF83FF833
:1049400030183018301830183FF83FF800180018A9
:104950000018001800180018001800180018001897
:104960000000000000000000000000000000000047
:104970000000000000000000000000000000000037
:104980003E003E003E003E00000000000FFFF03FF2
:10499000FFFC7FFFFE7FFFFE78001E78001E780080
:1049A0001E78001E78001E78001E78001E78001EFB
:1049B00078001E78001E78001E78001E78001E7891
:1049C000001E78001E78001E78001E78001E7800F9
:1049D0001E78001E78001E78001E78001E78001ECB
:1049E00078001E78001E78001E7FFFFE7FFFFE3FCE
:1049F000FFFC1FFFF00000003FFC003FFC007FFCBD
:104A0000003FFC00003C00003C00003C00003C007B
:104A1000003C00003C00003C00003C00003C00006A
:104A20003C00003C00003C00003C00003C00003C1E
:104A300000003C00003C00003C00003C00003C004A
:104A4000003C00003C00003C00003C00003C00003A
:104A50003C00003C003FFFFE7FFFFE7FFFFE3FFF6C
:104A6000FC0000003FFFF07FFFFC7FFFFC3FFFFEEC
:104A700000001E00001E00001E00001E00001E00A0
:104A8000001E00001E00001E00001E00001E000090
:104A90001E1FFFFE3FFFFE7FFFFC7FFFF878000038
:104AA0007800007800007800007800007800007836
:104AB000000078000078000078000078000078009E
:104AC000007FFFFC7FFFFE7FFFFE7FFFFC000000FA
:104AD0001FFFF03FFFFC7FFFFE3FFFFE00001E00B8
:104AE000001E00001E00001E00001E00001E000030
:104AF0001E00001E00001E00001E00003E03FFFC02
:104B000003FFFC03FFFC03FFFC00003E00001E004F
:104B1000001E00001E00001E00001E00001E0000FF
:104B20001E00001E00001E00001E00001E3FFFFEB3
:104B30007FFFFE3FFFFC1FFFF80000001800003C55
:104B400000003C00003C00003C00003C00003C0039
:104B5000003C00003C00C03C01E03C01E03C01E0C6
:104B60003C01E03C01E03C01E03C01E03C01E03C78
:104B700001E03C01E03FFFF03FFFF83FFFF83FFF5F
:104B8000F00001E00001E00001E00001E00001E0D0
:104B90000001E00001E00001E00001E00001E000B0
:104BA00001E00000C000000007FFF807FFFC07FF5E
:104BB000FC07FFF8078000078000078000078000DF
:104BC000078000078000078000078000078000073B
:104BD000800007800007FFF007FFF807FFFC07FFD2
:104BE000FC00003C00003C00003C00003C00003C9D
:104BF00000003C00003C00003C00003C00003C7811
:104C0000003C7C003C7FFFFC7FFFFC1FFFF803FFA4
:104C1000F00000003FE0007FF0007FF0007FE00048
:104C200078000078000078000078000078000078B4
:104C3000000078000078000078000078000078001C
:104C4000007800007800007800007800007FFFFC0A
:104C50007FFFFE7FFFFE7FFFFE78001E78001E783C
:104C6000001E78001E78001E78001E78001E780056
:104C70001E7FFFFE7FFFFE7FFFFE1FFFF80000008C
:104C80003FFFFE7FFFFE7FFFFE7FFFFE78001E30AE
:104C9000001E00001E00001E00001E00001E00007E
:104CA0001E00001E00001E00003E0000FE0001FC71
:104CB0000003F80007F0000FE0001F80003F000035
:104CC0003E00003C00003C00003C00003C00003C7A
:104CD00000003C00003C00003C00003C00003C00A8
:104CE000003C00003C0000180000000001FFC00371
:104CF000FFE003FFE003FFE003C1E003C1E003C105
:104D0000E003C1E003C1E003C1E003C1E003C1E08F
:104D100003C1E003C1E003C1E01FFFF83FFFFC7FD8
:104D2000FFFE7FFFFE78001E78001E78001E7800D0
:104D30001E78001E78001E78001E78001E78001E67
:104D400078001E78001E78001E7FFFFE7FFFFE3F6A
:104D5000FFFC1FFFF80000003FFFFC7FFFFE7FFF0E
:104D6000FE7FFFFE78001E78001E78001E78001E71
:104D700078001E78001E78001E78001E7FFFFE7FE0
:104D8000FFFE7FFFFE3FFFFE00001E00001E000032
:104D90001E00001E00001E00001E00001E00001E5F
:104DA00000001E00001E00001E00001E00001E006D
:104DB000001E00001E00001E00001E00001E00005D
:104DC0001C000000000000000000000000000000C7
:104DD00000000000000000000000000000FE0001D4
:104DE000FF0001FF0001FF0001FF0001FF0001FFC4
:104DF0000000FE00000000000000000000000000B5
:104E000000000000000000000000FE0001FF0001A3
:104E1000FF0001FF0001FF0001FF0001FF0000FE95
:104E20000000000000000000000000000000000082
:104E300080008000843E00081000080084460008BE
:104E4000100008009446000810000800A44600085E
:104E500010000800B446000810000800C44600080E
:104E600010000800D446000810000800E4460008BE
:104E700010000800F446000810000800044700086D
:104E8000080008001447000808000800244700082C
:104E900008000800344700080800080044470008DC
:104EA000080008005447000808000800644700088C
:104EB000080008007447000808000800844700083C
:104EC000080008009447000808000800A4470008EC
:104ED00010001200D447000808000800B44700087A
:104EE00010001200FC47000808000800C447000832
:104EF0001000120024480008100012004C4800085E
:104F00001000120074480008100012009C480008AD
:104F100010001200C448000810001200EC480008FD
:104F20001000120014490008100012003C4900084B
:104F30001000120064490008180023008C49000882
:104F400018002300F849000818002300644A0008EC
:104F500018002300D04A0008180023003C4B00082A
:104F600018002300A84B000818002300144C000868
:104F700018002300804C000818002300EC4C0008A7
:104F800018002300584D000818002300C44D0008E5
:084F900043000000280000208E
:084F980004B2FF7F01000000DC
:084FA000CD3B0008650100088B
:044FA80041010008BB
:104FAC00000000000048E801030406080C1018205B
:104FBC0030000000000000000000000001020304AB
:104FCC000607080900000000000000001403002080
:104FDC007C030020E403002000000000000000001F
:104FEC0000000000000000000000000000000000B5
:104FFC00000000000000000000000000904F0008BE
:10500C000000000000000000000000000000000094
:10501C000000000000000000000000000000000084
:10502C000000000000000000000000000000000074
:10503C000000000000000000000000000000000064
:10504C000000000000000000000000000000000054
:10505C000000000000000000000000000000000044
:10506C000000000000000000000000000000000034
:10507C0001000000000000000E33CDAB34126DE6D1
:10508C00ECDE05000B00000000000000000000003A
:10509C000000000000000000000000000000000004
:1050AC0000000000000000000000000000000000F4
:1050BC0000000000000000000000000000000000E4
:1050CC0000000000000000000000000000000000D4
:0453FC002800002065
:0454000000000000A8
:0400000508003A7540
:00000001FF
