:020000040800F2
:100000000040012009870008518700085187000837
:100010005187000851870008518700080000000040
:1000200000000000000000000000000051870008F0
:100030005187000800000000518700085187000820
:100040005187000851870008518700085187000830
:100050005187000851870008518700085187000820
:1000600051870008F92E00085187000851870008C1
:100070005187000851870008518700085187000800
:100080005187000851870008D506000851870008ED
:1000900051870008518700085187000851870008E0
:1000A00051870008518700085187000851870008D0
:1000B000192F000851870008518700085187000850
:1000C00051870008518700085187000851870008B0
:1000D000518700082509000851870008518700084A
:1000E00051870008952D00085187000851870008A6
:1000F0005187000800000000518700085187000860
:10010000518700085187000851870008518700086F
:10011000518700085187000851870008518700085F
:1001200051870008000000000000000000000000EF
:0C01300000000000000000005FF808F173
:1001400010B5054C237833B9044B13B10448AFF311
:1001500000800123237010BD7804002000000000FF
:10016000C88A0008084B10B51BB108480849AFF30E
:1001700000800848036803B910BD074B002BFBD073
:10018000BDE81040184700BF00000000C88A000802
:100190007C0400207404002000000000154B002B9C
:1001A00008BF134B9D46A3F5803A00218B460F46AE
:1001B0001348144A121A08F005FB0F4B002B00D00D
:1001C00098470E4B002B00D09847002000210400D8
:1001D0000D000D48002802D00C4808F0B5FB08F0CF
:1001E000C9FA2000290000F013F808F0B3FA00BFA4
:1001F00000000800000000000000000000000000F7
:10020000780400202C360020498900085589000810
:1002100080B500AF00F096FBFEE700BF80B500AFF1
:10022000144A144B1B6843F4807313601149114B3B
:100230009A68114B13408B600E4A0E4B1B6823F0DB
:10024000885323F0011313600A4A0A4B1B6823F4F6
:1002500080231360074A074B9B6823F47D03936058
:10026000044B0022DA6000F0B7F8044B4FF0006254
:100270009A6080BD003802400CC0FF8800ED00E0AD
:1002800080B487B000AF00237B6100233B61002373
:10029000FB600023BB6000237B60494B9B6803F03D
:1002A0000C037B617B690C2B64D801A252F823F00C
:1002B000E5020008750300087503000875030008CF
:1002C000050300087503000875030008750300089E
:1002D0000D03000875030008750300087503000886
:1002E00015030008364B5B6803F460435B0B7B60CF
:1002F0007B6801331A464FF4004393401A46314B52
:100300001A6047E02F4B304A1A6043E02D4B2F4ACA
:100310001A603FE02A4B9B6803F470133B61284B43
:100320009B6803F44003FB603B699B0C284AD35C49
:10033000DBB23B61FB689B0D0133FB60204B9B688C
:1003400003F48033BB60BB68002B09D13B691E4AB4
:1003500002FB03F2FB68B2FBF3F31A4A136019E0E5
:100360003B691A4A02FB03F2FB68B2FBF3F3154A3E
:1003700013600FE0124B5B6803F460435B0B7B6020
:100380007B6801331A464FF4004393401A460D4BE5
:100390001A6000BF0A4B9B6803F0F0031B090D4A6B
:1003A000D35CDBB27B61074B1A687B6922FA03F3EB
:1003B000044A13601C37BD465DF8047B704700BFDC
:1003C00000380240040000200024F40000127A00EB
:1003D000080000201400002080B483B000AF002388
:1003E0007B6000233B60404A3F4B1B6843F00103A6
:1003F00013603D4B1B6803F002033B603B68002B1E
:1004000003D17B68B3F5A04FF3D1374B1B6803F0E2
:100410000203002B02D001233B6001E000233B607C
:100420003B68012B5AD1314A304B1B6843F004031F
:1004300013602E4A2D4B1B6843F0020313602B4AB6
:100440002A4B1B6843F001031360274A264B5B6A63
:1004500043F080535362264B4FF400621A6000BF92
:10046000234B5B6803F01003002BF9D11E4A1E4B8F
:100470009B6893601C4A1C4B9B6893601A4A1A4BFA
:100480009B689360184A184B9B6823F47D03936024
:10049000154A154B9B6843F488039360124A124B2C
:1004A0001B6843F08073136000BF0F4B1B6803F0A1
:1004B0000073002BF9D00C4A0B4B9B6823F003030D
:1004C0009360094A084B9B6843F00303936000BFA5
:1004D000054B9B6803F00C030C2BF9D10C37BD4680
:1004E0005DF8047B704700BF00380240003C0240CA
:1004F00000700040509C00080000002074040020A0
:10050000780400202C36002080B500AF00F002F8FF
:1005100080BD00BF80B400AF244A244BDB6943F0A8
:100520000103D361214A214B1B6A43F40073136218
:100530001F4A1F4B1B6843F0300313601C4A1C4BBF
:100540009B6843F0300393601A4A1A4B1B6843F4CC
:1005500080231360174B174A92F81223D2B283F804
:100560001223154A144B5B6843F402635360124A2A
:10057000114B5B6943F4E07353610F4A0E4B1B6CE4
:1005800043F0020313640C4A0B4B9B6843F48063F3
:1005900043F00103936000BF074B1B6803F0400367
:1005A000002BF9D0BD465DF8047B7047003802404F
:1005B0000000024000E100E00024014080B584B06A
:1005C00000AF0346FB80B7F90630184607F05CFF22
:1005D0000346184607F040FB02460B4610461946F4
:1005E0004FF000022C4B07F0B5FC02460B461046BC
:1005F000194625A3D3E9002307F082FB02460B46E8
:100600001046194607F036FE0346FB60F86823499A
:1006100007F0FAFF0346002B01D064232DE0F868B1
:1006200007F01AFB02460B461046194618A3D3E9F9
:10063000002307F0D7FD0346002B01D000231CE068
:10064000F86807F009FB02460B46104619464FF0C2
:100650000002134B07F07EFC02460B46104619467B
:100660004FF000020F4B07F04BFB02460B461046C3
:10067000194607F0DFFD0346DBB218461037BD46CA
:1006800080BD00BFAFF300806666666666660A409E
:100690009A999999999903400000B0400000404010
:1006A000000008400000594080B400AF00BF084B74
:1006B0001B6803F00203002BF9D1054A044B9B6829
:1006C00043F080439360BD465DF8047B704700BFF4
:1006D0000024014080B500AF084B9B6D9BB21BB25C
:1006E0001846FFF76BFF03461A46054B1A70034A7C
:1006F000024B1B6823F00203136080BD00240140FD
:10070000D83500200000000080B500AF4FF416502F
:1007100000F016F8074800F0E7F84FF4E13000F079
:100720000FF8054800F0E0F8044800F0DDF800F0AC
:10073000BBF880BDE48A0008F08A0008FC8A000843
:1007400080B586B000AF78604FF000024FF0000334
:10075000C7E904230023FB600023FB724C4A4C4B87
:10076000DB6943F00103D361494A494B1B6A43F4F7
:1007700080431362474A474B1B6843F420131360BE
:10078000444A444B9B6843F420139360414A414BD5
:10079000DB6843F4A013D3603E4A3E4B5B6A43F4EC
:1007A000EE6353623C4A3C4B5B6843F0200353606A
:1007B000394B394A92F82523D2B283F82523374999
:1007C000364B9B899AB2364B13439BB28B817B6825
:1007D000DB00184607F01EFA02460B462AA1D1E9B3
:1007E000000107F0B7FB02460B46C7E90423D7E92F
:1007F000040107F01FFD03469BB2184607F01AFAE2
:1008000002460B46D7E9040107F0C6F802460B463C
:10081000104619464FF00002224B07F071FA0246CB
:100820000B461046194608F0FFF802460B461046E4
:10083000194607F0FFFC0346FB72FB7ADB08DBB2CC
:10084000184607F0F7F902460B4610461946D7E955
:10085000042307F0A3F802460B461046194607F09A
:10086000E9FC0346FB600D49FB689BB21B019AB291
:10087000FB7A9BB203F007039BB213439BB20B813D
:100880001837BD4680BD00BF0000000080847E4157
:10089000003802400000024000E100E00038014062
:1008A0000CA0FFFF0000204080B400AF054A054BBC
:1008B0009B899BB243F020039BB29381BD465DF8B8
:1008C000047B70470038014080B483B000AF03461A
:1008D000FB71044BFA7992B29A800C37BD465DF8F1
:1008E000047B70470038014080B582B000AF78606B
:1008F0000EE000BF0A4B1B889BB203F08003002B65
:10090000F8D07B685A1C7A601B781846FFF7DCFF2A
:100910007B681B78002BECD10837BD4680BD00BF3B
:100920000038014080B400AF054A054B1B889BB2DC
:1009300023F020039BB21380BD465DF8047B704713
:100940000038014080B500AF00F006F800F074F800
:1009500000F014F980BD00BF80B400AF304A304BC6
:10096000DB6943F00503D3612D4A2D4B5B6A43F0ED
:10097000020353622A4A2A4B1B6A43F480531362D0
:10098000284A284B1B6843F480731360254A254B83
:100990009B6843F400739360234A234B1B6843F422
:1009A00029431360204A204B9B6843F42A439360F9
:1009B0001D4A1D4B1B6A43F0A44343F4A00313627A
:1009C0001A4B80221A85194B40F61602DA62174A32
:1009D000164B1B8B9BB243F030039BB21383134A1D
:1009E000124B1B8C9BB243F001039BB213840F4B41
:1009F00040F616025A630E490D4B1B889AB20D4BF6
:100A000013439BB20B800A4A094B1B889BB243F0ED
:100A100040039BB21380BD465DF8047B704700BF66
:100A2000003802400008024000000240000400407C
:100A30000030014024C3FFFF80B400AF094A094BD6
:100A40009B8A9BB243F010039BB29382064A064BEB
:100A50001B889BB243F001039BB21380BD465DF837
:100A6000047B7047000802400004004080B400AFDF
:100A7000054B4FF6EF729A82044B4FF6FE721A80C6
:100A8000BD465DF8047B704700080240000400404A
:100A900080B584B000AF786000F0C8F8802000F026
:100AA000E1F80123FB8147E000BF334B1B899BB278
:100AB00003F00203002BF8D0FB89DBB2184600F0EC
:100AC0008FF80346184600F0CDF800237B731DE035
:100AD00000BF294B1B899BB203F00203002BF8D007
:100AE0007B685B68B7F90E20013A7968098809B21A
:100AF00001FB02F17A7B0A4413441B78DB43DBB22F
:100B0000184600F0AFF87B7B01337B737A7B7B6800
:100B10001B881BB29A42DBDB00BF174B1B899BB2C1
:100B200003F00203002BF8D0002000F09BF8FB89B3
:100B30009BB201339BB2FB817B685B88B7F90E20C7
:100B40001BB29A42B0DD00BF0B4B1B899BB203F076
:100B50000203002BF8D0002000F084F800BF064B01
:100B60001B899BB203F08003002BF8D100F06EF8D4
:100B70001037BD4680BD00BF0030014080B500AFDA
:100B800000F054F800BF154B1B899BB203F0020321
:100B9000002BF8D0202000F065F800BF0F4B1B8918
:100BA0009BB203F00203002BF8D0002000F05AF8AB
:100BB00000BF0A4B1B899BB203F00203002BF8D045
:100BC000002000F04FF800BF044B1B899BB203F0DC
:100BD0008003002BF8D100F039F880BD00300140CF
:100BE00080B483B000AF0346FB71FA7913469B02D1
:100BF00013445B000B4A1A40F9790B469B020B44E5
:100C00005B011946084B0B401A4313461B02134461
:100C10001B0213441B0CDBB218460C37BD465DF8B3
:100C2000047B7047102102004084080080B400AFAC
:100C3000054A054B9B8A9BB243F010039BB29382FB
:100C4000BD465DF8047B70470000024080B400AFF1
:100C5000034B4FF6EF729A82BD465DF8047B7047F6
:100C60000000024080B483B000AF0346FB71044B28
:100C7000FA7992B29A810C37BD465DF8047B7047D1
:100C80000030014080B483B000AF78607B681022F0
:100C90001A807B6880225A807B68034A5A600C372E
:100CA000BD465DF8047B70479404002080B588B091
:100CB00000AF0023FB82FB8ABB823B46184601F053
:100CC0004BF807F118033A4692E8030083E8030063
:100CD00001233B7307F114033B6107F10C03184632
:100CE00000F06CFF2037BD4680BD00BF80B58AB0E4
:100CF00000AF0346FB736E23BB830323FB83FB7BA5
:100D0000092B0BD83B46184601F042F807F12003A7
:100D10003A4692E8030083E8030040E0FB7B092B9E
:100D20000ED9FB7B192B0BD83B46184601F04CF82B
:100D300007F120033A4692E8030083E803002EE01F
:100D4000FB7B192B0ED9FB7B322B0BD83B4618466D
:100D500001F056F807F120033A4692E8030083E8D1
:100D600003001CE0FB7B322B0ED9FB7B4B2B0BD8FB
:100D70003B46184601F060F807F120033A4692E836
:100D8000030083E803000AE03B46184601F070F8D0
:100D900007F120033A4692E8030083E803000123A9
:100DA0003B7507F11C03BB6107F11403184600F003
:100DB00005FF2837BD4680BD80B588B000AF03234E
:100DC000BB820323FB823B46184601F06DF807F116
:100DD00018033A4692E8030083E8030001233B73BB
:100DE00007F114033B6107F10C03184600F0E6FE1F
:100DF0002037BD4680BD00BF80B588B000AF03235B
:100E0000BB820323FB823B46184601F0A1F807F1A1
:100E100018033A4692E8030083E8030001233B737A
:100E200007F114033B6107F10C03184600F0C6FEFE
:100E30002037BD4680BD00BF80B588B000AF162307
:100E4000BB820323FB823B46184601F049F807F1B9
:100E500018033A4692E8030083E8030001233B733A
:100E600007F114033B6107F10C03184600F0A6FEDE
:100E70002037BD4680BD00BF80B588B000AF1623C7
:100E8000BB820323FB823B46184601F061F807F161
:100E900018033A4692E8030083E8030001233B73FA
:100EA00007F114033B6107F10C03184600F086FEBE
:100EB0002037BD4680BD00BF80B588B000AF2A2373
:100EC000BB820323FB823B46184601F025F807F15D
:100ED00018033A4692E8030083E8030001233B73BA
:100EE00007F114033B6107F10C03184600F066FE9E
:100EF0002037BD4680BD00BF80B588B000AF2A2333
:100F0000BB820323FB823B46184601F021F807F120
:100F100018033A4692E8030083E8030001233B7379
:100F200007F114033B6107F10C03184600F046FE7D
:100F30002037BD4680BD00BF90B591B000AF0346DD
:100F4000FB733D2387F83E30FB7B632B01D9632382
:100F5000FB73002387F83F3052E197F83F2097F862
:100F60003E3099B213465B0013449B0007F14002E8
:100F70001344283B0A461A8097F83F2013465B002B
:100F800013449B0007F140021344283B03225A807C
:100F900097F83F30002B03D097F83F30012B33D127
:100FA00097F83F30002B06D1FB7B9E4AA2FB032320
:100FB000DB08DBB20AE0FA7B9A4BA3FB0213D908E9
:100FC0000B469B000B445B00D31ADBB287F83D3025
:100FD00097F83D30092B00F2098101A252F823F065
:100FE00035100008611000088D100008B9100008C5
:100FF000E5100008111100083D11000869110008F2
:1010000095110008C111000897F83F2013465B00B6
:1010100013449B0007F140021344A3F128043B460C
:10102000184601F0E5F8231D3A4692E8030083E8EC
:101030000300DBE097F83F2013465B0013449B005E
:1010400007F140021344A3F128043B46184600F080
:101050009BFF231D3A4692E8030083E80300C5E0A6
:1010600097F83F2013465B0013449B0007F14002B2
:101070001344A3F128043B46184600F0A1FF231DAA
:101080003A4692E8030083E80300AFE097F83F2078
:1010900013465B0013449B0007F140021344A3F185
:1010A00028043B46184600F0A7FF231D3A4692E865
:1010B000030083E8030099E097F83F2013465B00A4
:1010C00013449B0007F140021344A3F128043B465C
:1010D000184600F0ADFF231D3A4692E8030083E86E
:1010E000030083E097F83F2013465B0013449B0006
:1010F00007F140021344A3F128043B46184600F0D0
:10110000B3FF231D3A4692E8030083E803006DE035
:1011100097F83F2013465B0013449B0007F1400201
:101120001344A3F128043B46184600F0B9FF231DE1
:101130003A4692E8030083E8030057E097F83F201F
:1011400013465B0013449B0007F140021344A3F1D4
:1011500028043B46184600F0BFFF231D3A4692E89C
:10116000030083E8030041E097F83F2013465B004B
:1011700013449B0007F140021344A3F128043B46AB
:10118000184600F0C5FF231D3A4692E8030083E8A5
:1011900003002BE097F83F2013465B0013449B00AD
:1011A00007F140021344A3F128043B46184600F01F
:1011B000CBFF231D3A4692E8030083E8030015E0C5
:1011C00097F83F2013465B0013449B0007F1400251
:1011D0001344A3F128043B46184600F0D1FF231D19
:1011E0003A4692E8030083E8030000BF97F83F30D7
:1011F000013387F83F3097F83E30083387F83E30A8
:1012000097F83F30022B7FF6A8AE03233B7407F11B
:1012100018037B6107F11003184600F0CFFC443738
:10122000BD4690BDCDCCCCCC90B591B000AF0346BF
:10123000FB73552387F83E30FB7B3C2B01D93C23C5
:10124000FB73002387F83F3052E197F83F2097F86F
:101250003E3099B213465B0013449B0007F14002F5
:101260001344283B0A461A8097F83F2013465B0038
:1012700013449B0007F140021344283B03225A8089
:1012800097F83F30002B03D097F83F30012B33D134
:1012900097F83F30002B06D1FB7B9E4AA2FB03232D
:1012A000DB08DBB20AE0FA7B9A4BA3FB0213D908F6
:1012B0000B469B000B445B00D31ADBB287F83D3032
:1012C00097F83D30092B00F2098101A252F823F072
:1012D00025130008511300087D130008A913000806
:1012E000D5130008011400082D1400085914000833
:1012F00085140008B114000897F83F2013465B00DE
:1013000013449B0007F140021344A3F128043B4619
:10131000184600F0A5FF231D3A4692E8030083E833
:101320000300DBE097F83F2013465B0013449B006B
:1013300007F140021344A3F128043B46184600F08D
:1013400023FE231D3A4692E8030083E80300C5E02C
:1013500097F83F2013465B0013449B0007F14002BF
:101360001344A3F128043B46184600F029FE231D30
:101370003A4692E8030083E80300AFE097F83F2085
:1013800013465B0013449B0007F140021344A3F192
:1013900028043B46184600F02FFE231D3A4692E8EB
:1013A000030083E8030099E097F83F2013465B00B1
:1013B00013449B0007F140021344A3F128043B4669
:1013C000184600F035FE231D3A4692E8030083E8F4
:1013D000030083E097F83F2013465B0013449B0013
:1013E00007F140021344A3F128043B46184600F0DD
:1013F0003BFE231D3A4692E8030083E803006DE0BC
:1014000097F83F2013465B0013449B0007F140020E
:101410001344A3F128043B46184600F041FE231D67
:101420003A4692E8030083E8030057E097F83F202C
:1014300013465B0013449B0007F140021344A3F1E1
:1014400028043B46184600F047FE231D3A4692E822
:10145000030083E8030041E097F83F2013465B0058
:1014600013449B0007F140021344A3F128043B46B8
:10147000184600F04DFE231D3A4692E8030083E82B
:1014800003002BE097F83F2013465B0013449B00BA
:1014900007F140021344A3F128043B46184600F02C
:1014A00053FE231D3A4692E8030083E8030015E04B
:1014B00097F83F2013465B0013449B0007F140025E
:1014C0001344A3F128043B46184600F059FE231D9F
:1014D0003A4692E8030083E8030000BF97F83F30E4
:1014E000013387F83F3097F83E30083387F83E30B5
:1014F00097F83F30022B7FF6A8AE03233B7407F129
:1015000018037B6107F11003184600F057FB4437BE
:10151000BD4690BDCDCCCCCC90B5A1B000AF0346BC
:10152000FB730B46BB7313467B73012387F87D3037
:10153000002387F87F3095E197F87F2097F87D307A
:1015400099B213465B0013449B0007F180021344D9
:10155000643B0A461A8097F87F2013465B001344C9
:101560009B0007F180021344643B1E225A8097F8C7
:101570007F30002B03D097F87F30012B18D197F8DC
:101580007F30002B06D1FB7BBF4AA2FB0323DB0885
:10159000DBB20AE0FA7BBC4BA3FB0213D9080B4673
:1015A0009B000B445B00D31ADBB287F87E3057E018
:1015B00097F87F30032B03D097F87F30042B18D196
:1015C00097F87F30032B06D1BB7BAF4AA2FB0323E6
:1015D000DB08DBB20AE0BA7BAB4BA3FB0213D908F2
:1015E0000B469B000B445B00D31ADBB287F87E30BE
:1015F00036E097F87F30062B03D097F87F30072B23
:1016000018D197F87F30062B06D17B7B9E4AA2FB30
:101610000323DB08DBB20AE07A7B9B4BA3FB0213BC
:10162000D9080B469B000B445B00D31ADBB287F84A
:101630007E3015E097F87F2013465B0013449B0033
:1016400007F180021344A3F164043B46184600F0FE
:1016500003FF231D3A4692E8030083E80300F7E006
:1016600097F87E30092B00F2F38001A252F823F0A4
:1016700099160008C5160008F11600081D17000885
:101680004917000875170008A1170008CD170008B2
:10169000F91700082518000897F87F2013465B000B
:1016A00013449B0007F180021344A3F164043B46FA
:1016B000184600F081FD231D3A4692E8030083E8B6
:1016C0000300C5E097F87F2013465B0013449B009E
:1016D00007F180021344A3F164043B46184600F06E
:1016E000A3FD231D3A4692E8030083E80300AFE020
:1016F00097F87F2013465B0013449B0007F180029C
:101700001344A3F164043B46184600F0C5FD231DB5
:101710003A4692E8030083E8030099E097F87F20B7
:1017200013465B0013449B0007F180021344A3F1AE
:1017300064043B46184600F0CBFD231D3A4692E870
:10174000030083E8030083E097F87F2013465B00E3
:1017500013449B0007F180021344A3F164043B4649
:10176000184600F0D1FD231D3A4692E8030083E8B5
:1017700003006DE097F87F2013465B0013449B0045
:1017800007F180021344A3F164043B46184600F0BD
:10179000D7FD231D3A4692E8030083E8030057E093
:1017A00097F87F2013465B0013449B0007F18002EB
:1017B0001344A3F164043B46184600F0DDFD231DED
:1017C0003A4692E8030083E8030041E097F87F205F
:1017D00013465B0013449B0007F180021344A3F1FE
:1017E00064043B46184600F0E3FD231D3A4692E8A8
:1017F000030083E803002BE097F87F2013465B008B
:1018000013449B0007F180021344A3F164043B4698
:10181000184600F0E9FD231D3A4692E8030083E8EC
:10182000030015E097F87F2013465B0013449B00EC
:1018300007F180021344A3F164043B46184600F00C
:10184000EFFD231D3A4692E8030083E8030000BF42
:1018500097F87F30013387F87F3097F87D30103369
:1018600087F87D3097F87F30072B7FF665AE082329
:101870003B7507F11C03BB6107F11403184600F028
:101880009DF98437BD4690BDCDCCCCCC90B597B0FA
:1018900000AF03460A46FB731346BB73022387F867
:1018A0005530002387F8573074E197F8572097F8A0
:1018B000553099B213465B0013449B0007F1580260
:1018C0001344403B0A461A8097F8572013465B00A2
:1018D00013449B0007F158021344403B50225A80A6
:1018E00097F85730002B03D097F85730012B18D1B9
:1018F00097F85730002B06D1FB7BAF4AA2FB03239E
:10190000DB08DBB20AE0FA7BAB4BA3FB0213D9087E
:101910000B469B000B445B00D31ADBB287F85630B2
:1019200036E097F85730032B03D097F85730042B45
:1019300018D197F85730032B06D1BB7B9E4AA2FBE8
:101940000323DB08DBB20AE0BA7B9B4BA3FB021349
:10195000D9080B469B000B445B00D31ADBB287F817
:10196000563015E097F8572013465B0013449B0050
:1019700007F158021344A3F140043B46184600F017
:101980009FFE231D3A4692E8030083E80300F7E038
:1019900097F85630092B00F2F38001A252F823F099
:1019A000C9190008F5190008211A00084D1A000885
:1019B000791A0008A51A0008D11A0008FD1A0008B3
:1019C000291B0008551B000897F8572013465B0099
:1019D00013449B0007F158021344A3F140043B4613
:1019E000184600F055FD231D3A4692E8030083E8AF
:1019F0000300C5E097F8572013465B0013449B0093
:101A000007F158021344A3F140043B46184600F086
:101A10005BFD231D3A4692E8030083E80300AFE034
:101A200097F8572013465B0013449B0007F15802B8
:101A30001344A3F140043B46184600F061FD231D0A
:101A40003A4692E8030083E8030099E097F85720AC
:101A500013465B0013449B0007F158021344A3F1A3
:101A600040043B46184600F067FD231D3A4692E8C5
:101A7000030083E8030083E097F8572013465B00D8
:101A800013449B0007F158021344A3F140043B4662
:101A9000184600F06DFD231D3A4692E8030083E8E6
:101AA00003006DE097F8572013465B0013449B003A
:101AB00007F158021344A3F140043B46184600F0D6
:101AC00073FD231D3A4692E8030083E8030057E0C4
:101AD00097F8572013465B0013449B0007F1580208
:101AE0001344A3F140043B46184600F079FD231D42
:101AF0003A4692E8030083E8030041E097F8572054
:101B000013465B0013449B0007F158021344A3F1F2
:101B100040043B46184600F07FFD231D3A4692E8FC
:101B2000030083E803002BE097F8572013465B007F
:101B300013449B0007F158021344A3F140043B46B1
:101B4000184600F085FD231D3A4692E8030083E81D
:101B5000030015E097F8572013465B0013449B00E1
:101B600007F158021344A3F140043B46184600F025
:101B70008BFD231D3A4692E8030083E8030000BF73
:101B800097F85730013387F8573097F855301933A5
:101B900087F8553097F85730042B7FF686AE05232B
:101BA0003B7407F118037B6107F11003184600F03E
:101BB00005F85C37BD4690BDCDCCCCCCB0B588B077
:101BC00000AF78600023FB777CE07B685968FA7F80
:101BD00013465B0013449B00CA1807F10C0307CAA5
:101BE00083E80700FB893B83BB897B830023BB839E
:101BF0005BE0B7F91830DA01B7F91A301344002B5B
:101C000000DA0733DB101A46334BD518B7F91A2020
:101C1000324B1340002B03DA013B63F0070301331F
:101C20009BB2DBB2C3F10703DCB27A69B7F91C30AF
:101C3000002B00DA0733DB109BB21BB21344197878
:101C4000B7F91C20254B1340002B03DA013B63F04E
:101C5000070301339BB2DBB2C3F10703DBB20846D3
:101C6000194600F03DF80346284621461A4600F082
:101C70004DF8B7F91A20BB8919B23B8A1BB20B4445
:101C8000013B9A4207D13B8B9BB201339BB23B8312
:101C9000BB897B8304E07B8B9BB201339BB27B834C
:101CA000BB8B9BB201339BB2BB83B7F91C203B8A31
:101CB0001BB2798A09B201FB03F39A4299DBFB7FDD
:101CC0000133FB777B681B78FA7F9A42FFF47DAF84
:101CD0002037BD46B0BD00BF94040020070000803F
:101CE00080B483B000AF03460A46FB711346BB7154
:101CF000FA79BB7942FA03F3DBB203F00103DBB2FA
:101D000018460C37BD465DF8047B704780B483B03D
:101D100000AF78600B46FB701346BB707B681B7886
:101D2000D9B2FB78012202FA03F3DBB2DB43DBB268
:101D30000A461340D9B2BA78FB7802FA03F3DBB251
:101D40000A461343DBB2DAB27B681A700C37BD4621
:101D50005DF8047B704700BF80B485B000AF786049
:101D60000A4A07F1080392E8030083E803007B684E
:101D70001A4607F1080393E8030082E80300786835
:101D80001437BD465DF8047B704700BFBC9A00085D
:101D900080B485B000AF78600A4A07F1080392E882
:101DA000030083E803007B681A4607F1080393E801
:101DB000030082E8030078681437BD465DF8047BB1
:101DC000704700BFC49A000880B485B000AF786047
:101DD0000A4A07F1080392E8030083E803007B68DE
:101DE0001A4607F1080393E8030082E803007868C5
:101DF0001437BD465DF8047B704700BFCC9A0008DD
:101E000080B485B000AF78600A4A07F1080392E811
:101E1000030083E803007B681A4607F1080393E890
:101E2000030082E8030078681437BD465DF8047B40
:101E3000704700BFD49A000880B485B000AF7860C6
:101E40000A4A07F1080392E8030083E803007B686D
:101E50001A4607F1080393E8030082E80300786854
:101E60001437BD465DF8047B704700BFDC9A00085C
:101E700080B485B000AF78600A4A07F1080392E8A1
:101E8000030083E803007B681A4607F1080393E820
:101E9000030082E8030078681437BD465DF8047BD0
:101EA000704700BFE49A000880B485B000AF786046
:101EB0000A4A07F1080392E8030083E803007B68FD
:101EC0001A4607F1080393E8030082E803007868E4
:101ED0001437BD465DF8047B704700BFEC9A0008DC
:101EE00080B485B000AF78600A4A07F1080392E831
:101EF000030083E803007B681A4607F1080393E8B0
:101F0000030082E8030078681437BD465DF8047B5F
:101F1000704700BFF49A000880B485B000AF7860C5
:101F20000A4A07F1080392E8030083E803007B688C
:101F30001A4607F1080393E8030082E80300786873
:101F40001437BD465DF8047B704700BFFC9A00085B
:101F500080B485B000AF78600A4A07F1080392E8C0
:101F6000030083E803007B681A4607F1080393E83F
:101F7000030082E8030078681437BD465DF8047BEF
:101F8000704700BF049B000880B485B000AF786044
:101F90000A4A07F1080392E8030083E803007B681C
:101FA0001A4607F1080393E8030082E80300786803
:101FB0001437BD465DF8047B704700BF0C9B0008DA
:101FC00080B485B000AF78600A4A07F1080392E850
:101FD000030083E803007B681A4607F1080393E8CF
:101FE000030082E8030078681437BD465DF8047B7F
:101FF000704700BF149B000880B485B000AF7860C4
:102000000A4A07F1080392E8030083E803007B68AB
:102010001A4607F1080393E8030082E80300786892
:102020001437BD465DF8047B704700BF1C9B000859
:1020300080B485B000AF78600A4A07F1080392E8DF
:10204000030083E803007B681A4607F1080393E85E
:10205000030082E8030078681437BD465DF8047B0E
:10206000704700BF249B000880B485B000AF786043
:102070000A4A07F1080392E8030083E803007B683B
:102080001A4607F1080393E8030082E80300786822
:102090001437BD465DF8047B704700BF2C9B0008D9
:1020A00080B485B000AF78600A4A07F1080392E86F
:1020B000030083E803007B681A4607F1080393E8EE
:1020C000030082E8030078681437BD465DF8047B9E
:1020D000704700BF349B000880B485B000AF7860C3
:1020E0000A4A07F1080392E8030083E803007B68CB
:1020F0001A4607F1080393E8030082E803007868B2
:102100001437BD465DF8047B704700BF3C9B000858
:1021100080B485B000AF78600A4A07F1080392E8FE
:10212000030083E803007B681A4607F1080393E87D
:10213000030082E8030078681437BD465DF8047B2D
:10214000704700BF449B000880B485B000AF786042
:102150000A4A07F1080392E8030083E803007B685A
:102160001A4607F1080393E8030082E80300786841
:102170001437BD465DF8047B704700BF4C9B0008D8
:1021800080B485B000AF78600A4A07F1080392E88E
:10219000030083E803007B681A4607F1080393E80D
:1021A000030082E8030078681437BD465DF8047BBD
:1021B000704700BF549B000880B485B000AF7860C2
:1021C0000A4A07F1080392E8030083E803007B68EA
:1021D0001A4607F1080393E8030082E803007868D1
:1021E0001437BD465DF8047B704700BF5C9B000858
:1021F00080B485B000AF78600A4A07F1080392E81E
:10220000030083E803007B681A4607F1080393E89C
:10221000030082E8030078681437BD465DF8047B4C
:10222000704700BF649B000880B485B000AF786041
:102230000A4A07F1080392E8030083E803007B6879
:102240001A4607F1080393E8030082E80300786860
:102250001437BD465DF8047B704700BF6C9B0008D7
:1022600080B485B000AF78600A4A07F1080392E8AD
:10227000030083E803007B681A4607F1080393E82C
:10228000030082E8030078681437BD465DF8047BDC
:10229000704700BF749B000880B485B000AF7860C1
:1022A0000A4A07F1080392E8030083E803007B6809
:1022B0001A4607F1080393E8030082E803007868F0
:1022C0001437BD465DF8047B704700BF7C9B000857
:1022D00080B485B000AF78600A4A07F1080392E83D
:1022E000030083E803007B681A4607F1080393E8BC
:1022F000030082E8030078681437BD465DF8047B6C
:10230000704700BF849B000880B485B000AF786040
:102310000A4A07F1080392E8030083E803007B6898
:102320001A4607F1080393E8030082E8030078687F
:102330001437BD465DF8047B704700BF8C9B0008D6
:1023400080B485B000AF78600A4A07F1080392E8CC
:10235000030083E803007B681A4607F1080393E84B
:10236000030082E8030078681437BD465DF8047BFB
:10237000704700BF949B000880B485B000AF7860C0
:102380000A4A07F1080392E8030083E803007B6828
:102390001A4607F1080393E8030082E8030078680F
:1023A0001437BD465DF8047B704700BF9C9B000856
:1023B00080B485B000AF78600A4A07F1080392E85C
:1023C000030083E803007B681A4607F1080393E8DB
:1023D000030082E8030078681437BD465DF8047B8B
:1023E000704700BFA49B000880B485B000AF786040
:1023F0000A4A07F1080392E8030083E803007B68B8
:102400001A4607F1080393E8030082E8030078689E
:102410001437BD465DF8047B704700BFAC9B0008D5
:1024200080B485B000AF78600A4A07F1080392E8EB
:10243000030083E803007B681A4607F1080393E86A
:10244000030082E8030078681437BD465DF8047B1A
:10245000704700BFB49B000880B485B000AF7860BF
:102460000A4A07F1080392E8030083E803007B6847
:102470001A4607F1080393E8030082E8030078682E
:102480001437BD465DF8047B704700BFBC9B000855
:1024900080B485B000AF78600A4A07F1080392E87B
:1024A000030083E803007B681A4607F1080393E8FA
:1024B000030082E8030078681437BD465DF8047BAA
:1024C000704700BFC49B000880B485B000AF78603F
:1024D0000A4A07F1080392E8030083E803007B68D7
:1024E0001A4607F1080393E8030082E803007868BE
:1024F0001437BD465DF8047B704700BFCC9B0008D5
:1025000080B485B000AF78600A4A07F1080392E80A
:10251000030083E803007B681A4607F1080393E889
:10252000030082E8030078681437BD465DF8047B39
:10253000704700BFD49B000880B485B000AF7860BE
:102540000A4A07F1080392E8030083E803007B6866
:102550001A4607F1080393E8030082E8030078684D
:102560001437BD465DF8047B704700BFDC9B000854
:1025700080B485B000AF78600A4A07F1080392E89A
:10258000030083E803007B681A4607F1080393E819
:10259000030082E8030078681437BD465DF8047BC9
:1025A000704700BFE49B000880B485B000AF78603E
:1025B0000A4A07F1080392E8030083E803007B68F6
:1025C0001A4607F1080393E8030082E803007868DD
:1025D0001437BD465DF8047B704700BFEC9B0008D4
:1025E00080B485B000AF78600A4A07F1080392E82A
:1025F000030083E803007B681A4607F1080393E8A9
:10260000030082E8030078681437BD465DF8047B58
:10261000704700BFF49B000880B485B000AF7860BD
:102620000A4A07F1080392E8030083E803007B6885
:102630001A4607F1080393E8030082E8030078686C
:102640001437BD465DF8047B704700BFFC9B000853
:1026500080B485B000AF78600A4A07F1080392E8B9
:10266000030083E803007B681A4607F1080393E838
:10267000030082E8030078681437BD465DF8047BE8
:10268000704700BF049C000880B485B000AF78603C
:102690000A4A07F1080392E8030083E803007B6815
:1026A0001A4607F1080393E8030082E803007868FC
:1026B0001437BD465DF8047B704700BF0C9C0008D2
:1026C00080B485B000AF78600A4A07F1080392E849
:1026D000030083E803007B681A4607F1080393E8C8
:1026E000030082E8030078681437BD465DF8047B78
:1026F000704700BF149C000880B500AF00F002F8DE
:1027000080BD00BF80B400AF274A274BDB6943F090
:102710000203D361244A244B5B6A43F400135362DF
:10272000224A224B1B6843F4204313601F4A1F4B6D
:102730009B889BB243F0C0039BB293801B4A1B4B08
:102740009B6843F420439360184A184BDB6843F4BA
:102750008053D360154A154B1B6A43F088431362BC
:10276000134A134B9B8B9BB243F0A0039BB2938302
:102770000F4A0F4B1B8C9BB243F021039BB2138477
:102780000B4A0B4B9B889BB243F020039BB2938078
:10279000074A074B1B889BB243F001039BB213808F
:1027A000BD465DF8047B70470038024000040240DB
:1027B0000054004080B582B000AF0346FB7100BFFB
:1027C000224B1B8B9BB203F00203002BF8D100F0CD
:1027D000ABF800BF1D4B9B8A9BB203F00103002B9B
:1027E000F8D04020002100F0BFF800BF174B9B8AB3
:1027F0009BB203F00203002BF8D000BF134B1B8BDE
:102800009BB203F00403002BF8D000BF0F4B9B8A50
:102810009BB203F08003002BF8D0FB79184600F040
:10282000C1F800BF094B9B8A9BB203F00403002B45
:10283000F8D000F089F800BF044B9B8A9BB203F0EC
:102840001003002BF8D10837BD4680BD005400406E
:1028500080B582B000AF334A324B1B889BB243F441
:1028600080639BB2138000BF2E4B1B8B9BB203F087
:102870000203002BF8D100F057F800BF294B9B8AC8
:102880009BB203F00103002BF8D04020012100F09F
:102890006BF800BF234B9B8A9BB203F00203002B13
:1028A000F8D000BF1F4B1B8B9BB203F00403002B1F
:1028B000F8D100BF1B4B9B8A9BB203F04003002B57
:1028C000F8D0184B1B8A9BB2FB7100BF154B9B8A3B
:1028D0009BB203F04003002BF8D0124B1B8A9BB233
:1028E000BB71104A0F4B1B889BB223F480639BB2D1
:1028F000138000F029F800BF0A4B9B8A9BB203F0BB
:102900001003002BF8D1FB791B029AB2BB799BB262
:1029100013439BB29BB223F003039BB218460837C4
:10292000BD4680BD0054004080B400AF054A054B51
:102930001B889BB243F480739BB21380BD465DF845
:10294000047B70470054004080B400AF054A054B3B
:102950001B889BB243F400739BB21380BD465DF8A5
:10296000047B70470054004080B483B000AF03463E
:102970000A46FB711346BB71FB795B00FB71BB79A7
:10298000012B03D1FB7943F00103FB71044BFA796E
:1029900092B21A820C37BD465DF8047B704700BFC7
:1029A0000054004080B483B000AF0346FB71044B79
:1029B000FA7992B21A820C37BD465DF8047B7047F3
:1029C0000054004080B500AF00F002F880BD00BFA9
:1029D00080B400AF454A454B5B6A43F08053536275
:1029E000434A434B1B6843F4807313603F4A3F4B99
:1029F0005B6B43F4000353633C4A3C4B5B6B23F437
:102A000000035363394A394B5B6B43F48073536360
:102A100000BF364B5B6B03F40073002BF9D0334AD5
:102A2000324B5B6B43F482035363324A314B5B6A34
:102A300043F0CA0353622F4A2E4B5B6A43F05303A1
:102A400053622C4A2B4BDB6843F08003D36000BFFA
:102A5000284BDB6803F04003002BF9D0254A254BB7
:102A60001B6943F0FA031361224A224B1B6943F4AA
:102A70000003136100BF1F4BDB6803F00103002B51
:102A8000F9D01C4A1B4BDB6943F0802343F400035D
:102A9000D361184A174B9B6843F488539360154AD7
:102AA000144BDB6823F08003D360124BFF225A6281
:102AB000114A114B1B6843F4003313600E4A0E4B4E
:102AC0009B6843F4003393600C4A0C4B5B6843F4FF
:102AD00000735360094B094A92F82923D2B283F854
:102AE0002923BD465DF8047B704700BF00380240D3
:102AF00000700040002800400004014000E100E0B8
:102B000090B482B000AF3B4683E80300554A554B72
:102B10005B6A43F0CA035362524A524B5B6A43F00A
:102B2000530353624F4A4F4BDB6843F08003D3603B
:102B300000BF4C4BDB6803F04003002BF9D0494C3D
:102B4000FB78494AA2FB0323DB08DBB21805FA78BD
:102B5000454BA3FB0213D9080B469B000B445B00BB
:102B6000D31ADBB21B0440EA03023B793E49A1FBC6
:102B70000313DB08DBB21B0342EA03003A793A4B4A
:102B8000A3FB0213D9080B469B000B445B00D31A2E
:102B9000DBB21B0240EA03027B793349A1FB03133A
:102BA000DB08DBB21B0142EA03007A792E4BA3FB60
:102BB0000213D9080B469B000B445B00D31ADBB20F
:102BC00003432360274CBB78274AA2FB0323DB087F
:102BD000DBB21805BA78244BA3FB0213D9080B46C5
:102BE0009B000B445B00D31ADBB21B0440EA0302D8
:102BF0007B781D49A1FB0313DB08DBB21B0342EA10
:102C000003007A78184BA3FB0213D9080B469B00EC
:102C10000B445B00D31ADBB21B0240EA03023B7891
:102C20001149A1FB0313DB08DBB21B0142EA0300DD
:102C30003A780D4BA3FB0213D9080B469B000B44BB
:102C40005B00D31ADBB203436360064A054BDB68C3
:102C500023F08003D360034BFF225A620837BD463E
:102C600090BC704700280040CDCCCCCC80B487B05D
:102C700000AF7860464A464BDB6823F02003D36000
:102C800000BF434BDB6803F02003002BF9D0404B1F
:102C90001B687B617B6903F440131B0DDBB21A4692
:102CA000920013445B00DAB27B6903F470231B0CBF
:102CB000DBB21344DBB2FB737B6903F4E0431B0B11
:102CC000DBB21A46920013445B00DAB27B6903F46C
:102CD00070631B0ADBB21344DBB23B747B6903F005
:102CE00070031B09DBB21A46920013445B00DAB290
:102CF0007B69DBB203F00F03DBB21344DBB27B74FE
:102D0000234B5B687B617B6903F470031B0DDBB2B3
:102D10001A46920013445B00DAB27B6903F4702315
:102D20001B0CDBB21344DBB2BB737B6903F480532F
:102D30001B0BDBB21A46920013445B00DAB27B69CC
:102D400003F470631B0ADBB21344DBB27B737B6951
:102D500003F030031B09DBB21A46920013445B00F8
:102D6000DAB27B69DBB203F00F03DBB21344DBB2F0
:102D70003B737B681A4607F10C03186810609B8848
:102D8000938078681C37BD465DF8047B704700BFB0
:102D90000028004080B400AF074A074BDB6823F4EB
:102DA0008073D360054A054B5B6943F4003353617C
:102DB000BD465DF8047B70470028004000040140D8
:102DC00080B500AF00F002F880BD00BF80B400AF56
:102DD000274A274B1B6A43F001031362244A244B02
:102DE000DB6943F00103D361214A214B5B6A43F065
:102DF000010353621F4A1F4BDB6843F04003D3605B
:102E00001D4A1D4B1B6843F0080313601A4A1A4BF6
:102E1000DB6843F00803D360184A184B1B6843F083
:102E2000805343F400731360144B144A92F809233F
:102E3000D2B283F80923114B104A92F81C23D2B264
:102E400083F81C234FF0804380221A854FF0804383
:102E5000FA22DA624FF080424FF080439B899BB2A6
:102E600043F001039BB29381BD465DF8047B70473C
:102E700000380240000002400004014000E100E090
:102E800080B400AF044A044B1B6843F0080313608E
:102E9000BD465DF8047B70470004014080B400AF7C
:102EA000044A044B1B6823F008031360BD465DF819
:102EB000047B70470004014080B400AF4FF08042B3
:102EC0004FF080431B889BB243F001039BB21380F9
:102ED000BD465DF8047B704780B400AF4FF0804280
:102EE0004FF080431B889BB223F001039BB21380F9
:102EF000BD465DF8047B704780B500AFFFF7CEFF9D
:102F0000FFF7DAFF034A034B5B6943F008035361A1
:102F100080BD00BF0004014080B500AF194B1B8A83
:102F20009BB203F00803DB10DAB2174B1A70164B92
:102F30001A78164B1B789A4206D1154B1B88013321
:102F40009AB2134B1A8002E0114B00221A80104BE8
:102F50001B88642B06D10E4B00221A80FFF7BCFFA2
:102F6000FFF78EFF084B1A78084B1A704FF080421B
:102F70004FF080431B8A9BB223F001039BB2138264
:102F800080BD00BF00000240940C0020950C002082
:102F9000960C002080B483B000AF78607B6803F1AA
:102FA00008027B685A607B684FF0FF329A607B684A
:102FB00003F108027B68DA607B6803F108027B6832
:102FC0001A617B6800221A600C37BD465DF8047BED
:102FD000704700BF80B483B000AF78607B68002288
:102FE0001A610C37BD465DF8047B704780B485B02C
:102FF00000AF786039607B685B68FB603B68FA68AB
:103000005A60FB689A683B689A60FB689B683A68FC
:103010005A60FB683A689A603B687A681A617B6814
:103020001B685A1C7B681A601437BD465DF8047B28
:10303000704700BF80B485B000AF786039603B68EE
:103040001B68BB60BB68B3F1FF3F03D17B681B69A2
:10305000FB600CE07B680833FB6002E0FB685B68A8
:10306000FB60FB685B681A68BB689A42F6D9FB682C
:103070005A683B685A603B685B683A689A603B688C
:10308000FA689A60FB683A685A603B687A681A6125
:103090007B681B685A1C7B681A601437BD465DF854
:1030A000047B704780B485B000AF78607B681B6993
:1030B000FB607B685B687A6892689A607B689B6853
:1030C0007A6852685A60FB685A687B689A4203D1F2
:1030D0007B689A68FB685A607B6800221A61FB680B
:1030E0001B685A1EFB681A60FB681B681846143779
:1030F000BD465DF8047B704780B584B000AF786052
:1031000039607B68FB6002F023FBFB681A68FB6890
:10311000DB6BF968096C01FB03F31A44FB685A6026
:10312000FB6800229A63FB681A68FB689A60FB6878
:103130001A68FB68DB6B013BF968096C01FB03F360
:103140001A44FB68DA60FB684FF0FF325A64FB6890
:103150004FF0FF329A643B68002B0ED1FB681B696D
:10316000002B14D0FB681033184601F009FA03460F
:10317000012B0CD102F0DCFA09E0FB681033184691
:10318000FFF708FFFB6824331846FFF703FF02F040
:10319000EFFA012318461037BD4680BD80B588B0D0
:1031A00000AFF860B9601346FB710023BB61BB68D8
:1031B000002B02D10023FB6105E0FB68BA6802FB2B
:1031C00003F30133FB61FB694C33184602F03AFB11
:1031D00078617B69002B17D0BB68002B03D17B691A
:1031E0007A691A6004E07B6903F14C027B691A601A
:1031F0007B69FA68DA637B69BA681A6478690121C5
:10320000FFF77AFF7B69BB61BB6918462037BD4673
:1032100080BD00BF80B58AB000AFF860B9607A6049
:103220003B6000237B62FB683B6202F091FA3B6AE1
:103230009A6B3B6ADB6B9A4202D33B68022B1DD12F
:10324000386AB9683A6800F049FAF8613B6A5B6A23
:10325000002B0AD03B6A2433184601F091F903464B
:10326000012B07D102F064FA04E0FB69002B01D0C6
:1032700002F05EFA02F07CFA012359E07B68002B31
:1032800003D102F075FA002352E07B6A002B06D1CD
:1032900007F11403184601F013FA01237B6202F0D0
:1032A00067FA00F031FF02F053FA3B6A5B6CB3F14E
:1032B000FF3F02D13B6A00225A643B6A9B6CB3F128
:1032C000FF3F02D13B6A00229A6402F051FA07F1F3
:1032D00014023B1D1046194601F008FA0346002B64
:1032E0001ED1386A00F0F6FA0346002B12D03B6A72
:1032F00003F110027B681046194601F0ABF8386AFA
:1033000000F072FA00F00EFF0346002B0FD102F01E
:103310000FFA0CE0386A00F067FA00F003FF84E768
:10332000386A00F061FA00F0FDFE002300E07CE75F
:1033300018462837BD4680BD80B588B000AFF8601C
:10334000B9607A603B60FB68BB6102F023FA786188
:10335000BB699A6BBB69DB6B9A4202D33B68022B59
:1033600024D1B869B9683A6800F0B8F9BB699B6CB8
:10337000B3F1FF3F12D1BB695B6A002B13D0BB696D
:103380002433184601F0FCF80346002B0BD07B6871
:10339000002B08D07B6801221A6004E0BB699B6C9B
:1033A0005A1CBB699A640123FB6101E00023FB61A5
:1033B000786902F0F9F9FB6918462037BD4680BDEF
:1033C00080B586B000AF786039607B683B6102F001
:1033D000E1F9F8603B699A6B3B69DB6B9A4224D256
:1033E0003B699B6B5A1C3B699A633B699B6CB3F1CD
:1033F000FF3F12D13B695B6A002B13D03B6924333A
:10340000184601F0BDF80346002B0BD03B68002B9B
:1034100008D03B6801221A6004E03B699B6C5A1C8F
:103420003B699A6401237B6101E000237B61F868BA
:1034300002F0BAF97B6918461837BD4680BD00BF57
:1034400080B58AB000AFF860B9607A603B60002355
:103450007B62FB683B6202F07BF93B6A9B6B002B53
:1034600032D03B6ADB68FB61386AB96800F096F9D4
:103470003B68002B13D13B6A9B6B5A1E3B6A9A63D5
:103480003B6A1B69002B1BD03B6A1033184601F0C6
:1034900077F80346012B13D102F04AF910E03B6A9A
:1034A000FA69DA603B6A5B6A002B09D03B6A243315
:1034B000184601F065F80346002B01D002F038F9F8
:1034C00002F056F9012359E07B68002B03D102F08A
:1034D0004FF9002352E07B6A002B06D107F1140359
:1034E000184601F0EDF801237B6202F041F900F08B
:1034F0000BFE02F02DF93B6A5B6CB3F1FF3F02D18A
:103500003B6A00225A643B6A9B6CB3F1FF3F02D1D5
:103510003B6A00229A6402F02BF907F114023B1D6A
:103520001046194601F0E2F80346002B1ED1386A16
:1035300000F0A6F90346002B12D03B6A03F12402E7
:103540007B681046194600F085FF386A00F04CF998
:1035500000F0E8FD0346002B0FD102F0E9F80CE083
:10356000386A00F041F900F0DDFD74E7386A00F0D8
:103570003BF900F0D7FD002300E06CE71846283740
:10358000BD4680BD80B588B000AFF860B9607A6094
:10359000FB68BB6102F0FEF87861BB699B6B002B96
:1035A00028D0B869B96800F0F9F8BB699B6B5A1E5E
:1035B000BB699A63BB695B6CB3F1FF3F12D1BB6916
:1035C0001B69002B13D0BB691033184600F0D8FFDD
:1035D0000346002B0BD07B68002B08D07B680122B0
:1035E0001A6004E0BB695B6C5A1CBB695A64012316
:1035F000FB6101E00023FB61786902F0D5F8FB690B
:1036000018462037BD4680BD80B586B000AF7860D3
:1036100039607B683B6102F0BDF8F8603B699B6BE9
:10362000002B0CD03B69DB68BB603869396800F05F
:10363000B5F83B69BA68DA6001237B6101E00023D9
:103640007B61F86802F0B0F87B6918461837BD4610
:1036500080BD00BF80B584B000AF786002F078F81C
:103660007B689B6BFB6002F083F8FB6818461037A1
:10367000BD4680BD80B584B000AF78607B68FB60DC
:1036800002F066F8FB68DA6BFB689B6BD31ABB60D1
:1036900002F06EF8BB6818461037BD4680BD00BF0B
:1036A00080B485B000AF78607B689B6BFB60FB6883
:1036B00018461437BD465DF8047B704780B584B06A
:1036C00000AF78607B68FB60F86800F059F9F86833
:1036D00002F0FEF81037BD4680BD00BF80B586B051
:1036E00000AFF860B9607A6000237B61FB681B6CF7
:1036F000002B48D07B68002B1AD1FB689A68FB68C6
:103700001B6C1046B9681A4604F088FFFB689A687B
:10371000FB681B6C1A44FB689A60FB689A68FB683C
:103720005B689A422FD3FB681A68FB689A602AE0AC
:10373000FB68DA68FB681B6C1046B9681A4604F02F
:103740006DFFFB68DA68FB681B6C5B421A44FB6820
:10375000DA60FB68DA68FB681B689A4207D2FB688C
:103760005A68FB681B6C5B421A44FB68DA607B6832
:10377000022B08D1FB689B6B002B04D0FB689B6B72
:103780005A1EFB689A63FB689B6B5A1CFB689A6322
:103790007B6918461837BD4680BD00BF80B582B032
:1037A00000AF786039607B681B6C002B19D07B6898
:1037B000DA687B681B6C1A447B68DA607B68DA68BD
:1037C0007B685B689A4203D37B681A687B68DA601F
:1037D0007B68DA687B681B6C386811461A4604F00F
:1037E0001DFF0837BD4680BD80B582B000AF786050
:1037F00001F0AEFF14E07B685B6A002B0AD07B68A7
:103800002433184600F0BCFE0346002B03D000F022
:10381000B1FF00E008E07B689B6C5A1E7B689A64ED
:103820007B689B6C002BE6DC7B684FF0FF329A6470
:1038300001F09EFF01F08CFF14E07B681B69002BF8
:103840000FD07B681033184600F09AFE0346002B19
:1038500001D000F08FFF7B685B6C5A1E7B685A6456
:1038600000E003E07B685B6C002BE6DC7B684FF0DC
:10387000FF325A6401F07CFF0837BD4680BD00BFAF
:1038800080B584B000AF786001F062FF7B689B6B0D
:10389000002B02D10123FB6001E00023FB6001F05B
:1038A00067FFFB6818461037BD4680BD80B485B001
:1038B00000AF78607B689B6B002B02D10123FB601B
:1038C00001E00023FB60FB6818461437BD465DF835
:1038D000047B704780B584B000AF786001F038FF9A
:1038E0007B689A6B7B68DB6B9A4202D10123FB6099
:1038F00001E00023FB6001F03BFFFB681846103736
:10390000BD4680BD80B485B000AF78607B689A6B9F
:103910007B68DB6B9A4202D10123FB6001E000234C
:10392000FB60FB6818461437BD465DF8047B7047A2
:1039300080B485B000AF786039600023FB6014E08C
:103940000E4AFB6852F83330002B0BD10B49FB6851
:103950003A6841F83320094AFB68DB0013447A686F
:103960005A6005E0FB680133FB60FB68092BE7D96F
:103970001437BD465DF8047B704700BFDC3500207E
:1039800080B485B000AF78600023FB6010E00C4A83
:10399000FB68DB0013445A687B689A4205D1084AE9
:1039A000FB68002142F8331005E0FB680133FB603F
:1039B000FB68092BEBD91437BD465DF8047B7047D3
:1039C000DC35002080B586B000AFF860B9607A6061
:1039D000FB687B6101F0BCFE7B695B6CB3F1FF3F70
:1039E00002D17B6900225A647B699B6CB3F1FF3F73
:1039F00002D17B6900229A6401F0BAFE7B699B6B5D
:103A0000002B06D17B6924331846B9687A6800F028
:103A100087FD7869FFF7E8FE1837BD4680BD00BF17
:103A200080B58AB002AFF860B9603B601346FB8096
:103A3000FB881846396B01F009F8B861BB69002BA7
:103A400066D0BB691A6BFB8803F18043013B9B0086
:103A500013447B617B6923F007037B61FB88009340
:103A6000B869B968BA6A7B6B00F0A0FE7869F9683A
:103A70003A6801F0EBFD0246BB691A60FB6A002B55
:103A800002D0FB6ABA691A6001F062FE2C4B1B6817
:103A900001332B4A13602B4B1B68002B09D1294A99
:103AA000BB691360264B1B68012B0FD100F020FF70
:103AB0000CE0254B1B68002B08D1224B1B68DA6AEF
:103AC000BB6A9A4202D81F4ABB6913601F4B1B682E
:103AD00001331E4A1360BB69DA6A1D4B1B689A42A8
:103AE00003D9BB69DB6A1A4A1360BB69DA6A1346F9
:103AF0009B0013449B00174A1A44BB6904331046C9
:103B00001946FFF773FA0123FB6101F031FE02E071
:103B10004FF0FF33FB61FB69012B0BD10A4B1B6894
:103B2000002B07D0074B1B68DA6ABB6A9A4201D2A6
:103B300001F0FEFDFB6918462037BD4680BD00BF81
:103B4000700D0020980C00207C0D00208C0D0020B2
:103B5000780D00209C0C002080B584B000AF786008
:103B600001F0F6FD7B68002B02D11D4B1B6800E0C5
:103B70007B68FB60FB6804331846FFF793FAFB6829
:103B80009B6A002B04D0FB6818331846FFF78AFAAB
:103B9000FB68043313481946FFF728FA124B1B68D9
:103BA0000133114A1360114B1B6801330F4A136034
:103BB00001F0DEFD0E4B1B68002B0DD0084B1B687F
:103BC000FA689A4202D101F0B3FD05E001F0C0FDB0
:103BD00000F078FF01F0CCFD1037BD4680BD00BF7E
:103BE000980C0020440D0020580D00208C0D002062
:103BF0007C0D002080B586B000AF7860396000236E
:103C00007B6100F081FA1F4B1B683B617B681A687F
:103C10003B681344FB607B681A683B699A420BD986
:103C20007B681A68FB689A4211D9FA683B699A4224
:103C30000DD901237B610AE07B681A68FB689A4210
:103C400003D8FA683B699A4201D901237B617B68FA
:103C5000FA681A607B69002B08D00B4B1B68043391
:103C60001846FFF71FFAF86800F0BAFE00F05AFA9B
:103C7000B860BB68002B01D101F05AFD1837BD4672
:103C800080BD00BF740D0020980C002080B584B06A
:103C900000AF78600023FB607B68002B12D000F03F
:103CA00033FA0C4B1A687B681344BB600A4B1B68E1
:103CB00004331846FFF7F6F9B86800F091FE00F0FB
:103CC00031FAF860FB68002B01D101F031FD1037AB
:103CD000BD4680BD740D0020980C002080B584B0D6
:103CE00000AF786001F034FD7B68002B02D1074BF8
:103CF0001B6800E07B68FB60FB68DB6ABB6001F06F
:103D000037FDBB6818461037BD4680BD980C0020B3
:103D100080B586B000AF786001F03CFD78617B68CB
:103D2000002B02D1074B1B6800E07B683B613B69BD
:103D3000DB6AFB60786901F037FDFB6818461837CD
:103D4000BD4680BD980C002080B586B000AF78607D
:103D5000396000237B613B68042B01D904233B605D
:103D600001F0F6FC7B68002B02D1354B1B6800E0AC
:103D70007B683B613B69DB6AFB60FA683B689A429F
:103D800059D03A68FB689A420DD92D4B1B683A69A5
:103D90009A420FD02A4B1B68DA6A3B689A4209D8CC
:103DA00001237B6106E0264B1B683A699A4201D1E8
:103DB00001237B613B69DB6ABB603B693A68DA627D
:103DC0003B699B69002B04DB3B68C3F105023B693F
:103DD0009A613B695969BA6813469B0013449B007A
:103DE000184A1344994201D1012300E00023002B1B
:103DF0001CD03B6904331846FFF754F93B69DA6A73
:103E0000114B1B689A4203D93B69DB6A0E4A136067
:103E10003B69DA6A13469B0013449B00094A1A4423
:103E20003B69043310461946FFF7E0F87B69012B24
:103E300001D101F07DFC01F09BFC1837BD4680BD2F
:103E4000980C00209C0C0020780D002080B584B0D8
:103E500000AF786001F07CFC7B68002B02D1204B26
:103E60001B6800E07B68FB60FB6804331846FFF7C3
:103E700019F9FB689B6A002B04D0FB6818331846BD
:103E8000FFF710F9FB68043316481946FFF7AEF840
:103E900001F06EFC124B1B68FA689A4213D1124B68
:103EA0001B68002B02D001F043FC16E00D4B1A6892
:103EB0000E4B1B689A4203D1094B00221A600CE09A
:103EC00000F07CFA09E0084B1B68002B05D001F0DC
:103ED0003FFC00F0F7FD01F04BFC1037BD4680BD04
:103EE000980C00205C0D00207C0D0020700D00203F
:103EF00080B485B000AF78600023FB607B68BB6056
:103F0000BB685B690F4A934201D1012300E00023A3
:103F1000002B0FD0BB689B6A0B4A93420AD0BB6848
:103F20009B6A002B01D1012300E00023002B01D06C
:103F30000123FB60FB6818461437BD465DF8047B1F
:103F4000704700BF5C0D0020300D002080B584B0AC
:103F500000AF78607B68FB60FB68002B34D01C4BA3
:103F60001B68FA689A422FD001F0F2FBF868FFF75D
:103F7000BFFF0346012B25D1FB6804331846FFF72A
:103F800091F8FB68DA6A134B1B689A4203D9FB6805
:103F9000DB6A104A1360FB68DA6A13469B0013441D
:103FA0009B000D4A1A44FB68043310461946FFF77C
:103FB0001DF8FB68DA6A064B1B68DB6A9A4201D37C
:103FC00001F0B6FB01F0D4FB1037BD4680BD00BF49
:103FD000980C0020780D00209C0C002080B586B045
:103FE00000AF786000237B617B683B6101F0D2FB0E
:103FF000F8603869FFF77CFF0346012B30D11C4B7A
:104000001B68002B26D13B69DA6A1A4B1B68DB6AF6
:104010009A4201D301237B613B6904331846FFF7C1
:1040200041F83B69DA6A144B1B689A4203D93B6931
:10403000DB6A114A13603B69DA6A13469B0013443A
:104040009B000E4A1A443B69043310461946FEF79A
:10405000CDFF05E03B69183309481946FEF7C6FF56
:10406000F86801F0A1FB7B6918461837BD4680BD92
:10407000940D0020980C0020780D00209C0C00204E
:10408000300D002080B586B004AF002300930023DC
:1040900001930023029300230393104810498022C8
:1040A0000023FFF7BDFC78607B68012B02D100F094
:1040B000D5FF78607B68012B0DD101F06BFB094BBC
:1040C0004FF0FF321A60084B01221A60074B0022A2
:1040D0001A6001F00DFB0837BD4680BD8D47000812
:1040E0001C9C0008900D00207C0D0020740D002009
:1040F00080B500AF01F04EFB024B00221A6001F0C8
:1041000011FB80BD7C0D002080B400AF044B1B6808
:104110000133034A1360BD465DF8047B704700BF5E
:10412000940D002080B582B000AF00237B6001F0C9
:104130000FFB334B1B68013B314A1360304B1B684C
:10414000002B56D12F4B1B68002B52D02FE02E4B4B
:10415000DB68DB683B603B6818331846FEF7A2FF5C
:104160003B6804331846FEF79DFF3B68DA6A274B2D
:104170001B689A4203D93B68DB6A244A13603B6898
:10418000DA6A13469B0013449B00214A1A443B6899
:10419000043310461946FEF729FF3B68DA6A1D4BC7
:1041A0001B68DB6A9A4202D31B4B01221A60164B32
:1041B0001B68002BCBD1194B1B68002B11D00CE0D6
:1041C00000F05CF80346002B02D0134B01221A606A
:1041D000124B1B68013B114A1360104B1B68002BEC
:1041E000EED10D4B1B68012B03D101237B6001F045
:1041F0009FFA01F0BDFA7B6818460837BD4680BDBE
:10420000940D0020700D0020300D0020780D00204E
:104210009C0C0020980C0020840D0020800D0020B4
:1042200080B483B000AF054B1B687B607B68184689
:104230000C37BD465DF8047B704700BF740D00204D
:1042400080B483B000AF00237B60054B1B683B60EC
:104250003B6818460C37BD465DF8047B704700BFCD
:10426000740D002080B400AF034B1B681846BD4698
:104270005DF8047B704700BF700D002080B586B0EC
:1042800000AF00237B61424B1B68002B70D1414B78
:104290001B6801333F4A13603E4B1B683B613B691F
:1042A000002B10D13C4B1B68FB603C4B1B683A4A0F
:1042B00013603A4AFB681360394B1B680133384A74
:1042C000136000F0FFFB374B1B683A699A424ED3EC
:1042D000314B1B681B68002B01D1012300E0002338
:1042E000002B04D02F4B4FF0FF321A603FE02A4BD7
:1042F0001B68DB68DB68BB60BB685B687B603A6936
:104300007B689A4203D2274A7B6813602FE0BB6820
:1043100004331846FEF7C6FEBB689B6A002B04D028
:10432000BB6818331846FEF7BDFEBB68DA6A1E4B41
:104330001B689A4203D9BB68DB6A1B4A1360BB68DF
:10434000DA6A13469B0013449B00184A1A44BB6860
:10435000043310461946FEF749FEBB68DA6A144B6F
:104360001B68DB6A9A4201D301237B61B0E704E05A
:10437000104B1B6801330F4A13600F4B1B68002B57
:1043800001D001237B617B6918461837BD4680BD8B
:10439000940D0020740D0020280D00202C0D00200D
:1043A000880D0020900D0020780D00209C0C00202E
:1043B000980C0020800D0020840D002080B483B074
:1043C00000AF1F4B1B68002B03D01E4B01221A604D
:1043D00031E01C4B00221A6004E01B4B1B68013BC0
:1043E000194A1360184B1A68184913469B00134466
:1043F0009B000B441B68002BEFD0134B1A6813462D
:104400009B0013449B00114A13447B607B685B68EC
:104410005A687B685A607B685A687B6808339A429E
:1044200004D17B685B685A687B685A607B685B680C
:10443000DB68074A13600C37BD465DF8047B7047A4
:10444000940D0020840D0020780D00209C0C00208D
:10445000980C002080B584B000AF78603960124BB2
:104460001B68183378681946FEF7E4FD0E4B1B688D
:1044700004331846FEF716FE3B68B3F1FF3F07D141
:10448000094B1B68043309481946FEF7AFFD07E0E6
:10449000074B1A683B681344FB60F86800F0A0FA09
:1044A0001037BD4680BD00BF980C00205C0D002079
:1044B000740D002080B586B000AFF860B9607A60F6
:1044C000144B1B68BA6842F000429A61114B1B689A
:1044D0001833F8681946FEF789FD0E4B1B68043344
:1044E0001846FEF7DFFD7B68B3F1FF3F07D1094BAC
:1044F0001B68043308481946FEF778FD07E0074BB0
:104500001A687B6813447B61786900F069FA183790
:10451000BD4680BD980C00205C0D0020740D00206D
:1045200080B586B000AFF860B9607A60114B1B6847
:104530001833F8681946FEF759FD0E4B1B68043313
:104540001846FEF7AFFD7B68012B07D1094B1B68AE
:10455000043309481946FEF749FD07E0074B1A687E
:10456000BB6813447B61786900F03AFA1837BD469E
:1045700080BD00BF980C00205C0D0020740D002051
:1045800080B584B000AF78607B68DB68DB68BB60B7
:10459000BB6818331846FEF785FD1E4B1B68002BC1
:1045A0001DD1BB6804331846FEF77CFDBB68DA6A90
:1045B000194B1B689A4203D9BB68DB6A164A136021
:1045C000BB68DA6A13469B0013449B00134A1A44E3
:1045D000BB68043310461946FEF708FD05E0BB68CA
:1045E00018330F481946FEF701FDBB68DA6A0D4B18
:1045F0001B68DB6A9A4205D90123FB600A4B012242
:104600001A6001E00023FB60FB6818461037BD46C6
:1046100080BD00BF940D0020780D00209C0C002070
:10462000300D0020980C0020840D002080B584B04F
:1046300000AF786039603B6843F000427B681A60E5
:104640007B68DB68BB607868FEF72CFDBB680433D1
:104650001846FEF727FDBB68DA6A154B1B689A42BD
:1046600003D9BB68DB6A124A1360BB68DA6A134677
:104670009B0013449B000F4A1A44BB680433104646
:104680001946FEF7B3FCBB68DA6A0B4B1B68DB6AA2
:104690009A4205D90123FB60084B01221A6001E010
:1046A0000023FB60FB6818461037BD4680BD00BF85
:1046B000780D00209C0C0020980C0020840D002018
:1046C00080B483B000AF7860064B1A687B681A60CC
:1046D000054B1A687B685A600C37BD465DF8047B51
:1046E000704700BF880D0020740D002080B584B095
:1046F00000AF7860396001F02BF81C4B1B68BB6081
:104700003B681B68B3F1FF3F02D10023FB6026E04A
:104710007B681A68164B1B689A4207D07B685A68F8
:10472000BB689A4202D80123FB6018E07B685B6893
:10473000BA68D21A3B681B689A420ED23B681A6864
:104740007B685968BB68CB1A1A443B681A60786862
:10475000FFF7B6FF0023FB6001E00123FB6001F0DF
:1047600007F8FB6818461037BD4680BD740D002061
:10477000880D002080B400AF034B01221A60BD46B3
:104780005DF8047B704700BF840D002080B582B0C7
:1047900000AF786000F0EAF8034B1B68012B01D9E9
:1047A00000F0C6FFF6E700BF9C0C002080B586B085
:1047B00000AFF860B9607A603B6000237B6113E072
:1047C000BA687B6913441978FA687B6913443033FB
:1047D0000A461A71BA687B6913441B78002B00D112
:1047E00005E07B6901337B617B690F2BE8D9FB68AE
:1047F000002283F843207B68042B01D904237B60CB
:10480000FB687A68DA62FB6804331846FEF7E2FB5D
:10481000FB6818331846FEF7DDFBFB68FA681A617F
:104820007B68C3F10502FB689A61FB68FA685A620B
:1048300000237B6109E0FA687B6910339B00134415
:1048400000225A607B6901337B617B69042BF2D9BA
:10485000FB6800229A65FB68002283F85C20183709
:10486000BD4680BD80B487B000AFF860B9607A60A3
:10487000BB68042B0EDCFB68002B02D1084B1B68C5
:1048800000E0FB687B617A69BB6810339B001344CE
:104890007A685A601C37BD465DF8047B704700BFDC
:1048A000980C002080B485B000AF78603960002398
:1048B000FB603B68042B0FDC7B68002B02D10B4BA9
:1048C0001B6800E07B68BB60BA683B6810339B00E4
:1048D00013445B68FB6001E00023FB60FB68184643
:1048E0001437BD465DF8047B704700BF980C00206C
:1048F00080B582B000AF00237B600CE07A6813467D
:104900009B0013449B00114A13441846FEF742FBD8
:104910007B6801337B607B68042BEFD90C48FEF782
:1049200039FB0C48FEF736FB0B48FEF733FB0B4810
:10493000FEF730FB0A48FEF72DFB0A4B044A1A60CB
:10494000094B044A1A600837BD4680BD9C0C002004
:10495000000D0020140D0020300D0020440D00201B
:104960005C0D0020280D00202C0D002080B582B0A9
:1049700000AF28E0FFF7C8FB164B1B68002B0CBFED
:1049800001230023DBB27B60FFF7CCFB7B68002BAD
:1049900019D100F0DDFE0F4BDB68DB683B603B6844
:1049A00004331846FEF77EFB0B4B1B68013B0A4A9B
:1049B00013600A4B1B68013B084A136000F0D8FEE5
:1049C000386800F06FF8054B1B68002BD2D1083710
:1049D000BD4680BD440D0020700D0020580D002004
:1049E00080B582B000AF7860134B1B687A685A605C
:1049F000124B1B687A689A4209D2114B1A680E4B07
:104A00001B68043310461946FEF714FB10E00D4BEB
:104A10001A68094B1B68043310461946FEF70AFB57
:104A2000094B1B687A689A4202D2074A7B68136076
:104A30000837BD4680BD00BF980C0020740D0020D3
:104A40002C0D0020280D0020900D002080B584B092
:104A500000AF03463960FB803B68002B06D1FB8822
:104A60009B00184600F0EEFE034600E03B68BB608A
:104A7000BB68002B0ED0602000F0E4FEF860FB68FD
:104A8000002B03D0FB68BA681A6305E0B86800F031
:104A90001FFF01E00023FB60FB6818461037BD468E
:104AA00080BD00BF80B582B000AF78607B681B6BB3
:104AB000184600F00DFF786800F00AFF0837BD4681
:104AC00080BD00BF80B483B000AF0E4B1B681B6875
:104AD000002B01D1012300E00023002B04D00A4B5E
:104AE0004FF0FF321A6008E0064B1B68DB68DB689A
:104AF0007B607B685B68044A13600C37BD465DF8D9
:104B0000047B7047280D0020900D002080B483B0F6
:104B100000AF054B1B687B607B6818460C37BD46B1
:104B20005DF8047B704700BF980C002080B483B010
:104B300000AF0B4B1B68002B02D101237B6008E008
:104B4000084B1B68002B02D102237B6001E000238D
:104B50007B607B6818460C37BD465DF8047B704768
:104B60007C0D0020940D002080B483B000AF094B71
:104B70001B689B697B60074B1B68064A1268D26AF8
:104B8000C2F105029A617B6818460C37BD465DF894
:104B9000047B7047980C002080B584B000AF78602B
:104BA000396000F0D5FD264B1B689B6D002B23D18F
:104BB000234B1B68012283F85C203B68002B1BD031
:104BC0001F4B1B6804331846FEF76CFA3B68B3F1C1
:104BD000FF3F07D11A4B1B6804331A481946FEF7EA
:104BE00005FA07E0184B1A683B681344FB60F86845
:104BF000FFF7F6FE00F09CFD00F0BAFD00F0A8FD06
:104C00000F4B1B689B6DBB60BB68002B0CD07B6897
:104C1000002B04D00A4B1B6800229A6504E0084B65
:104C20001B689A6D013A9A65054B1B68002283F850
:104C30005C2000F09DFDBB6818461037BD4680BD66
:104C4000980C00205C0D0020740D002080B586B00B
:104C500000AFF860B9607A603B6000F079FD2E4BE0
:104C60001B6893F85C30DBB2022B2AD02A4B1B68FE
:104C7000996DFA68D2430A409A65274B1B68012256
:104C800083F85C203B68002B1BD0234B1B6804334C
:104C90001846FEF707FA3B68B3F1FF3F07D11E4BFA
:104CA0001B6804331D481946FEF7A0F907E01C4BAA
:104CB0001A683B6813443B613869FFF791FE00F0C6
:104CC00037FD00F055FD00F043FD7B68002B04D05C
:104CD000114B1B689A6D7B681A600F4B1B6893F829
:104CE0005C30DBB2012B02D100237B6108E00A4B70
:104CF0001B68996DBA68D2430A409A6501237B61AB
:104D0000054B1B68002283F85C2000F031FD7B69B5
:104D100018461837BD4680BD980C00205C0D002059
:104D2000740D002080B588B000AFF860B9603B60BA
:104D30001346FB710123FB61FB68BB6100F008FDBA
:104D40003B68002B03D0BB699A6D3B681A60BB6956
:104D500093F85C30FB75BB69022283F85C20FB7919
:104D6000042B28D801A252F823F000BFB74D000849
:104D7000814D00088F4D00089B4D0008A34D000891
:104D8000BB699A6DBB681A43BB699A6513E0BB693E
:104D90009B6D5A1CBB699A650DE0BB69BA689A6540
:104DA00009E0FB7D022B03D0BB69BA689A6501E07C
:104DB0000023FB6100BFFB7D012B25D1BB690433C0
:104DC0001846FEF76FF9BB69DA6A134B1B689A4203
:104DD00003D9BB69DB6A104A1360BB69DA6A134600
:104DE0009B0013449B000D4A1A44BB6904331046D0
:104DF0001946FEF7FBF8BB69DA6A094B1B68DB6AE8
:104E00009A4201D900F094FC00F0B2FCFB6918460C
:104E10002037BD4680BD00BF780D00209C0C0020CF
:104E2000980C002080B588B000AFF860B9603B6096
:104E30001346FB710123FB61FB68BB6100F0AAFC18
:104E400078613B68002B03D0BB699A6D3B681A60A0
:104E5000BB6993F85C30FB74BB69022283F85C2069
:104E6000FB79042B27D801A252F823F0B74E000893
:104E7000814E00088F4E00089B4E0008A34E00088C
:104E8000BB699A6DBB681A43BB699A6513E0BB693D
:104E90009B6D5A1CBB699A650DE0BB69BA689A653F
:104EA00009E0FB7C022B03D0BB69BA689A6501E07C
:104EB0000023FB6100BFFB7C012B34D11E4B1B6820
:104EC000002B1DD1BB6904331846FEF7EBF8BB6914
:104ED000DA6A1A4B1B689A4203D9BB69DB6A174A24
:104EE0001360BB69DA6A13469B0013449B00144AA3
:104EF0001A44BB69043310461946FEF777F805E0FB
:104F0000BB6918330F481946FEF770F8BB69DA6AB7
:104F10000D4B1B68DB6A9A4205D9BB6A002B02D095
:104F2000BB6A01221A60786900F03EFCFB691846F2
:104F30002037BD4680BD00BF940D0020780D0020B5
:104F40009C0C0020300D0020980C002080B586B00D
:104F500000AF786039607B687B6100F01BFC3861D2
:104F60007B6993F85C30FB737B69022283F85C20D9
:104F70007B699B6D5A1C7B699A65FB7B012B34D145
:104F80001D4B1B68002B1DD17B6904331846FEF7AF
:104F900089F87B69DA6A194B1B689A4203D97B69E5
:104FA000DB6A164A13607B69DA6A13469B00134476
:104FB0009B00134A1A447B69043310461946FEF7D6
:104FC00015F805E07B6918330E481946FEF70EF810
:104FD0007B69DA6A0C4B1B68DB6A9A4205D93B682D
:104FE000002B02D03B6801221A60386900F0DCFB1C
:104FF0001837BD4680BD00BF940D0020780D0020FD
:105000009C0C0020300D0020980C002080B584B04E
:1050100000AF78607B68BB60BB68002B02D10E4B91
:105020001B6800E0BB68BB6000F092FBBB6893F8B4
:105030005C30DBB2022B06D1BB68002283F85C2017
:105040000123FB6001E00023FB6000F091FBFB68A3
:1050500018461037BD4680BD980C002080B586B03C
:1050600004AF00237B6000F07FFA0C4B1B68002B21
:105070000ED0032300930023019300230293002307
:1050800003930748074980220023FEF7C9FC786094
:105090007B6818460837BD4680BD00BFC80D00209C
:1050A00015520008249C000880B586B000AFF86057
:1050B000B9607A603B60BB68002B02D100237B6142
:1050C0001CE0282000F0BEFB78617B69002B15D026
:1050D00000F04AFA7B69FA681A607B69BA689A61DB
:1050E0007B697A68DA617B693A681A627B693A6A35
:1050F0005A627B6904331846FDF76CFF7B691846DA
:105100001837BD4680BD00BF80B588B000AFF860DD
:10511000B9607A603B600023FB611D4B1B68002B6C
:1051200030D0BB683B617B687B61FB68BB61BB685F
:10513000052B1CDCFFF7FAFC0346022B0BD1144BAA
:105140001A6807F1100310461946BA6A0023FEF7E1
:1051500061F8F86116E00E4B1A6807F1100310466B
:10516000194600220023FEF755F8F8610AE0084BC3
:105170001A6807F11003104619463A680023FEF733
:10518000DBF8F861FB6918462037BD4680BD00BFDB
:10519000C80D002080B485B000AF78607B68FB60EC
:1051A000FB681B6818461437BD465DF8047B7047E2
:1051B00080B586B002AF78603960154B1B68DB683C
:1051C000DB68FB60FB6804331846FDF76BFFFB6888
:1051D000DB69012B15D1FB689A697B681344F86879
:1051E00019463A687B6800F0B1F80346012B08D1F4
:1051F00000230093F86800217A680023FFF784FFFA
:10520000B860FB685B6AF86898471037BD4680BD98
:10521000C00D002080B584B000AF786007F10803AE
:10522000184600F04FF8F860BB68F868194600F0BF
:1052300003F800F0CDF8F1E780B584B000AF7860F6
:105240003960FEF761FF07F10803184600F05EF8C9
:10525000F860BB68002B2BD13B68002B0AD17A6821
:10526000FB689A4206D8FEF75DFF7868F968FFF799
:105270009FFF1FE03B68002B08D0104B1B681B688A
:10528000002B0CBF01230023DBB23B600C4B1968E1
:105290007A68FB68D31A084619463A68FEF792FB0B
:1052A000FEF740FF0346002B04D100F041FA01E075
:1052B000FEF738FF1037BD4680BD00BFC40D00208B
:1052C000C80D002080B485B000AF78600E4B1B681D
:1052D0001B68002B0CBF01230023DBB21A467B683E
:1052E0001A607B681B68002B05D1074B1B68DB68C5
:1052F0001B68FB6001E00023FB60FB681846143765
:10530000BD465DF8047B7047C00D002080B584B0B9
:1053100000AF7860FEF784FFF8600B4B1B68FA68FB
:105320009A4205D200F0CEF87B6801221A6002E0B2
:105330007B6800221A60044AFB681360FB68184609
:105340001037BD4680BD00BFCC0D002080B586B0B3
:1053500000AFF860B9607A603B6000237B61FB6856
:10536000BA685A60FB68FA681A61BA687B689A4240
:1053700012D87A683B68D21AFB689B699A4202D3BA
:1053800001237B611BE0104B1A68FB680433104655
:105390001946FDF74FFE12E07A683B689A4206D242
:1053A000BA683B689A4202D301237B6107E0074B4E
:1053B0001A68FB68043310461946FDF73BFE7B690B
:1053C00018461837BD4680BDC40D0020C00D002012
:1053D00080B58AB002AF62E0BB68002B5FDB3B693F
:1053E000FB61FB695B69002B04D0FB690433184641
:1053F000FDF758FE3B1D1846FFF788FFB861BB68F4
:10540000092B4BD801A252F823F000BF35540008F5
:1054100035540008355400089F540008795400089A
:105420009554000835540008355400089F5400086E
:1054300079540008FA68FB699B691A44FB68F869AB
:105440001146BA69FFF782FF0346012B13D1FB69AE
:105450005B6AF8699847FB69DB69012B0BD1FA6835
:10546000FB699B691A4400230093F869002100231B
:10547000FFF74AFE786112E0FA68FB699A61FB69FE
:105480009A69BB691344F8691946BA69BB69FFF7A1
:105490005DFF04E0F86900F01BFA00E000BF084B74
:1054A0001A6807F108031046194600220023FDF789
:1054B000C7FF0346002B8FD12037BD4680BD00BFFC
:1054C000C80D002080B588B002AF37E0244B1B68C0
:1054D000DB681B687B61224B1B68DB68DB683B6118
:1054E0003B6904331846FDF7DDFD3B695B6A3869AB
:1054F00098473B69DB69012B20D13B699A697B693D
:105500001344FB60FA687B699A420ED93B69FA68DA
:105510005A603B693A691A61114B1A683B69043356
:1055200010461946FDF786FD08E000230093386910
:1055300000217A690023FFF7E7FDB860084B1B687C
:105540001B68002BC2D1064B1B687B60054B1B6898
:10555000034A1360034A7B6813601837BD4680BD59
:10556000C00D0020C40D002080B500AF00F0F0F8A1
:10557000124B1B68002B1DD11148FDF70BFD114884
:10558000FDF708FD104B0E4A1A60104B0D4A1A60C9
:105590000A200C210022FDF701FE0246074B1A608B
:1055A000064B1B68002B05D0044B1B6818460849A6
:1055B000FEF7BEF900F0DCF880BD00BFC80D00208A
:1055C000980D0020AC0D0020C00D0020C40D00205F
:1055D0002C9C000880B584B000AF78607B68FB60CD
:1055E00000F0B6F8FB685B69002B14BF01230023B1
:1055F000DBB2BB6000F0BCF8BB6818461037BD4694
:1056000080BD00BF80B584B000AF78607B68FB6070
:1056100000F09EF8FB681B6ABB6000F0A9F8BB684D
:1056200018461037BD4680BD80B584B000AF7860A5
:1056300039607B68FB6000F08BF8FB683A681A629F
:1056400000F096F81037BD4680BD00BF80B485B02D
:1056500000AFF860B9607A60FB68043BFB60FB68F0
:105660004FF080721A60FB68043BFB60BA68FB680D
:105670001A60FB68043BFB60094AFB681A60FB6820
:10568000143BFB607A68FB681A60FB68203BFB6098
:10569000FB6818461437BD465DF8047B704700BFB1
:1056A000A556000880B500AF00F074F8FEE700BF13
:1056B000074B19680868B0E8F00F80F30988BFF35A
:1056C0006F8F4FF0000080F311884EF00D0E704781
:1056D000980C00205A480068006880F3088862B679
:1056E00061B6BFF34F8FBFF36F8F00DF00BF00BF06
:1056F00080B500AF094A094B1B681360074A074B86
:105700001B68136000F08AF8054B00221A60FFF74F
:10571000E1FFFFF7C7FF0023184680BD20ED00E042
:105720002400002080B400AFBD465DF8047B7047C4
:1057300080B400AF054B4FF080521A60BFF34F8F1B
:10574000BFF36F8FBD465DF8047B704704ED00E04A
:1057500080B500AF00F01EF8044B1B680133034A0C
:105760001360BFF34F8FBFF36F8F80BD2400002005
:1057700080B500AF064B1B68013B054A1360044B24
:105780001B68002B02D1002000F00EF880BD00BF86
:1057900024000020EFF311804FF0040181F3118801
:1057A00070470023184600BF80F31188704700BF80
:1057B000EFF30980BFF36F8F0D4B1A6820E9F00FEC
:1057C00010602DE908404FF0040080F31188FEF7C7
:1057D000F5FD4FF0000080F31188BDE8084019681E
:1057E0000868B0E8F00F80F30988BFF36F8F704747
:1057F000980C002080B500AFFFF7CCFFFEF73EFD10
:105800000346002B03D0044B4FF080521A60002057
:10581000FFF7CAFF80BD00BF04ED00E080B400AF19
:10582000044B054A1A60054B07221A60BD465DF815
:10583000047B704714E000E07FA9030010E000E063
:1058400008ED00E080B584B000AF78600023FB6015
:105850007B6803F00703002B04D07B6823F0070369
:1058600008337B60FEF750FC164B1B68002B05D1FC
:10587000154B23F007031A46124B1A60134B1A6894
:105880007B68134442F2F772934213D80F4B1A68A5
:105890007B681A440D4B1B689A420BD9094B1A6856
:1058A0000A4B1B681344FB60084B1A687B6813445F
:1058B000064A1360FEF736FCFB6818461037BD46F3
:1058C00080BD00BFD4350020D80D0020D035002089
:1058D00080B483B000AF78600C37BD465DF8047BC0
:1058E000704700BF80B400AF034B00221A60BD4672
:1058F0005DF8047B704700BFD035002080B400AF56
:10590000044B1B68C3F51F5338331846BD465DF87A
:10591000047B7047D035002080B582B000AF78603E
:105920007B68B3F1804F08D10120012101F024FFF1
:105930000120002101F020FF66E07B68344A934299
:1059400008D10220012101F017FF0220002101F0FF
:1059500013FF59E07B682F4A934208D104200121AC
:1059600001F00AFF0420002101F006FF4CE07B68F3
:10597000294A934208D10820012101F0FDFE0820A8
:10598000002101F0F9FE3FE07B68244A934208D1F0
:105990001020012101F0F0FE1020002101F0ECFEAA
:1059A00032E07B681E4A934208D12020012101F099
:1059B000E3FE2020002101F0DFFE25E07B68194A8C
:1059C000934208D10420012101F0B8FE04200021F7
:1059D00001F0B4FE18E07B68134A934208D1082016
:1059E000012101F0ABFE0820002101F0A7FE0BE031
:1059F0007B680E4A934207D11020012101F09EFEE0
:105A00001020002101F09AFE0837BD4680BD00BF7E
:105A10000004004000080040000C0040001000405E
:105A20000014004000080140000C0140001001403B
:105A300080B485B000AF786039600023FB817B685B
:105A40001B88FB817B68B3F1804F0BD07B681C4ABD
:105A5000934207D07B681B4A934203D07B681A4A63
:105A6000934208D1FB8923F07003FB813B685A887D
:105A7000FB891343FB817B68144A93420CD07B68FB
:105A8000134A934208D0FB8923F44073FB813B689F
:105A90001A89FB891343FB817B68FA891A803B686A
:105AA0005A687B68DA623B681A887B681A857B686B
:105AB00001229A821437BD465DF8047B704700BF0F
:105AC0000004004000080040000C004000100040AE
:105AD0000014004080B483B000AF78607B684FF062
